{"project/contract/credit.sol":{"BlueCarbonAdminTokenRestricted":{"abi":[{"inputs":[{"internalType":"string","name":"name_","type":"string"},{"internalType":"string","name":"symbol_","type":"string"},{"internalType":"uint8","name":"decimals_","type":"uint8"},{"internalType":"address","name":"admin_","type":"address"}],"stateMutability":"nonpayable","type":"constructor"},{"inputs":[],"name":"AccessControlBadConfirmation","type":"error"},{"inputs":[{"internalType":"address","name":"account","type":"address"},{"internalType":"bytes32","name":"neededRole","type":"bytes32"}],"name":"AccessControlUnauthorizedAccount","type":"error"},{"inputs":[{"internalType":"address","name":"spender","type":"address"},{"internalType":"uint256","name":"allowance","type":"uint256"},{"internalType":"uint256","name":"needed","type":"uint256"}],"name":"ERC20InsufficientAllowance","type":"error"},{"inputs":[{"internalType":"address","name":"sender","type":"address"},{"internalType":"uint256","name":"balance","type":"uint256"},{"internalType":"uint256","name":"needed","type":"uint256"}],"name":"ERC20InsufficientBalance","type":"error"},{"inputs":[{"internalType":"address","name":"approver","type":"address"}],"name":"ERC20InvalidApprover","type":"error"},{"inputs":[{"internalType":"address","name":"receiver","type":"address"}],"name":"ERC20InvalidReceiver","type":"error"},{"inputs":[{"internalType":"address","name":"sender","type":"address"}],"name":"ERC20InvalidSender","type":"error"},{"inputs":[{"internalType":"address","name":"spender","type":"address"}],"name":"ERC20InvalidSpender","type":"error"},{"inputs":[],"name":"ReentrancyGuardReentrantCall","type":"error"},{"anonymous":false,"inputs":[{"indexed":true,"internalType":"address","name":"owner","type":"address"},{"indexed":true,"internalType":"address","name":"spender","type":"address"},{"indexed":false,"internalType":"uint256","name":"value","type":"uint256"}],"name":"Approval","type":"event"},{"anonymous":false,"inputs":[{"indexed":true,"internalType":"uint256","name":"projectId","type":"uint256"},{"indexed":true,"internalType":"address","name":"officer","type":"address"}],"name":"OfficerAssignedToProject","type":"event"},{"anonymous":false,"inputs":[{"indexed":true,"internalType":"address","name":"officer","type":"address"},{"indexed":true,"internalType":"address","name":"toUser","type":"address"},{"indexed":false,"internalType":"uint256","name":"amount","type":"uint256"}],"name":"OfficerDistributed","type":"event"},{"anonymous":false,"inputs":[{"indexed":true,"internalType":"address","name":"officer","type":"address"},{"indexed":false,"internalType":"string","name":"name","type":"string"},{"indexed":false,"internalType":"string","name":"designation","type":"string"},{"indexed":false,"internalType":"string","name":"area","type":"string"},{"indexed":false,"internalType":"string","name":"jurisdiction","type":"string"}],"name":"OfficerRegistered","type":"event"},{"anonymous":false,"inputs":[{"indexed":true,"internalType":"address","name":"officer","type":"address"},{"indexed":false,"internalType":"bool","name":"enabled","type":"bool"}],"name":"OfficerSet","type":"event"},{"anonymous":false,"inputs":[{"indexed":true,"internalType":"address","name":"officer","type":"address"},{"indexed":false,"internalType":"string","name":"name","type":"string"},{"indexed":false,"internalType":"string","name":"designation","type":"string"},{"indexed":false,"internalType":"string","name":"area","type":"string"},{"indexed":false,"internalType":"string","name":"jurisdiction","type":"string"}],"name":"OfficerUpdated","type":"event"},{"anonymous":false,"inputs":[{"indexed":true,"internalType":"uint256","name":"projectId","type":"uint256"},{"indexed":true,"internalType":"address","name":"owner","type":"address"},{"indexed":false,"internalType":"string","name":"name","type":"string"},{"indexed":false,"internalType":"string","name":"projectAddress","type":"string"}],"name":"ProjectAdded","type":"event"},{"anonymous":false,"inputs":[{"indexed":true,"internalType":"uint256","name":"projectId","type":"uint256"},{"indexed":true,"internalType":"address","name":"remover","type":"address"}],"name":"ProjectRemoved","type":"event"},{"anonymous":false,"inputs":[{"indexed":true,"internalType":"bytes32","name":"reportKey","type":"bytes32"},{"indexed":true,"internalType":"address","name":"recipient","type":"address"},{"indexed":false,"internalType":"uint256","name":"amount","type":"uint256"},{"indexed":false,"internalType":"string","name":"cid","type":"string"}],"name":"ReportApprovedAndMinted","type":"event"},{"anonymous":false,"inputs":[{"indexed":true,"internalType":"bytes32","name":"role","type":"bytes32"},{"indexed":true,"internalType":"bytes32","name":"previousAdminRole","type":"bytes32"},{"indexed":true,"internalType":"bytes32","name":"newAdminRole","type":"bytes32"}],"name":"RoleAdminChanged","type":"event"},{"anonymous":false,"inputs":[{"indexed":true,"internalType":"bytes32","name":"role","type":"bytes32"},{"indexed":true,"internalType":"address","name":"account","type":"address"},{"indexed":true,"internalType":"address","name":"sender","type":"address"}],"name":"RoleGranted","type":"event"},{"anonymous":false,"inputs":[{"indexed":true,"internalType":"bytes32","name":"role","type":"bytes32"},{"indexed":true,"internalType":"address","name":"account","type":"address"},{"indexed":true,"internalType":"address","name":"sender","type":"address"}],"name":"RoleRevoked","type":"event"},{"anonymous":false,"inputs":[{"indexed":true,"internalType":"address","name":"from","type":"address"},{"indexed":true,"internalType":"address","name":"to","type":"address"},{"indexed":false,"internalType":"uint256","name":"value","type":"uint256"}],"name":"Transfer","type":"event"},{"anonymous":false,"inputs":[{"indexed":true,"internalType":"address","name":"walletAddress","type":"address"},{"indexed":false,"internalType":"string","name":"firstName","type":"string"},{"indexed":false,"internalType":"string","name":"lastName","type":"string"},{"indexed":false,"internalType":"string","name":"district","type":"string"}],"name":"UserRegistered","type":"event"},{"anonymous":false,"inputs":[{"indexed":true,"internalType":"uint256","name":"projectId","type":"uint256"},{"indexed":true,"internalType":"uint256","name":"reportId","type":"uint256"},{"indexed":true,"internalType":"address","name":"approvedBy","type":"address"}],"name":"VerificationReportApproved","type":"event"},{"anonymous":false,"inputs":[{"indexed":true,"internalType":"uint256","name":"projectId","type":"uint256"},{"indexed":true,"internalType":"uint256","name":"reportId","type":"uint256"},{"indexed":true,"internalType":"address","name":"officer","type":"address"},{"indexed":false,"internalType":"uint256","name":"creditsRecommended","type":"uint256"}],"name":"VerificationReportSubmitted","type":"event"},{"anonymous":false,"inputs":[{"indexed":true,"internalType":"uint256","name":"projectId","type":"uint256"},{"indexed":false,"internalType":"enum BlueCarbonAdminTokenRestricted.VerificationStatus","name":"status","type":"uint8"},{"indexed":true,"internalType":"address","name":"officer","type":"address"}],"name":"VerificationStatusUpdated","type":"event"},{"inputs":[],"name":"ADMIN_ROLE","outputs":[{"internalType":"bytes32","name":"","type":"bytes32"}],"stateMutability":"view","type":"function"},{"inputs":[],"name":"DEFAULT_ADMIN_ROLE","outputs":[{"internalType":"bytes32","name":"","type":"bytes32"}],"stateMutability":"view","type":"function"},{"inputs":[],"name":"OFFICER_ROLE","outputs":[{"internalType":"bytes32","name":"","type":"bytes32"}],"stateMutability":"view","type":"function"},{"inputs":[{"internalType":"address","name":"walletAddress","type":"address"},{"internalType":"string","name":"name","type":"string"},{"internalType":"string","name":"designation","type":"string"},{"internalType":"string","name":"area","type":"string"},{"internalType":"string","name":"contracts","type":"string"},{"internalType":"string","name":"jurisdiction","type":"string"}],"name":"addOfficer","outputs":[],"stateMutability":"nonpayable","type":"function"},{"inputs":[{"internalType":"string","name":"name","type":"string"},{"internalType":"string","name":"description","type":"string"},{"internalType":"string","name":"projectType","type":"string"},{"internalType":"uint256","name":"startDate","type":"uint256"},{"internalType":"uint256","name":"endDate","type":"uint256"},{"internalType":"string","name":"projectAddress","type":"string"},{"internalType":"string","name":"city","type":"string"},{"internalType":"string","name":"state","type":"string"},{"internalType":"uint256","name":"landArea","type":"uint256"},{"internalType":"uint256","name":"estimatedCredits","type":"uint256"},{"internalType":"string","name":"ipfsUrl","type":"string"}],"name":"addProject","outputs":[],"stateMutability":"nonpayable","type":"function"},{"inputs":[{"internalType":"uint256","name":"amount","type":"uint256"}],"name":"adminBurn","outputs":[],"stateMutability":"nonpayable","type":"function"},{"inputs":[{"internalType":"address","name":"from","type":"address"},{"internalType":"uint256","name":"amount","type":"uint256"}],"name":"adminBurnFrom","outputs":[],"stateMutability":"nonpayable","type":"function"},{"inputs":[{"internalType":"address","name":"officer","type":"address"},{"internalType":"uint256","name":"amount","type":"uint256"}],"name":"adminTransferToOfficer","outputs":[],"stateMutability":"nonpayable","type":"function"},{"inputs":[{"internalType":"address","name":"owner","type":"address"},{"internalType":"address","name":"spender","type":"address"}],"name":"allowance","outputs":[{"internalType":"uint256","name":"","type":"uint256"}],"stateMutability":"view","type":"function"},{"inputs":[{"internalType":"bytes32","name":"","type":"bytes32"}],"name":"approvals","outputs":[{"internalType":"address","name":"submitter","type":"address"},{"internalType":"string","name":"cid","type":"string"},{"internalType":"uint256","name":"approvedAmount","type":"uint256"},{"internalType":"address","name":"recipient","type":"address"},{"internalType":"uint64","name":"approvedAt","type":"uint64"},{"internalType":"bool","name":"minted","type":"bool"}],"stateMutability":"view","type":"function"},{"inputs":[{"internalType":"address","name":"spender","type":"address"},{"internalType":"uint256","name":"value","type":"uint256"}],"name":"approve","outputs":[{"internalType":"bool","name":"","type":"bool"}],"stateMutability":"nonpayable","type":"function"},{"inputs":[{"internalType":"string","name":"cid","type":"string"},{"internalType":"address","name":"recipient","type":"address"},{"internalType":"uint256","name":"amount","type":"uint256"},{"internalType":"address","name":"submitter","type":"address"}],"name":"approveAndMint","outputs":[{"internalType":"bytes32","name":"reportKey","type":"bytes32"}],"stateMutability":"nonpayable","type":"function"},{"inputs":[{"internalType":"uint256","name":"projectId","type":"uint256"}],"name":"approveVerificationReport","outputs":[],"stateMutability":"nonpayable","type":"function"},{"inputs":[{"internalType":"uint256","name":"projectId","type":"uint256"},{"internalType":"address","name":"officer","type":"address"}],"name":"assignOfficerToProject","outputs":[],"stateMutability":"nonpayable","type":"function"},{"inputs":[{"internalType":"address","name":"account","type":"address"}],"name":"balanceOf","outputs":[{"internalType":"uint256","name":"","type":"uint256"}],"stateMutability":"view","type":"function"},{"inputs":[],"name":"burnedCumulative","outputs":[{"internalType":"uint256","name":"","type":"uint256"}],"stateMutability":"view","type":"function"},{"inputs":[{"internalType":"address","name":"walletAddress","type":"address"}],"name":"deactivateOfficer","outputs":[],"stateMutability":"nonpayable","type":"function"},{"inputs":[],"name":"decimals","outputs":[{"internalType":"uint8","name":"","type":"uint8"}],"stateMutability":"view","type":"function"},{"inputs":[],"name":"getAllOfficers","outputs":[{"internalType":"address[]","name":"","type":"address[]"}],"stateMutability":"view","type":"function"},{"inputs":[],"name":"getAllUsers","outputs":[{"internalType":"address[]","name":"","type":"address[]"}],"stateMutability":"view","type":"function"},{"inputs":[{"internalType":"address","name":"walletAddress","type":"address"}],"name":"getOfficer","outputs":[{"components":[{"internalType":"string","name":"name","type":"string"},{"internalType":"string","name":"designation","type":"string"},{"internalType":"string","name":"area","type":"string"},{"internalType":"string","name":"contracts","type":"string"},{"internalType":"string","name":"jurisdiction","type":"string"},{"internalType":"address","name":"walletAddress","type":"address"},{"internalType":"bool","name":"isActive","type":"bool"},{"internalType":"uint256","name":"assignedAt","type":"uint256"}],"internalType":"struct BlueCarbonAdminTokenRestricted.Officer","name":"","type":"tuple"}],"stateMutability":"view","type":"function"},{"inputs":[{"internalType":"address","name":"officerAddress","type":"address"}],"name":"getOfficerAssignedProjects","outputs":[{"internalType":"uint256[]","name":"","type":"uint256[]"}],"stateMutability":"view","type":"function"},{"inputs":[{"internalType":"string","name":"area","type":"string"}],"name":"getOfficersByArea","outputs":[{"internalType":"address[]","name":"","type":"address[]"}],"stateMutability":"view","type":"function"},{"inputs":[{"internalType":"string","name":"jurisdiction","type":"string"}],"name":"getOfficersByJurisdiction","outputs":[{"internalType":"address[]","name":"","type":"address[]"}],"stateMutability":"view","type":"function"},{"inputs":[{"internalType":"uint256","name":"projectId","type":"uint256"}],"name":"getProject","outputs":[{"components":[{"internalType":"string","name":"name","type":"string"},{"internalType":"string","name":"description","type":"string"},{"internalType":"string","name":"projectType","type":"string"},{"internalType":"uint256","name":"startDate","type":"uint256"},{"internalType":"uint256","name":"endDate","type":"uint256"},{"internalType":"string","name":"projectAddress","type":"string"},{"internalType":"string","name":"city","type":"string"},{"internalType":"string","name":"state","type":"string"},{"internalType":"uint256","name":"landArea","type":"uint256"},{"internalType":"uint256","name":"estimatedCredits","type":"uint256"},{"internalType":"string","name":"ipfsUrl","type":"string"},{"internalType":"address","name":"owner","type":"address"},{"internalType":"address","name":"assignedOfficer","type":"address"},{"internalType":"bool","name":"isActive","type":"bool"},{"internalType":"uint256","name":"createdAt","type":"uint256"},{"internalType":"enum BlueCarbonAdminTokenRestricted.VerificationStatus","name":"verificationStatus","type":"uint8"},{"internalType":"uint256","name":"verificationStartedAt","type":"uint256"},{"internalType":"uint256","name":"verificationCompletedAt","type":"uint256"}],"internalType":"struct BlueCarbonAdminTokenRestricted.Project","name":"","type":"tuple"}],"stateMutability":"view","type":"function"},{"inputs":[],"name":"getProjectCount","outputs":[{"internalType":"uint256","name":"","type":"uint256"}],"stateMutability":"view","type":"function"},{"inputs":[{"internalType":"bytes32","name":"role","type":"bytes32"}],"name":"getRoleAdmin","outputs":[{"internalType":"bytes32","name":"","type":"bytes32"}],"stateMutability":"view","type":"function"},{"inputs":[{"internalType":"address","name":"walletAddress","type":"address"}],"name":"getUser","outputs":[{"components":[{"internalType":"string","name":"firstName","type":"string"},{"internalType":"string","name":"lastName","type":"string"},{"internalType":"string","name":"phone","type":"string"},{"internalType":"string","name":"email","type":"string"},{"internalType":"string","name":"district","type":"string"},{"internalType":"address","name":"walletAddress","type":"address"},{"internalType":"bool","name":"isRegistered","type":"bool"},{"internalType":"uint256","name":"registeredAt","type":"uint256"}],"internalType":"struct BlueCarbonAdminTokenRestricted.User","name":"","type":"tuple"}],"stateMutability":"view","type":"function"},{"inputs":[{"internalType":"address","name":"userAddress","type":"address"}],"name":"getUserProjects","outputs":[{"internalType":"uint256[]","name":"","type":"uint256[]"}],"stateMutability":"view","type":"function"},{"inputs":[{"internalType":"string","name":"district","type":"string"}],"name":"getUsersByDistrict","outputs":[{"internalType":"address[]","name":"","type":"address[]"}],"stateMutability":"view","type":"function"},{"inputs":[{"internalType":"uint256","name":"projectId","type":"uint256"}],"name":"getVerificationReport","outputs":[{"components":[{"internalType":"uint256","name":"projectId","type":"uint256"},{"internalType":"address","name":"officerAddress","type":"address"},{"internalType":"uint256","name":"area","type":"uint256"},{"internalType":"uint256","name":"plots","type":"uint256"},{"internalType":"uint256","name":"uavFlights","type":"uint256"},{"internalType":"uint256","name":"biomass","type":"uint256"},{"internalType":"uint256","name":"uncertainty","type":"uint256"},{"internalType":"uint256","name":"creditsRecommended","type":"uint256"},{"internalType":"bool","name":"siteInspection","type":"bool"},{"internalType":"bool","name":"documentationVerified","type":"bool"},{"internalType":"bool","name":"measurementsValidated","type":"bool"},{"internalType":"bool","name":"qualityAssurance","type":"bool"},{"internalType":"string","name":"additionalNotes","type":"string"},{"internalType":"uint256","name":"submittedAt","type":"uint256"},{"internalType":"bool","name":"isApproved","type":"bool"},{"internalType":"address","name":"approvedBy","type":"address"},{"internalType":"uint256","name":"approvedAt","type":"uint256"}],"internalType":"struct BlueCarbonAdminTokenRestricted.VerificationReport","name":"","type":"tuple"}],"stateMutability":"view","type":"function"},{"inputs":[{"internalType":"uint256","name":"reportId","type":"uint256"}],"name":"getVerificationReportById","outputs":[{"components":[{"internalType":"uint256","name":"projectId","type":"uint256"},{"internalType":"address","name":"officerAddress","type":"address"},{"internalType":"uint256","name":"area","type":"uint256"},{"internalType":"uint256","name":"plots","type":"uint256"},{"internalType":"uint256","name":"uavFlights","type":"uint256"},{"internalType":"uint256","name":"biomass","type":"uint256"},{"internalType":"uint256","name":"uncertainty","type":"uint256"},{"internalType":"uint256","name":"creditsRecommended","type":"uint256"},{"internalType":"bool","name":"siteInspection","type":"bool"},{"internalType":"bool","name":"documentationVerified","type":"bool"},{"internalType":"bool","name":"measurementsValidated","type":"bool"},{"internalType":"bool","name":"qualityAssurance","type":"bool"},{"internalType":"string","name":"additionalNotes","type":"string"},{"internalType":"uint256","name":"submittedAt","type":"uint256"},{"internalType":"bool","name":"isApproved","type":"bool"},{"internalType":"address","name":"approvedBy","type":"address"},{"internalType":"uint256","name":"approvedAt","type":"uint256"}],"internalType":"struct BlueCarbonAdminTokenRestricted.VerificationReport","name":"","type":"tuple"}],"stateMutability":"view","type":"function"},{"inputs":[],"name":"getVerificationReportCount","outputs":[{"internalType":"uint256","name":"","type":"uint256"}],"stateMutability":"view","type":"function"},{"inputs":[{"internalType":"bytes32","name":"role","type":"bytes32"},{"internalType":"address","name":"account","type":"address"}],"name":"grantRole","outputs":[],"stateMutability":"nonpayable","type":"function"},{"inputs":[{"internalType":"bytes32","name":"role","type":"bytes32"},{"internalType":"address","name":"account","type":"address"}],"name":"hasRole","outputs":[{"internalType":"bool","name":"","type":"bool"}],"stateMutability":"view","type":"function"},{"inputs":[{"internalType":"address","name":"walletAddress","type":"address"}],"name":"isUserRegistered","outputs":[{"internalType":"bool","name":"","type":"bool"}],"stateMutability":"view","type":"function"},{"inputs":[],"name":"mintedCumulative","outputs":[{"internalType":"uint256","name":"","type":"uint256"}],"stateMutability":"view","type":"function"},{"inputs":[],"name":"name","outputs":[{"internalType":"string","name":"","type":"string"}],"stateMutability":"view","type":"function"},{"inputs":[{"internalType":"uint256","name":"","type":"uint256"}],"name":"officerAddresses","outputs":[{"internalType":"address","name":"","type":"address"}],"stateMutability":"view","type":"function"},{"inputs":[{"internalType":"address","name":"","type":"address"},{"internalType":"uint256","name":"","type":"uint256"}],"name":"officerAssignedProjects","outputs":[{"internalType":"uint256","name":"","type":"uint256"}],"stateMutability":"view","type":"function"},{"inputs":[{"internalType":"address","name":"","type":"address"}],"name":"officerDistributed","outputs":[{"internalType":"uint256","name":"","type":"uint256"}],"stateMutability":"view","type":"function"},{"inputs":[{"internalType":"address","name":"","type":"address"}],"name":"officerReceived","outputs":[{"internalType":"uint256","name":"","type":"uint256"}],"stateMutability":"view","type":"function"},{"inputs":[{"internalType":"address","name":"","type":"address"}],"name":"officers","outputs":[{"internalType":"string","name":"name","type":"string"},{"internalType":"string","name":"designation","type":"string"},{"internalType":"string","name":"area","type":"string"},{"internalType":"string","name":"contracts","type":"string"},{"internalType":"string","name":"jurisdiction","type":"string"},{"internalType":"address","name":"walletAddress","type":"address"},{"internalType":"bool","name":"isActive","type":"bool"},{"internalType":"uint256","name":"assignedAt","type":"uint256"}],"stateMutability":"view","type":"function"},{"inputs":[{"internalType":"string","name":"","type":"string"},{"internalType":"uint256","name":"","type":"uint256"}],"name":"officersByArea","outputs":[{"internalType":"address","name":"","type":"address"}],"stateMutability":"view","type":"function"},{"inputs":[{"internalType":"string","name":"","type":"string"},{"internalType":"uint256","name":"","type":"uint256"}],"name":"officersByJurisdiction","outputs":[{"internalType":"address","name":"","type":"address"}],"stateMutability":"view","type":"function"},{"inputs":[],"name":"pause","outputs":[],"stateMutability":"nonpayable","type":"function"},{"inputs":[],"name":"paused","outputs":[{"internalType":"bool","name":"","type":"bool"}],"stateMutability":"view","type":"function"},{"inputs":[],"name":"projectCount","outputs":[{"internalType":"uint256","name":"","type":"uint256"}],"stateMutability":"view","type":"function"},{"inputs":[{"internalType":"uint256","name":"","type":"uint256"}],"name":"projectToReportId","outputs":[{"internalType":"uint256","name":"","type":"uint256"}],"stateMutability":"view","type":"function"},{"inputs":[{"internalType":"uint256","name":"","type":"uint256"}],"name":"projects","outputs":[{"internalType":"string","name":"name","type":"string"},{"internalType":"string","name":"description","type":"string"},{"internalType":"string","name":"projectType","type":"string"},{"internalType":"uint256","name":"startDate","type":"uint256"},{"internalType":"uint256","name":"endDate","type":"uint256"},{"internalType":"string","name":"projectAddress","type":"string"},{"internalType":"string","name":"city","type":"string"},{"internalType":"string","name":"state","type":"string"},{"internalType":"uint256","name":"landArea","type":"uint256"},{"internalType":"uint256","name":"estimatedCredits","type":"uint256"},{"internalType":"string","name":"ipfsUrl","type":"string"},{"internalType":"address","name":"owner","type":"address"},{"internalType":"address","name":"assignedOfficer","type":"address"},{"internalType":"bool","name":"isActive","type":"bool"},{"internalType":"uint256","name":"createdAt","type":"uint256"},{"internalType":"enum BlueCarbonAdminTokenRestricted.VerificationStatus","name":"verificationStatus","type":"uint8"},{"internalType":"uint256","name":"verificationStartedAt","type":"uint256"},{"internalType":"uint256","name":"verificationCompletedAt","type":"uint256"}],"stateMutability":"view","type":"function"},{"inputs":[{"internalType":"string","name":"firstName","type":"string"},{"internalType":"string","name":"lastName","type":"string"},{"internalType":"string","name":"phone","type":"string"},{"internalType":"string","name":"email","type":"string"},{"internalType":"string","name":"district","type":"string"}],"name":"registerUser","outputs":[],"stateMutability":"nonpayable","type":"function"},{"inputs":[{"internalType":"uint256","name":"projectId","type":"uint256"}],"name":"rejectVerificationReport","outputs":[],"stateMutability":"nonpayable","type":"function"},{"inputs":[{"internalType":"uint256","name":"projectId","type":"uint256"}],"name":"removeProject","outputs":[],"stateMutability":"nonpayable","type":"function"},{"inputs":[{"internalType":"bytes32","name":"role","type":"bytes32"},{"internalType":"address","name":"callerConfirmation","type":"address"}],"name":"renounceRole","outputs":[],"stateMutability":"nonpayable","type":"function"},{"inputs":[{"internalType":"bytes32","name":"role","type":"bytes32"},{"internalType":"address","name":"account","type":"address"}],"name":"revokeRole","outputs":[],"stateMutability":"nonpayable","type":"function"},{"inputs":[{"internalType":"address","name":"officer","type":"address"},{"internalType":"bool","name":"enabled","type":"bool"}],"name":"setOfficer","outputs":[],"stateMutability":"nonpayable","type":"function"},{"inputs":[{"internalType":"uint256","name":"projectId","type":"uint256"}],"name":"startVerification","outputs":[],"stateMutability":"nonpayable","type":"function"},{"inputs":[{"internalType":"uint256","name":"projectId","type":"uint256"},{"internalType":"uint256","name":"area","type":"uint256"},{"internalType":"uint256","name":"plots","type":"uint256"},{"internalType":"uint256","name":"uavFlights","type":"uint256"},{"internalType":"uint256","name":"biomass","type":"uint256"},{"internalType":"uint256","name":"uncertainty","type":"uint256"},{"internalType":"uint256","name":"creditsRecommended","type":"uint256"},{"internalType":"bool","name":"siteInspection","type":"bool"},{"internalType":"bool","name":"documentationVerified","type":"bool"},{"internalType":"bool","name":"measurementsValidated","type":"bool"},{"internalType":"bool","name":"qualityAssurance","type":"bool"},{"internalType":"string","name":"additionalNotes","type":"string"}],"name":"submitVerificationReport","outputs":[],"stateMutability":"nonpayable","type":"function"},{"inputs":[{"internalType":"bytes4","name":"interfaceId","type":"bytes4"}],"name":"supportsInterface","outputs":[{"internalType":"bool","name":"","type":"bool"}],"stateMutability":"view","type":"function"},{"inputs":[],"name":"symbol","outputs":[{"internalType":"string","name":"","type":"string"}],"stateMutability":"view","type":"function"},{"inputs":[],"name":"totalSupply","outputs":[{"internalType":"uint256","name":"","type":"uint256"}],"stateMutability":"view","type":"function"},{"inputs":[{"internalType":"address","name":"to","type":"address"},{"internalType":"uint256","name":"value","type":"uint256"}],"name":"transfer","outputs":[{"internalType":"bool","name":"","type":"bool"}],"stateMutability":"nonpayable","type":"function"},{"inputs":[{"internalType":"address","name":"from","type":"address"},{"internalType":"address","name":"to","type":"address"},{"internalType":"uint256","name":"value","type":"uint256"}],"name":"transferFrom","outputs":[{"internalType":"bool","name":"","type":"bool"}],"stateMutability":"nonpayable","type":"function"},{"inputs":[],"name":"unpause","outputs":[],"stateMutability":"nonpayable","type":"function"},{"inputs":[{"internalType":"address","name":"walletAddress","type":"address"},{"internalType":"string","name":"name","type":"string"},{"internalType":"string","name":"designation","type":"string"},{"internalType":"string","name":"area","type":"string"},{"internalType":"string","name":"contracts","type":"string"},{"internalType":"string","name":"jurisdiction","type":"string"}],"name":"updateOfficer","outputs":[],"stateMutability":"nonpayable","type":"function"},{"inputs":[{"internalType":"uint256","name":"","type":"uint256"}],"name":"userAddresses","outputs":[{"internalType":"address","name":"","type":"address"}],"stateMutability":"view","type":"function"},{"inputs":[{"internalType":"address","name":"","type":"address"},{"internalType":"uint256","name":"","type":"uint256"}],"name":"userProjects","outputs":[{"internalType":"uint256","name":"","type":"uint256"}],"stateMutability":"view","type":"function"},{"inputs":[{"internalType":"address","name":"","type":"address"}],"name":"userReceived","outputs":[{"internalType":"uint256","name":"","type":"uint256"}],"stateMutability":"view","type":"function"},{"inputs":[{"internalType":"address","name":"","type":"address"}],"name":"users","outputs":[{"internalType":"string","name":"firstName","type":"string"},{"internalType":"string","name":"lastName","type":"string"},{"internalType":"string","name":"phone","type":"string"},{"internalType":"string","name":"email","type":"string"},{"internalType":"string","name":"district","type":"string"},{"internalType":"address","name":"walletAddress","type":"address"},{"internalType":"bool","name":"isRegistered","type":"bool"},{"internalType":"uint256","name":"registeredAt","type":"uint256"}],"stateMutability":"view","type":"function"},{"inputs":[{"internalType":"string","name":"","type":"string"},{"internalType":"uint256","name":"","type":"uint256"}],"name":"usersByDistrict","outputs":[{"internalType":"address","name":"","type":"address"}],"stateMutability":"view","type":"function"},{"inputs":[],"name":"verificationReportCount","outputs":[{"internalType":"uint256","name":"","type":"uint256"}],"stateMutability":"view","type":"function"},{"inputs":[{"internalType":"uint256","name":"","type":"uint256"}],"name":"verificationReports","outputs":[{"internalType":"uint256","name":"projectId","type":"uint256"},{"internalType":"address","name":"officerAddress","type":"address"},{"internalType":"uint256","name":"area","type":"uint256"},{"internalType":"uint256","name":"plots","type":"uint256"},{"internalType":"uint256","name":"uavFlights","type":"uint256"},{"internalType":"uint256","name":"biomass","type":"uint256"},{"internalType":"uint256","name":"uncertainty","type":"uint256"},{"internalType":"uint256","name":"creditsRecommended","type":"uint256"},{"internalType":"bool","name":"siteInspection","type":"bool"},{"internalType":"bool","name":"documentationVerified","type":"bool"},{"internalType":"bool","name":"measurementsValidated","type":"bool"},{"internalType":"bool","name":"qualityAssurance","type":"bool"},{"internalType":"string","name":"additionalNotes","type":"string"},{"internalType":"uint256","name":"submittedAt","type":"uint256"},{"internalType":"bool","name":"isApproved","type":"bool"},{"internalType":"address","name":"approvedBy","type":"address"},{"internalType":"uint256","name":"approvedAt","type":"uint256"}],"stateMutability":"view","type":"function"}],"evm":{"bytecode":{"linkReferences":{},"object":"60a0604052346200034e5762005f4a803803806200001d8162000352565b9283398101906080818303126200034e5780516001600160401b0391908281116200034e57836200005091830162000378565b60209384830151908482116200034e576200006d91840162000378565b9360408301519260ff841684036200034e5760600151936001600160a01b03851685036200034e57825181811162000259576003908154906001958683811c9316801562000343575b868410146200032f578190601f93848111620002dc575b50869084831160011462000279575f926200026d575b50505f1982851b1c191690861b1782555b8751928311620002595760049384548681811c911680156200024e575b828210146200023b57828111620001f3575b50809184116001146200018457509082916200015e985f9362000178575b505082851b925f19911b1c19161790555b600655608052620003e8565b50604051615ad090816200047a8239608051816139f10152f35b015191505f8062000141565b9297601f198916855f52845f20945f905b828210620001db575050918993916200015e9a88969410620001c1575b50505050811b01905562000152565b01519060f8845f19921b161c191690555f808080620001b2565b80898698829497870151815501970194019062000195565b855f52815f208380870160051c82019284881062000231575b0160051c019087905b8281106200022557505062000123565b5f815501879062000215565b925081926200020c565b602286634e487b7160e01b5f525260245ffd5b90607f169062000111565b634e487b7160e01b5f52604160045260245ffd5b015190505f80620000e3565b90889350601f19831691865f52885f20925f5b8a828210620002c55750508411620002ad575b505050811b018255620000f4565b01515f1983871b60f8161c191690555f80806200029f565b8385015186558c979095019493840193016200028c565b909150845f52865f208480850160051c82019289861062000325575b918a91869594930160051c01915b82811062000316575050620000cd565b5f81558594508a910162000306565b92508192620002f8565b634e487b7160e01b5f52602260045260245ffd5b92607f1692620000b6565b5f80fd5b6040519190601f01601f191682016001600160401b038111838210176200025957604052565b919080601f840112156200034e5782516001600160401b0381116200025957602090620003ae601f8201601f1916830162000352565b928184528282870101116200034e575f5b818110620003d45750825f9394955001015290565b8581018301518482018401528201620003bf565b6001600160a01b03165f8181527f05b8ccbb9d4d8fb16ea74ce3c29a41f1b461fbdaff4714a0d9a8eb05499746bc602052604081205490919060ff16620004755781805260056020526040822081835260205260408220600160ff1982541617905533917f2f8788117e7eff1d82e926ec794901d17c78024a50270940304540a733656f0d8180a4600190565b509056fe6101006040526004361015610012575f80fd5b5f3560e01c8063010496fa146143c957806301ffc9a71461437357806304e82d29146143195780630502b8f61461429257806306fdde03146141ef578063084866dd146141b4578063095ea7b3146141325780630a8b669f146140fa5780630e8fb6d4146140c85780630f2a973c1461407f578063107046bd14613eaa578063125b0ed314613e8d578063130b812014613e55578063163f752214613e1257806317b03e6c14613daf57806318160ddd14613d925780631e572c0f14613d3e57806323b872dd14613c54578063248a9ca314613c2757806326f0611314613bf55780632b4bc862146139bb5780632f19673d14613ad35780632f2ff15d14613a965780632fa9c00714613a3f5780632fc6480a14613a15578063313ce567146139d857806332eaf9d2146139bb57806336568abe1461397457806336fbad261461391b5780633957e7a5146139385780633bcff3b01461391b5780633ca8b3da146132eb5780633f0b6bcb146130b15780633f4ba83a1461308d5780634719c01d14612fc4578063502c9bd514612f6a57806351fef12a14612e215780635873f99814612ce55780635c975abb14612cc35780635e58384d14612c35578063626eba5714612b945780636f77926b14612aeb57806370a0823114612ab45780637264953b14612a8d57806375b238fc146126035780638456cb5914612a6657806388d7c865146129d757806389e9fe80146128a45780638c80daec1461278557806391d148541461273c57806393fcdbda1461270457806395645192146126e757806395d89b4114612608578063a217fddf14612603578063a3197519146119f6578063a87430ba14611967578063a9059cbb14611936578063ab59a7ac146118aa578063ac9f0a401461153c578063b3638870146114bb578063badb97ff14611487578063be3f165614611414578063bf7c213114611380578063cdd09d3614610f46578063d05878971461099c578063d29c467114610872578063d547741f14610833578063d59b7f62146107d3578063dd62ed3e14610786578063e2842d79146106f9578063e32e723c146106765763f0f3f2c814610332575f80fd5b34610672576020366003190112610672575f6102206040516103538161448f565b606081526060602082015260606040820152826060820152826080820152606060a0820152606060c0820152606060e0820152826101008201528261012082015260606101408201528261016082015282610180820152826101a0820152826101c0820152826101e082015282610200820152015260043580151580610666575b6103dd906157f6565b5f52600f60205260405f20604051906103f58261448f565b6103fe81614623565b825261040c60018201614623565b602083015261041d60028201614623565b6040830152600381015460608301526004810154608083015261044260058201614623565b60a083015261045360068201614623565b60c083015261046460078201614623565b60e08301526008810154610100830152600981015461012083015261048b600a8201614623565b610140830152600b8101546001600160a01b03908116610160840152600c82015490811661018084015260a01c60ff90811615156101a0840152600d8201546101c0840152600e82015416906004821015610652576010916101e0840152600f81015461020084015201546102208201526040518091602082526102206105e56105b561059e61058861055e610548610532885161024060208c01526102608b01906145c6565b60208901518a8203601f190160408c01526145c6565b6040880151898203601f190160608b01526145c6565b60608701516080890152608087015160a089015260a0870151601f198983030160c08a01526145c6565b60c0860151878203601f190160e08901526145c6565b60e0850151868203601f19016101008801526145c6565b610100840151610120860152610120840151610140860152610140840151601f19868303016101608701526145c6565b9160018060a01b036101608201511661018085015260018060a01b03610180820151166101a08501526101a081015115156101c08501526101c08101516101e085015261063c6101e08201516102008601906147bd565b6102008101518285015201516102408301520390f35b634e487b7160e01b5f52602160045260245ffd5b506010548111156103d4565b5f80fd5b3461067257602080600319360112610672576001600160a01b03610698614579565b165f526011815260405f209060405190818184549182815201935f52815f20915f905b8282106106e2576106de856106d2818903826144ab565b604051918291826149f2565b0390f35b8354865294850194600193840193909101906106bb565b34610672575f3660031901126106725760405180600d5491828152602080910192600d5f527fd7b6990105719101dabeb77144f2a3385c8033acd3af97e9423a695e81ad1eb5915f905b828210610766576106de8561075a818903826144ab565b60405191829182614521565b83546001600160a01b031686529485019460019384019390910190610743565b346106725760403660031901126106725761079f614579565b6107a761458f565b9060018060a01b038091165f52600160205260405f2091165f52602052602060405f2054604051908152f35b346106725760206107fb6107e636614740565b929081604051938285809451938492016145a5565b8101600b81520301902080548210156106725760209161081a91614564565b905460405160039290921b1c6001600160a01b03168152f35b346106725760403660031901126106725761087060043561085261458f565b90805f52600560205261086b600160405f200154614a83565b614c2f565b005b346106725760203660031901126106725761088b6158b7565b506004355f52601560205260405f20546108a6811515615879565b5f5260136020526106de60405f20600c604051916108c383614457565b8054835260018060a01b03806001830154166020850152600282015460408501526003820154606085015260048201546080850152600582015460a0850152600682015460c0850152600782015460e085015260ff60088301548181161515610100870152818160081c161515610120870152818160101c16151561014087015260181c16151561016085015261095c60098301614623565b610180850152600a8201546101a0850152600b82015460ff811615156101c086015260081c166101e0840152015461020082015260405191829182614914565b34610672576109aa3661485d565b906109b6959295614a2c565b6001600160a01b0383165f908152600860205260409020600501546109e09060a01c60ff16615567565b6109ec85511515614fe7565b6109f886511515615023565b610a048251151561505f565b60018060a01b0383165f526008602052610a3483610a2f610a2a600260405f2001614623565b614771565b615691565b60018060a01b0383165f526008602052610a5f83610a2f610a5a600460405f2001614623565b614797565b6001600160a01b0383165f90815260086020526040902085516001600160401b038111610d7857610a9a81610a9484546145eb565b846150a3565b806020601f8211600114610ee3575f91610ed8575b508160011b915f199060031b1c19161790555b60018060a01b0383165f526008602052600160405f200184516001600160401b038111610d7857610af781610a9484546145eb565b806020601f8211600114610e75575f91610e6a575b508160011b915f199060031b1c19161790555b60018060a01b0383165f526008602052600260405f200186516001600160401b038111610d7857610b5481610a9484546145eb565b806020601f8211600114610e06575f91610dfb575b508160011b915f199060031b1c19161790555b60018060a01b0383165f526008602052600360405f2001908051906001600160401b038211610d78578190610bbb82610bb586546145eb565b866150a3565b602090601f8311600114610d97575f92610d8c575b50508160011b915f199060031b1c19161790555b6001600160a01b0382165f908152600860205260409020815195906004016001600160401b038711610d7857610c2487610c1e83546145eb565b836150a3565b602096601f8111600114610cf0579081610ce09493927fe11950fead99593edf185a281381b98c1a0b4c1d38592c0ddcc6de2876687fbd98995f91610ce5575b508160011b915f199060031b1c19161790555b610c9f846040516020818551610c908183858a016145a5565b8101600a8152030190206154dd565b610cc7846040516020818651610cb88183858b016145a5565b8101600b8152030190206154dd565b6040516001600160a01b0390941696939485948561551f565b0390a2005b90508401518a610c64565b601f198116825f5260205f20905f5b818110610d605750916001917fe11950fead99593edf185a281381b98c1a0b4c1d38592c0ddcc6de2876687fbd999a82610ce09897969510610d48575b5050811b019055610c77565b8601515f1960f88460031b161c191690558a80610d3c565b868b0151835560209a8b019a60019093019201610cff565b634e487b7160e01b5f52604160045260245ffd5b015190508880610bd0565b5f858152602081209350601f198516905b818110610de35750908460019594939210610dcb575b505050811b019055610be4565b01515f1960f88460031b161c19169055888080610dbe565b92936020600181928786015181550195019301610da8565b905088015189610b69565b9150825f5260205f205f925b8a601f1984168510610e5357506001935082601f19811610610e3b575b5050811b019055610b7c565b8a01515f1960f88460031b161c191690558980610e2f565b810151825560209384019360019092019101610e12565b905086015189610b0c565b9150825f5260205f205f925b601f1983168410610ec0576001935082601f19811610610ea8575b5050811b019055610b1f565b8801515f1960f88460031b161c191690558980610e9c565b88810151825560209384019360019092019101610e81565b905087015189610aaf565b9150825f5260205f205f925b601f1983168410610f2e576001935082601f19811610610f16575b5050811b019055610ac2565b8901515f1960f88460031b161c191690558980610f0a565b89810151825560209384019360019092019101610eef565b34610672576080366003190112610672576001600160401b03806004351161067257366023600435011215610672576004356004013511610672573660246004356004013560043501011161067257610f9d61458f565b6001600160a01b0390606435828116919082900361067257610fbd614a2c565b610fcc60ff6007541615615934565b8281161561134b57604435156113185760405160208101906004356004013560246004350183376110126020826004356004013581015f838201520380845201826144ab565b51902091825f52601660205260405f209060ff600383015460e01c166112db5760209484916001600160601b0360a01b84541617835560019261106960043560040135611061868401546145eb565b8684016150a3565b5f93601f6004356004013511600114611233577f0977838aa5ddf8ccf5aad9149ab57578b737639a2d4ea12879d57b718a48102293945f9060043560040135611223575b5060043560040135821b905f196004356004013560031b1c191617908201555b6003810180546044356002909301929092556001600160e81b0319909116858316174260a01b67ffffffffffffffff60a01b1617600160e01b1790556007546111199060ff1615615934565b611127604435600254615a2d565b6002558084165f525f865260405f20604435815401905560405160443581525f7fddf252ad1be2c89b69c2b068fc378daa952ba7f163c4a11628f55a4df523b3ef8884881693a361117c604435601754615a2d565b6017555f80516020615a3b8339815191525f526005865260405f208185165f52865260ff60405f205416611207575b6040519360443585526040878601526004356004013560408601526004356004013560246004350160608701375f606060043560040135870101521692606081601f19601f6004356004013501168101030190a3604051908152f35b6019865260405f2061121c6044358254615a2d565b90556111ab565b60249150600435010135896110ad565b8082015f52875f205f5b600480350135601f191681106112be575093947f0977838aa5ddf8ccf5aad9149ab57578b737639a2d4ea12879d57b718a4810229490600480350135601f1981161061129a575b50508060043560040135811b01908201556110cd565b60245f1960f86004356004013560031b161c19916004350101351690558880611284565b60043587016024013582559589019588955090820190890161123d565b60405162461bcd60e51b815260206004820152601560248201527414915413d49517d053149150511657d35253951151605a1b6044820152606490fd5b60405162461bcd60e51b815260206004820152600b60248201526a16915493d7d05353d5539560aa1b6044820152606490fd5b60405162461bcd60e51b815260206004820152600d60248201526c10905117d49150d25412515395609a1b6044820152606490fd5b34610672576020366003190112610672576004355f90815260166020526040902080546001600160a01b03919082169060ff6113be60018301614623565b9360036002840154930154906113e6604051968796875260c0602088015260c08701906145c6565b936040860152811660608501526001600160401b038160a01c16608085015260e01c16151560a08301520390f35b3461067257602080600319360112610672576001600160a01b03611436614579565b165f526012815260405f209060405190818184549182815201935f52815f20915f905b828210611470576106de856106d2818903826144ab565b835486529485019460019384019390910190611459565b34610672576020366003190112610672576114a0614a2c565b6114af60ff6007541615615934565b61087060043533615972565b34610672575f36600319011261067257604051806009549182815260208091019260095f527f6e1540171b6c0c960b71a7020d9f60077f6af931a8bbf590da0223dacf75c7af915f905b82821061151c576106de8561075a818903826144ab565b83546001600160a01b031686529485019460019384019390910190611505565b346106725760a0366003190112610672576001600160401b036004358181116106725761156d9036906004016144cc565b60248035838111610672576115869036906004016144cc565b6044918235858111610672576115a09036906004016144cc565b6064958635818111610672576115ba9036906004016144cc565b90608435908111610672576115d39036906004016144cc565b96335f52602095600c875260ff600560405f20015460a01c1661186a57875115611834578551156117ff578351156117ce5782511561179d5788511561176957505090611662916040519161162783614473565b8783528587840152604083015260608201528660808201523360a0820152600160c08201524260e0820152335f52600c855260405f206150f6565b600d5490600160401b821015611756576001820180600d558210156117435750611734611727937f509c70f523067009f7db7f46db6956d7af8b679323680dc3821a8bad001ac1e19593610ce093600d5f527fd7b6990105719101dabeb77144f2a3385c8033acd3af97e9423a695e81ad1eb501336001600160601b0360a01b825416179055611713604051836116ff8b838151938492016145a5565b810190600e825284813393030190206154dd565b6040519586956060875260608701906145c6565b91858303908601526145c6565b828103604084015233956145c6565b634e487b7160e01b5f9081526032600452fd5b634e487b7160e01b5f9081526041600452fd5b70111254d5149250d517d491545552549151607a1b87916011876040519462461bcd60e51b86526004860152840152820152fd5b6d115350525317d49154555254915160921b8791600e876040519462461bcd60e51b86526004860152840152820152fd5b6d141213d39157d49154555254915160921b8791600e876040519462461bcd60e51b86526004860152840152820152fd5b71131054d517d390535157d49154555254915160721b87916012876040519462461bcd60e51b86526004860152840152820152fd5b7211925494d517d390535157d491545552549151606a1b87916013876040519462461bcd60e51b86526004860152840152820152fd5b7f555345525f414c52454144595f5245474953544552454400000000000000000087916017876040519462461bcd60e51b86526004860152840152820152fd5b34610672576020366003190112610672576004356118c66158b7565b508015158061192a575b156118f2575f5260136020526106de60405f20600c604051916108c383614457565b60405162461bcd60e51b815260206004820152601060248201526f14915413d49517d393d517d193d5539160821b6044820152606490fd5b506014548111156118d0565b346106725760403660031901126106725761195c611952614579565b6024359033614ca4565b602060405160018152f35b34610672576020366003190112610672576001600160a01b0380611989614579565b165f52600c60205260405f20906106de6119a283614623565b6119ae60018501614623565b936119bb60028201614623565b916119c860038301614623565b6119d460048401614623565b90600660058501549401549460405198899860ff8760a01c16961694896146c4565b3461067257610160366003190112610672576004356001600160401b03811161067257611a279036906004016144cc565b6024356001600160401b03811161067257611a469036906004016144cc565b906044356001600160401b03811161067257611a669036906004016144cc565b9060a4356001600160401b03811161067257611a869036906004016144cc565b9260c4356001600160401b03811161067257611aa69036906004016144cc565b60e4356001600160401b03811161067257611ac59036906004016144cc565b610144356001600160401b03811161067257611ae59036906004016144cc565b91335f52600c60205260ff600560405f20015460a01c16156125be578451156125815783511561253c578551156124ff57606435156124c457606435608435111561247557865115612430578051156123fb578151156123c5576101043515612380576101243515612330578251156122f757611b6360105461566f565b958660105560405194611b758661448f565b86865260208601526040850152606435606085015260843560808501528660a085015260c084015260e08301526101043561010083015261012435610120830152610140820152336101608201525f61018082015260016101a0820152426101c08201525f6101e08201525f6102008201525f610220820152825f52600f60205260405f209181518051906001600160401b038211610d78578190611c2482611c1e88546145eb565b886150a3565b602090601f831160011461228f575f92612284575b50508160011b915f199060031b1c19161783555b60208201518051906001600160401b038211610d78578190611c7f82611c7660018901546145eb565b600189016150a3565b602090601f8311600114612216575f9261220b575b50508160011b915f199060031b1c19161760018401555b60408201518051906001600160401b038211610d78578190611cdd82611cd460028901546145eb565b600289016150a3565b602090601f831160011461219d575f92612192575b50508160011b915f199060031b1c19161760028401555b606082015160038401556080820151600484015560a08201518051906001600160401b038211610d78578190611d4f82611d4660058901546145eb565b600589016150a3565b602090601f8311600114612124575f92612119575b50508160011b915f199060031b1c19161760058401555b60c08201518051906001600160401b038211610d78578190611dad82611da460068901546145eb565b600689016150a3565b602090601f83116001146120ab575f926120a0575b50508160011b915f199060031b1c19161760068401555b60e08201518051906001600160401b038211610d78578190611e0b82611e0260078901546145eb565b600789016150a3565b602090601f8311600114612032575f92612027575b50508160011b915f199060031b1c19161760078401555b610100820151600884015561012082015160098401556101408201518051906001600160401b038211610d78578190611e8082611e77600a8901546145eb565b600a89016150a3565b602090601f8311600114611fb9575f92611fae575b50508160011b915f199060031b1c191617600a8401555b610160820151600b840180546001600160a01b039283166001600160a01b0319909116179055610180830151600c850180546101a086015160ff60a01b90151560a01b16929093166001600160a81b0319909316929092171790556101c0820151600d8401556101e082015192600e8101600485101561065257610220611f9a946010927f827808350d86a9e03c1d72b15e7b1d89ce816461667232ef2b55b41c5051dc209760ff80198354169116179055610200810151600f8501550151910155335f526011602052611f838460405f20615747565b611fa96040519283926040845260408401906145c6565b828103602084015233966145c6565b0390a3005b015190508780611e95565b9250600a86015f5260205f20905f935b601f198416851061200c576001945083601f19811610611ff4575b505050811b01600a840155611eac565b01515f1960f88460031b161c19169055878080611fe4565b81810151835560209485019460019093019290910190611fc9565b015190508780611e20565b9250600786015f5260205f20905f935b601f1984168510612085576001945083601f1981161061206d575b505050811b016007840155611e37565b01515f1960f88460031b161c1916905587808061205d565b81810151835560209485019460019093019290910190612042565b015190508780611dc2565b9250600686015f5260205f20905f935b601f19841685106120fe576001945083601f198116106120e6575b505050811b016006840155611dd9565b01515f1960f88460031b161c191690558780806120d6565b818101518355602094850194600190930192909101906120bb565b015190508780611d64565b9250600586015f5260205f20905f935b601f1984168510612177576001945083601f1981161061215f575b505050811b016005840155611d7b565b01515f1960f88460031b161c1916905587808061214f565b81810151835560209485019460019093019290910190612134565b015190508780611cf2565b9250600286015f5260205f20905f935b601f19841685106121f0576001945083601f198116106121d8575b505050811b016002840155611d09565b01515f1960f88460031b161c191690558780806121c8565b818101518355602094850194600190930192909101906121ad565b015190508780611c94565b9250600186015f5260205f20905f935b601f1984168510612269576001945083601f19811610612251575b505050811b016001840155611cab565b01515f1960f88460031b161c19169055878080612241565b81810151835560209485019460019093019290910190612226565b015190508780611c39565b9250855f5260205f20905f935b601f19841685106122dc576001945083601f198116106122c4575b505050811b018355611c4d565b01515f1960f88460031b161c191690558780806122b7565b8181015183556020948501946001909301929091019061229c565b60405162461bcd60e51b815260206004820152601160248201527012541194d7d5549317d491545552549151607a1b6044820152606490fd5b60405162461bcd60e51b815260206004820152602260248201527f455354494d415445445f435245444954535f4d5553545f42455f504f53495449604482015261564560f01b6064820152608490fd5b60405162461bcd60e51b815260206004820152601a60248201527f4c414e445f415245415f4d5553545f42455f504f5349544956450000000000006044820152606490fd5b60405162461bcd60e51b815260206004820152600e60248201526d14d510551157d49154555254915160921b6044820152606490fd5b60405162461bcd60e51b815260206004820152600d60248201526c10d2551657d491545552549151609a1b6044820152606490fd5b60405162461bcd60e51b815260206004820152601860248201527f50524f4a4543545f414444524553535f524551554952454400000000000000006044820152606490fd5b60405162461bcd60e51b815260206004820152602160248201527f454e445f444154455f4d5553545f42455f41465445525f53544152545f4441546044820152604560f81b6064820152608490fd5b60405162461bcd60e51b815260206004820152601360248201527214d510549517d110551157d491545552549151606a1b6044820152606490fd5b60405162461bcd60e51b8152602060048201526015602482015274141493d29150d517d516541157d491545552549151605a1b6044820152606490fd5b60405162461bcd60e51b815260206004820152601c60248201527f50524f4a4543545f4445534352495054494f4e5f5245515549524544000000006044820152606490fd5b60405162461bcd60e51b8152602060048201526015602482015274141493d29150d517d390535157d491545552549151605a1b6044820152606490fd5b60405162461bcd60e51b815260206004820152601760248201527f555345525f4d5553545f42455f524547495354455245440000000000000000006044820152606490fd5b6148fa565b34610672575f366003190112610672576040515f600454612628816145eb565b808452906001908181169081156126c05750600114612666575b6106de84612652818603826144ab565b6040519182916020835260208301906145c6565b60045f90815292507f8a35acfbc15ff81a39ae7d344fd709f28e8600b4aa8c65c6b64bfe7fe36bd19b5b8284106126a857505050810160200161265282612642565b80546020858701810191909152909301928101612690565b60ff191660208087019190915292151560051b850190920192506126529150839050612642565b34610672575f366003190112610672576020601754604051908152f35b34610672576020366003190112610672576001600160a01b03612725614579565b165f52601a602052602060405f2054604051908152f35b346106725760403660031901126106725761275561458f565b6004355f52600560205260405f209060018060a01b03165f52602052602060ff60405f2054166040519015158152f35b34610672576020366003190112610672576004355f52601360205260405f208054600160a01b60019003600183015416916002810154600382015491600481015460058201546006830154600784015490600885015492600986016127e990614623565b94600a87015498600b88015497600c0154986040519c8d9c8d5260208d015260408c015260608b015260808a015260a089015260c088015260e087015260ff811615156101008701528060081c60ff1615156101208701528060101c60ff16151561014087015260181c60ff161515610160860152610220806101808701528501612873916145c6565b6101a085019390935260ff811615156101c085015260081c6001600160a01b03166101e08401526102008301520390f35b34610672576040366003190112610672576004356128c061458f565b906128c9614a2c565b805f526020600f81526128e860ff600c60405f20015460a01c1661577b565b5f828152600f825260409020600c01546001600160a01b0390811661299257906012915f80516020615a3b8339815191525f526005825260405f20941693845f52815261293b60ff60405f2054166157bc565b825f52600f8152600c60405f2001846001600160601b0360a01b825416179055835f525261296c8160405f20615747565b7f75744be24424d6a47bbbe004b1eacc10689651bc26b2bbea30873c2c24109e645f80a3005b60405162461bcd60e51b815260048101839052601860248201527f4f4646494345525f414c52454144595f41535349474e454400000000000000006044820152606490fd5b34610672576020366003190112610672576004356129f3614a2c565b805f52600f602052612a1160ff600c60405f20015460a01c1661577b565b805f526015602052612a2860405f20541515615879565b805f52600f60205260405f20600e8101600360ff1982541617905560104291015560405190600382525f80516020615a7b83398151915260203393a3005b34610672575f36600319011261067257612a7e614a2c565b6007805460ff19166001179055005b34610672575f3660031901126106725760206040515f80516020615a3b8339815191528152f35b34610672576020366003190112610672576001600160a01b03612ad5614579565b165f525f602052602060405f2054604051908152f35b346106725760208060031936011261067257612b05614579565b612b0d6155a7565b506001600160a01b03165f818152600c8352604090206005015460a01c60ff1615612b59575f52600c8152612b4460405f206155e3565b906106de6040519282849384528301906147ca565b60405162461bcd60e51b81526004810183905260136024820152721554d15497d393d517d49151d254d511549151606a1b6044820152606490fd5b3461067257602080600319360112610672576004356001600160401b0381116106725781612bc9612bdc9236906004016144cc565b81604051938285809451938492016145a5565b8101600a8152030190209060405190818184549182815201935f52815f20915f905b828210612c15576106de8561075a818903826144ab565b83546001600160a01b031686529485019460019384019390910190612bfe565b3461067257602080600319360112610672576004356001600160401b0381116106725781612bc9612c6a9236906004016144cc565b8101600b8152030190209060405190818184549182815201935f52815f20915f905b828210612ca3576106de8561075a818903826144ab565b83546001600160a01b031686529485019460019384019390910190612c8c565b34610672575f36600319011261067257602060ff600754166040519015158152f35b34610672576020806003193601126106725760043590612d03614a2c565b81151580612e15575b612d15906157f6565b815f52600f815260ff600c60405f20015460a01c1615612dd157815f52600f815260018060a01b03600b60405f200154163314612d8d57600f90825f5252600c60405f200160ff60a01b19815416905533907fba1c16e049c7a348b951726f087bd968f9f40e6c64c8cf9ae55ed756ae6294405f80a3005b6064906040519062461bcd60e51b82526004820152601a60248201527f43414e4e4f545f52454d4f56455f4f574e5f50524f4a454354530000000000006044820152fd5b6064906040519062461bcd60e51b82526004820152601860248201527f50524f4a4543545f414c52454144595f494e41435449564500000000000000006044820152fd5b50601054821115612d0c565b346106725760208060031936011261067257600435612e3e614a2c565b805f52600f8252612e5b60ff600c60405f20015460a01c1661577b565b805f526015825260405f205491612e73831515615879565b825f526013815260ff600b60405f20015416612f26575f8381526013825260409020600b810180546001600160a81b0319163360081b610100600160a81b03161760011790555f80516020615a7b833981519152919060ff1990600c42910155835f52600f825260405f20906002600e830191825416179055601042910155604051933390847fafbd14bd2443e78a747c498b9bb972b104c1b045e856bacd1bddcd654efd99195f80a4600284523393a3005b6064906040519062461bcd60e51b82526004820152601760248201527f5245504f52545f414c52454144595f415050524f5645440000000000000000006044820152fd5b3461067257602036600319011261067257600435600d5481101561067257600d5f527fd7b6990105719101dabeb77144f2a3385c8033acd3af97e9423a695e81ad1eb501546040516001600160a01b039091168152602090f35b3461067257602036600319011261067257612fdd614579565b612fe5614a2c565b61306060018060a01b03821691825f52600860205261301060ff600560405f20015460a01c16615567565b825f52600860205261303d81610a2f610a2a600260405f206005810160ff60a01b19815416905501614623565b825f52600860205261305b81610a2f610a5a600460405f2001614623565b614baa565b507f30bd595e45ae31d69b2a46ec0c3825e96f059a6bca5d1bb010d7bb5b5a0851b960206040515f8152a2005b34610672575f366003190112610672576130a5614a2c565b6007805460ff19169055005b34610672576130bf3661485d565b939490926130cb614a2c565b6001600160a01b0382169586156132ad576130e881511515614fe7565b6130f484511515615023565b6131008651151561505f565b865f526020946008865260ff600560405f20015460a01c1661326f576040516131689161312c82614473565b838252848883015286604083015260608201528760808201528860a0820152600160c08201524260e0820152885f526008875260405f206150f6565b60095492600160401b841015610d7857600184018060095584101561325b577f30bd595e45ae31d69b2a46ec0c3825e96f059a6bca5d1bb010d7bb5b5a0851b996889561324161324e937fc5d4b575e5bdb27802d44e5cdbe4804d1c9b0c111cdf21a596835e7424e6c7c49760095f527f6e1540171b6c0c960b71a7020d9f60077f6af931a8bbf590da0223dacf75c7af01896001600160601b0360a01b825416179055613224816040518c818751610c908183858c016145a5565b61323c816040518c818851610cb88183858d016145a5565b614aa5565b506040519485948561551f565b0390a260405160018152a2005b634e487b7160e01b5f52603260045260245ffd5b60405162461bcd60e51b81526004810187905260166024820152754f4646494345525f414c52454144595f45584953545360501b6044820152606490fd5b60405162461bcd60e51b8152602060048201526016602482015275494e56414c49445f57414c4c45545f4144445245535360501b6044820152606490fd5b34610672576101803660031901126106725760e43580151581036106725761010435908115158203610672576101243580151581036106725761014435801515810361067257610164356001600160401b038111610672576133519036906004016144cc565b335f9081525f80516020615a5b833981519152602052604090205490929061337b9060ff166157bc565b6004355f52600f60205261339b60ff600c60405f20015460a01c1661577b565b6004355f908152600f60205260409020600c01546133c3906001600160a01b03163314615836565b6004355f52600f60205260ff600e60405f200154166004811015610652576001036138d65760243515613899576044351561385b576064351561381657608435156137d157606460a4351161378c5760c435156137475761342560145461566f565b94856014556040519461343786614457565b600435865233602087015260243560408701526044356060870152606435608087015260843560a087015260a43560c087015260c43560e08701521515610100860152151561012085015215156101408401521515610160830152610180820152426101a08201525f6101c08201525f6101e08201525f610200820152815f52601360205260405f2090805182556001820160018060a01b036020830151166001600160601b0360a01b82541617905560408101516002830155606081015160038301556080810151600483015560a0810151600583015560c0810151600683015560e08101516007830155600882016135446101008301511515829060ff801983541691151516179055565b6101208201511515815462ff000061014085015115159161ff0063ff000000610160880151151560181b169460081b169063ffffff001916179160101b16171790556101808101518051906001600160401b038211610d78576135b7826135ae60098701546145eb565b600987016150a3565b602090601f83116001146136d5579180600c9492610200945f926136ca575b50508160011b915f199060031b1c19161760098501555b6101a0810151600a850155613644600b850161361c6101c08401511515829060ff801983541691151516179055565b6101e08301518154610100600160a81b03191660089190911b610100600160a81b0316179055565b01519101556004355f5260156020528060405f2055600f60205260405f20600e8101600260ff198254161790556010429101556040519060c435825233917f7c67e1daa2aa74a8ce1cafa45a60e20be3f80e2375fc7063518ce1834e656ae3602060043592a46040516002815233905f80516020615a7b833981519152602060043592a3005b0151905087806135d6565b90600985015f5260205f20915f5b601f198516811061372f575092600c94926001926102009583601f19811610613717575b505050811b0160098501556135ed565b01515f1960f88460031b161c19169055878080613707565b919260206001819286850151815501940192016136e3565b60405162461bcd60e51b815260206004820152601860248201527f435245444954535f4d5553545f42455f504f53495449564500000000000000006044820152606490fd5b60405162461bcd60e51b815260206004820152601c60248201527f554e4345525441494e54595f4d5553545f42455f305f544f5f313030000000006044820152606490fd5b60405162461bcd60e51b815260206004820152601860248201527f42494f4d4153535f4d5553545f42455f504f53495449564500000000000000006044820152606490fd5b60405162461bcd60e51b815260206004820152601c60248201527f5541565f464c49474854535f4d5553545f42455f504f534954495645000000006044820152606490fd5b60405162461bcd60e51b8152602060048201526016602482015275504c4f54535f4d5553545f42455f504f53495449564560501b6044820152606490fd5b60405162461bcd60e51b8152602060048201526015602482015274415245415f4d5553545f42455f504f53495449564560581b6044820152606490fd5b60405162461bcd60e51b815260206004820152601c60248201527f564552494649434154494f4e5f4e4f545f494e5f50524f4752455353000000006044820152606490fd5b34610672575f366003190112610672576020601054604051908152f35b3461067257604036600319011261067257610870613954614579565b61395c614a2c565b61396b60ff6007541615615934565b60243590615972565b346106725760403660031901126106725761398d61458f565b336001600160a01b038216036139a95761087090600435614c2f565b60405163334bd91960e11b8152600490fd5b34610672575f366003190112610672576020601454604051908152f35b34610672575f36600319011261067257602060405160ff7f0000000000000000000000000000000000000000000000000000000000000000168152f35b34610672576020366003190112610672576004355f526015602052602060405f2054604051908152f35b3461067257604036600319011261067257613a58614579565b6001600160a01b03165f9081526011602052604090208054602435919082101561067257602091613a8891614564565b90546040519160031b1c8152f35b3461067257604036600319011261067257610870600435613ab561458f565b90805f526005602052613ace600160405f200154614a83565b614b31565b3461067257602080600319360112610672576004355f80516020615a3b8339815191525f526005825260405f20335f528252613b1560ff60405f2054166157bc565b805f52600f8252613b3260ff600c60405f20015460a01c1661577b565b5f818152600f835260409020600c0154613b56906001600160a01b03163314615836565b805f52600f825260ff600e60405f20015416600481101561065257613bb057805f52600f825260405f20600e8101600160ff19825416179055600f429101555f80516020615a7b83398151915260405192600184523393a3005b60405162461bcd60e51b815260048101839052601c60248201527f564552494649434154494f4e5f414c52454144595f53544152544544000000006044820152606490fd5b34610672576020613c086107e636614740565b8101600a81520301902080548210156106725760209161081a91614564565b34610672576020366003190112610672576004355f5260056020526020600160405f200154604051908152f35b3461067257606036600319011261067257613c6d614579565b613c7561458f565b6001600160a01b0382165f8181526001602090815260408083203384529091529020549260443592915f198510613cb2575b5061195c9350614ca4565b838510613d18578015613d00573315613ce85761195c9484915f52600160205260405f20335f526020520360405f205584613ca7565b604051634a1406b160e11b81525f6004820152602490fd5b60405163e602df0560e01b81525f6004820152602490fd5b604051637dc7a0d960e11b81523360048201526024810186905260448101859052606490fd5b3461067257602036600319011261067257613d57614579565b613d5f6155a7565b5060018060a01b03165f5260086020526106de613d7e60405f206155e3565b6040519182916020835260208301906147ca565b34610672575f366003190112610672576020600254604051908152f35b3461067257604036600319011261067257610870613dcb614579565b613dd3614a2c565b613de260ff6007541615615934565b6001600160a01b0381165f9081525f80516020615a5b83398151915260205260409020546119529060ff166157bc565b34610672576020366003190112610672576001600160a01b03613e33614579565b165f52600c602052602060ff600560405f20015460a01c166040519015158152f35b34610672576020366003190112610672576001600160a01b03613e76614579565b165f52601b602052602060405f2054604051908152f35b34610672575f366003190112610672576020601854604051908152f35b34610672576020366003190112610672576004355f52600f60205260405f20613ed281614623565b613ede60018301614623565b60e052613eed60028301614623565b60a052600382015491600481015460058201613f0890614623565b93613f1560068401614623565b94613f2260078501614623565b60088501546009860154613f38600a8801614623565b92600160a01b60019003998a600b8a015416608052600c89015495600d8a015497600e8b015460ff1699600f8c01549b601001549c6040518060c05261024080915260c05101613f87916145c6565b60c051808203906020015260e05190613f9f916145c6565b60c051808203906040015260a05190613fb7916145c6565b9160c0516060015260c0516080015260c0518082039060a00152613fda916145c6565b60c0518082039060c00152613fee916145c6565b60c0518082039060e00152614002916145c6565b9160c051610100015260c051610120015260c051808203906101400152614028916145c6565b9560805160c0516101600152811660c051610180015260a01c60ff16151560c0516101a0015260c0516101c0015260c0516101e001614066916147bd565b60c051610200015260c051610220015260c05180910390f35b3461067257604036600319011261067257614098614579565b6001600160a01b03165f9081526012602052604090208054602435919082101561067257602091613a8891614564565b346106725760206140db6107e636614740565b8101600e81520301902080548210156106725760209161081a91614564565b34610672576020366003190112610672576001600160a01b0361411b614579565b165f526019602052602060405f2054604051908152f35b346106725760403660031901126106725761414b614579565b602435903315613d00576001600160a01b0316908115613ce857335f52600160205260405f20825f526020528060405f20556040519081527f8c5be1e5ebec7d5bd14f71427d1e84f3dd0314c0f7b2291e5b200ac8c7c3b92560203392a3602060405160018152f35b34610672576020366003190112610672576001600160a01b03806141d6614579565b165f52600860205260405f20906106de6119a283614623565b34610672575f366003190112610672576040515f60035461420f816145eb565b808452906001908181169081156126c05750600114614238576106de84612652818603826144ab565b60035f90815292507fc2575a0e9e593c00f959f8c92f12db2869c3395a3b0502d05e2516446f71f85b5b82841061427a57505050810160200161265282612642565b80546020858701810191909152909301928101614262565b34610672576040366003190112610672576142ab614579565b6024359081151591828103610672577f30bd595e45ae31d69b2a46ec0c3825e96f059a6bca5d1bb010d7bb5b5a0851b9916020916142e7614a2c565b1561430a576142f581614aa5565b505b6040519384526001600160a01b031692a2005b61431381614baa565b506142f7565b34610672576020366003190112610672576004356009548110156106725760095f527f6e1540171b6c0c960b71a7020d9f60077f6af931a8bbf590da0223dacf75c7af01546040516001600160a01b039091168152602090f35b346106725760203660031901126106725760043563ffffffff60e01b811680910361067257602090637965db0b60e01b81149081156143b8575b506040519015158152f35b6301ffc9a760e01b149050826143ad565b3461067257602080600319360112610672576004356001600160401b0381116106725781612bc96143fe9236906004016144cc565b8101600e8152030190209060405190818184549182815201935f52815f20915f905b828210614437576106de8561075a818903826144ab565b83546001600160a01b031686529485019460019384019390910190614420565b61022081019081106001600160401b03821117610d7857604052565b61010081019081106001600160401b03821117610d7857604052565b61024081019081106001600160401b03821117610d7857604052565b90601f801991011681019081106001600160401b03821117610d7857604052565b81601f82011215610672578035906001600160401b038211610d785760405192614500601f8401601f1916602001856144ab565b8284526020838301011161067257815f926020809301838601378301015290565b602090816040818301928281528551809452019301915f5b828110614547575050505090565b83516001600160a01b031685529381019392810192600101614539565b805482101561325b575f5260205f2001905f90565b600435906001600160a01b038216820361067257565b602435906001600160a01b038216820361067257565b5f5b8381106145b65750505f910152565b81810151838201526020016145a7565b906020916145df815180928185528580860191016145a5565b601f01601f1916010190565b90600182811c92168015614619575b602083101461460557565b634e487b7160e01b5f52602260045260245ffd5b91607f16916145fa565b9060405191825f825492614636846145eb565b9081845260019485811690815f146146a15750600114614661575b505061465f925003836144ab565b565b909391505f52602090815f20935f915b81831061468957505061465f93508201015f80614651565b85548884018501529485019487945091830191614671565b91505061465f94506020925060ff191682840152151560051b8201015f80614651565b949193614709614725946146fb60e0999c9b9a976146ed61471796610100808d528c01906145c6565b908a820360208c01526145c6565b9088820360408a01526145c6565b9086820360608801526145c6565b9084820360808601526145c6565b6001600160a01b0390961660a0830152151560c08201520152565b604060031982011261067257600435906001600160401b0382116106725761476a916004016144cc565b9060243590565b602061478a9181604051938285809451938492016145a5565b8101600a81520301902090565b60206147b09181604051938285809451938492016145a5565b8101600b81520301902090565b9060048210156106525752565b9060e0806148356148236148116147ff6147ed8851610100808a528901906145c6565b602089015188820360208a01526145c6565b604088015187820360408901526145c6565b606087015186820360608801526145c6565b608086015185820360808701526145c6565b60a0808601516001600160a01b03169085015260c08086015115159085015293015191015290565b9060c060031983011261067257600480356001600160a01b038116810361067257926001600160401b03602435818111610672578261489d9185016144cc565b9360443582811161067257836148b49186016144cc565b9360643583811161067257846148cb9183016144cc565b9360843584811161067257816148e29184016144cc565b9360a435908111610672576148f792016144cc565b90565b34610672575f3660031901126106725760206040515f8152f35b602081528151602082015260018060a01b038060208401511660408301526040830151606083015260608301516080830152608083015160a083015260a083015160c083015260c083015160e083015260e083015161010090818401528301511515610120908184015283015115156101409081840152830151151561016090818401528301511515610180908184015283015192610220916149c46101a09584878701526102408601906145c6565b948201516101c0908186015282015115156101e0908186015282015116906102009182850152015191015290565b602090816040818301928281528551809452019301915f5b828110614a18575050505090565b835185529381019392810192600101614a0a565b335f9081527f05b8ccbb9d4d8fb16ea74ce3c29a41f1b461fbdaff4714a0d9a8eb05499746bc602052604081205460ff1615614a655750565b6044906040519063e2517d3f60e01b82523360048301526024820152fd5b805f52600560205260405f20335f5260205260ff60405f20541615614a655750565b6001600160a01b03165f8181525f80516020615a5b83398151915260205260408120549091905f80516020615a3b8339815191529060ff16614b2c5780835260056020526040832082845260205260408320600160ff198254161790557f2f8788117e7eff1d82e926ec794901d17c78024a50270940304540a733656f0d339380a4600190565b505090565b905f918083526005602052604083209160018060a01b03169182845260205260ff604084205416155f14614b2c5780835260056020526040832082845260205260408320600160ff198254161790557f2f8788117e7eff1d82e926ec794901d17c78024a50270940304540a733656f0d339380a4600190565b6001600160a01b03165f8181525f80516020615a5b83398151915260205260408120549091905f80516020615a3b8339815191529060ff1615614b2c578083526005602052604083208284526020526040832060ff1981541690557ff6391f5c32d9c69d2a47ea670b442974b53935d1edc7fd64eb21e047a839171b339380a4600190565b905f918083526005602052604083209160018060a01b03169182845260205260ff6040842054165f14614b2c578083526005602052604083208284526020526040832060ff1981541690557ff6391f5c32d9c69d2a47ea670b442974b53935d1edc7fd64eb21e047a839171b339380a4600190565b6001600160a01b0380821693928415614fcf5716928315614fb75760ff614ccf816007541615615934565b5f8281527f05b8ccbb9d4d8fb16ea74ce3c29a41f1b461fbdaff4714a0d9a8eb05499746bc60209081526040808320545f80516020615a5b83398151915283528184205491969395929492935f80516020615a3b83398151915293926005929084169084168015614fb0575b15614f7a57614eee575b8487528686528787205490898210614ebd57508890858852878752038787205588865286862088815401905588847fddf252ad1be2c89b69c2b068fc378daa952ba7f163c4a11628f55a4df523b3ef878a518c8152a3858052808552868620848752855281878720541680614ea3575b15614dd65750505050601990614dd2949583525220918254615a2d565b9055565b828697949895965280865283872088885286528184882054169283614e87575b83614e6b575b505050614e0c575b505050505050565b8084867f7fd452ddcdbd40375d72ae119897b67a769104e22b9abac90f671e9a3b1e12079652601a8552818120614e44858254615a2d565b9055878152601b855220614e59838254615a2d565b905551908152a35f8080808080614e04565b87528552828620888752855282862054161590505f8080614dfc565b8780528187528488208a89528752848820548316159350614df6565b508286528085528686208987528552818787205416614db5565b885163391434e360e21b81526001600160a01b03919091166004820152602481019190915260448101899052606490fd5b8680528186528787208a885286528288882054161580614f5f575b614d4557875162461bcd60e51b815260048101879052602560248201527f4f4646494345525f544f5f41444d494e5f4f525f4f4646494345525f464f524260448201526424a22222a760d91b6064820152608490fd5b508387528186528787208a8852865282888820541615614f09565b885162461bcd60e51b815260048101889052600f60248201526e1514905394d1915497d11153925151608a1b6044820152606490fd5b5080614d3b565b60405163ec442f0560e01b81525f6004820152602490fd5b604051634b637e8f60e11b81525f6004820152602490fd5b15614fee57565b60405162461bcd60e51b815260206004820152600d60248201526c1390535157d491545552549151609a1b6044820152606490fd5b1561502a57565b60405162461bcd60e51b815260206004820152600d60248201526c1054915057d491545552549151609a1b6044820152606490fd5b1561506657565b60405162461bcd60e51b81526020600482015260156024820152741295549254d11250d51253d397d491545552549151605a1b6044820152606490fd5b90601f81116150b157505050565b5f91825260208220906020601f850160051c830194106150ec575b601f0160051c01915b8281106150e157505050565b8181556001016150d5565b90925082906150cc565b90805180516001600160401b0391828211610d7857819061511b82611c1e88546145eb565b602090601f831160011461547a575f9261546f575b50508160011b915f199060031b1c19161783555b6001908184016020840151805190838211610d7857819061516982610bb586546145eb565b602090601f8311600114615410575f92615405575b50505f19600383901b1c191690841b1790555b600284016040840151805190838211610d785781906151b482610bb586546145eb565b602090601f83116001146153a6575f9261539b575b50505f19600383901b1c191690841b1790555b600384016060840151805190838211610d785781906151ff82610bb586546145eb565b602090601f831160011461533c575f92615331575b50505f19600383901b1c191690841b1790555b600484019160808401518051928311610d785761524883610bb586546145eb565b602090601f84116001146152c857928060e095938193600698965f946152bd575b50501b915f199060031b1c19161790555b60a08181015160058601805460c08501516001600160a81b03199091166001600160a01b03939093169290921791151590921b60ff60a01b161790550151910155565b015192505f80615269565b90601f93929319831691855f52815f20925f5b81811061531b5750916006979593918560e098969410615303575b505050811b01905561527a565b01515f1960f88460031b161c191690555f80806152f6565b82840151855593860193602093840193016152db565b015190505f80615214565b90869350601f19831691855f52815f20925f5b8181106153835750841161536b575b505050811b019055615227565b01515f1960f88460031b161c191690555f808061535e565b8284015185558996909401936020938401930161534f565b015190505f806151c9565b90869350601f19831691855f52815f20925f5b8181106153ed575084116153d5575b505050811b0190556151dc565b01515f1960f88460031b161c191690555f80806153c8565b828401518555899690940193602093840193016153b9565b015190505f8061517e565b90869350601f19831691855f52815f20925f5b8181106154575750841161543f575b505050811b019055615191565b01515f1960f88460031b161c191690555f8080615432565b82840151855589969094019360209384019301615423565b015190505f80615130565b5f8781528281209350601f198516905b8181106154c557509084600195949392106154ad575b505050811b018355615144565b01515f1960f88460031b161c191690555f80806154a0565b9293602060018192878601518155019501930161548a565b90815491600160401b831015610d78578261550091600161465f95018155614564565b90919082549060031b9160018060a01b03809116831b921b1916179055565b9261554b6148f7959361553d615559946080885260808801906145c6565b9086820360208801526145c6565b9084820360408601526145c6565b9160608184039101526145c6565b1561556e57565b60405162461bcd60e51b815260206004820152601160248201527013d1919250d15497d393d517d193d55391607a1b6044820152606490fd5b604051906155b482614473565b5f60e0836060808252806020830152806040830152808083015260808201528260a08201528260c08201520152565b906040516155f081614473565b60e0600682946155ff81614623565b845261560d60018201614623565b602085015261561e60028201614623565b604085015261562f60038201614623565b606085015261564060048201614623565b608085015260058101546001600160a01b03811660a0808701919091521c60ff16151560c08501520154910152565b5f19811461567d5760010190565b634e487b7160e01b5f52601160045260245ffd5b5f915b81549283811015615741576156a98184614564565b90546003956001600160a01b0392909190871b1c8216848316146156dc5750506156d59192935061566f565b9190615694565b9092505f199182820191821161567d57615500846156fd61570b9488614564565b905490891b1c169186614564565b8254801561572d57019261571f8484614564565b81939154921b1b1916905555565b634e487b7160e01b5f52603160045260245ffd5b50505050565b8054600160401b811015610d785761576491600182018155614564565b819291549060031b91821b915f19901b1916179055565b1561578257565b60405162461bcd60e51b815260206004820152601260248201527150524f4a4543545f4e4f545f41435449564560701b6044820152606490fd5b156157c357565b60405162461bcd60e51b815260206004820152600b60248201526a2727aa2fa7a32324a1a2a960a91b6044820152606490fd5b156157fd57565b60405162461bcd60e51b8152602060048201526011602482015270141493d29150d517d393d517d193d55391607a1b6044820152606490fd5b1561583d57565b60405162461bcd60e51b81526020600482015260146024820152732727aa2fa0a9a9a4a3a722a22fa7a32324a1a2a960611b6044820152606490fd5b1561588057565b60405162461bcd60e51b815260206004820152600f60248201526e1393d7d4915413d49517d193d55391608a1b6044820152606490fd5b604051906158c482614457565b816102005f918281528260208201528260408201528260608201528260808201528260a08201528260c08201528260e0820152826101008201528261012082015282610140820152826101608201526060610180820152826101a0820152826101c0820152826101e08201520152565b1561593b57565b60405162461bcd60e51b815260206004820152600f60248201526e10d3d395149050d517d4105554d151608a1b6044820152606490fd5b91906001600160a01b0383168015614fcf5761599360ff6007541615615934565b5f90808252816020526040822054948386106159fc5750826159f794958284528360205203604083205582600254036002557fddf252ad1be2c89b69c2b068fc378daa952ba7f163c4a11628f55a4df523b3ef6020604051858152a3601854615a2d565b601855565b60405163391434e360e21b81526001600160a01b039190911660048201526024810186905260448101849052606490fd5b9190820180921161567d5756febbecb2568601cb27e6ced525237c463da94c4fb7a9b98ac79fd30fd56d8e1b532fa8f587092d7d44a38a322af7507fcb499f2566c7778f70891c809523042b880ac8d813695d1bdb3648e7d9944ac94bb360cf2e92060ccb43dd19ad0f0f34caa2646970667358221220d9fe2e5c3ac6fa739dbb1d0cd127f7ad05f8b446cbc50d5c796492a4ed540d1064736f6c63430008140033","opcodes":"PUSH1 0xA0 PUSH1 0x40 MSTORE CALLVALUE PUSH3 0x34E JUMPI PUSH3 0x5F4A DUP1 CODESIZE SUB DUP1 PUSH3 0x1D DUP2 PUSH3 0x352 JUMP JUMPDEST SWAP3 DUP4 CODECOPY DUP2 ADD SWAP1 PUSH1 0x80 DUP2 DUP4 SUB SLT PUSH3 0x34E JUMPI DUP1 MLOAD PUSH1 0x1 PUSH1 0x1 PUSH1 0x40 SHL SUB SWAP2 SWAP1 DUP3 DUP2 GT PUSH3 0x34E JUMPI DUP4 PUSH3 0x50 SWAP2 DUP4 ADD PUSH3 0x378 JUMP JUMPDEST PUSH1 0x20 SWAP4 DUP5 DUP4 ADD MLOAD SWAP1 DUP5 DUP3 GT PUSH3 0x34E JUMPI PUSH3 0x6D SWAP2 DUP5 ADD PUSH3 0x378 JUMP JUMPDEST SWAP4 PUSH1 0x40 DUP4 ADD MLOAD SWAP3 PUSH1 0xFF DUP5 AND DUP5 SUB PUSH3 0x34E JUMPI PUSH1 0x60 ADD MLOAD SWAP4 PUSH1 0x1 PUSH1 0x1 PUSH1 0xA0 SHL SUB DUP6 AND DUP6 SUB PUSH3 0x34E JUMPI DUP3 MLOAD DUP2 DUP2 GT PUSH3 0x259 JUMPI PUSH1 0x3 SWAP1 DUP2 SLOAD SWAP1 PUSH1 0x1 SWAP6 DUP7 DUP4 DUP2 SHR SWAP4 AND DUP1 ISZERO PUSH3 0x343 JUMPI JUMPDEST DUP7 DUP5 LT EQ PUSH3 0x32F JUMPI DUP2 SWAP1 PUSH1 0x1F SWAP4 DUP5 DUP2 GT PUSH3 0x2DC JUMPI JUMPDEST POP DUP7 SWAP1 DUP5 DUP4 GT PUSH1 0x1 EQ PUSH3 0x279 JUMPI PUSH0 SWAP3 PUSH3 0x26D JUMPI JUMPDEST POP POP PUSH0 NOT DUP3 DUP6 SHL SHR NOT AND SWAP1 DUP7 SHL OR DUP3 SSTORE JUMPDEST DUP8 MLOAD SWAP3 DUP4 GT PUSH3 0x259 JUMPI PUSH1 0x4 SWAP4 DUP5 SLOAD DUP7 DUP2 DUP2 SHR SWAP2 AND DUP1 ISZERO PUSH3 0x24E JUMPI JUMPDEST DUP3 DUP3 LT EQ PUSH3 0x23B JUMPI DUP3 DUP2 GT PUSH3 0x1F3 JUMPI JUMPDEST POP DUP1 SWAP2 DUP5 GT PUSH1 0x1 EQ PUSH3 0x184 JUMPI POP SWAP1 DUP3 SWAP2 PUSH3 0x15E SWAP9 PUSH0 SWAP4 PUSH3 0x178 JUMPI JUMPDEST POP POP DUP3 DUP6 SHL SWAP3 PUSH0 NOT SWAP2 SHL SHR NOT AND OR SWAP1 SSTORE JUMPDEST PUSH1 0x6 SSTORE PUSH1 0x80 MSTORE PUSH3 0x3E8 JUMP JUMPDEST POP PUSH1 0x40 MLOAD PUSH2 0x5AD0 SWAP1 DUP2 PUSH3 0x47A DUP3 CODECOPY PUSH1 0x80 MLOAD DUP2 PUSH2 0x39F1 ADD MSTORE RETURN JUMPDEST ADD MLOAD SWAP2 POP PUSH0 DUP1 PUSH3 0x141 JUMP JUMPDEST SWAP3 SWAP8 PUSH1 0x1F NOT DUP10 AND DUP6 PUSH0 MSTORE DUP5 PUSH0 KECCAK256 SWAP5 PUSH0 SWAP1 JUMPDEST DUP3 DUP3 LT PUSH3 0x1DB JUMPI POP POP SWAP2 DUP10 SWAP4 SWAP2 PUSH3 0x15E SWAP11 DUP9 SWAP7 SWAP5 LT PUSH3 0x1C1 JUMPI JUMPDEST POP POP POP POP DUP2 SHL ADD SWAP1 SSTORE PUSH3 0x152 JUMP JUMPDEST ADD MLOAD SWAP1 PUSH1 0xF8 DUP5 PUSH0 NOT SWAP3 SHL AND SHR NOT AND SWAP1 SSTORE PUSH0 DUP1 DUP1 DUP1 PUSH3 0x1B2 JUMP JUMPDEST DUP1 DUP10 DUP7 SWAP9 DUP3 SWAP5 SWAP8 DUP8 ADD MLOAD DUP2 SSTORE ADD SWAP8 ADD SWAP5 ADD SWAP1 PUSH3 0x195 JUMP JUMPDEST DUP6 PUSH0 MSTORE DUP2 PUSH0 KECCAK256 DUP4 DUP1 DUP8 ADD PUSH1 0x5 SHR DUP3 ADD SWAP3 DUP5 DUP9 LT PUSH3 0x231 JUMPI JUMPDEST ADD PUSH1 0x5 SHR ADD SWAP1 DUP8 SWAP1 JUMPDEST DUP3 DUP2 LT PUSH3 0x225 JUMPI POP POP PUSH3 0x123 JUMP JUMPDEST PUSH0 DUP2 SSTORE ADD DUP8 SWAP1 PUSH3 0x215 JUMP JUMPDEST SWAP3 POP DUP2 SWAP3 PUSH3 0x20C JUMP JUMPDEST PUSH1 0x22 DUP7 PUSH4 0x4E487B71 PUSH1 0xE0 SHL PUSH0 MSTORE MSTORE PUSH1 0x24 PUSH0 REVERT JUMPDEST SWAP1 PUSH1 0x7F AND SWAP1 PUSH3 0x111 JUMP JUMPDEST PUSH4 0x4E487B71 PUSH1 0xE0 SHL PUSH0 MSTORE PUSH1 0x41 PUSH1 0x4 MSTORE PUSH1 0x24 PUSH0 REVERT JUMPDEST ADD MLOAD SWAP1 POP PUSH0 DUP1 PUSH3 0xE3 JUMP JUMPDEST SWAP1 DUP9 SWAP4 POP PUSH1 0x1F NOT DUP4 AND SWAP2 DUP7 PUSH0 MSTORE DUP9 PUSH0 KECCAK256 SWAP3 PUSH0 JUMPDEST DUP11 DUP3 DUP3 LT PUSH3 0x2C5 JUMPI POP POP DUP5 GT PUSH3 0x2AD JUMPI JUMPDEST POP POP POP DUP2 SHL ADD DUP3 SSTORE PUSH3 0xF4 JUMP JUMPDEST ADD MLOAD PUSH0 NOT DUP4 DUP8 SHL PUSH1 0xF8 AND SHR NOT AND SWAP1 SSTORE PUSH0 DUP1 DUP1 PUSH3 0x29F JUMP JUMPDEST DUP4 DUP6 ADD MLOAD DUP7 SSTORE DUP13 SWAP8 SWAP1 SWAP6 ADD SWAP5 SWAP4 DUP5 ADD SWAP4 ADD PUSH3 0x28C JUMP JUMPDEST SWAP1 SWAP2 POP DUP5 PUSH0 MSTORE DUP7 PUSH0 KECCAK256 DUP5 DUP1 DUP6 ADD PUSH1 0x5 SHR DUP3 ADD SWAP3 DUP10 DUP7 LT PUSH3 0x325 JUMPI JUMPDEST SWAP2 DUP11 SWAP2 DUP7 SWAP6 SWAP5 SWAP4 ADD PUSH1 0x5 SHR ADD SWAP2 JUMPDEST DUP3 DUP2 LT PUSH3 0x316 JUMPI POP POP PUSH3 0xCD JUMP JUMPDEST PUSH0 DUP2 SSTORE DUP6 SWAP5 POP DUP11 SWAP2 ADD PUSH3 0x306 JUMP JUMPDEST SWAP3 POP DUP2 SWAP3 PUSH3 0x2F8 JUMP JUMPDEST PUSH4 0x4E487B71 PUSH1 0xE0 SHL PUSH0 MSTORE PUSH1 0x22 PUSH1 0x4 MSTORE PUSH1 0x24 PUSH0 REVERT JUMPDEST SWAP3 PUSH1 0x7F AND SWAP3 PUSH3 0xB6 JUMP JUMPDEST PUSH0 DUP1 REVERT JUMPDEST PUSH1 0x40 MLOAD SWAP2 SWAP1 PUSH1 0x1F ADD PUSH1 0x1F NOT AND DUP3 ADD PUSH1 0x1 PUSH1 0x1 PUSH1 0x40 SHL SUB DUP2 GT DUP4 DUP3 LT OR PUSH3 0x259 JUMPI PUSH1 0x40 MSTORE JUMP JUMPDEST SWAP2 SWAP1 DUP1 PUSH1 0x1F DUP5 ADD SLT ISZERO PUSH3 0x34E JUMPI DUP3 MLOAD PUSH1 0x1 PUSH1 0x1 PUSH1 0x40 SHL SUB DUP2 GT PUSH3 0x259 JUMPI PUSH1 0x20 SWAP1 PUSH3 0x3AE PUSH1 0x1F DUP3 ADD PUSH1 0x1F NOT AND DUP4 ADD PUSH3 0x352 JUMP JUMPDEST SWAP3 DUP2 DUP5 MSTORE DUP3 DUP3 DUP8 ADD ADD GT PUSH3 0x34E JUMPI PUSH0 JUMPDEST DUP2 DUP2 LT PUSH3 0x3D4 JUMPI POP DUP3 PUSH0 SWAP4 SWAP5 SWAP6 POP ADD ADD MSTORE SWAP1 JUMP JUMPDEST DUP6 DUP2 ADD DUP4 ADD MLOAD DUP5 DUP3 ADD DUP5 ADD MSTORE DUP3 ADD PUSH3 0x3BF JUMP JUMPDEST PUSH1 0x1 PUSH1 0x1 PUSH1 0xA0 SHL SUB AND PUSH0 DUP2 DUP2 MSTORE PUSH32 0x5B8CCBB9D4D8FB16EA74CE3C29A41F1B461FBDAFF4714A0D9A8EB05499746BC PUSH1 0x20 MSTORE PUSH1 0x40 DUP2 KECCAK256 SLOAD SWAP1 SWAP2 SWAP1 PUSH1 0xFF AND PUSH3 0x475 JUMPI DUP2 DUP1 MSTORE PUSH1 0x5 PUSH1 0x20 MSTORE PUSH1 0x40 DUP3 KECCAK256 DUP2 DUP4 MSTORE PUSH1 0x20 MSTORE PUSH1 0x40 DUP3 KECCAK256 PUSH1 0x1 PUSH1 0xFF NOT DUP3 SLOAD AND OR SWAP1 SSTORE CALLER SWAP2 PUSH32 0x2F8788117E7EFF1D82E926EC794901D17C78024A50270940304540A733656F0D DUP2 DUP1 LOG4 PUSH1 0x1 SWAP1 JUMP JUMPDEST POP SWAP1 JUMP INVALID PUSH2 0x100 PUSH1 0x40 MSTORE PUSH1 0x4 CALLDATASIZE LT ISZERO PUSH2 0x12 JUMPI PUSH0 DUP1 REVERT JUMPDEST PUSH0 CALLDATALOAD PUSH1 0xE0 SHR DUP1 PUSH4 0x10496FA EQ PUSH2 0x43C9 JUMPI DUP1 PUSH4 0x1FFC9A7 EQ PUSH2 0x4373 JUMPI DUP1 PUSH4 0x4E82D29 EQ PUSH2 0x4319 JUMPI DUP1 PUSH4 0x502B8F6 EQ PUSH2 0x4292 JUMPI DUP1 PUSH4 0x6FDDE03 EQ PUSH2 0x41EF JUMPI DUP1 PUSH4 0x84866DD EQ PUSH2 0x41B4 JUMPI DUP1 PUSH4 0x95EA7B3 EQ PUSH2 0x4132 JUMPI DUP1 PUSH4 0xA8B669F EQ PUSH2 0x40FA JUMPI DUP1 PUSH4 0xE8FB6D4 EQ PUSH2 0x40C8 JUMPI DUP1 PUSH4 0xF2A973C EQ PUSH2 0x407F JUMPI DUP1 PUSH4 0x107046BD EQ PUSH2 0x3EAA JUMPI DUP1 PUSH4 0x125B0ED3 EQ PUSH2 0x3E8D JUMPI DUP1 PUSH4 0x130B8120 EQ PUSH2 0x3E55 JUMPI DUP1 PUSH4 0x163F7522 EQ PUSH2 0x3E12 JUMPI DUP1 PUSH4 0x17B03E6C EQ PUSH2 0x3DAF JUMPI DUP1 PUSH4 0x18160DDD EQ PUSH2 0x3D92 JUMPI DUP1 PUSH4 0x1E572C0F EQ PUSH2 0x3D3E JUMPI DUP1 PUSH4 0x23B872DD EQ PUSH2 0x3C54 JUMPI DUP1 PUSH4 0x248A9CA3 EQ PUSH2 0x3C27 JUMPI DUP1 PUSH4 0x26F06113 EQ PUSH2 0x3BF5 JUMPI DUP1 PUSH4 0x2B4BC862 EQ PUSH2 0x39BB JUMPI DUP1 PUSH4 0x2F19673D EQ PUSH2 0x3AD3 JUMPI DUP1 PUSH4 0x2F2FF15D EQ PUSH2 0x3A96 JUMPI DUP1 PUSH4 0x2FA9C007 EQ PUSH2 0x3A3F JUMPI DUP1 PUSH4 0x2FC6480A EQ PUSH2 0x3A15 JUMPI DUP1 PUSH4 0x313CE567 EQ PUSH2 0x39D8 JUMPI DUP1 PUSH4 0x32EAF9D2 EQ PUSH2 0x39BB JUMPI DUP1 PUSH4 0x36568ABE EQ PUSH2 0x3974 JUMPI DUP1 PUSH4 0x36FBAD26 EQ PUSH2 0x391B JUMPI DUP1 PUSH4 0x3957E7A5 EQ PUSH2 0x3938 JUMPI DUP1 PUSH4 0x3BCFF3B0 EQ PUSH2 0x391B JUMPI DUP1 PUSH4 0x3CA8B3DA EQ PUSH2 0x32EB JUMPI DUP1 PUSH4 0x3F0B6BCB EQ PUSH2 0x30B1 JUMPI DUP1 PUSH4 0x3F4BA83A EQ PUSH2 0x308D JUMPI DUP1 PUSH4 0x4719C01D EQ PUSH2 0x2FC4 JUMPI DUP1 PUSH4 0x502C9BD5 EQ PUSH2 0x2F6A JUMPI DUP1 PUSH4 0x51FEF12A EQ PUSH2 0x2E21 JUMPI DUP1 PUSH4 0x5873F998 EQ PUSH2 0x2CE5 JUMPI DUP1 PUSH4 0x5C975ABB EQ PUSH2 0x2CC3 JUMPI DUP1 PUSH4 0x5E58384D EQ PUSH2 0x2C35 JUMPI DUP1 PUSH4 0x626EBA57 EQ PUSH2 0x2B94 JUMPI DUP1 PUSH4 0x6F77926B EQ PUSH2 0x2AEB JUMPI DUP1 PUSH4 0x70A08231 EQ PUSH2 0x2AB4 JUMPI DUP1 PUSH4 0x7264953B EQ PUSH2 0x2A8D JUMPI DUP1 PUSH4 0x75B238FC EQ PUSH2 0x2603 JUMPI DUP1 PUSH4 0x8456CB59 EQ PUSH2 0x2A66 JUMPI DUP1 PUSH4 0x88D7C865 EQ PUSH2 0x29D7 JUMPI DUP1 PUSH4 0x89E9FE80 EQ PUSH2 0x28A4 JUMPI DUP1 PUSH4 0x8C80DAEC EQ PUSH2 0x2785 JUMPI DUP1 PUSH4 0x91D14854 EQ PUSH2 0x273C JUMPI DUP1 PUSH4 0x93FCDBDA EQ PUSH2 0x2704 JUMPI DUP1 PUSH4 0x95645192 EQ PUSH2 0x26E7 JUMPI DUP1 PUSH4 0x95D89B41 EQ PUSH2 0x2608 JUMPI DUP1 PUSH4 0xA217FDDF EQ PUSH2 0x2603 JUMPI DUP1 PUSH4 0xA3197519 EQ PUSH2 0x19F6 JUMPI DUP1 PUSH4 0xA87430BA EQ PUSH2 0x1967 JUMPI DUP1 PUSH4 0xA9059CBB EQ PUSH2 0x1936 JUMPI DUP1 PUSH4 0xAB59A7AC EQ PUSH2 0x18AA JUMPI DUP1 PUSH4 0xAC9F0A40 EQ PUSH2 0x153C JUMPI DUP1 PUSH4 0xB3638870 EQ PUSH2 0x14BB JUMPI DUP1 PUSH4 0xBADB97FF EQ PUSH2 0x1487 JUMPI DUP1 PUSH4 0xBE3F1656 EQ PUSH2 0x1414 JUMPI DUP1 PUSH4 0xBF7C2131 EQ PUSH2 0x1380 JUMPI DUP1 PUSH4 0xCDD09D36 EQ PUSH2 0xF46 JUMPI DUP1 PUSH4 0xD0587897 EQ PUSH2 0x99C JUMPI DUP1 PUSH4 0xD29C4671 EQ PUSH2 0x872 JUMPI DUP1 PUSH4 0xD547741F EQ PUSH2 0x833 JUMPI DUP1 PUSH4 0xD59B7F62 EQ PUSH2 0x7D3 JUMPI DUP1 PUSH4 0xDD62ED3E EQ PUSH2 0x786 JUMPI DUP1 PUSH4 0xE2842D79 EQ PUSH2 0x6F9 JUMPI DUP1 PUSH4 0xE32E723C EQ PUSH2 0x676 JUMPI PUSH4 0xF0F3F2C8 EQ PUSH2 0x332 JUMPI PUSH0 DUP1 REVERT JUMPDEST CALLVALUE PUSH2 0x672 JUMPI PUSH1 0x20 CALLDATASIZE PUSH1 0x3 NOT ADD SLT PUSH2 0x672 JUMPI PUSH0 PUSH2 0x220 PUSH1 0x40 MLOAD PUSH2 0x353 DUP2 PUSH2 0x448F JUMP JUMPDEST PUSH1 0x60 DUP2 MSTORE PUSH1 0x60 PUSH1 0x20 DUP3 ADD MSTORE PUSH1 0x60 PUSH1 0x40 DUP3 ADD MSTORE DUP3 PUSH1 0x60 DUP3 ADD MSTORE DUP3 PUSH1 0x80 DUP3 ADD MSTORE PUSH1 0x60 PUSH1 0xA0 DUP3 ADD MSTORE PUSH1 0x60 PUSH1 0xC0 DUP3 ADD MSTORE PUSH1 0x60 PUSH1 0xE0 DUP3 ADD MSTORE DUP3 PUSH2 0x100 DUP3 ADD MSTORE DUP3 PUSH2 0x120 DUP3 ADD MSTORE PUSH1 0x60 PUSH2 0x140 DUP3 ADD MSTORE DUP3 PUSH2 0x160 DUP3 ADD MSTORE DUP3 PUSH2 0x180 DUP3 ADD MSTORE DUP3 PUSH2 0x1A0 DUP3 ADD MSTORE DUP3 PUSH2 0x1C0 DUP3 ADD MSTORE DUP3 PUSH2 0x1E0 DUP3 ADD MSTORE DUP3 PUSH2 0x200 DUP3 ADD MSTORE ADD MSTORE PUSH1 0x4 CALLDATALOAD DUP1 ISZERO ISZERO DUP1 PUSH2 0x666 JUMPI JUMPDEST PUSH2 0x3DD SWAP1 PUSH2 0x57F6 JUMP JUMPDEST PUSH0 MSTORE PUSH1 0xF PUSH1 0x20 MSTORE PUSH1 0x40 PUSH0 KECCAK256 PUSH1 0x40 MLOAD SWAP1 PUSH2 0x3F5 DUP3 PUSH2 0x448F JUMP JUMPDEST PUSH2 0x3FE DUP2 PUSH2 0x4623 JUMP JUMPDEST DUP3 MSTORE PUSH2 0x40C PUSH1 0x1 DUP3 ADD PUSH2 0x4623 JUMP JUMPDEST PUSH1 0x20 DUP4 ADD MSTORE PUSH2 0x41D PUSH1 0x2 DUP3 ADD PUSH2 0x4623 JUMP JUMPDEST PUSH1 0x40 DUP4 ADD MSTORE PUSH1 0x3 DUP2 ADD SLOAD PUSH1 0x60 DUP4 ADD MSTORE PUSH1 0x4 DUP2 ADD SLOAD PUSH1 0x80 DUP4 ADD MSTORE PUSH2 0x442 PUSH1 0x5 DUP3 ADD PUSH2 0x4623 JUMP JUMPDEST PUSH1 0xA0 DUP4 ADD MSTORE PUSH2 0x453 PUSH1 0x6 DUP3 ADD PUSH2 0x4623 JUMP JUMPDEST PUSH1 0xC0 DUP4 ADD MSTORE PUSH2 0x464 PUSH1 0x7 DUP3 ADD PUSH2 0x4623 JUMP JUMPDEST PUSH1 0xE0 DUP4 ADD MSTORE PUSH1 0x8 DUP2 ADD SLOAD PUSH2 0x100 DUP4 ADD MSTORE PUSH1 0x9 DUP2 ADD SLOAD PUSH2 0x120 DUP4 ADD MSTORE PUSH2 0x48B PUSH1 0xA DUP3 ADD PUSH2 0x4623 JUMP JUMPDEST PUSH2 0x140 DUP4 ADD MSTORE PUSH1 0xB DUP2 ADD SLOAD PUSH1 0x1 PUSH1 0x1 PUSH1 0xA0 SHL SUB SWAP1 DUP2 AND PUSH2 0x160 DUP5 ADD MSTORE PUSH1 0xC DUP3 ADD SLOAD SWAP1 DUP2 AND PUSH2 0x180 DUP5 ADD MSTORE PUSH1 0xA0 SHR PUSH1 0xFF SWAP1 DUP2 AND ISZERO ISZERO PUSH2 0x1A0 DUP5 ADD MSTORE PUSH1 0xD DUP3 ADD SLOAD PUSH2 0x1C0 DUP5 ADD MSTORE PUSH1 0xE DUP3 ADD SLOAD AND SWAP1 PUSH1 0x4 DUP3 LT ISZERO PUSH2 0x652 JUMPI PUSH1 0x10 SWAP2 PUSH2 0x1E0 DUP5 ADD MSTORE PUSH1 0xF DUP2 ADD SLOAD PUSH2 0x200 DUP5 ADD MSTORE ADD SLOAD PUSH2 0x220 DUP3 ADD MSTORE PUSH1 0x40 MLOAD DUP1 SWAP2 PUSH1 0x20 DUP3 MSTORE PUSH2 0x220 PUSH2 0x5E5 PUSH2 0x5B5 PUSH2 0x59E PUSH2 0x588 PUSH2 0x55E PUSH2 0x548 PUSH2 0x532 DUP9 MLOAD PUSH2 0x240 PUSH1 0x20 DUP13 ADD MSTORE PUSH2 0x260 DUP12 ADD SWAP1 PUSH2 0x45C6 JUMP JUMPDEST PUSH1 0x20 DUP10 ADD MLOAD DUP11 DUP3 SUB PUSH1 0x1F NOT ADD PUSH1 0x40 DUP13 ADD MSTORE PUSH2 0x45C6 JUMP JUMPDEST PUSH1 0x40 DUP9 ADD MLOAD DUP10 DUP3 SUB PUSH1 0x1F NOT ADD PUSH1 0x60 DUP12 ADD MSTORE PUSH2 0x45C6 JUMP JUMPDEST PUSH1 0x60 DUP8 ADD MLOAD PUSH1 0x80 DUP10 ADD MSTORE PUSH1 0x80 DUP8 ADD MLOAD PUSH1 0xA0 DUP10 ADD MSTORE PUSH1 0xA0 DUP8 ADD MLOAD PUSH1 0x1F NOT DUP10 DUP4 SUB ADD PUSH1 0xC0 DUP11 ADD MSTORE PUSH2 0x45C6 JUMP JUMPDEST PUSH1 0xC0 DUP7 ADD MLOAD DUP8 DUP3 SUB PUSH1 0x1F NOT ADD PUSH1 0xE0 DUP10 ADD MSTORE PUSH2 0x45C6 JUMP JUMPDEST PUSH1 0xE0 DUP6 ADD MLOAD DUP7 DUP3 SUB PUSH1 0x1F NOT ADD PUSH2 0x100 DUP9 ADD MSTORE PUSH2 0x45C6 JUMP JUMPDEST PUSH2 0x100 DUP5 ADD MLOAD PUSH2 0x120 DUP7 ADD MSTORE PUSH2 0x120 DUP5 ADD MLOAD PUSH2 0x140 DUP7 ADD MSTORE PUSH2 0x140 DUP5 ADD MLOAD PUSH1 0x1F NOT DUP7 DUP4 SUB ADD PUSH2 0x160 DUP8 ADD MSTORE PUSH2 0x45C6 JUMP JUMPDEST SWAP2 PUSH1 0x1 DUP1 PUSH1 0xA0 SHL SUB PUSH2 0x160 DUP3 ADD MLOAD AND PUSH2 0x180 DUP6 ADD MSTORE PUSH1 0x1 DUP1 PUSH1 0xA0 SHL SUB PUSH2 0x180 DUP3 ADD MLOAD AND PUSH2 0x1A0 DUP6 ADD MSTORE PUSH2 0x1A0 DUP2 ADD MLOAD ISZERO ISZERO PUSH2 0x1C0 DUP6 ADD MSTORE PUSH2 0x1C0 DUP2 ADD MLOAD PUSH2 0x1E0 DUP6 ADD MSTORE PUSH2 0x63C PUSH2 0x1E0 DUP3 ADD MLOAD PUSH2 0x200 DUP7 ADD SWAP1 PUSH2 0x47BD JUMP JUMPDEST PUSH2 0x200 DUP2 ADD MLOAD DUP3 DUP6 ADD MSTORE ADD MLOAD PUSH2 0x240 DUP4 ADD MSTORE SUB SWAP1 RETURN JUMPDEST PUSH4 0x4E487B71 PUSH1 0xE0 SHL PUSH0 MSTORE PUSH1 0x21 PUSH1 0x4 MSTORE PUSH1 0x24 PUSH0 REVERT JUMPDEST POP PUSH1 0x10 SLOAD DUP2 GT ISZERO PUSH2 0x3D4 JUMP JUMPDEST PUSH0 DUP1 REVERT JUMPDEST CALLVALUE PUSH2 0x672 JUMPI PUSH1 0x20 DUP1 PUSH1 0x3 NOT CALLDATASIZE ADD SLT PUSH2 0x672 JUMPI PUSH1 0x1 PUSH1 0x1 PUSH1 0xA0 SHL SUB PUSH2 0x698 PUSH2 0x4579 JUMP JUMPDEST AND PUSH0 MSTORE PUSH1 0x11 DUP2 MSTORE PUSH1 0x40 PUSH0 KECCAK256 SWAP1 PUSH1 0x40 MLOAD SWAP1 DUP2 DUP2 DUP5 SLOAD SWAP2 DUP3 DUP2 MSTORE ADD SWAP4 PUSH0 MSTORE DUP2 PUSH0 KECCAK256 SWAP2 PUSH0 SWAP1 JUMPDEST DUP3 DUP3 LT PUSH2 0x6E2 JUMPI PUSH2 0x6DE DUP6 PUSH2 0x6D2 DUP2 DUP10 SUB DUP3 PUSH2 0x44AB JUMP JUMPDEST PUSH1 0x40 MLOAD SWAP2 DUP3 SWAP2 DUP3 PUSH2 0x49F2 JUMP JUMPDEST SUB SWAP1 RETURN JUMPDEST DUP4 SLOAD DUP7 MSTORE SWAP5 DUP6 ADD SWAP5 PUSH1 0x1 SWAP4 DUP5 ADD SWAP4 SWAP1 SWAP2 ADD SWAP1 PUSH2 0x6BB JUMP JUMPDEST CALLVALUE PUSH2 0x672 JUMPI PUSH0 CALLDATASIZE PUSH1 0x3 NOT ADD SLT PUSH2 0x672 JUMPI PUSH1 0x40 MLOAD DUP1 PUSH1 0xD SLOAD SWAP2 DUP3 DUP2 MSTORE PUSH1 0x20 DUP1 SWAP2 ADD SWAP3 PUSH1 0xD PUSH0 MSTORE PUSH32 0xD7B6990105719101DABEB77144F2A3385C8033ACD3AF97E9423A695E81AD1EB5 SWAP2 PUSH0 SWAP1 JUMPDEST DUP3 DUP3 LT PUSH2 0x766 JUMPI PUSH2 0x6DE DUP6 PUSH2 0x75A DUP2 DUP10 SUB DUP3 PUSH2 0x44AB JUMP JUMPDEST PUSH1 0x40 MLOAD SWAP2 DUP3 SWAP2 DUP3 PUSH2 0x4521 JUMP JUMPDEST DUP4 SLOAD PUSH1 0x1 PUSH1 0x1 PUSH1 0xA0 SHL SUB AND DUP7 MSTORE SWAP5 DUP6 ADD SWAP5 PUSH1 0x1 SWAP4 DUP5 ADD SWAP4 SWAP1 SWAP2 ADD SWAP1 PUSH2 0x743 JUMP JUMPDEST CALLVALUE PUSH2 0x672 JUMPI PUSH1 0x40 CALLDATASIZE PUSH1 0x3 NOT ADD SLT PUSH2 0x672 JUMPI PUSH2 0x79F PUSH2 0x4579 JUMP JUMPDEST PUSH2 0x7A7 PUSH2 0x458F JUMP JUMPDEST SWAP1 PUSH1 0x1 DUP1 PUSH1 0xA0 SHL SUB DUP1 SWAP2 AND PUSH0 MSTORE PUSH1 0x1 PUSH1 0x20 MSTORE PUSH1 0x40 PUSH0 KECCAK256 SWAP2 AND PUSH0 MSTORE PUSH1 0x20 MSTORE PUSH1 0x20 PUSH1 0x40 PUSH0 KECCAK256 SLOAD PUSH1 0x40 MLOAD SWAP1 DUP2 MSTORE RETURN JUMPDEST CALLVALUE PUSH2 0x672 JUMPI PUSH1 0x20 PUSH2 0x7FB PUSH2 0x7E6 CALLDATASIZE PUSH2 0x4740 JUMP JUMPDEST SWAP3 SWAP1 DUP2 PUSH1 0x40 MLOAD SWAP4 DUP3 DUP6 DUP1 SWAP5 MLOAD SWAP4 DUP5 SWAP3 ADD PUSH2 0x45A5 JUMP JUMPDEST DUP2 ADD PUSH1 0xB DUP2 MSTORE SUB ADD SWAP1 KECCAK256 DUP1 SLOAD DUP3 LT ISZERO PUSH2 0x672 JUMPI PUSH1 0x20 SWAP2 PUSH2 0x81A SWAP2 PUSH2 0x4564 JUMP JUMPDEST SWAP1 SLOAD PUSH1 0x40 MLOAD PUSH1 0x3 SWAP3 SWAP1 SWAP3 SHL SHR PUSH1 0x1 PUSH1 0x1 PUSH1 0xA0 SHL SUB AND DUP2 MSTORE RETURN JUMPDEST CALLVALUE PUSH2 0x672 JUMPI PUSH1 0x40 CALLDATASIZE PUSH1 0x3 NOT ADD SLT PUSH2 0x672 JUMPI PUSH2 0x870 PUSH1 0x4 CALLDATALOAD PUSH2 0x852 PUSH2 0x458F JUMP JUMPDEST SWAP1 DUP1 PUSH0 MSTORE PUSH1 0x5 PUSH1 0x20 MSTORE PUSH2 0x86B PUSH1 0x1 PUSH1 0x40 PUSH0 KECCAK256 ADD SLOAD PUSH2 0x4A83 JUMP JUMPDEST PUSH2 0x4C2F JUMP JUMPDEST STOP JUMPDEST CALLVALUE PUSH2 0x672 JUMPI PUSH1 0x20 CALLDATASIZE PUSH1 0x3 NOT ADD SLT PUSH2 0x672 JUMPI PUSH2 0x88B PUSH2 0x58B7 JUMP JUMPDEST POP PUSH1 0x4 CALLDATALOAD PUSH0 MSTORE PUSH1 0x15 PUSH1 0x20 MSTORE PUSH1 0x40 PUSH0 KECCAK256 SLOAD PUSH2 0x8A6 DUP2 ISZERO ISZERO PUSH2 0x5879 JUMP JUMPDEST PUSH0 MSTORE PUSH1 0x13 PUSH1 0x20 MSTORE PUSH2 0x6DE PUSH1 0x40 PUSH0 KECCAK256 PUSH1 0xC PUSH1 0x40 MLOAD SWAP2 PUSH2 0x8C3 DUP4 PUSH2 0x4457 JUMP JUMPDEST DUP1 SLOAD DUP4 MSTORE PUSH1 0x1 DUP1 PUSH1 0xA0 SHL SUB DUP1 PUSH1 0x1 DUP4 ADD SLOAD AND PUSH1 0x20 DUP6 ADD MSTORE PUSH1 0x2 DUP3 ADD SLOAD PUSH1 0x40 DUP6 ADD MSTORE PUSH1 0x3 DUP3 ADD SLOAD PUSH1 0x60 DUP6 ADD MSTORE PUSH1 0x4 DUP3 ADD SLOAD PUSH1 0x80 DUP6 ADD MSTORE PUSH1 0x5 DUP3 ADD SLOAD PUSH1 0xA0 DUP6 ADD MSTORE PUSH1 0x6 DUP3 ADD SLOAD PUSH1 0xC0 DUP6 ADD MSTORE PUSH1 0x7 DUP3 ADD SLOAD PUSH1 0xE0 DUP6 ADD MSTORE PUSH1 0xFF PUSH1 0x8 DUP4 ADD SLOAD DUP2 DUP2 AND ISZERO ISZERO PUSH2 0x100 DUP8 ADD MSTORE DUP2 DUP2 PUSH1 0x8 SHR AND ISZERO ISZERO PUSH2 0x120 DUP8 ADD MSTORE DUP2 DUP2 PUSH1 0x10 SHR AND ISZERO ISZERO PUSH2 0x140 DUP8 ADD MSTORE PUSH1 0x18 SHR AND ISZERO ISZERO PUSH2 0x160 DUP6 ADD MSTORE PUSH2 0x95C PUSH1 0x9 DUP4 ADD PUSH2 0x4623 JUMP JUMPDEST PUSH2 0x180 DUP6 ADD MSTORE PUSH1 0xA DUP3 ADD SLOAD PUSH2 0x1A0 DUP6 ADD MSTORE PUSH1 0xB DUP3 ADD SLOAD PUSH1 0xFF DUP2 AND ISZERO ISZERO PUSH2 0x1C0 DUP7 ADD MSTORE PUSH1 0x8 SHR AND PUSH2 0x1E0 DUP5 ADD MSTORE ADD SLOAD PUSH2 0x200 DUP3 ADD MSTORE PUSH1 0x40 MLOAD SWAP2 DUP3 SWAP2 DUP3 PUSH2 0x4914 JUMP JUMPDEST CALLVALUE PUSH2 0x672 JUMPI PUSH2 0x9AA CALLDATASIZE PUSH2 0x485D JUMP JUMPDEST SWAP1 PUSH2 0x9B6 SWAP6 SWAP3 SWAP6 PUSH2 0x4A2C JUMP JUMPDEST PUSH1 0x1 PUSH1 0x1 PUSH1 0xA0 SHL SUB DUP4 AND PUSH0 SWAP1 DUP2 MSTORE PUSH1 0x8 PUSH1 0x20 MSTORE PUSH1 0x40 SWAP1 KECCAK256 PUSH1 0x5 ADD SLOAD PUSH2 0x9E0 SWAP1 PUSH1 0xA0 SHR PUSH1 0xFF AND PUSH2 0x5567 JUMP JUMPDEST PUSH2 0x9EC DUP6 MLOAD ISZERO ISZERO PUSH2 0x4FE7 JUMP JUMPDEST PUSH2 0x9F8 DUP7 MLOAD ISZERO ISZERO PUSH2 0x5023 JUMP JUMPDEST PUSH2 0xA04 DUP3 MLOAD ISZERO ISZERO PUSH2 0x505F JUMP JUMPDEST PUSH1 0x1 DUP1 PUSH1 0xA0 SHL SUB DUP4 AND PUSH0 MSTORE PUSH1 0x8 PUSH1 0x20 MSTORE PUSH2 0xA34 DUP4 PUSH2 0xA2F PUSH2 0xA2A PUSH1 0x2 PUSH1 0x40 PUSH0 KECCAK256 ADD PUSH2 0x4623 JUMP JUMPDEST PUSH2 0x4771 JUMP JUMPDEST PUSH2 0x5691 JUMP JUMPDEST PUSH1 0x1 DUP1 PUSH1 0xA0 SHL SUB DUP4 AND PUSH0 MSTORE PUSH1 0x8 PUSH1 0x20 MSTORE PUSH2 0xA5F DUP4 PUSH2 0xA2F PUSH2 0xA5A PUSH1 0x4 PUSH1 0x40 PUSH0 KECCAK256 ADD PUSH2 0x4623 JUMP JUMPDEST PUSH2 0x4797 JUMP JUMPDEST PUSH1 0x1 PUSH1 0x1 PUSH1 0xA0 SHL SUB DUP4 AND PUSH0 SWAP1 DUP2 MSTORE PUSH1 0x8 PUSH1 0x20 MSTORE PUSH1 0x40 SWAP1 KECCAK256 DUP6 MLOAD PUSH1 0x1 PUSH1 0x1 PUSH1 0x40 SHL SUB DUP2 GT PUSH2 0xD78 JUMPI PUSH2 0xA9A DUP2 PUSH2 0xA94 DUP5 SLOAD PUSH2 0x45EB JUMP JUMPDEST DUP5 PUSH2 0x50A3 JUMP JUMPDEST DUP1 PUSH1 0x20 PUSH1 0x1F DUP3 GT PUSH1 0x1 EQ PUSH2 0xEE3 JUMPI PUSH0 SWAP2 PUSH2 0xED8 JUMPI JUMPDEST POP DUP2 PUSH1 0x1 SHL SWAP2 PUSH0 NOT SWAP1 PUSH1 0x3 SHL SHR NOT AND OR SWAP1 SSTORE JUMPDEST PUSH1 0x1 DUP1 PUSH1 0xA0 SHL SUB DUP4 AND PUSH0 MSTORE PUSH1 0x8 PUSH1 0x20 MSTORE PUSH1 0x1 PUSH1 0x40 PUSH0 KECCAK256 ADD DUP5 MLOAD PUSH1 0x1 PUSH1 0x1 PUSH1 0x40 SHL SUB DUP2 GT PUSH2 0xD78 JUMPI PUSH2 0xAF7 DUP2 PUSH2 0xA94 DUP5 SLOAD PUSH2 0x45EB JUMP JUMPDEST DUP1 PUSH1 0x20 PUSH1 0x1F DUP3 GT PUSH1 0x1 EQ PUSH2 0xE75 JUMPI PUSH0 SWAP2 PUSH2 0xE6A JUMPI JUMPDEST POP DUP2 PUSH1 0x1 SHL SWAP2 PUSH0 NOT SWAP1 PUSH1 0x3 SHL SHR NOT AND OR SWAP1 SSTORE JUMPDEST PUSH1 0x1 DUP1 PUSH1 0xA0 SHL SUB DUP4 AND PUSH0 MSTORE PUSH1 0x8 PUSH1 0x20 MSTORE PUSH1 0x2 PUSH1 0x40 PUSH0 KECCAK256 ADD DUP7 MLOAD PUSH1 0x1 PUSH1 0x1 PUSH1 0x40 SHL SUB DUP2 GT PUSH2 0xD78 JUMPI PUSH2 0xB54 DUP2 PUSH2 0xA94 DUP5 SLOAD PUSH2 0x45EB JUMP JUMPDEST DUP1 PUSH1 0x20 PUSH1 0x1F DUP3 GT PUSH1 0x1 EQ PUSH2 0xE06 JUMPI PUSH0 SWAP2 PUSH2 0xDFB JUMPI JUMPDEST POP DUP2 PUSH1 0x1 SHL SWAP2 PUSH0 NOT SWAP1 PUSH1 0x3 SHL SHR NOT AND OR SWAP1 SSTORE JUMPDEST PUSH1 0x1 DUP1 PUSH1 0xA0 SHL SUB DUP4 AND PUSH0 MSTORE PUSH1 0x8 PUSH1 0x20 MSTORE PUSH1 0x3 PUSH1 0x40 PUSH0 KECCAK256 ADD SWAP1 DUP1 MLOAD SWAP1 PUSH1 0x1 PUSH1 0x1 PUSH1 0x40 SHL SUB DUP3 GT PUSH2 0xD78 JUMPI DUP2 SWAP1 PUSH2 0xBBB DUP3 PUSH2 0xBB5 DUP7 SLOAD PUSH2 0x45EB JUMP JUMPDEST DUP7 PUSH2 0x50A3 JUMP JUMPDEST PUSH1 0x20 SWAP1 PUSH1 0x1F DUP4 GT PUSH1 0x1 EQ PUSH2 0xD97 JUMPI PUSH0 SWAP3 PUSH2 0xD8C JUMPI JUMPDEST POP POP DUP2 PUSH1 0x1 SHL SWAP2 PUSH0 NOT SWAP1 PUSH1 0x3 SHL SHR NOT AND OR SWAP1 SSTORE JUMPDEST PUSH1 0x1 PUSH1 0x1 PUSH1 0xA0 SHL SUB DUP3 AND PUSH0 SWAP1 DUP2 MSTORE PUSH1 0x8 PUSH1 0x20 MSTORE PUSH1 0x40 SWAP1 KECCAK256 DUP2 MLOAD SWAP6 SWAP1 PUSH1 0x4 ADD PUSH1 0x1 PUSH1 0x1 PUSH1 0x40 SHL SUB DUP8 GT PUSH2 0xD78 JUMPI PUSH2 0xC24 DUP8 PUSH2 0xC1E DUP4 SLOAD PUSH2 0x45EB JUMP JUMPDEST DUP4 PUSH2 0x50A3 JUMP JUMPDEST PUSH1 0x20 SWAP7 PUSH1 0x1F DUP2 GT PUSH1 0x1 EQ PUSH2 0xCF0 JUMPI SWAP1 DUP2 PUSH2 0xCE0 SWAP5 SWAP4 SWAP3 PUSH32 0xE11950FEAD99593EDF185A281381B98C1A0B4C1D38592C0DDCC6DE2876687FBD SWAP9 SWAP10 PUSH0 SWAP2 PUSH2 0xCE5 JUMPI JUMPDEST POP DUP2 PUSH1 0x1 SHL SWAP2 PUSH0 NOT SWAP1 PUSH1 0x3 SHL SHR NOT AND OR SWAP1 SSTORE JUMPDEST PUSH2 0xC9F DUP5 PUSH1 0x40 MLOAD PUSH1 0x20 DUP2 DUP6 MLOAD PUSH2 0xC90 DUP2 DUP4 DUP6 DUP11 ADD PUSH2 0x45A5 JUMP JUMPDEST DUP2 ADD PUSH1 0xA DUP2 MSTORE SUB ADD SWAP1 KECCAK256 PUSH2 0x54DD JUMP JUMPDEST PUSH2 0xCC7 DUP5 PUSH1 0x40 MLOAD PUSH1 0x20 DUP2 DUP7 MLOAD PUSH2 0xCB8 DUP2 DUP4 DUP6 DUP12 ADD PUSH2 0x45A5 JUMP JUMPDEST DUP2 ADD PUSH1 0xB DUP2 MSTORE SUB ADD SWAP1 KECCAK256 PUSH2 0x54DD JUMP JUMPDEST PUSH1 0x40 MLOAD PUSH1 0x1 PUSH1 0x1 PUSH1 0xA0 SHL SUB SWAP1 SWAP5 AND SWAP7 SWAP4 SWAP5 DUP6 SWAP5 DUP6 PUSH2 0x551F JUMP JUMPDEST SUB SWAP1 LOG2 STOP JUMPDEST SWAP1 POP DUP5 ADD MLOAD DUP11 PUSH2 0xC64 JUMP JUMPDEST PUSH1 0x1F NOT DUP2 AND DUP3 PUSH0 MSTORE PUSH1 0x20 PUSH0 KECCAK256 SWAP1 PUSH0 JUMPDEST DUP2 DUP2 LT PUSH2 0xD60 JUMPI POP SWAP2 PUSH1 0x1 SWAP2 PUSH32 0xE11950FEAD99593EDF185A281381B98C1A0B4C1D38592C0DDCC6DE2876687FBD SWAP10 SWAP11 DUP3 PUSH2 0xCE0 SWAP9 SWAP8 SWAP7 SWAP6 LT PUSH2 0xD48 JUMPI JUMPDEST POP POP DUP2 SHL ADD SWAP1 SSTORE PUSH2 0xC77 JUMP JUMPDEST DUP7 ADD MLOAD PUSH0 NOT PUSH1 0xF8 DUP5 PUSH1 0x3 SHL AND SHR NOT AND SWAP1 SSTORE DUP11 DUP1 PUSH2 0xD3C JUMP JUMPDEST DUP7 DUP12 ADD MLOAD DUP4 SSTORE PUSH1 0x20 SWAP11 DUP12 ADD SWAP11 PUSH1 0x1 SWAP1 SWAP4 ADD SWAP3 ADD PUSH2 0xCFF JUMP JUMPDEST PUSH4 0x4E487B71 PUSH1 0xE0 SHL PUSH0 MSTORE PUSH1 0x41 PUSH1 0x4 MSTORE PUSH1 0x24 PUSH0 REVERT JUMPDEST ADD MLOAD SWAP1 POP DUP9 DUP1 PUSH2 0xBD0 JUMP JUMPDEST PUSH0 DUP6 DUP2 MSTORE PUSH1 0x20 DUP2 KECCAK256 SWAP4 POP PUSH1 0x1F NOT DUP6 AND SWAP1 JUMPDEST DUP2 DUP2 LT PUSH2 0xDE3 JUMPI POP SWAP1 DUP5 PUSH1 0x1 SWAP6 SWAP5 SWAP4 SWAP3 LT PUSH2 0xDCB JUMPI JUMPDEST POP POP POP DUP2 SHL ADD SWAP1 SSTORE PUSH2 0xBE4 JUMP JUMPDEST ADD MLOAD PUSH0 NOT PUSH1 0xF8 DUP5 PUSH1 0x3 SHL AND SHR NOT AND SWAP1 SSTORE DUP9 DUP1 DUP1 PUSH2 0xDBE JUMP JUMPDEST SWAP3 SWAP4 PUSH1 0x20 PUSH1 0x1 DUP2 SWAP3 DUP8 DUP7 ADD MLOAD DUP2 SSTORE ADD SWAP6 ADD SWAP4 ADD PUSH2 0xDA8 JUMP JUMPDEST SWAP1 POP DUP9 ADD MLOAD DUP10 PUSH2 0xB69 JUMP JUMPDEST SWAP2 POP DUP3 PUSH0 MSTORE PUSH1 0x20 PUSH0 KECCAK256 PUSH0 SWAP3 JUMPDEST DUP11 PUSH1 0x1F NOT DUP5 AND DUP6 LT PUSH2 0xE53 JUMPI POP PUSH1 0x1 SWAP4 POP DUP3 PUSH1 0x1F NOT DUP2 AND LT PUSH2 0xE3B JUMPI JUMPDEST POP POP DUP2 SHL ADD SWAP1 SSTORE PUSH2 0xB7C JUMP JUMPDEST DUP11 ADD MLOAD PUSH0 NOT PUSH1 0xF8 DUP5 PUSH1 0x3 SHL AND SHR NOT AND SWAP1 SSTORE DUP10 DUP1 PUSH2 0xE2F JUMP JUMPDEST DUP2 ADD MLOAD DUP3 SSTORE PUSH1 0x20 SWAP4 DUP5 ADD SWAP4 PUSH1 0x1 SWAP1 SWAP3 ADD SWAP2 ADD PUSH2 0xE12 JUMP JUMPDEST SWAP1 POP DUP7 ADD MLOAD DUP10 PUSH2 0xB0C JUMP JUMPDEST SWAP2 POP DUP3 PUSH0 MSTORE PUSH1 0x20 PUSH0 KECCAK256 PUSH0 SWAP3 JUMPDEST PUSH1 0x1F NOT DUP4 AND DUP5 LT PUSH2 0xEC0 JUMPI PUSH1 0x1 SWAP4 POP DUP3 PUSH1 0x1F NOT DUP2 AND LT PUSH2 0xEA8 JUMPI JUMPDEST POP POP DUP2 SHL ADD SWAP1 SSTORE PUSH2 0xB1F JUMP JUMPDEST DUP9 ADD MLOAD PUSH0 NOT PUSH1 0xF8 DUP5 PUSH1 0x3 SHL AND SHR NOT AND SWAP1 SSTORE DUP10 DUP1 PUSH2 0xE9C JUMP JUMPDEST DUP9 DUP2 ADD MLOAD DUP3 SSTORE PUSH1 0x20 SWAP4 DUP5 ADD SWAP4 PUSH1 0x1 SWAP1 SWAP3 ADD SWAP2 ADD PUSH2 0xE81 JUMP JUMPDEST SWAP1 POP DUP8 ADD MLOAD DUP10 PUSH2 0xAAF JUMP JUMPDEST SWAP2 POP DUP3 PUSH0 MSTORE PUSH1 0x20 PUSH0 KECCAK256 PUSH0 SWAP3 JUMPDEST PUSH1 0x1F NOT DUP4 AND DUP5 LT PUSH2 0xF2E JUMPI PUSH1 0x1 SWAP4 POP DUP3 PUSH1 0x1F NOT DUP2 AND LT PUSH2 0xF16 JUMPI JUMPDEST POP POP DUP2 SHL ADD SWAP1 SSTORE PUSH2 0xAC2 JUMP JUMPDEST DUP10 ADD MLOAD PUSH0 NOT PUSH1 0xF8 DUP5 PUSH1 0x3 SHL AND SHR NOT AND SWAP1 SSTORE DUP10 DUP1 PUSH2 0xF0A JUMP JUMPDEST DUP10 DUP2 ADD MLOAD DUP3 SSTORE PUSH1 0x20 SWAP4 DUP5 ADD SWAP4 PUSH1 0x1 SWAP1 SWAP3 ADD SWAP2 ADD PUSH2 0xEEF JUMP JUMPDEST CALLVALUE PUSH2 0x672 JUMPI PUSH1 0x80 CALLDATASIZE PUSH1 0x3 NOT ADD SLT PUSH2 0x672 JUMPI PUSH1 0x1 PUSH1 0x1 PUSH1 0x40 SHL SUB DUP1 PUSH1 0x4 CALLDATALOAD GT PUSH2 0x672 JUMPI CALLDATASIZE PUSH1 0x23 PUSH1 0x4 CALLDATALOAD ADD SLT ISZERO PUSH2 0x672 JUMPI PUSH1 0x4 CALLDATALOAD PUSH1 0x4 ADD CALLDATALOAD GT PUSH2 0x672 JUMPI CALLDATASIZE PUSH1 0x24 PUSH1 0x4 CALLDATALOAD PUSH1 0x4 ADD CALLDATALOAD PUSH1 0x4 CALLDATALOAD ADD ADD GT PUSH2 0x672 JUMPI PUSH2 0xF9D PUSH2 0x458F JUMP JUMPDEST PUSH1 0x1 PUSH1 0x1 PUSH1 0xA0 SHL SUB SWAP1 PUSH1 0x64 CALLDATALOAD DUP3 DUP2 AND SWAP2 SWAP1 DUP3 SWAP1 SUB PUSH2 0x672 JUMPI PUSH2 0xFBD PUSH2 0x4A2C JUMP JUMPDEST PUSH2 0xFCC PUSH1 0xFF PUSH1 0x7 SLOAD AND ISZERO PUSH2 0x5934 JUMP JUMPDEST DUP3 DUP2 AND ISZERO PUSH2 0x134B JUMPI PUSH1 0x44 CALLDATALOAD ISZERO PUSH2 0x1318 JUMPI PUSH1 0x40 MLOAD PUSH1 0x20 DUP2 ADD SWAP1 PUSH1 0x4 CALLDATALOAD PUSH1 0x4 ADD CALLDATALOAD PUSH1 0x24 PUSH1 0x4 CALLDATALOAD ADD DUP4 CALLDATACOPY PUSH2 0x1012 PUSH1 0x20 DUP3 PUSH1 0x4 CALLDATALOAD PUSH1 0x4 ADD CALLDATALOAD DUP2 ADD PUSH0 DUP4 DUP3 ADD MSTORE SUB DUP1 DUP5 MSTORE ADD DUP3 PUSH2 0x44AB JUMP JUMPDEST MLOAD SWAP1 KECCAK256 SWAP2 DUP3 PUSH0 MSTORE PUSH1 0x16 PUSH1 0x20 MSTORE PUSH1 0x40 PUSH0 KECCAK256 SWAP1 PUSH1 0xFF PUSH1 0x3 DUP4 ADD SLOAD PUSH1 0xE0 SHR AND PUSH2 0x12DB JUMPI PUSH1 0x20 SWAP5 DUP5 SWAP2 PUSH1 0x1 PUSH1 0x1 PUSH1 0x60 SHL SUB PUSH1 0xA0 SHL DUP5 SLOAD AND OR DUP4 SSTORE PUSH1 0x1 SWAP3 PUSH2 0x1069 PUSH1 0x4 CALLDATALOAD PUSH1 0x4 ADD CALLDATALOAD PUSH2 0x1061 DUP7 DUP5 ADD SLOAD PUSH2 0x45EB JUMP JUMPDEST DUP7 DUP5 ADD PUSH2 0x50A3 JUMP JUMPDEST PUSH0 SWAP4 PUSH1 0x1F PUSH1 0x4 CALLDATALOAD PUSH1 0x4 ADD CALLDATALOAD GT PUSH1 0x1 EQ PUSH2 0x1233 JUMPI PUSH32 0x977838AA5DDF8CCF5AAD9149AB57578B737639A2D4EA12879D57B718A481022 SWAP4 SWAP5 PUSH0 SWAP1 PUSH1 0x4 CALLDATALOAD PUSH1 0x4 ADD CALLDATALOAD PUSH2 0x1223 JUMPI JUMPDEST POP PUSH1 0x4 CALLDATALOAD PUSH1 0x4 ADD CALLDATALOAD DUP3 SHL SWAP1 PUSH0 NOT PUSH1 0x4 CALLDATALOAD PUSH1 0x4 ADD CALLDATALOAD PUSH1 0x3 SHL SHR NOT AND OR SWAP1 DUP3 ADD SSTORE JUMPDEST PUSH1 0x3 DUP2 ADD DUP1 SLOAD PUSH1 0x44 CALLDATALOAD PUSH1 0x2 SWAP1 SWAP4 ADD SWAP3 SWAP1 SWAP3 SSTORE PUSH1 0x1 PUSH1 0x1 PUSH1 0xE8 SHL SUB NOT SWAP1 SWAP2 AND DUP6 DUP4 AND OR TIMESTAMP PUSH1 0xA0 SHL PUSH8 0xFFFFFFFFFFFFFFFF PUSH1 0xA0 SHL AND OR PUSH1 0x1 PUSH1 0xE0 SHL OR SWAP1 SSTORE PUSH1 0x7 SLOAD PUSH2 0x1119 SWAP1 PUSH1 0xFF AND ISZERO PUSH2 0x5934 JUMP JUMPDEST PUSH2 0x1127 PUSH1 0x44 CALLDATALOAD PUSH1 0x2 SLOAD PUSH2 0x5A2D JUMP JUMPDEST PUSH1 0x2 SSTORE DUP1 DUP5 AND PUSH0 MSTORE PUSH0 DUP7 MSTORE PUSH1 0x40 PUSH0 KECCAK256 PUSH1 0x44 CALLDATALOAD DUP2 SLOAD ADD SWAP1 SSTORE PUSH1 0x40 MLOAD PUSH1 0x44 CALLDATALOAD DUP2 MSTORE PUSH0 PUSH32 0xDDF252AD1BE2C89B69C2B068FC378DAA952BA7F163C4A11628F55A4DF523B3EF DUP9 DUP5 DUP9 AND SWAP4 LOG3 PUSH2 0x117C PUSH1 0x44 CALLDATALOAD PUSH1 0x17 SLOAD PUSH2 0x5A2D JUMP JUMPDEST PUSH1 0x17 SSTORE PUSH0 DUP1 MLOAD PUSH1 0x20 PUSH2 0x5A3B DUP4 CODECOPY DUP2 MLOAD SWAP2 MSTORE PUSH0 MSTORE PUSH1 0x5 DUP7 MSTORE PUSH1 0x40 PUSH0 KECCAK256 DUP2 DUP6 AND PUSH0 MSTORE DUP7 MSTORE PUSH1 0xFF PUSH1 0x40 PUSH0 KECCAK256 SLOAD AND PUSH2 0x1207 JUMPI JUMPDEST PUSH1 0x40 MLOAD SWAP4 PUSH1 0x44 CALLDATALOAD DUP6 MSTORE PUSH1 0x40 DUP8 DUP7 ADD MSTORE PUSH1 0x4 CALLDATALOAD PUSH1 0x4 ADD CALLDATALOAD PUSH1 0x40 DUP7 ADD MSTORE PUSH1 0x4 CALLDATALOAD PUSH1 0x4 ADD CALLDATALOAD PUSH1 0x24 PUSH1 0x4 CALLDATALOAD ADD PUSH1 0x60 DUP8 ADD CALLDATACOPY PUSH0 PUSH1 0x60 PUSH1 0x4 CALLDATALOAD PUSH1 0x4 ADD CALLDATALOAD DUP8 ADD ADD MSTORE AND SWAP3 PUSH1 0x60 DUP2 PUSH1 0x1F NOT PUSH1 0x1F PUSH1 0x4 CALLDATALOAD PUSH1 0x4 ADD CALLDATALOAD ADD AND DUP2 ADD SUB ADD SWAP1 LOG3 PUSH1 0x40 MLOAD SWAP1 DUP2 MSTORE RETURN JUMPDEST PUSH1 0x19 DUP7 MSTORE PUSH1 0x40 PUSH0 KECCAK256 PUSH2 0x121C PUSH1 0x44 CALLDATALOAD DUP3 SLOAD PUSH2 0x5A2D JUMP JUMPDEST SWAP1 SSTORE PUSH2 0x11AB JUMP JUMPDEST PUSH1 0x24 SWAP2 POP PUSH1 0x4 CALLDATALOAD ADD ADD CALLDATALOAD DUP10 PUSH2 0x10AD JUMP JUMPDEST DUP1 DUP3 ADD PUSH0 MSTORE DUP8 PUSH0 KECCAK256 PUSH0 JUMPDEST PUSH1 0x4 DUP1 CALLDATALOAD ADD CALLDATALOAD PUSH1 0x1F NOT AND DUP2 LT PUSH2 0x12BE JUMPI POP SWAP4 SWAP5 PUSH32 0x977838AA5DDF8CCF5AAD9149AB57578B737639A2D4EA12879D57B718A481022 SWAP5 SWAP1 PUSH1 0x4 DUP1 CALLDATALOAD ADD CALLDATALOAD PUSH1 0x1F NOT DUP2 AND LT PUSH2 0x129A JUMPI JUMPDEST POP POP DUP1 PUSH1 0x4 CALLDATALOAD PUSH1 0x4 ADD CALLDATALOAD DUP2 SHL ADD SWAP1 DUP3 ADD SSTORE PUSH2 0x10CD JUMP JUMPDEST PUSH1 0x24 PUSH0 NOT PUSH1 0xF8 PUSH1 0x4 CALLDATALOAD PUSH1 0x4 ADD CALLDATALOAD PUSH1 0x3 SHL AND SHR NOT SWAP2 PUSH1 0x4 CALLDATALOAD ADD ADD CALLDATALOAD AND SWAP1 SSTORE DUP9 DUP1 PUSH2 0x1284 JUMP JUMPDEST PUSH1 0x4 CALLDATALOAD DUP8 ADD PUSH1 0x24 ADD CALLDATALOAD DUP3 SSTORE SWAP6 DUP10 ADD SWAP6 DUP9 SWAP6 POP SWAP1 DUP3 ADD SWAP1 DUP10 ADD PUSH2 0x123D JUMP JUMPDEST PUSH1 0x40 MLOAD PUSH3 0x461BCD PUSH1 0xE5 SHL DUP2 MSTORE PUSH1 0x20 PUSH1 0x4 DUP3 ADD MSTORE PUSH1 0x15 PUSH1 0x24 DUP3 ADD MSTORE PUSH21 0x14915413D49517D053149150511657D35253951151 PUSH1 0x5A SHL PUSH1 0x44 DUP3 ADD MSTORE PUSH1 0x64 SWAP1 REVERT JUMPDEST PUSH1 0x40 MLOAD PUSH3 0x461BCD PUSH1 0xE5 SHL DUP2 MSTORE PUSH1 0x20 PUSH1 0x4 DUP3 ADD MSTORE PUSH1 0xB PUSH1 0x24 DUP3 ADD MSTORE PUSH11 0x16915493D7D05353D55395 PUSH1 0xAA SHL PUSH1 0x44 DUP3 ADD MSTORE PUSH1 0x64 SWAP1 REVERT JUMPDEST PUSH1 0x40 MLOAD PUSH3 0x461BCD PUSH1 0xE5 SHL DUP2 MSTORE PUSH1 0x20 PUSH1 0x4 DUP3 ADD MSTORE PUSH1 0xD PUSH1 0x24 DUP3 ADD MSTORE PUSH13 0x10905117D49150D25412515395 PUSH1 0x9A SHL PUSH1 0x44 DUP3 ADD MSTORE PUSH1 0x64 SWAP1 REVERT JUMPDEST CALLVALUE PUSH2 0x672 JUMPI PUSH1 0x20 CALLDATASIZE PUSH1 0x3 NOT ADD SLT PUSH2 0x672 JUMPI PUSH1 0x4 CALLDATALOAD PUSH0 SWAP1 DUP2 MSTORE PUSH1 0x16 PUSH1 0x20 MSTORE PUSH1 0x40 SWAP1 KECCAK256 DUP1 SLOAD PUSH1 0x1 PUSH1 0x1 PUSH1 0xA0 SHL SUB SWAP2 SWAP1 DUP3 AND SWAP1 PUSH1 0xFF PUSH2 0x13BE PUSH1 0x1 DUP4 ADD PUSH2 0x4623 JUMP JUMPDEST SWAP4 PUSH1 0x3 PUSH1 0x2 DUP5 ADD SLOAD SWAP4 ADD SLOAD SWAP1 PUSH2 0x13E6 PUSH1 0x40 MLOAD SWAP7 DUP8 SWAP7 DUP8 MSTORE PUSH1 0xC0 PUSH1 0x20 DUP9 ADD MSTORE PUSH1 0xC0 DUP8 ADD SWAP1 PUSH2 0x45C6 JUMP JUMPDEST SWAP4 PUSH1 0x40 DUP7 ADD MSTORE DUP2 AND PUSH1 0x60 DUP6 ADD MSTORE PUSH1 0x1 PUSH1 0x1 PUSH1 0x40 SHL SUB DUP2 PUSH1 0xA0 SHR AND PUSH1 0x80 DUP6 ADD MSTORE PUSH1 0xE0 SHR AND ISZERO ISZERO PUSH1 0xA0 DUP4 ADD MSTORE SUB SWAP1 RETURN JUMPDEST CALLVALUE PUSH2 0x672 JUMPI PUSH1 0x20 DUP1 PUSH1 0x3 NOT CALLDATASIZE ADD SLT PUSH2 0x672 JUMPI PUSH1 0x1 PUSH1 0x1 PUSH1 0xA0 SHL SUB PUSH2 0x1436 PUSH2 0x4579 JUMP JUMPDEST AND PUSH0 MSTORE PUSH1 0x12 DUP2 MSTORE PUSH1 0x40 PUSH0 KECCAK256 SWAP1 PUSH1 0x40 MLOAD SWAP1 DUP2 DUP2 DUP5 SLOAD SWAP2 DUP3 DUP2 MSTORE ADD SWAP4 PUSH0 MSTORE DUP2 PUSH0 KECCAK256 SWAP2 PUSH0 SWAP1 JUMPDEST DUP3 DUP3 LT PUSH2 0x1470 JUMPI PUSH2 0x6DE DUP6 PUSH2 0x6D2 DUP2 DUP10 SUB DUP3 PUSH2 0x44AB JUMP JUMPDEST DUP4 SLOAD DUP7 MSTORE SWAP5 DUP6 ADD SWAP5 PUSH1 0x1 SWAP4 DUP5 ADD SWAP4 SWAP1 SWAP2 ADD SWAP1 PUSH2 0x1459 JUMP JUMPDEST CALLVALUE PUSH2 0x672 JUMPI PUSH1 0x20 CALLDATASIZE PUSH1 0x3 NOT ADD SLT PUSH2 0x672 JUMPI PUSH2 0x14A0 PUSH2 0x4A2C JUMP JUMPDEST PUSH2 0x14AF PUSH1 0xFF PUSH1 0x7 SLOAD AND ISZERO PUSH2 0x5934 JUMP JUMPDEST PUSH2 0x870 PUSH1 0x4 CALLDATALOAD CALLER PUSH2 0x5972 JUMP JUMPDEST CALLVALUE PUSH2 0x672 JUMPI PUSH0 CALLDATASIZE PUSH1 0x3 NOT ADD SLT PUSH2 0x672 JUMPI PUSH1 0x40 MLOAD DUP1 PUSH1 0x9 SLOAD SWAP2 DUP3 DUP2 MSTORE PUSH1 0x20 DUP1 SWAP2 ADD SWAP3 PUSH1 0x9 PUSH0 MSTORE PUSH32 0x6E1540171B6C0C960B71A7020D9F60077F6AF931A8BBF590DA0223DACF75C7AF SWAP2 PUSH0 SWAP1 JUMPDEST DUP3 DUP3 LT PUSH2 0x151C JUMPI PUSH2 0x6DE DUP6 PUSH2 0x75A DUP2 DUP10 SUB DUP3 PUSH2 0x44AB JUMP JUMPDEST DUP4 SLOAD PUSH1 0x1 PUSH1 0x1 PUSH1 0xA0 SHL SUB AND DUP7 MSTORE SWAP5 DUP6 ADD SWAP5 PUSH1 0x1 SWAP4 DUP5 ADD SWAP4 SWAP1 SWAP2 ADD SWAP1 PUSH2 0x1505 JUMP JUMPDEST CALLVALUE PUSH2 0x672 JUMPI PUSH1 0xA0 CALLDATASIZE PUSH1 0x3 NOT ADD SLT PUSH2 0x672 JUMPI PUSH1 0x1 PUSH1 0x1 PUSH1 0x40 SHL SUB PUSH1 0x4 CALLDATALOAD DUP2 DUP2 GT PUSH2 0x672 JUMPI PUSH2 0x156D SWAP1 CALLDATASIZE SWAP1 PUSH1 0x4 ADD PUSH2 0x44CC JUMP JUMPDEST PUSH1 0x24 DUP1 CALLDATALOAD DUP4 DUP2 GT PUSH2 0x672 JUMPI PUSH2 0x1586 SWAP1 CALLDATASIZE SWAP1 PUSH1 0x4 ADD PUSH2 0x44CC JUMP JUMPDEST PUSH1 0x44 SWAP2 DUP3 CALLDATALOAD DUP6 DUP2 GT PUSH2 0x672 JUMPI PUSH2 0x15A0 SWAP1 CALLDATASIZE SWAP1 PUSH1 0x4 ADD PUSH2 0x44CC JUMP JUMPDEST PUSH1 0x64 SWAP6 DUP7 CALLDATALOAD DUP2 DUP2 GT PUSH2 0x672 JUMPI PUSH2 0x15BA SWAP1 CALLDATASIZE SWAP1 PUSH1 0x4 ADD PUSH2 0x44CC JUMP JUMPDEST SWAP1 PUSH1 0x84 CALLDATALOAD SWAP1 DUP2 GT PUSH2 0x672 JUMPI PUSH2 0x15D3 SWAP1 CALLDATASIZE SWAP1 PUSH1 0x4 ADD PUSH2 0x44CC JUMP JUMPDEST SWAP7 CALLER PUSH0 MSTORE PUSH1 0x20 SWAP6 PUSH1 0xC DUP8 MSTORE PUSH1 0xFF PUSH1 0x5 PUSH1 0x40 PUSH0 KECCAK256 ADD SLOAD PUSH1 0xA0 SHR AND PUSH2 0x186A JUMPI DUP8 MLOAD ISZERO PUSH2 0x1834 JUMPI DUP6 MLOAD ISZERO PUSH2 0x17FF JUMPI DUP4 MLOAD ISZERO PUSH2 0x17CE JUMPI DUP3 MLOAD ISZERO PUSH2 0x179D JUMPI DUP9 MLOAD ISZERO PUSH2 0x1769 JUMPI POP POP SWAP1 PUSH2 0x1662 SWAP2 PUSH1 0x40 MLOAD SWAP2 PUSH2 0x1627 DUP4 PUSH2 0x4473 JUMP JUMPDEST DUP8 DUP4 MSTORE DUP6 DUP8 DUP5 ADD MSTORE PUSH1 0x40 DUP4 ADD MSTORE PUSH1 0x60 DUP3 ADD MSTORE DUP7 PUSH1 0x80 DUP3 ADD MSTORE CALLER PUSH1 0xA0 DUP3 ADD MSTORE PUSH1 0x1 PUSH1 0xC0 DUP3 ADD MSTORE TIMESTAMP PUSH1 0xE0 DUP3 ADD MSTORE CALLER PUSH0 MSTORE PUSH1 0xC DUP6 MSTORE PUSH1 0x40 PUSH0 KECCAK256 PUSH2 0x50F6 JUMP JUMPDEST PUSH1 0xD SLOAD SWAP1 PUSH1 0x1 PUSH1 0x40 SHL DUP3 LT ISZERO PUSH2 0x1756 JUMPI PUSH1 0x1 DUP3 ADD DUP1 PUSH1 0xD SSTORE DUP3 LT ISZERO PUSH2 0x1743 JUMPI POP PUSH2 0x1734 PUSH2 0x1727 SWAP4 PUSH32 0x509C70F523067009F7DB7F46DB6956D7AF8B679323680DC3821A8BAD001AC1E1 SWAP6 SWAP4 PUSH2 0xCE0 SWAP4 PUSH1 0xD PUSH0 MSTORE PUSH32 0xD7B6990105719101DABEB77144F2A3385C8033ACD3AF97E9423A695E81AD1EB5 ADD CALLER PUSH1 0x1 PUSH1 0x1 PUSH1 0x60 SHL SUB PUSH1 0xA0 SHL DUP3 SLOAD AND OR SWAP1 SSTORE PUSH2 0x1713 PUSH1 0x40 MLOAD DUP4 PUSH2 0x16FF DUP12 DUP4 DUP2 MLOAD SWAP4 DUP5 SWAP3 ADD PUSH2 0x45A5 JUMP JUMPDEST DUP2 ADD SWAP1 PUSH1 0xE DUP3 MSTORE DUP5 DUP2 CALLER SWAP4 SUB ADD SWAP1 KECCAK256 PUSH2 0x54DD JUMP JUMPDEST PUSH1 0x40 MLOAD SWAP6 DUP7 SWAP6 PUSH1 0x60 DUP8 MSTORE PUSH1 0x60 DUP8 ADD SWAP1 PUSH2 0x45C6 JUMP JUMPDEST SWAP2 DUP6 DUP4 SUB SWAP1 DUP7 ADD MSTORE PUSH2 0x45C6 JUMP JUMPDEST DUP3 DUP2 SUB PUSH1 0x40 DUP5 ADD MSTORE CALLER SWAP6 PUSH2 0x45C6 JUMP JUMPDEST PUSH4 0x4E487B71 PUSH1 0xE0 SHL PUSH0 SWAP1 DUP2 MSTORE PUSH1 0x32 PUSH1 0x4 MSTORE REVERT JUMPDEST PUSH4 0x4E487B71 PUSH1 0xE0 SHL PUSH0 SWAP1 DUP2 MSTORE PUSH1 0x41 PUSH1 0x4 MSTORE REVERT JUMPDEST PUSH17 0x111254D5149250D517D491545552549151 PUSH1 0x7A SHL DUP8 SWAP2 PUSH1 0x11 DUP8 PUSH1 0x40 MLOAD SWAP5 PUSH3 0x461BCD PUSH1 0xE5 SHL DUP7 MSTORE PUSH1 0x4 DUP7 ADD MSTORE DUP5 ADD MSTORE DUP3 ADD MSTORE REVERT JUMPDEST PUSH14 0x115350525317D491545552549151 PUSH1 0x92 SHL DUP8 SWAP2 PUSH1 0xE DUP8 PUSH1 0x40 MLOAD SWAP5 PUSH3 0x461BCD PUSH1 0xE5 SHL DUP7 MSTORE PUSH1 0x4 DUP7 ADD MSTORE DUP5 ADD MSTORE DUP3 ADD MSTORE REVERT JUMPDEST PUSH14 0x141213D39157D491545552549151 PUSH1 0x92 SHL DUP8 SWAP2 PUSH1 0xE DUP8 PUSH1 0x40 MLOAD SWAP5 PUSH3 0x461BCD PUSH1 0xE5 SHL DUP7 MSTORE PUSH1 0x4 DUP7 ADD MSTORE DUP5 ADD MSTORE DUP3 ADD MSTORE REVERT JUMPDEST PUSH18 0x131054D517D390535157D491545552549151 PUSH1 0x72 SHL DUP8 SWAP2 PUSH1 0x12 DUP8 PUSH1 0x40 MLOAD SWAP5 PUSH3 0x461BCD PUSH1 0xE5 SHL DUP7 MSTORE PUSH1 0x4 DUP7 ADD MSTORE DUP5 ADD MSTORE DUP3 ADD MSTORE REVERT JUMPDEST PUSH19 0x11925494D517D390535157D491545552549151 PUSH1 0x6A SHL DUP8 SWAP2 PUSH1 0x13 DUP8 PUSH1 0x40 MLOAD SWAP5 PUSH3 0x461BCD PUSH1 0xE5 SHL DUP7 MSTORE PUSH1 0x4 DUP7 ADD MSTORE DUP5 ADD MSTORE DUP3 ADD MSTORE REVERT JUMPDEST PUSH32 0x555345525F414C52454144595F52454749535445524544000000000000000000 DUP8 SWAP2 PUSH1 0x17 DUP8 PUSH1 0x40 MLOAD SWAP5 PUSH3 0x461BCD PUSH1 0xE5 SHL DUP7 MSTORE PUSH1 0x4 DUP7 ADD MSTORE DUP5 ADD MSTORE DUP3 ADD MSTORE REVERT JUMPDEST CALLVALUE PUSH2 0x672 JUMPI PUSH1 0x20 CALLDATASIZE PUSH1 0x3 NOT ADD SLT PUSH2 0x672 JUMPI PUSH1 0x4 CALLDATALOAD PUSH2 0x18C6 PUSH2 0x58B7 JUMP JUMPDEST POP DUP1 ISZERO ISZERO DUP1 PUSH2 0x192A JUMPI JUMPDEST ISZERO PUSH2 0x18F2 JUMPI PUSH0 MSTORE PUSH1 0x13 PUSH1 0x20 MSTORE PUSH2 0x6DE PUSH1 0x40 PUSH0 KECCAK256 PUSH1 0xC PUSH1 0x40 MLOAD SWAP2 PUSH2 0x8C3 DUP4 PUSH2 0x4457 JUMP JUMPDEST PUSH1 0x40 MLOAD PUSH3 0x461BCD PUSH1 0xE5 SHL DUP2 MSTORE PUSH1 0x20 PUSH1 0x4 DUP3 ADD MSTORE PUSH1 0x10 PUSH1 0x24 DUP3 ADD MSTORE PUSH16 0x14915413D49517D393D517D193D55391 PUSH1 0x82 SHL PUSH1 0x44 DUP3 ADD MSTORE PUSH1 0x64 SWAP1 REVERT JUMPDEST POP PUSH1 0x14 SLOAD DUP2 GT ISZERO PUSH2 0x18D0 JUMP JUMPDEST CALLVALUE PUSH2 0x672 JUMPI PUSH1 0x40 CALLDATASIZE PUSH1 0x3 NOT ADD SLT PUSH2 0x672 JUMPI PUSH2 0x195C PUSH2 0x1952 PUSH2 0x4579 JUMP JUMPDEST PUSH1 0x24 CALLDATALOAD SWAP1 CALLER PUSH2 0x4CA4 JUMP JUMPDEST PUSH1 0x20 PUSH1 0x40 MLOAD PUSH1 0x1 DUP2 MSTORE RETURN JUMPDEST CALLVALUE PUSH2 0x672 JUMPI PUSH1 0x20 CALLDATASIZE PUSH1 0x3 NOT ADD SLT PUSH2 0x672 JUMPI PUSH1 0x1 PUSH1 0x1 PUSH1 0xA0 SHL SUB DUP1 PUSH2 0x1989 PUSH2 0x4579 JUMP JUMPDEST AND PUSH0 MSTORE PUSH1 0xC PUSH1 0x20 MSTORE PUSH1 0x40 PUSH0 KECCAK256 SWAP1 PUSH2 0x6DE PUSH2 0x19A2 DUP4 PUSH2 0x4623 JUMP JUMPDEST PUSH2 0x19AE PUSH1 0x1 DUP6 ADD PUSH2 0x4623 JUMP JUMPDEST SWAP4 PUSH2 0x19BB PUSH1 0x2 DUP3 ADD PUSH2 0x4623 JUMP JUMPDEST SWAP2 PUSH2 0x19C8 PUSH1 0x3 DUP4 ADD PUSH2 0x4623 JUMP JUMPDEST PUSH2 0x19D4 PUSH1 0x4 DUP5 ADD PUSH2 0x4623 JUMP JUMPDEST SWAP1 PUSH1 0x6 PUSH1 0x5 DUP6 ADD SLOAD SWAP5 ADD SLOAD SWAP5 PUSH1 0x40 MLOAD SWAP9 DUP10 SWAP9 PUSH1 0xFF DUP8 PUSH1 0xA0 SHR AND SWAP7 AND SWAP5 DUP10 PUSH2 0x46C4 JUMP JUMPDEST CALLVALUE PUSH2 0x672 JUMPI PUSH2 0x160 CALLDATASIZE PUSH1 0x3 NOT ADD SLT PUSH2 0x672 JUMPI PUSH1 0x4 CALLDATALOAD PUSH1 0x1 PUSH1 0x1 PUSH1 0x40 SHL SUB DUP2 GT PUSH2 0x672 JUMPI PUSH2 0x1A27 SWAP1 CALLDATASIZE SWAP1 PUSH1 0x4 ADD PUSH2 0x44CC JUMP JUMPDEST PUSH1 0x24 CALLDATALOAD PUSH1 0x1 PUSH1 0x1 PUSH1 0x40 SHL SUB DUP2 GT PUSH2 0x672 JUMPI PUSH2 0x1A46 SWAP1 CALLDATASIZE SWAP1 PUSH1 0x4 ADD PUSH2 0x44CC JUMP JUMPDEST SWAP1 PUSH1 0x44 CALLDATALOAD PUSH1 0x1 PUSH1 0x1 PUSH1 0x40 SHL SUB DUP2 GT PUSH2 0x672 JUMPI PUSH2 0x1A66 SWAP1 CALLDATASIZE SWAP1 PUSH1 0x4 ADD PUSH2 0x44CC JUMP JUMPDEST SWAP1 PUSH1 0xA4 CALLDATALOAD PUSH1 0x1 PUSH1 0x1 PUSH1 0x40 SHL SUB DUP2 GT PUSH2 0x672 JUMPI PUSH2 0x1A86 SWAP1 CALLDATASIZE SWAP1 PUSH1 0x4 ADD PUSH2 0x44CC JUMP JUMPDEST SWAP3 PUSH1 0xC4 CALLDATALOAD PUSH1 0x1 PUSH1 0x1 PUSH1 0x40 SHL SUB DUP2 GT PUSH2 0x672 JUMPI PUSH2 0x1AA6 SWAP1 CALLDATASIZE SWAP1 PUSH1 0x4 ADD PUSH2 0x44CC JUMP JUMPDEST PUSH1 0xE4 CALLDATALOAD PUSH1 0x1 PUSH1 0x1 PUSH1 0x40 SHL SUB DUP2 GT PUSH2 0x672 JUMPI PUSH2 0x1AC5 SWAP1 CALLDATASIZE SWAP1 PUSH1 0x4 ADD PUSH2 0x44CC JUMP JUMPDEST PUSH2 0x144 CALLDATALOAD PUSH1 0x1 PUSH1 0x1 PUSH1 0x40 SHL SUB DUP2 GT PUSH2 0x672 JUMPI PUSH2 0x1AE5 SWAP1 CALLDATASIZE SWAP1 PUSH1 0x4 ADD PUSH2 0x44CC JUMP JUMPDEST SWAP2 CALLER PUSH0 MSTORE PUSH1 0xC PUSH1 0x20 MSTORE PUSH1 0xFF PUSH1 0x5 PUSH1 0x40 PUSH0 KECCAK256 ADD SLOAD PUSH1 0xA0 SHR AND ISZERO PUSH2 0x25BE JUMPI DUP5 MLOAD ISZERO PUSH2 0x2581 JUMPI DUP4 MLOAD ISZERO PUSH2 0x253C JUMPI DUP6 MLOAD ISZERO PUSH2 0x24FF JUMPI PUSH1 0x64 CALLDATALOAD ISZERO PUSH2 0x24C4 JUMPI PUSH1 0x64 CALLDATALOAD PUSH1 0x84 CALLDATALOAD GT ISZERO PUSH2 0x2475 JUMPI DUP7 MLOAD ISZERO PUSH2 0x2430 JUMPI DUP1 MLOAD ISZERO PUSH2 0x23FB JUMPI DUP2 MLOAD ISZERO PUSH2 0x23C5 JUMPI PUSH2 0x104 CALLDATALOAD ISZERO PUSH2 0x2380 JUMPI PUSH2 0x124 CALLDATALOAD ISZERO PUSH2 0x2330 JUMPI DUP3 MLOAD ISZERO PUSH2 0x22F7 JUMPI PUSH2 0x1B63 PUSH1 0x10 SLOAD PUSH2 0x566F JUMP JUMPDEST SWAP6 DUP7 PUSH1 0x10 SSTORE PUSH1 0x40 MLOAD SWAP5 PUSH2 0x1B75 DUP7 PUSH2 0x448F JUMP JUMPDEST DUP7 DUP7 MSTORE PUSH1 0x20 DUP7 ADD MSTORE PUSH1 0x40 DUP6 ADD MSTORE PUSH1 0x64 CALLDATALOAD PUSH1 0x60 DUP6 ADD MSTORE PUSH1 0x84 CALLDATALOAD PUSH1 0x80 DUP6 ADD MSTORE DUP7 PUSH1 0xA0 DUP6 ADD MSTORE PUSH1 0xC0 DUP5 ADD MSTORE PUSH1 0xE0 DUP4 ADD MSTORE PUSH2 0x104 CALLDATALOAD PUSH2 0x100 DUP4 ADD MSTORE PUSH2 0x124 CALLDATALOAD PUSH2 0x120 DUP4 ADD MSTORE PUSH2 0x140 DUP3 ADD MSTORE CALLER PUSH2 0x160 DUP3 ADD MSTORE PUSH0 PUSH2 0x180 DUP3 ADD MSTORE PUSH1 0x1 PUSH2 0x1A0 DUP3 ADD MSTORE TIMESTAMP PUSH2 0x1C0 DUP3 ADD MSTORE PUSH0 PUSH2 0x1E0 DUP3 ADD MSTORE PUSH0 PUSH2 0x200 DUP3 ADD MSTORE PUSH0 PUSH2 0x220 DUP3 ADD MSTORE DUP3 PUSH0 MSTORE PUSH1 0xF PUSH1 0x20 MSTORE PUSH1 0x40 PUSH0 KECCAK256 SWAP2 DUP2 MLOAD DUP1 MLOAD SWAP1 PUSH1 0x1 PUSH1 0x1 PUSH1 0x40 SHL SUB DUP3 GT PUSH2 0xD78 JUMPI DUP2 SWAP1 PUSH2 0x1C24 DUP3 PUSH2 0x1C1E DUP9 SLOAD PUSH2 0x45EB JUMP JUMPDEST DUP9 PUSH2 0x50A3 JUMP JUMPDEST PUSH1 0x20 SWAP1 PUSH1 0x1F DUP4 GT PUSH1 0x1 EQ PUSH2 0x228F JUMPI PUSH0 SWAP3 PUSH2 0x2284 JUMPI JUMPDEST POP POP DUP2 PUSH1 0x1 SHL SWAP2 PUSH0 NOT SWAP1 PUSH1 0x3 SHL SHR NOT AND OR DUP4 SSTORE JUMPDEST PUSH1 0x20 DUP3 ADD MLOAD DUP1 MLOAD SWAP1 PUSH1 0x1 PUSH1 0x1 PUSH1 0x40 SHL SUB DUP3 GT PUSH2 0xD78 JUMPI DUP2 SWAP1 PUSH2 0x1C7F DUP3 PUSH2 0x1C76 PUSH1 0x1 DUP10 ADD SLOAD PUSH2 0x45EB JUMP JUMPDEST PUSH1 0x1 DUP10 ADD PUSH2 0x50A3 JUMP JUMPDEST PUSH1 0x20 SWAP1 PUSH1 0x1F DUP4 GT PUSH1 0x1 EQ PUSH2 0x2216 JUMPI PUSH0 SWAP3 PUSH2 0x220B JUMPI JUMPDEST POP POP DUP2 PUSH1 0x1 SHL SWAP2 PUSH0 NOT SWAP1 PUSH1 0x3 SHL SHR NOT AND OR PUSH1 0x1 DUP5 ADD SSTORE JUMPDEST PUSH1 0x40 DUP3 ADD MLOAD DUP1 MLOAD SWAP1 PUSH1 0x1 PUSH1 0x1 PUSH1 0x40 SHL SUB DUP3 GT PUSH2 0xD78 JUMPI DUP2 SWAP1 PUSH2 0x1CDD DUP3 PUSH2 0x1CD4 PUSH1 0x2 DUP10 ADD SLOAD PUSH2 0x45EB JUMP JUMPDEST PUSH1 0x2 DUP10 ADD PUSH2 0x50A3 JUMP JUMPDEST PUSH1 0x20 SWAP1 PUSH1 0x1F DUP4 GT PUSH1 0x1 EQ PUSH2 0x219D JUMPI PUSH0 SWAP3 PUSH2 0x2192 JUMPI JUMPDEST POP POP DUP2 PUSH1 0x1 SHL SWAP2 PUSH0 NOT SWAP1 PUSH1 0x3 SHL SHR NOT AND OR PUSH1 0x2 DUP5 ADD SSTORE JUMPDEST PUSH1 0x60 DUP3 ADD MLOAD PUSH1 0x3 DUP5 ADD SSTORE PUSH1 0x80 DUP3 ADD MLOAD PUSH1 0x4 DUP5 ADD SSTORE PUSH1 0xA0 DUP3 ADD MLOAD DUP1 MLOAD SWAP1 PUSH1 0x1 PUSH1 0x1 PUSH1 0x40 SHL SUB DUP3 GT PUSH2 0xD78 JUMPI DUP2 SWAP1 PUSH2 0x1D4F DUP3 PUSH2 0x1D46 PUSH1 0x5 DUP10 ADD SLOAD PUSH2 0x45EB JUMP JUMPDEST PUSH1 0x5 DUP10 ADD PUSH2 0x50A3 JUMP JUMPDEST PUSH1 0x20 SWAP1 PUSH1 0x1F DUP4 GT PUSH1 0x1 EQ PUSH2 0x2124 JUMPI PUSH0 SWAP3 PUSH2 0x2119 JUMPI JUMPDEST POP POP DUP2 PUSH1 0x1 SHL SWAP2 PUSH0 NOT SWAP1 PUSH1 0x3 SHL SHR NOT AND OR PUSH1 0x5 DUP5 ADD SSTORE JUMPDEST PUSH1 0xC0 DUP3 ADD MLOAD DUP1 MLOAD SWAP1 PUSH1 0x1 PUSH1 0x1 PUSH1 0x40 SHL SUB DUP3 GT PUSH2 0xD78 JUMPI DUP2 SWAP1 PUSH2 0x1DAD DUP3 PUSH2 0x1DA4 PUSH1 0x6 DUP10 ADD SLOAD PUSH2 0x45EB JUMP JUMPDEST PUSH1 0x6 DUP10 ADD PUSH2 0x50A3 JUMP JUMPDEST PUSH1 0x20 SWAP1 PUSH1 0x1F DUP4 GT PUSH1 0x1 EQ PUSH2 0x20AB JUMPI PUSH0 SWAP3 PUSH2 0x20A0 JUMPI JUMPDEST POP POP DUP2 PUSH1 0x1 SHL SWAP2 PUSH0 NOT SWAP1 PUSH1 0x3 SHL SHR NOT AND OR PUSH1 0x6 DUP5 ADD SSTORE JUMPDEST PUSH1 0xE0 DUP3 ADD MLOAD DUP1 MLOAD SWAP1 PUSH1 0x1 PUSH1 0x1 PUSH1 0x40 SHL SUB DUP3 GT PUSH2 0xD78 JUMPI DUP2 SWAP1 PUSH2 0x1E0B DUP3 PUSH2 0x1E02 PUSH1 0x7 DUP10 ADD SLOAD PUSH2 0x45EB JUMP JUMPDEST PUSH1 0x7 DUP10 ADD PUSH2 0x50A3 JUMP JUMPDEST PUSH1 0x20 SWAP1 PUSH1 0x1F DUP4 GT PUSH1 0x1 EQ PUSH2 0x2032 JUMPI PUSH0 SWAP3 PUSH2 0x2027 JUMPI JUMPDEST POP POP DUP2 PUSH1 0x1 SHL SWAP2 PUSH0 NOT SWAP1 PUSH1 0x3 SHL SHR NOT AND OR PUSH1 0x7 DUP5 ADD SSTORE JUMPDEST PUSH2 0x100 DUP3 ADD MLOAD PUSH1 0x8 DUP5 ADD SSTORE PUSH2 0x120 DUP3 ADD MLOAD PUSH1 0x9 DUP5 ADD SSTORE PUSH2 0x140 DUP3 ADD MLOAD DUP1 MLOAD SWAP1 PUSH1 0x1 PUSH1 0x1 PUSH1 0x40 SHL SUB DUP3 GT PUSH2 0xD78 JUMPI DUP2 SWAP1 PUSH2 0x1E80 DUP3 PUSH2 0x1E77 PUSH1 0xA DUP10 ADD SLOAD PUSH2 0x45EB JUMP JUMPDEST PUSH1 0xA DUP10 ADD PUSH2 0x50A3 JUMP JUMPDEST PUSH1 0x20 SWAP1 PUSH1 0x1F DUP4 GT PUSH1 0x1 EQ PUSH2 0x1FB9 JUMPI PUSH0 SWAP3 PUSH2 0x1FAE JUMPI JUMPDEST POP POP DUP2 PUSH1 0x1 SHL SWAP2 PUSH0 NOT SWAP1 PUSH1 0x3 SHL SHR NOT AND OR PUSH1 0xA DUP5 ADD SSTORE JUMPDEST PUSH2 0x160 DUP3 ADD MLOAD PUSH1 0xB DUP5 ADD DUP1 SLOAD PUSH1 0x1 PUSH1 0x1 PUSH1 0xA0 SHL SUB SWAP3 DUP4 AND PUSH1 0x1 PUSH1 0x1 PUSH1 0xA0 SHL SUB NOT SWAP1 SWAP2 AND OR SWAP1 SSTORE PUSH2 0x180 DUP4 ADD MLOAD PUSH1 0xC DUP6 ADD DUP1 SLOAD PUSH2 0x1A0 DUP7 ADD MLOAD PUSH1 0xFF PUSH1 0xA0 SHL SWAP1 ISZERO ISZERO PUSH1 0xA0 SHL AND SWAP3 SWAP1 SWAP4 AND PUSH1 0x1 PUSH1 0x1 PUSH1 0xA8 SHL SUB NOT SWAP1 SWAP4 AND SWAP3 SWAP1 SWAP3 OR OR SWAP1 SSTORE PUSH2 0x1C0 DUP3 ADD MLOAD PUSH1 0xD DUP5 ADD SSTORE PUSH2 0x1E0 DUP3 ADD MLOAD SWAP3 PUSH1 0xE DUP2 ADD PUSH1 0x4 DUP6 LT ISZERO PUSH2 0x652 JUMPI PUSH2 0x220 PUSH2 0x1F9A SWAP5 PUSH1 0x10 SWAP3 PUSH32 0x827808350D86A9E03C1D72B15E7B1D89CE816461667232EF2B55B41C5051DC20 SWAP8 PUSH1 0xFF DUP1 NOT DUP4 SLOAD AND SWAP2 AND OR SWAP1 SSTORE PUSH2 0x200 DUP2 ADD MLOAD PUSH1 0xF DUP6 ADD SSTORE ADD MLOAD SWAP2 ADD SSTORE CALLER PUSH0 MSTORE PUSH1 0x11 PUSH1 0x20 MSTORE PUSH2 0x1F83 DUP5 PUSH1 0x40 PUSH0 KECCAK256 PUSH2 0x5747 JUMP JUMPDEST PUSH2 0x1FA9 PUSH1 0x40 MLOAD SWAP3 DUP4 SWAP3 PUSH1 0x40 DUP5 MSTORE PUSH1 0x40 DUP5 ADD SWAP1 PUSH2 0x45C6 JUMP JUMPDEST DUP3 DUP2 SUB PUSH1 0x20 DUP5 ADD MSTORE CALLER SWAP7 PUSH2 0x45C6 JUMP JUMPDEST SUB SWAP1 LOG3 STOP JUMPDEST ADD MLOAD SWAP1 POP DUP8 DUP1 PUSH2 0x1E95 JUMP JUMPDEST SWAP3 POP PUSH1 0xA DUP7 ADD PUSH0 MSTORE PUSH1 0x20 PUSH0 KECCAK256 SWAP1 PUSH0 SWAP4 JUMPDEST PUSH1 0x1F NOT DUP5 AND DUP6 LT PUSH2 0x200C JUMPI PUSH1 0x1 SWAP5 POP DUP4 PUSH1 0x1F NOT DUP2 AND LT PUSH2 0x1FF4 JUMPI JUMPDEST POP POP POP DUP2 SHL ADD PUSH1 0xA DUP5 ADD SSTORE PUSH2 0x1EAC JUMP JUMPDEST ADD MLOAD PUSH0 NOT PUSH1 0xF8 DUP5 PUSH1 0x3 SHL AND SHR NOT AND SWAP1 SSTORE DUP8 DUP1 DUP1 PUSH2 0x1FE4 JUMP JUMPDEST DUP2 DUP2 ADD MLOAD DUP4 SSTORE PUSH1 0x20 SWAP5 DUP6 ADD SWAP5 PUSH1 0x1 SWAP1 SWAP4 ADD SWAP3 SWAP1 SWAP2 ADD SWAP1 PUSH2 0x1FC9 JUMP JUMPDEST ADD MLOAD SWAP1 POP DUP8 DUP1 PUSH2 0x1E20 JUMP JUMPDEST SWAP3 POP PUSH1 0x7 DUP7 ADD PUSH0 MSTORE PUSH1 0x20 PUSH0 KECCAK256 SWAP1 PUSH0 SWAP4 JUMPDEST PUSH1 0x1F NOT DUP5 AND DUP6 LT PUSH2 0x2085 JUMPI PUSH1 0x1 SWAP5 POP DUP4 PUSH1 0x1F NOT DUP2 AND LT PUSH2 0x206D JUMPI JUMPDEST POP POP POP DUP2 SHL ADD PUSH1 0x7 DUP5 ADD SSTORE PUSH2 0x1E37 JUMP JUMPDEST ADD MLOAD PUSH0 NOT PUSH1 0xF8 DUP5 PUSH1 0x3 SHL AND SHR NOT AND SWAP1 SSTORE DUP8 DUP1 DUP1 PUSH2 0x205D JUMP JUMPDEST DUP2 DUP2 ADD MLOAD DUP4 SSTORE PUSH1 0x20 SWAP5 DUP6 ADD SWAP5 PUSH1 0x1 SWAP1 SWAP4 ADD SWAP3 SWAP1 SWAP2 ADD SWAP1 PUSH2 0x2042 JUMP JUMPDEST ADD MLOAD SWAP1 POP DUP8 DUP1 PUSH2 0x1DC2 JUMP JUMPDEST SWAP3 POP PUSH1 0x6 DUP7 ADD PUSH0 MSTORE PUSH1 0x20 PUSH0 KECCAK256 SWAP1 PUSH0 SWAP4 JUMPDEST PUSH1 0x1F NOT DUP5 AND DUP6 LT PUSH2 0x20FE JUMPI PUSH1 0x1 SWAP5 POP DUP4 PUSH1 0x1F NOT DUP2 AND LT PUSH2 0x20E6 JUMPI JUMPDEST POP POP POP DUP2 SHL ADD PUSH1 0x6 DUP5 ADD SSTORE PUSH2 0x1DD9 JUMP JUMPDEST ADD MLOAD PUSH0 NOT PUSH1 0xF8 DUP5 PUSH1 0x3 SHL AND SHR NOT AND SWAP1 SSTORE DUP8 DUP1 DUP1 PUSH2 0x20D6 JUMP JUMPDEST DUP2 DUP2 ADD MLOAD DUP4 SSTORE PUSH1 0x20 SWAP5 DUP6 ADD SWAP5 PUSH1 0x1 SWAP1 SWAP4 ADD SWAP3 SWAP1 SWAP2 ADD SWAP1 PUSH2 0x20BB JUMP JUMPDEST ADD MLOAD SWAP1 POP DUP8 DUP1 PUSH2 0x1D64 JUMP JUMPDEST SWAP3 POP PUSH1 0x5 DUP7 ADD PUSH0 MSTORE PUSH1 0x20 PUSH0 KECCAK256 SWAP1 PUSH0 SWAP4 JUMPDEST PUSH1 0x1F NOT DUP5 AND DUP6 LT PUSH2 0x2177 JUMPI PUSH1 0x1 SWAP5 POP DUP4 PUSH1 0x1F NOT DUP2 AND LT PUSH2 0x215F JUMPI JUMPDEST POP POP POP DUP2 SHL ADD PUSH1 0x5 DUP5 ADD SSTORE PUSH2 0x1D7B JUMP JUMPDEST ADD MLOAD PUSH0 NOT PUSH1 0xF8 DUP5 PUSH1 0x3 SHL AND SHR NOT AND SWAP1 SSTORE DUP8 DUP1 DUP1 PUSH2 0x214F JUMP JUMPDEST DUP2 DUP2 ADD MLOAD DUP4 SSTORE PUSH1 0x20 SWAP5 DUP6 ADD SWAP5 PUSH1 0x1 SWAP1 SWAP4 ADD SWAP3 SWAP1 SWAP2 ADD SWAP1 PUSH2 0x2134 JUMP JUMPDEST ADD MLOAD SWAP1 POP DUP8 DUP1 PUSH2 0x1CF2 JUMP JUMPDEST SWAP3 POP PUSH1 0x2 DUP7 ADD PUSH0 MSTORE PUSH1 0x20 PUSH0 KECCAK256 SWAP1 PUSH0 SWAP4 JUMPDEST PUSH1 0x1F NOT DUP5 AND DUP6 LT PUSH2 0x21F0 JUMPI PUSH1 0x1 SWAP5 POP DUP4 PUSH1 0x1F NOT DUP2 AND LT PUSH2 0x21D8 JUMPI JUMPDEST POP POP POP DUP2 SHL ADD PUSH1 0x2 DUP5 ADD SSTORE PUSH2 0x1D09 JUMP JUMPDEST ADD MLOAD PUSH0 NOT PUSH1 0xF8 DUP5 PUSH1 0x3 SHL AND SHR NOT AND SWAP1 SSTORE DUP8 DUP1 DUP1 PUSH2 0x21C8 JUMP JUMPDEST DUP2 DUP2 ADD MLOAD DUP4 SSTORE PUSH1 0x20 SWAP5 DUP6 ADD SWAP5 PUSH1 0x1 SWAP1 SWAP4 ADD SWAP3 SWAP1 SWAP2 ADD SWAP1 PUSH2 0x21AD JUMP JUMPDEST ADD MLOAD SWAP1 POP DUP8 DUP1 PUSH2 0x1C94 JUMP JUMPDEST SWAP3 POP PUSH1 0x1 DUP7 ADD PUSH0 MSTORE PUSH1 0x20 PUSH0 KECCAK256 SWAP1 PUSH0 SWAP4 JUMPDEST PUSH1 0x1F NOT DUP5 AND DUP6 LT PUSH2 0x2269 JUMPI PUSH1 0x1 SWAP5 POP DUP4 PUSH1 0x1F NOT DUP2 AND LT PUSH2 0x2251 JUMPI JUMPDEST POP POP POP DUP2 SHL ADD PUSH1 0x1 DUP5 ADD SSTORE PUSH2 0x1CAB JUMP JUMPDEST ADD MLOAD PUSH0 NOT PUSH1 0xF8 DUP5 PUSH1 0x3 SHL AND SHR NOT AND SWAP1 SSTORE DUP8 DUP1 DUP1 PUSH2 0x2241 JUMP JUMPDEST DUP2 DUP2 ADD MLOAD DUP4 SSTORE PUSH1 0x20 SWAP5 DUP6 ADD SWAP5 PUSH1 0x1 SWAP1 SWAP4 ADD SWAP3 SWAP1 SWAP2 ADD SWAP1 PUSH2 0x2226 JUMP JUMPDEST ADD MLOAD SWAP1 POP DUP8 DUP1 PUSH2 0x1C39 JUMP JUMPDEST SWAP3 POP DUP6 PUSH0 MSTORE PUSH1 0x20 PUSH0 KECCAK256 SWAP1 PUSH0 SWAP4 JUMPDEST PUSH1 0x1F NOT DUP5 AND DUP6 LT PUSH2 0x22DC JUMPI PUSH1 0x1 SWAP5 POP DUP4 PUSH1 0x1F NOT DUP2 AND LT PUSH2 0x22C4 JUMPI JUMPDEST POP POP POP DUP2 SHL ADD DUP4 SSTORE PUSH2 0x1C4D JUMP JUMPDEST ADD MLOAD PUSH0 NOT PUSH1 0xF8 DUP5 PUSH1 0x3 SHL AND SHR NOT AND SWAP1 SSTORE DUP8 DUP1 DUP1 PUSH2 0x22B7 JUMP JUMPDEST DUP2 DUP2 ADD MLOAD DUP4 SSTORE PUSH1 0x20 SWAP5 DUP6 ADD SWAP5 PUSH1 0x1 SWAP1 SWAP4 ADD SWAP3 SWAP1 SWAP2 ADD SWAP1 PUSH2 0x229C JUMP JUMPDEST PUSH1 0x40 MLOAD PUSH3 0x461BCD PUSH1 0xE5 SHL DUP2 MSTORE PUSH1 0x20 PUSH1 0x4 DUP3 ADD MSTORE PUSH1 0x11 PUSH1 0x24 DUP3 ADD MSTORE PUSH17 0x12541194D7D5549317D491545552549151 PUSH1 0x7A SHL PUSH1 0x44 DUP3 ADD MSTORE PUSH1 0x64 SWAP1 REVERT JUMPDEST PUSH1 0x40 MLOAD PUSH3 0x461BCD PUSH1 0xE5 SHL DUP2 MSTORE PUSH1 0x20 PUSH1 0x4 DUP3 ADD MSTORE PUSH1 0x22 PUSH1 0x24 DUP3 ADD MSTORE PUSH32 0x455354494D415445445F435245444954535F4D5553545F42455F504F53495449 PUSH1 0x44 DUP3 ADD MSTORE PUSH2 0x5645 PUSH1 0xF0 SHL PUSH1 0x64 DUP3 ADD MSTORE PUSH1 0x84 SWAP1 REVERT JUMPDEST PUSH1 0x40 MLOAD PUSH3 0x461BCD PUSH1 0xE5 SHL DUP2 MSTORE PUSH1 0x20 PUSH1 0x4 DUP3 ADD MSTORE PUSH1 0x1A PUSH1 0x24 DUP3 ADD MSTORE PUSH32 0x4C414E445F415245415F4D5553545F42455F504F534954495645000000000000 PUSH1 0x44 DUP3 ADD MSTORE PUSH1 0x64 SWAP1 REVERT JUMPDEST PUSH1 0x40 MLOAD PUSH3 0x461BCD PUSH1 0xE5 SHL DUP2 MSTORE PUSH1 0x20 PUSH1 0x4 DUP3 ADD MSTORE PUSH1 0xE PUSH1 0x24 DUP3 ADD MSTORE PUSH14 0x14D510551157D491545552549151 PUSH1 0x92 SHL PUSH1 0x44 DUP3 ADD MSTORE PUSH1 0x64 SWAP1 REVERT JUMPDEST PUSH1 0x40 MLOAD PUSH3 0x461BCD PUSH1 0xE5 SHL DUP2 MSTORE PUSH1 0x20 PUSH1 0x4 DUP3 ADD MSTORE PUSH1 0xD PUSH1 0x24 DUP3 ADD MSTORE PUSH13 0x10D2551657D491545552549151 PUSH1 0x9A SHL PUSH1 0x44 DUP3 ADD MSTORE PUSH1 0x64 SWAP1 REVERT JUMPDEST PUSH1 0x40 MLOAD PUSH3 0x461BCD PUSH1 0xE5 SHL DUP2 MSTORE PUSH1 0x20 PUSH1 0x4 DUP3 ADD MSTORE PUSH1 0x18 PUSH1 0x24 DUP3 ADD MSTORE PUSH32 0x50524F4A4543545F414444524553535F52455155495245440000000000000000 PUSH1 0x44 DUP3 ADD MSTORE PUSH1 0x64 SWAP1 REVERT JUMPDEST PUSH1 0x40 MLOAD PUSH3 0x461BCD PUSH1 0xE5 SHL DUP2 MSTORE PUSH1 0x20 PUSH1 0x4 DUP3 ADD MSTORE PUSH1 0x21 PUSH1 0x24 DUP3 ADD MSTORE PUSH32 0x454E445F444154455F4D5553545F42455F41465445525F53544152545F444154 PUSH1 0x44 DUP3 ADD MSTORE PUSH1 0x45 PUSH1 0xF8 SHL PUSH1 0x64 DUP3 ADD MSTORE PUSH1 0x84 SWAP1 REVERT JUMPDEST PUSH1 0x40 MLOAD PUSH3 0x461BCD PUSH1 0xE5 SHL DUP2 MSTORE PUSH1 0x20 PUSH1 0x4 DUP3 ADD MSTORE PUSH1 0x13 PUSH1 0x24 DUP3 ADD MSTORE PUSH19 0x14D510549517D110551157D491545552549151 PUSH1 0x6A SHL PUSH1 0x44 DUP3 ADD MSTORE PUSH1 0x64 SWAP1 REVERT JUMPDEST PUSH1 0x40 MLOAD PUSH3 0x461BCD PUSH1 0xE5 SHL DUP2 MSTORE PUSH1 0x20 PUSH1 0x4 DUP3 ADD MSTORE PUSH1 0x15 PUSH1 0x24 DUP3 ADD MSTORE PUSH21 0x141493D29150D517D516541157D491545552549151 PUSH1 0x5A SHL PUSH1 0x44 DUP3 ADD MSTORE PUSH1 0x64 SWAP1 REVERT JUMPDEST PUSH1 0x40 MLOAD PUSH3 0x461BCD PUSH1 0xE5 SHL DUP2 MSTORE PUSH1 0x20 PUSH1 0x4 DUP3 ADD MSTORE PUSH1 0x1C PUSH1 0x24 DUP3 ADD MSTORE PUSH32 0x50524F4A4543545F4445534352495054494F4E5F524551554952454400000000 PUSH1 0x44 DUP3 ADD MSTORE PUSH1 0x64 SWAP1 REVERT JUMPDEST PUSH1 0x40 MLOAD PUSH3 0x461BCD PUSH1 0xE5 SHL DUP2 MSTORE PUSH1 0x20 PUSH1 0x4 DUP3 ADD MSTORE PUSH1 0x15 PUSH1 0x24 DUP3 ADD MSTORE PUSH21 0x141493D29150D517D390535157D491545552549151 PUSH1 0x5A SHL PUSH1 0x44 DUP3 ADD MSTORE PUSH1 0x64 SWAP1 REVERT JUMPDEST PUSH1 0x40 MLOAD PUSH3 0x461BCD PUSH1 0xE5 SHL DUP2 MSTORE PUSH1 0x20 PUSH1 0x4 DUP3 ADD MSTORE PUSH1 0x17 PUSH1 0x24 DUP3 ADD MSTORE PUSH32 0x555345525F4D5553545F42455F52454749535445524544000000000000000000 PUSH1 0x44 DUP3 ADD MSTORE PUSH1 0x64 SWAP1 REVERT JUMPDEST PUSH2 0x48FA JUMP JUMPDEST CALLVALUE PUSH2 0x672 JUMPI PUSH0 CALLDATASIZE PUSH1 0x3 NOT ADD SLT PUSH2 0x672 JUMPI PUSH1 0x40 MLOAD PUSH0 PUSH1 0x4 SLOAD PUSH2 0x2628 DUP2 PUSH2 0x45EB JUMP JUMPDEST DUP1 DUP5 MSTORE SWAP1 PUSH1 0x1 SWAP1 DUP2 DUP2 AND SWAP1 DUP2 ISZERO PUSH2 0x26C0 JUMPI POP PUSH1 0x1 EQ PUSH2 0x2666 JUMPI JUMPDEST PUSH2 0x6DE DUP5 PUSH2 0x2652 DUP2 DUP7 SUB DUP3 PUSH2 0x44AB JUMP JUMPDEST PUSH1 0x40 MLOAD SWAP2 DUP3 SWAP2 PUSH1 0x20 DUP4 MSTORE PUSH1 0x20 DUP4 ADD SWAP1 PUSH2 0x45C6 JUMP JUMPDEST PUSH1 0x4 PUSH0 SWAP1 DUP2 MSTORE SWAP3 POP PUSH32 0x8A35ACFBC15FF81A39AE7D344FD709F28E8600B4AA8C65C6B64BFE7FE36BD19B JUMPDEST DUP3 DUP5 LT PUSH2 0x26A8 JUMPI POP POP POP DUP2 ADD PUSH1 0x20 ADD PUSH2 0x2652 DUP3 PUSH2 0x2642 JUMP JUMPDEST DUP1 SLOAD PUSH1 0x20 DUP6 DUP8 ADD DUP2 ADD SWAP2 SWAP1 SWAP2 MSTORE SWAP1 SWAP4 ADD SWAP3 DUP2 ADD PUSH2 0x2690 JUMP JUMPDEST PUSH1 0xFF NOT AND PUSH1 0x20 DUP1 DUP8 ADD SWAP2 SWAP1 SWAP2 MSTORE SWAP3 ISZERO ISZERO PUSH1 0x5 SHL DUP6 ADD SWAP1 SWAP3 ADD SWAP3 POP PUSH2 0x2652 SWAP2 POP DUP4 SWAP1 POP PUSH2 0x2642 JUMP JUMPDEST CALLVALUE PUSH2 0x672 JUMPI PUSH0 CALLDATASIZE PUSH1 0x3 NOT ADD SLT PUSH2 0x672 JUMPI PUSH1 0x20 PUSH1 0x17 SLOAD PUSH1 0x40 MLOAD SWAP1 DUP2 MSTORE RETURN JUMPDEST CALLVALUE PUSH2 0x672 JUMPI PUSH1 0x20 CALLDATASIZE PUSH1 0x3 NOT ADD SLT PUSH2 0x672 JUMPI PUSH1 0x1 PUSH1 0x1 PUSH1 0xA0 SHL SUB PUSH2 0x2725 PUSH2 0x4579 JUMP JUMPDEST AND PUSH0 MSTORE PUSH1 0x1A PUSH1 0x20 MSTORE PUSH1 0x20 PUSH1 0x40 PUSH0 KECCAK256 SLOAD PUSH1 0x40 MLOAD SWAP1 DUP2 MSTORE RETURN JUMPDEST CALLVALUE PUSH2 0x672 JUMPI PUSH1 0x40 CALLDATASIZE PUSH1 0x3 NOT ADD SLT PUSH2 0x672 JUMPI PUSH2 0x2755 PUSH2 0x458F JUMP JUMPDEST PUSH1 0x4 CALLDATALOAD PUSH0 MSTORE PUSH1 0x5 PUSH1 0x20 MSTORE PUSH1 0x40 PUSH0 KECCAK256 SWAP1 PUSH1 0x1 DUP1 PUSH1 0xA0 SHL SUB AND PUSH0 MSTORE PUSH1 0x20 MSTORE PUSH1 0x20 PUSH1 0xFF PUSH1 0x40 PUSH0 KECCAK256 SLOAD AND PUSH1 0x40 MLOAD SWAP1 ISZERO ISZERO DUP2 MSTORE RETURN JUMPDEST CALLVALUE PUSH2 0x672 JUMPI PUSH1 0x20 CALLDATASIZE PUSH1 0x3 NOT ADD SLT PUSH2 0x672 JUMPI PUSH1 0x4 CALLDATALOAD PUSH0 MSTORE PUSH1 0x13 PUSH1 0x20 MSTORE PUSH1 0x40 PUSH0 KECCAK256 DUP1 SLOAD PUSH1 0x1 PUSH1 0xA0 SHL PUSH1 0x1 SWAP1 SUB PUSH1 0x1 DUP4 ADD SLOAD AND SWAP2 PUSH1 0x2 DUP2 ADD SLOAD PUSH1 0x3 DUP3 ADD SLOAD SWAP2 PUSH1 0x4 DUP2 ADD SLOAD PUSH1 0x5 DUP3 ADD SLOAD PUSH1 0x6 DUP4 ADD SLOAD PUSH1 0x7 DUP5 ADD SLOAD SWAP1 PUSH1 0x8 DUP6 ADD SLOAD SWAP3 PUSH1 0x9 DUP7 ADD PUSH2 0x27E9 SWAP1 PUSH2 0x4623 JUMP JUMPDEST SWAP5 PUSH1 0xA DUP8 ADD SLOAD SWAP9 PUSH1 0xB DUP9 ADD SLOAD SWAP8 PUSH1 0xC ADD SLOAD SWAP9 PUSH1 0x40 MLOAD SWAP13 DUP14 SWAP13 DUP14 MSTORE PUSH1 0x20 DUP14 ADD MSTORE PUSH1 0x40 DUP13 ADD MSTORE PUSH1 0x60 DUP12 ADD MSTORE PUSH1 0x80 DUP11 ADD MSTORE PUSH1 0xA0 DUP10 ADD MSTORE PUSH1 0xC0 DUP9 ADD MSTORE PUSH1 0xE0 DUP8 ADD MSTORE PUSH1 0xFF DUP2 AND ISZERO ISZERO PUSH2 0x100 DUP8 ADD MSTORE DUP1 PUSH1 0x8 SHR PUSH1 0xFF AND ISZERO ISZERO PUSH2 0x120 DUP8 ADD MSTORE DUP1 PUSH1 0x10 SHR PUSH1 0xFF AND ISZERO ISZERO PUSH2 0x140 DUP8 ADD MSTORE PUSH1 0x18 SHR PUSH1 0xFF AND ISZERO ISZERO PUSH2 0x160 DUP7 ADD MSTORE PUSH2 0x220 DUP1 PUSH2 0x180 DUP8 ADD MSTORE DUP6 ADD PUSH2 0x2873 SWAP2 PUSH2 0x45C6 JUMP JUMPDEST PUSH2 0x1A0 DUP6 ADD SWAP4 SWAP1 SWAP4 MSTORE PUSH1 0xFF DUP2 AND ISZERO ISZERO PUSH2 0x1C0 DUP6 ADD MSTORE PUSH1 0x8 SHR PUSH1 0x1 PUSH1 0x1 PUSH1 0xA0 SHL SUB AND PUSH2 0x1E0 DUP5 ADD MSTORE PUSH2 0x200 DUP4 ADD MSTORE SUB SWAP1 RETURN JUMPDEST CALLVALUE PUSH2 0x672 JUMPI PUSH1 0x40 CALLDATASIZE PUSH1 0x3 NOT ADD SLT PUSH2 0x672 JUMPI PUSH1 0x4 CALLDATALOAD PUSH2 0x28C0 PUSH2 0x458F JUMP JUMPDEST SWAP1 PUSH2 0x28C9 PUSH2 0x4A2C JUMP JUMPDEST DUP1 PUSH0 MSTORE PUSH1 0x20 PUSH1 0xF DUP2 MSTORE PUSH2 0x28E8 PUSH1 0xFF PUSH1 0xC PUSH1 0x40 PUSH0 KECCAK256 ADD SLOAD PUSH1 0xA0 SHR AND PUSH2 0x577B JUMP JUMPDEST PUSH0 DUP3 DUP2 MSTORE PUSH1 0xF DUP3 MSTORE PUSH1 0x40 SWAP1 KECCAK256 PUSH1 0xC ADD SLOAD PUSH1 0x1 PUSH1 0x1 PUSH1 0xA0 SHL SUB SWAP1 DUP2 AND PUSH2 0x2992 JUMPI SWAP1 PUSH1 0x12 SWAP2 PUSH0 DUP1 MLOAD PUSH1 0x20 PUSH2 0x5A3B DUP4 CODECOPY DUP2 MLOAD SWAP2 MSTORE PUSH0 MSTORE PUSH1 0x5 DUP3 MSTORE PUSH1 0x40 PUSH0 KECCAK256 SWAP5 AND SWAP4 DUP5 PUSH0 MSTORE DUP2 MSTORE PUSH2 0x293B PUSH1 0xFF PUSH1 0x40 PUSH0 KECCAK256 SLOAD AND PUSH2 0x57BC JUMP JUMPDEST DUP3 PUSH0 MSTORE PUSH1 0xF DUP2 MSTORE PUSH1 0xC PUSH1 0x40 PUSH0 KECCAK256 ADD DUP5 PUSH1 0x1 PUSH1 0x1 PUSH1 0x60 SHL SUB PUSH1 0xA0 SHL DUP3 SLOAD AND OR SWAP1 SSTORE DUP4 PUSH0 MSTORE MSTORE PUSH2 0x296C DUP2 PUSH1 0x40 PUSH0 KECCAK256 PUSH2 0x5747 JUMP JUMPDEST PUSH32 0x75744BE24424D6A47BBBE004B1EACC10689651BC26B2BBEA30873C2C24109E64 PUSH0 DUP1 LOG3 STOP JUMPDEST PUSH1 0x40 MLOAD PUSH3 0x461BCD PUSH1 0xE5 SHL DUP2 MSTORE PUSH1 0x4 DUP2 ADD DUP4 SWAP1 MSTORE PUSH1 0x18 PUSH1 0x24 DUP3 ADD MSTORE PUSH32 0x4F4646494345525F414C52454144595F41535349474E45440000000000000000 PUSH1 0x44 DUP3 ADD MSTORE PUSH1 0x64 SWAP1 REVERT JUMPDEST CALLVALUE PUSH2 0x672 JUMPI PUSH1 0x20 CALLDATASIZE PUSH1 0x3 NOT ADD SLT PUSH2 0x672 JUMPI PUSH1 0x4 CALLDATALOAD PUSH2 0x29F3 PUSH2 0x4A2C JUMP JUMPDEST DUP1 PUSH0 MSTORE PUSH1 0xF PUSH1 0x20 MSTORE PUSH2 0x2A11 PUSH1 0xFF PUSH1 0xC PUSH1 0x40 PUSH0 KECCAK256 ADD SLOAD PUSH1 0xA0 SHR AND PUSH2 0x577B JUMP JUMPDEST DUP1 PUSH0 MSTORE PUSH1 0x15 PUSH1 0x20 MSTORE PUSH2 0x2A28 PUSH1 0x40 PUSH0 KECCAK256 SLOAD ISZERO ISZERO PUSH2 0x5879 JUMP JUMPDEST DUP1 PUSH0 MSTORE PUSH1 0xF PUSH1 0x20 MSTORE PUSH1 0x40 PUSH0 KECCAK256 PUSH1 0xE DUP2 ADD PUSH1 0x3 PUSH1 0xFF NOT DUP3 SLOAD AND OR SWAP1 SSTORE PUSH1 0x10 TIMESTAMP SWAP2 ADD SSTORE PUSH1 0x40 MLOAD SWAP1 PUSH1 0x3 DUP3 MSTORE PUSH0 DUP1 MLOAD PUSH1 0x20 PUSH2 0x5A7B DUP4 CODECOPY DUP2 MLOAD SWAP2 MSTORE PUSH1 0x20 CALLER SWAP4 LOG3 STOP JUMPDEST CALLVALUE PUSH2 0x672 JUMPI PUSH0 CALLDATASIZE PUSH1 0x3 NOT ADD SLT PUSH2 0x672 JUMPI PUSH2 0x2A7E PUSH2 0x4A2C JUMP JUMPDEST PUSH1 0x7 DUP1 SLOAD PUSH1 0xFF NOT AND PUSH1 0x1 OR SWAP1 SSTORE STOP JUMPDEST CALLVALUE PUSH2 0x672 JUMPI PUSH0 CALLDATASIZE PUSH1 0x3 NOT ADD SLT PUSH2 0x672 JUMPI PUSH1 0x20 PUSH1 0x40 MLOAD PUSH0 DUP1 MLOAD PUSH1 0x20 PUSH2 0x5A3B DUP4 CODECOPY DUP2 MLOAD SWAP2 MSTORE DUP2 MSTORE RETURN JUMPDEST CALLVALUE PUSH2 0x672 JUMPI PUSH1 0x20 CALLDATASIZE PUSH1 0x3 NOT ADD SLT PUSH2 0x672 JUMPI PUSH1 0x1 PUSH1 0x1 PUSH1 0xA0 SHL SUB PUSH2 0x2AD5 PUSH2 0x4579 JUMP JUMPDEST AND PUSH0 MSTORE PUSH0 PUSH1 0x20 MSTORE PUSH1 0x20 PUSH1 0x40 PUSH0 KECCAK256 SLOAD PUSH1 0x40 MLOAD SWAP1 DUP2 MSTORE RETURN JUMPDEST CALLVALUE PUSH2 0x672 JUMPI PUSH1 0x20 DUP1 PUSH1 0x3 NOT CALLDATASIZE ADD SLT PUSH2 0x672 JUMPI PUSH2 0x2B05 PUSH2 0x4579 JUMP JUMPDEST PUSH2 0x2B0D PUSH2 0x55A7 JUMP JUMPDEST POP PUSH1 0x1 PUSH1 0x1 PUSH1 0xA0 SHL SUB AND PUSH0 DUP2 DUP2 MSTORE PUSH1 0xC DUP4 MSTORE PUSH1 0x40 SWAP1 KECCAK256 PUSH1 0x5 ADD SLOAD PUSH1 0xA0 SHR PUSH1 0xFF AND ISZERO PUSH2 0x2B59 JUMPI PUSH0 MSTORE PUSH1 0xC DUP2 MSTORE PUSH2 0x2B44 PUSH1 0x40 PUSH0 KECCAK256 PUSH2 0x55E3 JUMP JUMPDEST SWAP1 PUSH2 0x6DE PUSH1 0x40 MLOAD SWAP3 DUP3 DUP5 SWAP4 DUP5 MSTORE DUP4 ADD SWAP1 PUSH2 0x47CA JUMP JUMPDEST PUSH1 0x40 MLOAD PUSH3 0x461BCD PUSH1 0xE5 SHL DUP2 MSTORE PUSH1 0x4 DUP2 ADD DUP4 SWAP1 MSTORE PUSH1 0x13 PUSH1 0x24 DUP3 ADD MSTORE PUSH19 0x1554D15497D393D517D49151D254D511549151 PUSH1 0x6A SHL PUSH1 0x44 DUP3 ADD MSTORE PUSH1 0x64 SWAP1 REVERT JUMPDEST CALLVALUE PUSH2 0x672 JUMPI PUSH1 0x20 DUP1 PUSH1 0x3 NOT CALLDATASIZE ADD SLT PUSH2 0x672 JUMPI PUSH1 0x4 CALLDATALOAD PUSH1 0x1 PUSH1 0x1 PUSH1 0x40 SHL SUB DUP2 GT PUSH2 0x672 JUMPI DUP2 PUSH2 0x2BC9 PUSH2 0x2BDC SWAP3 CALLDATASIZE SWAP1 PUSH1 0x4 ADD PUSH2 0x44CC JUMP JUMPDEST DUP2 PUSH1 0x40 MLOAD SWAP4 DUP3 DUP6 DUP1 SWAP5 MLOAD SWAP4 DUP5 SWAP3 ADD PUSH2 0x45A5 JUMP JUMPDEST DUP2 ADD PUSH1 0xA DUP2 MSTORE SUB ADD SWAP1 KECCAK256 SWAP1 PUSH1 0x40 MLOAD SWAP1 DUP2 DUP2 DUP5 SLOAD SWAP2 DUP3 DUP2 MSTORE ADD SWAP4 PUSH0 MSTORE DUP2 PUSH0 KECCAK256 SWAP2 PUSH0 SWAP1 JUMPDEST DUP3 DUP3 LT PUSH2 0x2C15 JUMPI PUSH2 0x6DE DUP6 PUSH2 0x75A DUP2 DUP10 SUB DUP3 PUSH2 0x44AB JUMP JUMPDEST DUP4 SLOAD PUSH1 0x1 PUSH1 0x1 PUSH1 0xA0 SHL SUB AND DUP7 MSTORE SWAP5 DUP6 ADD SWAP5 PUSH1 0x1 SWAP4 DUP5 ADD SWAP4 SWAP1 SWAP2 ADD SWAP1 PUSH2 0x2BFE JUMP JUMPDEST CALLVALUE PUSH2 0x672 JUMPI PUSH1 0x20 DUP1 PUSH1 0x3 NOT CALLDATASIZE ADD SLT PUSH2 0x672 JUMPI PUSH1 0x4 CALLDATALOAD PUSH1 0x1 PUSH1 0x1 PUSH1 0x40 SHL SUB DUP2 GT PUSH2 0x672 JUMPI DUP2 PUSH2 0x2BC9 PUSH2 0x2C6A SWAP3 CALLDATASIZE SWAP1 PUSH1 0x4 ADD PUSH2 0x44CC JUMP JUMPDEST DUP2 ADD PUSH1 0xB DUP2 MSTORE SUB ADD SWAP1 KECCAK256 SWAP1 PUSH1 0x40 MLOAD SWAP1 DUP2 DUP2 DUP5 SLOAD SWAP2 DUP3 DUP2 MSTORE ADD SWAP4 PUSH0 MSTORE DUP2 PUSH0 KECCAK256 SWAP2 PUSH0 SWAP1 JUMPDEST DUP3 DUP3 LT PUSH2 0x2CA3 JUMPI PUSH2 0x6DE DUP6 PUSH2 0x75A DUP2 DUP10 SUB DUP3 PUSH2 0x44AB JUMP JUMPDEST DUP4 SLOAD PUSH1 0x1 PUSH1 0x1 PUSH1 0xA0 SHL SUB AND DUP7 MSTORE SWAP5 DUP6 ADD SWAP5 PUSH1 0x1 SWAP4 DUP5 ADD SWAP4 SWAP1 SWAP2 ADD SWAP1 PUSH2 0x2C8C JUMP JUMPDEST CALLVALUE PUSH2 0x672 JUMPI PUSH0 CALLDATASIZE PUSH1 0x3 NOT ADD SLT PUSH2 0x672 JUMPI PUSH1 0x20 PUSH1 0xFF PUSH1 0x7 SLOAD AND PUSH1 0x40 MLOAD SWAP1 ISZERO ISZERO DUP2 MSTORE RETURN JUMPDEST CALLVALUE PUSH2 0x672 JUMPI PUSH1 0x20 DUP1 PUSH1 0x3 NOT CALLDATASIZE ADD SLT PUSH2 0x672 JUMPI PUSH1 0x4 CALLDATALOAD SWAP1 PUSH2 0x2D03 PUSH2 0x4A2C JUMP JUMPDEST DUP2 ISZERO ISZERO DUP1 PUSH2 0x2E15 JUMPI JUMPDEST PUSH2 0x2D15 SWAP1 PUSH2 0x57F6 JUMP JUMPDEST DUP2 PUSH0 MSTORE PUSH1 0xF DUP2 MSTORE PUSH1 0xFF PUSH1 0xC PUSH1 0x40 PUSH0 KECCAK256 ADD SLOAD PUSH1 0xA0 SHR AND ISZERO PUSH2 0x2DD1 JUMPI DUP2 PUSH0 MSTORE PUSH1 0xF DUP2 MSTORE PUSH1 0x1 DUP1 PUSH1 0xA0 SHL SUB PUSH1 0xB PUSH1 0x40 PUSH0 KECCAK256 ADD SLOAD AND CALLER EQ PUSH2 0x2D8D JUMPI PUSH1 0xF SWAP1 DUP3 PUSH0 MSTORE MSTORE PUSH1 0xC PUSH1 0x40 PUSH0 KECCAK256 ADD PUSH1 0xFF PUSH1 0xA0 SHL NOT DUP2 SLOAD AND SWAP1 SSTORE CALLER SWAP1 PUSH32 0xBA1C16E049C7A348B951726F087BD968F9F40E6C64C8CF9AE55ED756AE629440 PUSH0 DUP1 LOG3 STOP JUMPDEST PUSH1 0x64 SWAP1 PUSH1 0x40 MLOAD SWAP1 PUSH3 0x461BCD PUSH1 0xE5 SHL DUP3 MSTORE PUSH1 0x4 DUP3 ADD MSTORE PUSH1 0x1A PUSH1 0x24 DUP3 ADD MSTORE PUSH32 0x43414E4E4F545F52454D4F56455F4F574E5F50524F4A45435453000000000000 PUSH1 0x44 DUP3 ADD MSTORE REVERT JUMPDEST PUSH1 0x64 SWAP1 PUSH1 0x40 MLOAD SWAP1 PUSH3 0x461BCD PUSH1 0xE5 SHL DUP3 MSTORE PUSH1 0x4 DUP3 ADD MSTORE PUSH1 0x18 PUSH1 0x24 DUP3 ADD MSTORE PUSH32 0x50524F4A4543545F414C52454144595F494E4143544956450000000000000000 PUSH1 0x44 DUP3 ADD MSTORE REVERT JUMPDEST POP PUSH1 0x10 SLOAD DUP3 GT ISZERO PUSH2 0x2D0C JUMP JUMPDEST CALLVALUE PUSH2 0x672 JUMPI PUSH1 0x20 DUP1 PUSH1 0x3 NOT CALLDATASIZE ADD SLT PUSH2 0x672 JUMPI PUSH1 0x4 CALLDATALOAD PUSH2 0x2E3E PUSH2 0x4A2C JUMP JUMPDEST DUP1 PUSH0 MSTORE PUSH1 0xF DUP3 MSTORE PUSH2 0x2E5B PUSH1 0xFF PUSH1 0xC PUSH1 0x40 PUSH0 KECCAK256 ADD SLOAD PUSH1 0xA0 SHR AND PUSH2 0x577B JUMP JUMPDEST DUP1 PUSH0 MSTORE PUSH1 0x15 DUP3 MSTORE PUSH1 0x40 PUSH0 KECCAK256 SLOAD SWAP2 PUSH2 0x2E73 DUP4 ISZERO ISZERO PUSH2 0x5879 JUMP JUMPDEST DUP3 PUSH0 MSTORE PUSH1 0x13 DUP2 MSTORE PUSH1 0xFF PUSH1 0xB PUSH1 0x40 PUSH0 KECCAK256 ADD SLOAD AND PUSH2 0x2F26 JUMPI PUSH0 DUP4 DUP2 MSTORE PUSH1 0x13 DUP3 MSTORE PUSH1 0x40 SWAP1 KECCAK256 PUSH1 0xB DUP2 ADD DUP1 SLOAD PUSH1 0x1 PUSH1 0x1 PUSH1 0xA8 SHL SUB NOT AND CALLER PUSH1 0x8 SHL PUSH2 0x100 PUSH1 0x1 PUSH1 0xA8 SHL SUB AND OR PUSH1 0x1 OR SWAP1 SSTORE PUSH0 DUP1 MLOAD PUSH1 0x20 PUSH2 0x5A7B DUP4 CODECOPY DUP2 MLOAD SWAP2 MSTORE SWAP2 SWAP1 PUSH1 0xFF NOT SWAP1 PUSH1 0xC TIMESTAMP SWAP2 ADD SSTORE DUP4 PUSH0 MSTORE PUSH1 0xF DUP3 MSTORE PUSH1 0x40 PUSH0 KECCAK256 SWAP1 PUSH1 0x2 PUSH1 0xE DUP4 ADD SWAP2 DUP3 SLOAD AND OR SWAP1 SSTORE PUSH1 0x10 TIMESTAMP SWAP2 ADD SSTORE PUSH1 0x40 MLOAD SWAP4 CALLER SWAP1 DUP5 PUSH32 0xAFBD14BD2443E78A747C498B9BB972B104C1B045E856BACD1BDDCD654EFD9919 PUSH0 DUP1 LOG4 PUSH1 0x2 DUP5 MSTORE CALLER SWAP4 LOG3 STOP JUMPDEST PUSH1 0x64 SWAP1 PUSH1 0x40 MLOAD SWAP1 PUSH3 0x461BCD PUSH1 0xE5 SHL DUP3 MSTORE PUSH1 0x4 DUP3 ADD MSTORE PUSH1 0x17 PUSH1 0x24 DUP3 ADD MSTORE PUSH32 0x5245504F52545F414C52454144595F415050524F564544000000000000000000 PUSH1 0x44 DUP3 ADD MSTORE REVERT JUMPDEST CALLVALUE PUSH2 0x672 JUMPI PUSH1 0x20 CALLDATASIZE PUSH1 0x3 NOT ADD SLT PUSH2 0x672 JUMPI PUSH1 0x4 CALLDATALOAD PUSH1 0xD SLOAD DUP2 LT ISZERO PUSH2 0x672 JUMPI PUSH1 0xD PUSH0 MSTORE PUSH32 0xD7B6990105719101DABEB77144F2A3385C8033ACD3AF97E9423A695E81AD1EB5 ADD SLOAD PUSH1 0x40 MLOAD PUSH1 0x1 PUSH1 0x1 PUSH1 0xA0 SHL SUB SWAP1 SWAP2 AND DUP2 MSTORE PUSH1 0x20 SWAP1 RETURN JUMPDEST CALLVALUE PUSH2 0x672 JUMPI PUSH1 0x20 CALLDATASIZE PUSH1 0x3 NOT ADD SLT PUSH2 0x672 JUMPI PUSH2 0x2FDD PUSH2 0x4579 JUMP JUMPDEST PUSH2 0x2FE5 PUSH2 0x4A2C JUMP JUMPDEST PUSH2 0x3060 PUSH1 0x1 DUP1 PUSH1 0xA0 SHL SUB DUP3 AND SWAP2 DUP3 PUSH0 MSTORE PUSH1 0x8 PUSH1 0x20 MSTORE PUSH2 0x3010 PUSH1 0xFF PUSH1 0x5 PUSH1 0x40 PUSH0 KECCAK256 ADD SLOAD PUSH1 0xA0 SHR AND PUSH2 0x5567 JUMP JUMPDEST DUP3 PUSH0 MSTORE PUSH1 0x8 PUSH1 0x20 MSTORE PUSH2 0x303D DUP2 PUSH2 0xA2F PUSH2 0xA2A PUSH1 0x2 PUSH1 0x40 PUSH0 KECCAK256 PUSH1 0x5 DUP2 ADD PUSH1 0xFF PUSH1 0xA0 SHL NOT DUP2 SLOAD AND SWAP1 SSTORE ADD PUSH2 0x4623 JUMP JUMPDEST DUP3 PUSH0 MSTORE PUSH1 0x8 PUSH1 0x20 MSTORE PUSH2 0x305B DUP2 PUSH2 0xA2F PUSH2 0xA5A PUSH1 0x4 PUSH1 0x40 PUSH0 KECCAK256 ADD PUSH2 0x4623 JUMP JUMPDEST PUSH2 0x4BAA JUMP JUMPDEST POP PUSH32 0x30BD595E45AE31D69B2A46EC0C3825E96F059A6BCA5D1BB010D7BB5B5A0851B9 PUSH1 0x20 PUSH1 0x40 MLOAD PUSH0 DUP2 MSTORE LOG2 STOP JUMPDEST CALLVALUE PUSH2 0x672 JUMPI PUSH0 CALLDATASIZE PUSH1 0x3 NOT ADD SLT PUSH2 0x672 JUMPI PUSH2 0x30A5 PUSH2 0x4A2C JUMP JUMPDEST PUSH1 0x7 DUP1 SLOAD PUSH1 0xFF NOT AND SWAP1 SSTORE STOP JUMPDEST CALLVALUE PUSH2 0x672 JUMPI PUSH2 0x30BF CALLDATASIZE PUSH2 0x485D JUMP JUMPDEST SWAP4 SWAP5 SWAP1 SWAP3 PUSH2 0x30CB PUSH2 0x4A2C JUMP JUMPDEST PUSH1 0x1 PUSH1 0x1 PUSH1 0xA0 SHL SUB DUP3 AND SWAP6 DUP7 ISZERO PUSH2 0x32AD JUMPI PUSH2 0x30E8 DUP2 MLOAD ISZERO ISZERO PUSH2 0x4FE7 JUMP JUMPDEST PUSH2 0x30F4 DUP5 MLOAD ISZERO ISZERO PUSH2 0x5023 JUMP JUMPDEST PUSH2 0x3100 DUP7 MLOAD ISZERO ISZERO PUSH2 0x505F JUMP JUMPDEST DUP7 PUSH0 MSTORE PUSH1 0x20 SWAP5 PUSH1 0x8 DUP7 MSTORE PUSH1 0xFF PUSH1 0x5 PUSH1 0x40 PUSH0 KECCAK256 ADD SLOAD PUSH1 0xA0 SHR AND PUSH2 0x326F JUMPI PUSH1 0x40 MLOAD PUSH2 0x3168 SWAP2 PUSH2 0x312C DUP3 PUSH2 0x4473 JUMP JUMPDEST DUP4 DUP3 MSTORE DUP5 DUP9 DUP4 ADD MSTORE DUP7 PUSH1 0x40 DUP4 ADD MSTORE PUSH1 0x60 DUP3 ADD MSTORE DUP8 PUSH1 0x80 DUP3 ADD MSTORE DUP9 PUSH1 0xA0 DUP3 ADD MSTORE PUSH1 0x1 PUSH1 0xC0 DUP3 ADD MSTORE TIMESTAMP PUSH1 0xE0 DUP3 ADD MSTORE DUP9 PUSH0 MSTORE PUSH1 0x8 DUP8 MSTORE PUSH1 0x40 PUSH0 KECCAK256 PUSH2 0x50F6 JUMP JUMPDEST PUSH1 0x9 SLOAD SWAP3 PUSH1 0x1 PUSH1 0x40 SHL DUP5 LT ISZERO PUSH2 0xD78 JUMPI PUSH1 0x1 DUP5 ADD DUP1 PUSH1 0x9 SSTORE DUP5 LT ISZERO PUSH2 0x325B JUMPI PUSH32 0x30BD595E45AE31D69B2A46EC0C3825E96F059A6BCA5D1BB010D7BB5B5A0851B9 SWAP7 DUP9 SWAP6 PUSH2 0x3241 PUSH2 0x324E SWAP4 PUSH32 0xC5D4B575E5BDB27802D44E5CDBE4804D1C9B0C111CDF21A596835E7424E6C7C4 SWAP8 PUSH1 0x9 PUSH0 MSTORE PUSH32 0x6E1540171B6C0C960B71A7020D9F60077F6AF931A8BBF590DA0223DACF75C7AF ADD DUP10 PUSH1 0x1 PUSH1 0x1 PUSH1 0x60 SHL SUB PUSH1 0xA0 SHL DUP3 SLOAD AND OR SWAP1 SSTORE PUSH2 0x3224 DUP2 PUSH1 0x40 MLOAD DUP13 DUP2 DUP8 MLOAD PUSH2 0xC90 DUP2 DUP4 DUP6 DUP13 ADD PUSH2 0x45A5 JUMP JUMPDEST PUSH2 0x323C DUP2 PUSH1 0x40 MLOAD DUP13 DUP2 DUP9 MLOAD PUSH2 0xCB8 DUP2 DUP4 DUP6 DUP14 ADD PUSH2 0x45A5 JUMP JUMPDEST PUSH2 0x4AA5 JUMP JUMPDEST POP PUSH1 0x40 MLOAD SWAP5 DUP6 SWAP5 DUP6 PUSH2 0x551F JUMP JUMPDEST SUB SWAP1 LOG2 PUSH1 0x40 MLOAD PUSH1 0x1 DUP2 MSTORE LOG2 STOP JUMPDEST PUSH4 0x4E487B71 PUSH1 0xE0 SHL PUSH0 MSTORE PUSH1 0x32 PUSH1 0x4 MSTORE PUSH1 0x24 PUSH0 REVERT JUMPDEST PUSH1 0x40 MLOAD PUSH3 0x461BCD PUSH1 0xE5 SHL DUP2 MSTORE PUSH1 0x4 DUP2 ADD DUP8 SWAP1 MSTORE PUSH1 0x16 PUSH1 0x24 DUP3 ADD MSTORE PUSH22 0x4F4646494345525F414C52454144595F455849535453 PUSH1 0x50 SHL PUSH1 0x44 DUP3 ADD MSTORE PUSH1 0x64 SWAP1 REVERT JUMPDEST PUSH1 0x40 MLOAD PUSH3 0x461BCD PUSH1 0xE5 SHL DUP2 MSTORE PUSH1 0x20 PUSH1 0x4 DUP3 ADD MSTORE PUSH1 0x16 PUSH1 0x24 DUP3 ADD MSTORE PUSH22 0x494E56414C49445F57414C4C45545F41444452455353 PUSH1 0x50 SHL PUSH1 0x44 DUP3 ADD MSTORE PUSH1 0x64 SWAP1 REVERT JUMPDEST CALLVALUE PUSH2 0x672 JUMPI PUSH2 0x180 CALLDATASIZE PUSH1 0x3 NOT ADD SLT PUSH2 0x672 JUMPI PUSH1 0xE4 CALLDATALOAD DUP1 ISZERO ISZERO DUP2 SUB PUSH2 0x672 JUMPI PUSH2 0x104 CALLDATALOAD SWAP1 DUP2 ISZERO ISZERO DUP3 SUB PUSH2 0x672 JUMPI PUSH2 0x124 CALLDATALOAD DUP1 ISZERO ISZERO DUP2 SUB PUSH2 0x672 JUMPI PUSH2 0x144 CALLDATALOAD DUP1 ISZERO ISZERO DUP2 SUB PUSH2 0x672 JUMPI PUSH2 0x164 CALLDATALOAD PUSH1 0x1 PUSH1 0x1 PUSH1 0x40 SHL SUB DUP2 GT PUSH2 0x672 JUMPI PUSH2 0x3351 SWAP1 CALLDATASIZE SWAP1 PUSH1 0x4 ADD PUSH2 0x44CC JUMP JUMPDEST CALLER PUSH0 SWAP1 DUP2 MSTORE PUSH0 DUP1 MLOAD PUSH1 0x20 PUSH2 0x5A5B DUP4 CODECOPY DUP2 MLOAD SWAP2 MSTORE PUSH1 0x20 MSTORE PUSH1 0x40 SWAP1 KECCAK256 SLOAD SWAP1 SWAP3 SWAP1 PUSH2 0x337B SWAP1 PUSH1 0xFF AND PUSH2 0x57BC JUMP JUMPDEST PUSH1 0x4 CALLDATALOAD PUSH0 MSTORE PUSH1 0xF PUSH1 0x20 MSTORE PUSH2 0x339B PUSH1 0xFF PUSH1 0xC PUSH1 0x40 PUSH0 KECCAK256 ADD SLOAD PUSH1 0xA0 SHR AND PUSH2 0x577B JUMP JUMPDEST PUSH1 0x4 CALLDATALOAD PUSH0 SWAP1 DUP2 MSTORE PUSH1 0xF PUSH1 0x20 MSTORE PUSH1 0x40 SWAP1 KECCAK256 PUSH1 0xC ADD SLOAD PUSH2 0x33C3 SWAP1 PUSH1 0x1 PUSH1 0x1 PUSH1 0xA0 SHL SUB AND CALLER EQ PUSH2 0x5836 JUMP JUMPDEST PUSH1 0x4 CALLDATALOAD PUSH0 MSTORE PUSH1 0xF PUSH1 0x20 MSTORE PUSH1 0xFF PUSH1 0xE PUSH1 0x40 PUSH0 KECCAK256 ADD SLOAD AND PUSH1 0x4 DUP2 LT ISZERO PUSH2 0x652 JUMPI PUSH1 0x1 SUB PUSH2 0x38D6 JUMPI PUSH1 0x24 CALLDATALOAD ISZERO PUSH2 0x3899 JUMPI PUSH1 0x44 CALLDATALOAD ISZERO PUSH2 0x385B JUMPI PUSH1 0x64 CALLDATALOAD ISZERO PUSH2 0x3816 JUMPI PUSH1 0x84 CALLDATALOAD ISZERO PUSH2 0x37D1 JUMPI PUSH1 0x64 PUSH1 0xA4 CALLDATALOAD GT PUSH2 0x378C JUMPI PUSH1 0xC4 CALLDATALOAD ISZERO PUSH2 0x3747 JUMPI PUSH2 0x3425 PUSH1 0x14 SLOAD PUSH2 0x566F JUMP JUMPDEST SWAP5 DUP6 PUSH1 0x14 SSTORE PUSH1 0x40 MLOAD SWAP5 PUSH2 0x3437 DUP7 PUSH2 0x4457 JUMP JUMPDEST PUSH1 0x4 CALLDATALOAD DUP7 MSTORE CALLER PUSH1 0x20 DUP8 ADD MSTORE PUSH1 0x24 CALLDATALOAD PUSH1 0x40 DUP8 ADD MSTORE PUSH1 0x44 CALLDATALOAD PUSH1 0x60 DUP8 ADD MSTORE PUSH1 0x64 CALLDATALOAD PUSH1 0x80 DUP8 ADD MSTORE PUSH1 0x84 CALLDATALOAD PUSH1 0xA0 DUP8 ADD MSTORE PUSH1 0xA4 CALLDATALOAD PUSH1 0xC0 DUP8 ADD MSTORE PUSH1 0xC4 CALLDATALOAD PUSH1 0xE0 DUP8 ADD MSTORE ISZERO ISZERO PUSH2 0x100 DUP7 ADD MSTORE ISZERO ISZERO PUSH2 0x120 DUP6 ADD MSTORE ISZERO ISZERO PUSH2 0x140 DUP5 ADD MSTORE ISZERO ISZERO PUSH2 0x160 DUP4 ADD MSTORE PUSH2 0x180 DUP3 ADD MSTORE TIMESTAMP PUSH2 0x1A0 DUP3 ADD MSTORE PUSH0 PUSH2 0x1C0 DUP3 ADD MSTORE PUSH0 PUSH2 0x1E0 DUP3 ADD MSTORE PUSH0 PUSH2 0x200 DUP3 ADD MSTORE DUP2 PUSH0 MSTORE PUSH1 0x13 PUSH1 0x20 MSTORE PUSH1 0x40 PUSH0 KECCAK256 SWAP1 DUP1 MLOAD DUP3 SSTORE PUSH1 0x1 DUP3 ADD PUSH1 0x1 DUP1 PUSH1 0xA0 SHL SUB PUSH1 0x20 DUP4 ADD MLOAD AND PUSH1 0x1 PUSH1 0x1 PUSH1 0x60 SHL SUB PUSH1 0xA0 SHL DUP3 SLOAD AND OR SWAP1 SSTORE PUSH1 0x40 DUP2 ADD MLOAD PUSH1 0x2 DUP4 ADD SSTORE PUSH1 0x60 DUP2 ADD MLOAD PUSH1 0x3 DUP4 ADD SSTORE PUSH1 0x80 DUP2 ADD MLOAD PUSH1 0x4 DUP4 ADD SSTORE PUSH1 0xA0 DUP2 ADD MLOAD PUSH1 0x5 DUP4 ADD SSTORE PUSH1 0xC0 DUP2 ADD MLOAD PUSH1 0x6 DUP4 ADD SSTORE PUSH1 0xE0 DUP2 ADD MLOAD PUSH1 0x7 DUP4 ADD SSTORE PUSH1 0x8 DUP3 ADD PUSH2 0x3544 PUSH2 0x100 DUP4 ADD MLOAD ISZERO ISZERO DUP3 SWAP1 PUSH1 0xFF DUP1 NOT DUP4 SLOAD AND SWAP2 ISZERO ISZERO AND OR SWAP1 SSTORE JUMP JUMPDEST PUSH2 0x120 DUP3 ADD MLOAD ISZERO ISZERO DUP2 SLOAD PUSH3 0xFF0000 PUSH2 0x140 DUP6 ADD MLOAD ISZERO ISZERO SWAP2 PUSH2 0xFF00 PUSH4 0xFF000000 PUSH2 0x160 DUP9 ADD MLOAD ISZERO ISZERO PUSH1 0x18 SHL AND SWAP5 PUSH1 0x8 SHL AND SWAP1 PUSH4 0xFFFFFF00 NOT AND OR SWAP2 PUSH1 0x10 SHL AND OR OR SWAP1 SSTORE PUSH2 0x180 DUP2 ADD MLOAD DUP1 MLOAD SWAP1 PUSH1 0x1 PUSH1 0x1 PUSH1 0x40 SHL SUB DUP3 GT PUSH2 0xD78 JUMPI PUSH2 0x35B7 DUP3 PUSH2 0x35AE PUSH1 0x9 DUP8 ADD SLOAD PUSH2 0x45EB JUMP JUMPDEST PUSH1 0x9 DUP8 ADD PUSH2 0x50A3 JUMP JUMPDEST PUSH1 0x20 SWAP1 PUSH1 0x1F DUP4 GT PUSH1 0x1 EQ PUSH2 0x36D5 JUMPI SWAP2 DUP1 PUSH1 0xC SWAP5 SWAP3 PUSH2 0x200 SWAP5 PUSH0 SWAP3 PUSH2 0x36CA JUMPI JUMPDEST POP POP DUP2 PUSH1 0x1 SHL SWAP2 PUSH0 NOT SWAP1 PUSH1 0x3 SHL SHR NOT AND OR PUSH1 0x9 DUP6 ADD SSTORE JUMPDEST PUSH2 0x1A0 DUP2 ADD MLOAD PUSH1 0xA DUP6 ADD SSTORE PUSH2 0x3644 PUSH1 0xB DUP6 ADD PUSH2 0x361C PUSH2 0x1C0 DUP5 ADD MLOAD ISZERO ISZERO DUP3 SWAP1 PUSH1 0xFF DUP1 NOT DUP4 SLOAD AND SWAP2 ISZERO ISZERO AND OR SWAP1 SSTORE JUMP JUMPDEST PUSH2 0x1E0 DUP4 ADD MLOAD DUP2 SLOAD PUSH2 0x100 PUSH1 0x1 PUSH1 0xA8 SHL SUB NOT AND PUSH1 0x8 SWAP2 SWAP1 SWAP2 SHL PUSH2 0x100 PUSH1 0x1 PUSH1 0xA8 SHL SUB AND OR SWAP1 SSTORE JUMP JUMPDEST ADD MLOAD SWAP2 ADD SSTORE PUSH1 0x4 CALLDATALOAD PUSH0 MSTORE PUSH1 0x15 PUSH1 0x20 MSTORE DUP1 PUSH1 0x40 PUSH0 KECCAK256 SSTORE PUSH1 0xF PUSH1 0x20 MSTORE PUSH1 0x40 PUSH0 KECCAK256 PUSH1 0xE DUP2 ADD PUSH1 0x2 PUSH1 0xFF NOT DUP3 SLOAD AND OR SWAP1 SSTORE PUSH1 0x10 TIMESTAMP SWAP2 ADD SSTORE PUSH1 0x40 MLOAD SWAP1 PUSH1 0xC4 CALLDATALOAD DUP3 MSTORE CALLER SWAP2 PUSH32 0x7C67E1DAA2AA74A8CE1CAFA45A60E20BE3F80E2375FC7063518CE1834E656AE3 PUSH1 0x20 PUSH1 0x4 CALLDATALOAD SWAP3 LOG4 PUSH1 0x40 MLOAD PUSH1 0x2 DUP2 MSTORE CALLER SWAP1 PUSH0 DUP1 MLOAD PUSH1 0x20 PUSH2 0x5A7B DUP4 CODECOPY DUP2 MLOAD SWAP2 MSTORE PUSH1 0x20 PUSH1 0x4 CALLDATALOAD SWAP3 LOG3 STOP JUMPDEST ADD MLOAD SWAP1 POP DUP8 DUP1 PUSH2 0x35D6 JUMP JUMPDEST SWAP1 PUSH1 0x9 DUP6 ADD PUSH0 MSTORE PUSH1 0x20 PUSH0 KECCAK256 SWAP2 PUSH0 JUMPDEST PUSH1 0x1F NOT DUP6 AND DUP2 LT PUSH2 0x372F JUMPI POP SWAP3 PUSH1 0xC SWAP5 SWAP3 PUSH1 0x1 SWAP3 PUSH2 0x200 SWAP6 DUP4 PUSH1 0x1F NOT DUP2 AND LT PUSH2 0x3717 JUMPI JUMPDEST POP POP POP DUP2 SHL ADD PUSH1 0x9 DUP6 ADD SSTORE PUSH2 0x35ED JUMP JUMPDEST ADD MLOAD PUSH0 NOT PUSH1 0xF8 DUP5 PUSH1 0x3 SHL AND SHR NOT AND SWAP1 SSTORE DUP8 DUP1 DUP1 PUSH2 0x3707 JUMP JUMPDEST SWAP2 SWAP3 PUSH1 0x20 PUSH1 0x1 DUP2 SWAP3 DUP7 DUP6 ADD MLOAD DUP2 SSTORE ADD SWAP5 ADD SWAP3 ADD PUSH2 0x36E3 JUMP JUMPDEST PUSH1 0x40 MLOAD PUSH3 0x461BCD PUSH1 0xE5 SHL DUP2 MSTORE PUSH1 0x20 PUSH1 0x4 DUP3 ADD MSTORE PUSH1 0x18 PUSH1 0x24 DUP3 ADD MSTORE PUSH32 0x435245444954535F4D5553545F42455F504F5349544956450000000000000000 PUSH1 0x44 DUP3 ADD MSTORE PUSH1 0x64 SWAP1 REVERT JUMPDEST PUSH1 0x40 MLOAD PUSH3 0x461BCD PUSH1 0xE5 SHL DUP2 MSTORE PUSH1 0x20 PUSH1 0x4 DUP3 ADD MSTORE PUSH1 0x1C PUSH1 0x24 DUP3 ADD MSTORE PUSH32 0x554E4345525441494E54595F4D5553545F42455F305F544F5F31303000000000 PUSH1 0x44 DUP3 ADD MSTORE PUSH1 0x64 SWAP1 REVERT JUMPDEST PUSH1 0x40 MLOAD PUSH3 0x461BCD PUSH1 0xE5 SHL DUP2 MSTORE PUSH1 0x20 PUSH1 0x4 DUP3 ADD MSTORE PUSH1 0x18 PUSH1 0x24 DUP3 ADD MSTORE PUSH32 0x42494F4D4153535F4D5553545F42455F504F5349544956450000000000000000 PUSH1 0x44 DUP3 ADD MSTORE PUSH1 0x64 SWAP1 REVERT JUMPDEST PUSH1 0x40 MLOAD PUSH3 0x461BCD PUSH1 0xE5 SHL DUP2 MSTORE PUSH1 0x20 PUSH1 0x4 DUP3 ADD MSTORE PUSH1 0x1C PUSH1 0x24 DUP3 ADD MSTORE PUSH32 0x5541565F464C49474854535F4D5553545F42455F504F53495449564500000000 PUSH1 0x44 DUP3 ADD MSTORE PUSH1 0x64 SWAP1 REVERT JUMPDEST PUSH1 0x40 MLOAD PUSH3 0x461BCD PUSH1 0xE5 SHL DUP2 MSTORE PUSH1 0x20 PUSH1 0x4 DUP3 ADD MSTORE PUSH1 0x16 PUSH1 0x24 DUP3 ADD MSTORE PUSH22 0x504C4F54535F4D5553545F42455F504F534954495645 PUSH1 0x50 SHL PUSH1 0x44 DUP3 ADD MSTORE PUSH1 0x64 SWAP1 REVERT JUMPDEST PUSH1 0x40 MLOAD PUSH3 0x461BCD PUSH1 0xE5 SHL DUP2 MSTORE PUSH1 0x20 PUSH1 0x4 DUP3 ADD MSTORE PUSH1 0x15 PUSH1 0x24 DUP3 ADD MSTORE PUSH21 0x415245415F4D5553545F42455F504F534954495645 PUSH1 0x58 SHL PUSH1 0x44 DUP3 ADD MSTORE PUSH1 0x64 SWAP1 REVERT JUMPDEST PUSH1 0x40 MLOAD PUSH3 0x461BCD PUSH1 0xE5 SHL DUP2 MSTORE PUSH1 0x20 PUSH1 0x4 DUP3 ADD MSTORE PUSH1 0x1C PUSH1 0x24 DUP3 ADD MSTORE PUSH32 0x564552494649434154494F4E5F4E4F545F494E5F50524F475245535300000000 PUSH1 0x44 DUP3 ADD MSTORE PUSH1 0x64 SWAP1 REVERT JUMPDEST CALLVALUE PUSH2 0x672 JUMPI PUSH0 CALLDATASIZE PUSH1 0x3 NOT ADD SLT PUSH2 0x672 JUMPI PUSH1 0x20 PUSH1 0x10 SLOAD PUSH1 0x40 MLOAD SWAP1 DUP2 MSTORE RETURN JUMPDEST CALLVALUE PUSH2 0x672 JUMPI PUSH1 0x40 CALLDATASIZE PUSH1 0x3 NOT ADD SLT PUSH2 0x672 JUMPI PUSH2 0x870 PUSH2 0x3954 PUSH2 0x4579 JUMP JUMPDEST PUSH2 0x395C PUSH2 0x4A2C JUMP JUMPDEST PUSH2 0x396B PUSH1 0xFF PUSH1 0x7 SLOAD AND ISZERO PUSH2 0x5934 JUMP JUMPDEST PUSH1 0x24 CALLDATALOAD SWAP1 PUSH2 0x5972 JUMP JUMPDEST CALLVALUE PUSH2 0x672 JUMPI PUSH1 0x40 CALLDATASIZE PUSH1 0x3 NOT ADD SLT PUSH2 0x672 JUMPI PUSH2 0x398D PUSH2 0x458F JUMP JUMPDEST CALLER PUSH1 0x1 PUSH1 0x1 PUSH1 0xA0 SHL SUB DUP3 AND SUB PUSH2 0x39A9 JUMPI PUSH2 0x870 SWAP1 PUSH1 0x4 CALLDATALOAD PUSH2 0x4C2F JUMP JUMPDEST PUSH1 0x40 MLOAD PUSH4 0x334BD919 PUSH1 0xE1 SHL DUP2 MSTORE PUSH1 0x4 SWAP1 REVERT JUMPDEST CALLVALUE PUSH2 0x672 JUMPI PUSH0 CALLDATASIZE PUSH1 0x3 NOT ADD SLT PUSH2 0x672 JUMPI PUSH1 0x20 PUSH1 0x14 SLOAD PUSH1 0x40 MLOAD SWAP1 DUP2 MSTORE RETURN JUMPDEST CALLVALUE PUSH2 0x672 JUMPI PUSH0 CALLDATASIZE PUSH1 0x3 NOT ADD SLT PUSH2 0x672 JUMPI PUSH1 0x20 PUSH1 0x40 MLOAD PUSH1 0xFF PUSH32 0x0 AND DUP2 MSTORE RETURN JUMPDEST CALLVALUE PUSH2 0x672 JUMPI PUSH1 0x20 CALLDATASIZE PUSH1 0x3 NOT ADD SLT PUSH2 0x672 JUMPI PUSH1 0x4 CALLDATALOAD PUSH0 MSTORE PUSH1 0x15 PUSH1 0x20 MSTORE PUSH1 0x20 PUSH1 0x40 PUSH0 KECCAK256 SLOAD PUSH1 0x40 MLOAD SWAP1 DUP2 MSTORE RETURN JUMPDEST CALLVALUE PUSH2 0x672 JUMPI PUSH1 0x40 CALLDATASIZE PUSH1 0x3 NOT ADD SLT PUSH2 0x672 JUMPI PUSH2 0x3A58 PUSH2 0x4579 JUMP JUMPDEST PUSH1 0x1 PUSH1 0x1 PUSH1 0xA0 SHL SUB AND PUSH0 SWAP1 DUP2 MSTORE PUSH1 0x11 PUSH1 0x20 MSTORE PUSH1 0x40 SWAP1 KECCAK256 DUP1 SLOAD PUSH1 0x24 CALLDATALOAD SWAP2 SWAP1 DUP3 LT ISZERO PUSH2 0x672 JUMPI PUSH1 0x20 SWAP2 PUSH2 0x3A88 SWAP2 PUSH2 0x4564 JUMP JUMPDEST SWAP1 SLOAD PUSH1 0x40 MLOAD SWAP2 PUSH1 0x3 SHL SHR DUP2 MSTORE RETURN JUMPDEST CALLVALUE PUSH2 0x672 JUMPI PUSH1 0x40 CALLDATASIZE PUSH1 0x3 NOT ADD SLT PUSH2 0x672 JUMPI PUSH2 0x870 PUSH1 0x4 CALLDATALOAD PUSH2 0x3AB5 PUSH2 0x458F JUMP JUMPDEST SWAP1 DUP1 PUSH0 MSTORE PUSH1 0x5 PUSH1 0x20 MSTORE PUSH2 0x3ACE PUSH1 0x1 PUSH1 0x40 PUSH0 KECCAK256 ADD SLOAD PUSH2 0x4A83 JUMP JUMPDEST PUSH2 0x4B31 JUMP JUMPDEST CALLVALUE PUSH2 0x672 JUMPI PUSH1 0x20 DUP1 PUSH1 0x3 NOT CALLDATASIZE ADD SLT PUSH2 0x672 JUMPI PUSH1 0x4 CALLDATALOAD PUSH0 DUP1 MLOAD PUSH1 0x20 PUSH2 0x5A3B DUP4 CODECOPY DUP2 MLOAD SWAP2 MSTORE PUSH0 MSTORE PUSH1 0x5 DUP3 MSTORE PUSH1 0x40 PUSH0 KECCAK256 CALLER PUSH0 MSTORE DUP3 MSTORE PUSH2 0x3B15 PUSH1 0xFF PUSH1 0x40 PUSH0 KECCAK256 SLOAD AND PUSH2 0x57BC JUMP JUMPDEST DUP1 PUSH0 MSTORE PUSH1 0xF DUP3 MSTORE PUSH2 0x3B32 PUSH1 0xFF PUSH1 0xC PUSH1 0x40 PUSH0 KECCAK256 ADD SLOAD PUSH1 0xA0 SHR AND PUSH2 0x577B JUMP JUMPDEST PUSH0 DUP2 DUP2 MSTORE PUSH1 0xF DUP4 MSTORE PUSH1 0x40 SWAP1 KECCAK256 PUSH1 0xC ADD SLOAD PUSH2 0x3B56 SWAP1 PUSH1 0x1 PUSH1 0x1 PUSH1 0xA0 SHL SUB AND CALLER EQ PUSH2 0x5836 JUMP JUMPDEST DUP1 PUSH0 MSTORE PUSH1 0xF DUP3 MSTORE PUSH1 0xFF PUSH1 0xE PUSH1 0x40 PUSH0 KECCAK256 ADD SLOAD AND PUSH1 0x4 DUP2 LT ISZERO PUSH2 0x652 JUMPI PUSH2 0x3BB0 JUMPI DUP1 PUSH0 MSTORE PUSH1 0xF DUP3 MSTORE PUSH1 0x40 PUSH0 KECCAK256 PUSH1 0xE DUP2 ADD PUSH1 0x1 PUSH1 0xFF NOT DUP3 SLOAD AND OR SWAP1 SSTORE PUSH1 0xF TIMESTAMP SWAP2 ADD SSTORE PUSH0 DUP1 MLOAD PUSH1 0x20 PUSH2 0x5A7B DUP4 CODECOPY DUP2 MLOAD SWAP2 MSTORE PUSH1 0x40 MLOAD SWAP3 PUSH1 0x1 DUP5 MSTORE CALLER SWAP4 LOG3 STOP JUMPDEST PUSH1 0x40 MLOAD PUSH3 0x461BCD PUSH1 0xE5 SHL DUP2 MSTORE PUSH1 0x4 DUP2 ADD DUP4 SWAP1 MSTORE PUSH1 0x1C PUSH1 0x24 DUP3 ADD MSTORE PUSH32 0x564552494649434154494F4E5F414C52454144595F5354415254454400000000 PUSH1 0x44 DUP3 ADD MSTORE PUSH1 0x64 SWAP1 REVERT JUMPDEST CALLVALUE PUSH2 0x672 JUMPI PUSH1 0x20 PUSH2 0x3C08 PUSH2 0x7E6 CALLDATASIZE PUSH2 0x4740 JUMP JUMPDEST DUP2 ADD PUSH1 0xA DUP2 MSTORE SUB ADD SWAP1 KECCAK256 DUP1 SLOAD DUP3 LT ISZERO PUSH2 0x672 JUMPI PUSH1 0x20 SWAP2 PUSH2 0x81A SWAP2 PUSH2 0x4564 JUMP JUMPDEST CALLVALUE PUSH2 0x672 JUMPI PUSH1 0x20 CALLDATASIZE PUSH1 0x3 NOT ADD SLT PUSH2 0x672 JUMPI PUSH1 0x4 CALLDATALOAD PUSH0 MSTORE PUSH1 0x5 PUSH1 0x20 MSTORE PUSH1 0x20 PUSH1 0x1 PUSH1 0x40 PUSH0 KECCAK256 ADD SLOAD PUSH1 0x40 MLOAD SWAP1 DUP2 MSTORE RETURN JUMPDEST CALLVALUE PUSH2 0x672 JUMPI PUSH1 0x60 CALLDATASIZE PUSH1 0x3 NOT ADD SLT PUSH2 0x672 JUMPI PUSH2 0x3C6D PUSH2 0x4579 JUMP JUMPDEST PUSH2 0x3C75 PUSH2 0x458F JUMP JUMPDEST PUSH1 0x1 PUSH1 0x1 PUSH1 0xA0 SHL SUB DUP3 AND PUSH0 DUP2 DUP2 MSTORE PUSH1 0x1 PUSH1 0x20 SWAP1 DUP2 MSTORE PUSH1 0x40 DUP1 DUP4 KECCAK256 CALLER DUP5 MSTORE SWAP1 SWAP2 MSTORE SWAP1 KECCAK256 SLOAD SWAP3 PUSH1 0x44 CALLDATALOAD SWAP3 SWAP2 PUSH0 NOT DUP6 LT PUSH2 0x3CB2 JUMPI JUMPDEST POP PUSH2 0x195C SWAP4 POP PUSH2 0x4CA4 JUMP JUMPDEST DUP4 DUP6 LT PUSH2 0x3D18 JUMPI DUP1 ISZERO PUSH2 0x3D00 JUMPI CALLER ISZERO PUSH2 0x3CE8 JUMPI PUSH2 0x195C SWAP5 DUP5 SWAP2 PUSH0 MSTORE PUSH1 0x1 PUSH1 0x20 MSTORE PUSH1 0x40 PUSH0 KECCAK256 CALLER PUSH0 MSTORE PUSH1 0x20 MSTORE SUB PUSH1 0x40 PUSH0 KECCAK256 SSTORE DUP5 PUSH2 0x3CA7 JUMP JUMPDEST PUSH1 0x40 MLOAD PUSH4 0x4A1406B1 PUSH1 0xE1 SHL DUP2 MSTORE PUSH0 PUSH1 0x4 DUP3 ADD MSTORE PUSH1 0x24 SWAP1 REVERT JUMPDEST PUSH1 0x40 MLOAD PUSH4 0xE602DF05 PUSH1 0xE0 SHL DUP2 MSTORE PUSH0 PUSH1 0x4 DUP3 ADD MSTORE PUSH1 0x24 SWAP1 REVERT JUMPDEST PUSH1 0x40 MLOAD PUSH4 0x7DC7A0D9 PUSH1 0xE1 SHL DUP2 MSTORE CALLER PUSH1 0x4 DUP3 ADD MSTORE PUSH1 0x24 DUP2 ADD DUP7 SWAP1 MSTORE PUSH1 0x44 DUP2 ADD DUP6 SWAP1 MSTORE PUSH1 0x64 SWAP1 REVERT JUMPDEST CALLVALUE PUSH2 0x672 JUMPI PUSH1 0x20 CALLDATASIZE PUSH1 0x3 NOT ADD SLT PUSH2 0x672 JUMPI PUSH2 0x3D57 PUSH2 0x4579 JUMP JUMPDEST PUSH2 0x3D5F PUSH2 0x55A7 JUMP JUMPDEST POP PUSH1 0x1 DUP1 PUSH1 0xA0 SHL SUB AND PUSH0 MSTORE PUSH1 0x8 PUSH1 0x20 MSTORE PUSH2 0x6DE PUSH2 0x3D7E PUSH1 0x40 PUSH0 KECCAK256 PUSH2 0x55E3 JUMP JUMPDEST PUSH1 0x40 MLOAD SWAP2 DUP3 SWAP2 PUSH1 0x20 DUP4 MSTORE PUSH1 0x20 DUP4 ADD SWAP1 PUSH2 0x47CA JUMP JUMPDEST CALLVALUE PUSH2 0x672 JUMPI PUSH0 CALLDATASIZE PUSH1 0x3 NOT ADD SLT PUSH2 0x672 JUMPI PUSH1 0x20 PUSH1 0x2 SLOAD PUSH1 0x40 MLOAD SWAP1 DUP2 MSTORE RETURN JUMPDEST CALLVALUE PUSH2 0x672 JUMPI PUSH1 0x40 CALLDATASIZE PUSH1 0x3 NOT ADD SLT PUSH2 0x672 JUMPI PUSH2 0x870 PUSH2 0x3DCB PUSH2 0x4579 JUMP JUMPDEST PUSH2 0x3DD3 PUSH2 0x4A2C JUMP JUMPDEST PUSH2 0x3DE2 PUSH1 0xFF PUSH1 0x7 SLOAD AND ISZERO PUSH2 0x5934 JUMP JUMPDEST PUSH1 0x1 PUSH1 0x1 PUSH1 0xA0 SHL SUB DUP2 AND PUSH0 SWAP1 DUP2 MSTORE PUSH0 DUP1 MLOAD PUSH1 0x20 PUSH2 0x5A5B DUP4 CODECOPY DUP2 MLOAD SWAP2 MSTORE PUSH1 0x20 MSTORE PUSH1 0x40 SWAP1 KECCAK256 SLOAD PUSH2 0x1952 SWAP1 PUSH1 0xFF AND PUSH2 0x57BC JUMP JUMPDEST CALLVALUE PUSH2 0x672 JUMPI PUSH1 0x20 CALLDATASIZE PUSH1 0x3 NOT ADD SLT PUSH2 0x672 JUMPI PUSH1 0x1 PUSH1 0x1 PUSH1 0xA0 SHL SUB PUSH2 0x3E33 PUSH2 0x4579 JUMP JUMPDEST AND PUSH0 MSTORE PUSH1 0xC PUSH1 0x20 MSTORE PUSH1 0x20 PUSH1 0xFF PUSH1 0x5 PUSH1 0x40 PUSH0 KECCAK256 ADD SLOAD PUSH1 0xA0 SHR AND PUSH1 0x40 MLOAD SWAP1 ISZERO ISZERO DUP2 MSTORE RETURN JUMPDEST CALLVALUE PUSH2 0x672 JUMPI PUSH1 0x20 CALLDATASIZE PUSH1 0x3 NOT ADD SLT PUSH2 0x672 JUMPI PUSH1 0x1 PUSH1 0x1 PUSH1 0xA0 SHL SUB PUSH2 0x3E76 PUSH2 0x4579 JUMP JUMPDEST AND PUSH0 MSTORE PUSH1 0x1B PUSH1 0x20 MSTORE PUSH1 0x20 PUSH1 0x40 PUSH0 KECCAK256 SLOAD PUSH1 0x40 MLOAD SWAP1 DUP2 MSTORE RETURN JUMPDEST CALLVALUE PUSH2 0x672 JUMPI PUSH0 CALLDATASIZE PUSH1 0x3 NOT ADD SLT PUSH2 0x672 JUMPI PUSH1 0x20 PUSH1 0x18 SLOAD PUSH1 0x40 MLOAD SWAP1 DUP2 MSTORE RETURN JUMPDEST CALLVALUE PUSH2 0x672 JUMPI PUSH1 0x20 CALLDATASIZE PUSH1 0x3 NOT ADD SLT PUSH2 0x672 JUMPI PUSH1 0x4 CALLDATALOAD PUSH0 MSTORE PUSH1 0xF PUSH1 0x20 MSTORE PUSH1 0x40 PUSH0 KECCAK256 PUSH2 0x3ED2 DUP2 PUSH2 0x4623 JUMP JUMPDEST PUSH2 0x3EDE PUSH1 0x1 DUP4 ADD PUSH2 0x4623 JUMP JUMPDEST PUSH1 0xE0 MSTORE PUSH2 0x3EED PUSH1 0x2 DUP4 ADD PUSH2 0x4623 JUMP JUMPDEST PUSH1 0xA0 MSTORE PUSH1 0x3 DUP3 ADD SLOAD SWAP2 PUSH1 0x4 DUP2 ADD SLOAD PUSH1 0x5 DUP3 ADD PUSH2 0x3F08 SWAP1 PUSH2 0x4623 JUMP JUMPDEST SWAP4 PUSH2 0x3F15 PUSH1 0x6 DUP5 ADD PUSH2 0x4623 JUMP JUMPDEST SWAP5 PUSH2 0x3F22 PUSH1 0x7 DUP6 ADD PUSH2 0x4623 JUMP JUMPDEST PUSH1 0x8 DUP6 ADD SLOAD PUSH1 0x9 DUP7 ADD SLOAD PUSH2 0x3F38 PUSH1 0xA DUP9 ADD PUSH2 0x4623 JUMP JUMPDEST SWAP3 PUSH1 0x1 PUSH1 0xA0 SHL PUSH1 0x1 SWAP1 SUB SWAP10 DUP11 PUSH1 0xB DUP11 ADD SLOAD AND PUSH1 0x80 MSTORE PUSH1 0xC DUP10 ADD SLOAD SWAP6 PUSH1 0xD DUP11 ADD SLOAD SWAP8 PUSH1 0xE DUP12 ADD SLOAD PUSH1 0xFF AND SWAP10 PUSH1 0xF DUP13 ADD SLOAD SWAP12 PUSH1 0x10 ADD SLOAD SWAP13 PUSH1 0x40 MLOAD DUP1 PUSH1 0xC0 MSTORE PUSH2 0x240 DUP1 SWAP2 MSTORE PUSH1 0xC0 MLOAD ADD PUSH2 0x3F87 SWAP2 PUSH2 0x45C6 JUMP JUMPDEST PUSH1 0xC0 MLOAD DUP1 DUP3 SUB SWAP1 PUSH1 0x20 ADD MSTORE PUSH1 0xE0 MLOAD SWAP1 PUSH2 0x3F9F SWAP2 PUSH2 0x45C6 JUMP JUMPDEST PUSH1 0xC0 MLOAD DUP1 DUP3 SUB SWAP1 PUSH1 0x40 ADD MSTORE PUSH1 0xA0 MLOAD SWAP1 PUSH2 0x3FB7 SWAP2 PUSH2 0x45C6 JUMP JUMPDEST SWAP2 PUSH1 0xC0 MLOAD PUSH1 0x60 ADD MSTORE PUSH1 0xC0 MLOAD PUSH1 0x80 ADD MSTORE PUSH1 0xC0 MLOAD DUP1 DUP3 SUB SWAP1 PUSH1 0xA0 ADD MSTORE PUSH2 0x3FDA SWAP2 PUSH2 0x45C6 JUMP JUMPDEST PUSH1 0xC0 MLOAD DUP1 DUP3 SUB SWAP1 PUSH1 0xC0 ADD MSTORE PUSH2 0x3FEE SWAP2 PUSH2 0x45C6 JUMP JUMPDEST PUSH1 0xC0 MLOAD DUP1 DUP3 SUB SWAP1 PUSH1 0xE0 ADD MSTORE PUSH2 0x4002 SWAP2 PUSH2 0x45C6 JUMP JUMPDEST SWAP2 PUSH1 0xC0 MLOAD PUSH2 0x100 ADD MSTORE PUSH1 0xC0 MLOAD PUSH2 0x120 ADD MSTORE PUSH1 0xC0 MLOAD DUP1 DUP3 SUB SWAP1 PUSH2 0x140 ADD MSTORE PUSH2 0x4028 SWAP2 PUSH2 0x45C6 JUMP JUMPDEST SWAP6 PUSH1 0x80 MLOAD PUSH1 0xC0 MLOAD PUSH2 0x160 ADD MSTORE DUP2 AND PUSH1 0xC0 MLOAD PUSH2 0x180 ADD MSTORE PUSH1 0xA0 SHR PUSH1 0xFF AND ISZERO ISZERO PUSH1 0xC0 MLOAD PUSH2 0x1A0 ADD MSTORE PUSH1 0xC0 MLOAD PUSH2 0x1C0 ADD MSTORE PUSH1 0xC0 MLOAD PUSH2 0x1E0 ADD PUSH2 0x4066 SWAP2 PUSH2 0x47BD JUMP JUMPDEST PUSH1 0xC0 MLOAD PUSH2 0x200 ADD MSTORE PUSH1 0xC0 MLOAD PUSH2 0x220 ADD MSTORE PUSH1 0xC0 MLOAD DUP1 SWAP2 SUB SWAP1 RETURN JUMPDEST CALLVALUE PUSH2 0x672 JUMPI PUSH1 0x40 CALLDATASIZE PUSH1 0x3 NOT ADD SLT PUSH2 0x672 JUMPI PUSH2 0x4098 PUSH2 0x4579 JUMP JUMPDEST PUSH1 0x1 PUSH1 0x1 PUSH1 0xA0 SHL SUB AND PUSH0 SWAP1 DUP2 MSTORE PUSH1 0x12 PUSH1 0x20 MSTORE PUSH1 0x40 SWAP1 KECCAK256 DUP1 SLOAD PUSH1 0x24 CALLDATALOAD SWAP2 SWAP1 DUP3 LT ISZERO PUSH2 0x672 JUMPI PUSH1 0x20 SWAP2 PUSH2 0x3A88 SWAP2 PUSH2 0x4564 JUMP JUMPDEST CALLVALUE PUSH2 0x672 JUMPI PUSH1 0x20 PUSH2 0x40DB PUSH2 0x7E6 CALLDATASIZE PUSH2 0x4740 JUMP JUMPDEST DUP2 ADD PUSH1 0xE DUP2 MSTORE SUB ADD SWAP1 KECCAK256 DUP1 SLOAD DUP3 LT ISZERO PUSH2 0x672 JUMPI PUSH1 0x20 SWAP2 PUSH2 0x81A SWAP2 PUSH2 0x4564 JUMP JUMPDEST CALLVALUE PUSH2 0x672 JUMPI PUSH1 0x20 CALLDATASIZE PUSH1 0x3 NOT ADD SLT PUSH2 0x672 JUMPI PUSH1 0x1 PUSH1 0x1 PUSH1 0xA0 SHL SUB PUSH2 0x411B PUSH2 0x4579 JUMP JUMPDEST AND PUSH0 MSTORE PUSH1 0x19 PUSH1 0x20 MSTORE PUSH1 0x20 PUSH1 0x40 PUSH0 KECCAK256 SLOAD PUSH1 0x40 MLOAD SWAP1 DUP2 MSTORE RETURN JUMPDEST CALLVALUE PUSH2 0x672 JUMPI PUSH1 0x40 CALLDATASIZE PUSH1 0x3 NOT ADD SLT PUSH2 0x672 JUMPI PUSH2 0x414B PUSH2 0x4579 JUMP JUMPDEST PUSH1 0x24 CALLDATALOAD SWAP1 CALLER ISZERO PUSH2 0x3D00 JUMPI PUSH1 0x1 PUSH1 0x1 PUSH1 0xA0 SHL SUB AND SWAP1 DUP2 ISZERO PUSH2 0x3CE8 JUMPI CALLER PUSH0 MSTORE PUSH1 0x1 PUSH1 0x20 MSTORE PUSH1 0x40 PUSH0 KECCAK256 DUP3 PUSH0 MSTORE PUSH1 0x20 MSTORE DUP1 PUSH1 0x40 PUSH0 KECCAK256 SSTORE PUSH1 0x40 MLOAD SWAP1 DUP2 MSTORE PUSH32 0x8C5BE1E5EBEC7D5BD14F71427D1E84F3DD0314C0F7B2291E5B200AC8C7C3B925 PUSH1 0x20 CALLER SWAP3 LOG3 PUSH1 0x20 PUSH1 0x40 MLOAD PUSH1 0x1 DUP2 MSTORE RETURN JUMPDEST CALLVALUE PUSH2 0x672 JUMPI PUSH1 0x20 CALLDATASIZE PUSH1 0x3 NOT ADD SLT PUSH2 0x672 JUMPI PUSH1 0x1 PUSH1 0x1 PUSH1 0xA0 SHL SUB DUP1 PUSH2 0x41D6 PUSH2 0x4579 JUMP JUMPDEST AND PUSH0 MSTORE PUSH1 0x8 PUSH1 0x20 MSTORE PUSH1 0x40 PUSH0 KECCAK256 SWAP1 PUSH2 0x6DE PUSH2 0x19A2 DUP4 PUSH2 0x4623 JUMP JUMPDEST CALLVALUE PUSH2 0x672 JUMPI PUSH0 CALLDATASIZE PUSH1 0x3 NOT ADD SLT PUSH2 0x672 JUMPI PUSH1 0x40 MLOAD PUSH0 PUSH1 0x3 SLOAD PUSH2 0x420F DUP2 PUSH2 0x45EB JUMP JUMPDEST DUP1 DUP5 MSTORE SWAP1 PUSH1 0x1 SWAP1 DUP2 DUP2 AND SWAP1 DUP2 ISZERO PUSH2 0x26C0 JUMPI POP PUSH1 0x1 EQ PUSH2 0x4238 JUMPI PUSH2 0x6DE DUP5 PUSH2 0x2652 DUP2 DUP7 SUB DUP3 PUSH2 0x44AB JUMP JUMPDEST PUSH1 0x3 PUSH0 SWAP1 DUP2 MSTORE SWAP3 POP PUSH32 0xC2575A0E9E593C00F959F8C92F12DB2869C3395A3B0502D05E2516446F71F85B JUMPDEST DUP3 DUP5 LT PUSH2 0x427A JUMPI POP POP POP DUP2 ADD PUSH1 0x20 ADD PUSH2 0x2652 DUP3 PUSH2 0x2642 JUMP JUMPDEST DUP1 SLOAD PUSH1 0x20 DUP6 DUP8 ADD DUP2 ADD SWAP2 SWAP1 SWAP2 MSTORE SWAP1 SWAP4 ADD SWAP3 DUP2 ADD PUSH2 0x4262 JUMP JUMPDEST CALLVALUE PUSH2 0x672 JUMPI PUSH1 0x40 CALLDATASIZE PUSH1 0x3 NOT ADD SLT PUSH2 0x672 JUMPI PUSH2 0x42AB PUSH2 0x4579 JUMP JUMPDEST PUSH1 0x24 CALLDATALOAD SWAP1 DUP2 ISZERO ISZERO SWAP2 DUP3 DUP2 SUB PUSH2 0x672 JUMPI PUSH32 0x30BD595E45AE31D69B2A46EC0C3825E96F059A6BCA5D1BB010D7BB5B5A0851B9 SWAP2 PUSH1 0x20 SWAP2 PUSH2 0x42E7 PUSH2 0x4A2C JUMP JUMPDEST ISZERO PUSH2 0x430A JUMPI PUSH2 0x42F5 DUP2 PUSH2 0x4AA5 JUMP JUMPDEST POP JUMPDEST PUSH1 0x40 MLOAD SWAP4 DUP5 MSTORE PUSH1 0x1 PUSH1 0x1 PUSH1 0xA0 SHL SUB AND SWAP3 LOG2 STOP JUMPDEST PUSH2 0x4313 DUP2 PUSH2 0x4BAA JUMP JUMPDEST POP PUSH2 0x42F7 JUMP JUMPDEST CALLVALUE PUSH2 0x672 JUMPI PUSH1 0x20 CALLDATASIZE PUSH1 0x3 NOT ADD SLT PUSH2 0x672 JUMPI PUSH1 0x4 CALLDATALOAD PUSH1 0x9 SLOAD DUP2 LT ISZERO PUSH2 0x672 JUMPI PUSH1 0x9 PUSH0 MSTORE PUSH32 0x6E1540171B6C0C960B71A7020D9F60077F6AF931A8BBF590DA0223DACF75C7AF ADD SLOAD PUSH1 0x40 MLOAD PUSH1 0x1 PUSH1 0x1 PUSH1 0xA0 SHL SUB SWAP1 SWAP2 AND DUP2 MSTORE PUSH1 0x20 SWAP1 RETURN JUMPDEST CALLVALUE PUSH2 0x672 JUMPI PUSH1 0x20 CALLDATASIZE PUSH1 0x3 NOT ADD SLT PUSH2 0x672 JUMPI PUSH1 0x4 CALLDATALOAD PUSH4 0xFFFFFFFF PUSH1 0xE0 SHL DUP2 AND DUP1 SWAP2 SUB PUSH2 0x672 JUMPI PUSH1 0x20 SWAP1 PUSH4 0x7965DB0B PUSH1 0xE0 SHL DUP2 EQ SWAP1 DUP2 ISZERO PUSH2 0x43B8 JUMPI JUMPDEST POP PUSH1 0x40 MLOAD SWAP1 ISZERO ISZERO DUP2 MSTORE RETURN JUMPDEST PUSH4 0x1FFC9A7 PUSH1 0xE0 SHL EQ SWAP1 POP DUP3 PUSH2 0x43AD JUMP JUMPDEST CALLVALUE PUSH2 0x672 JUMPI PUSH1 0x20 DUP1 PUSH1 0x3 NOT CALLDATASIZE ADD SLT PUSH2 0x672 JUMPI PUSH1 0x4 CALLDATALOAD PUSH1 0x1 PUSH1 0x1 PUSH1 0x40 SHL SUB DUP2 GT PUSH2 0x672 JUMPI DUP2 PUSH2 0x2BC9 PUSH2 0x43FE SWAP3 CALLDATASIZE SWAP1 PUSH1 0x4 ADD PUSH2 0x44CC JUMP JUMPDEST DUP2 ADD PUSH1 0xE DUP2 MSTORE SUB ADD SWAP1 KECCAK256 SWAP1 PUSH1 0x40 MLOAD SWAP1 DUP2 DUP2 DUP5 SLOAD SWAP2 DUP3 DUP2 MSTORE ADD SWAP4 PUSH0 MSTORE DUP2 PUSH0 KECCAK256 SWAP2 PUSH0 SWAP1 JUMPDEST DUP3 DUP3 LT PUSH2 0x4437 JUMPI PUSH2 0x6DE DUP6 PUSH2 0x75A DUP2 DUP10 SUB DUP3 PUSH2 0x44AB JUMP JUMPDEST DUP4 SLOAD PUSH1 0x1 PUSH1 0x1 PUSH1 0xA0 SHL SUB AND DUP7 MSTORE SWAP5 DUP6 ADD SWAP5 PUSH1 0x1 SWAP4 DUP5 ADD SWAP4 SWAP1 SWAP2 ADD SWAP1 PUSH2 0x4420 JUMP JUMPDEST PUSH2 0x220 DUP2 ADD SWAP1 DUP2 LT PUSH1 0x1 PUSH1 0x1 PUSH1 0x40 SHL SUB DUP3 GT OR PUSH2 0xD78 JUMPI PUSH1 0x40 MSTORE JUMP JUMPDEST PUSH2 0x100 DUP2 ADD SWAP1 DUP2 LT PUSH1 0x1 PUSH1 0x1 PUSH1 0x40 SHL SUB DUP3 GT OR PUSH2 0xD78 JUMPI PUSH1 0x40 MSTORE JUMP JUMPDEST PUSH2 0x240 DUP2 ADD SWAP1 DUP2 LT PUSH1 0x1 PUSH1 0x1 PUSH1 0x40 SHL SUB DUP3 GT OR PUSH2 0xD78 JUMPI PUSH1 0x40 MSTORE JUMP JUMPDEST SWAP1 PUSH1 0x1F DUP1 NOT SWAP2 ADD AND DUP2 ADD SWAP1 DUP2 LT PUSH1 0x1 PUSH1 0x1 PUSH1 0x40 SHL SUB DUP3 GT OR PUSH2 0xD78 JUMPI PUSH1 0x40 MSTORE JUMP JUMPDEST DUP2 PUSH1 0x1F DUP3 ADD SLT ISZERO PUSH2 0x672 JUMPI DUP1 CALLDATALOAD SWAP1 PUSH1 0x1 PUSH1 0x1 PUSH1 0x40 SHL SUB DUP3 GT PUSH2 0xD78 JUMPI PUSH1 0x40 MLOAD SWAP3 PUSH2 0x4500 PUSH1 0x1F DUP5 ADD PUSH1 0x1F NOT AND PUSH1 0x20 ADD DUP6 PUSH2 0x44AB JUMP JUMPDEST DUP3 DUP5 MSTORE PUSH1 0x20 DUP4 DUP4 ADD ADD GT PUSH2 0x672 JUMPI DUP2 PUSH0 SWAP3 PUSH1 0x20 DUP1 SWAP4 ADD DUP4 DUP7 ADD CALLDATACOPY DUP4 ADD ADD MSTORE SWAP1 JUMP JUMPDEST PUSH1 0x20 SWAP1 DUP2 PUSH1 0x40 DUP2 DUP4 ADD SWAP3 DUP3 DUP2 MSTORE DUP6 MLOAD DUP1 SWAP5 MSTORE ADD SWAP4 ADD SWAP2 PUSH0 JUMPDEST DUP3 DUP2 LT PUSH2 0x4547 JUMPI POP POP POP POP SWAP1 JUMP JUMPDEST DUP4 MLOAD PUSH1 0x1 PUSH1 0x1 PUSH1 0xA0 SHL SUB AND DUP6 MSTORE SWAP4 DUP2 ADD SWAP4 SWAP3 DUP2 ADD SWAP3 PUSH1 0x1 ADD PUSH2 0x4539 JUMP JUMPDEST DUP1 SLOAD DUP3 LT ISZERO PUSH2 0x325B JUMPI PUSH0 MSTORE PUSH1 0x20 PUSH0 KECCAK256 ADD SWAP1 PUSH0 SWAP1 JUMP JUMPDEST PUSH1 0x4 CALLDATALOAD SWAP1 PUSH1 0x1 PUSH1 0x1 PUSH1 0xA0 SHL SUB DUP3 AND DUP3 SUB PUSH2 0x672 JUMPI JUMP JUMPDEST PUSH1 0x24 CALLDATALOAD SWAP1 PUSH1 0x1 PUSH1 0x1 PUSH1 0xA0 SHL SUB DUP3 AND DUP3 SUB PUSH2 0x672 JUMPI JUMP JUMPDEST PUSH0 JUMPDEST DUP4 DUP2 LT PUSH2 0x45B6 JUMPI POP POP PUSH0 SWAP2 ADD MSTORE JUMP JUMPDEST DUP2 DUP2 ADD MLOAD DUP4 DUP3 ADD MSTORE PUSH1 0x20 ADD PUSH2 0x45A7 JUMP JUMPDEST SWAP1 PUSH1 0x20 SWAP2 PUSH2 0x45DF DUP2 MLOAD DUP1 SWAP3 DUP2 DUP6 MSTORE DUP6 DUP1 DUP7 ADD SWAP2 ADD PUSH2 0x45A5 JUMP JUMPDEST PUSH1 0x1F ADD PUSH1 0x1F NOT AND ADD ADD SWAP1 JUMP JUMPDEST SWAP1 PUSH1 0x1 DUP3 DUP2 SHR SWAP3 AND DUP1 ISZERO PUSH2 0x4619 JUMPI JUMPDEST PUSH1 0x20 DUP4 LT EQ PUSH2 0x4605 JUMPI JUMP JUMPDEST PUSH4 0x4E487B71 PUSH1 0xE0 SHL PUSH0 MSTORE PUSH1 0x22 PUSH1 0x4 MSTORE PUSH1 0x24 PUSH0 REVERT JUMPDEST SWAP2 PUSH1 0x7F AND SWAP2 PUSH2 0x45FA JUMP JUMPDEST SWAP1 PUSH1 0x40 MLOAD SWAP2 DUP3 PUSH0 DUP3 SLOAD SWAP3 PUSH2 0x4636 DUP5 PUSH2 0x45EB JUMP JUMPDEST SWAP1 DUP2 DUP5 MSTORE PUSH1 0x1 SWAP5 DUP6 DUP2 AND SWAP1 DUP2 PUSH0 EQ PUSH2 0x46A1 JUMPI POP PUSH1 0x1 EQ PUSH2 0x4661 JUMPI JUMPDEST POP POP PUSH2 0x465F SWAP3 POP SUB DUP4 PUSH2 0x44AB JUMP JUMPDEST JUMP JUMPDEST SWAP1 SWAP4 SWAP2 POP PUSH0 MSTORE PUSH1 0x20 SWAP1 DUP2 PUSH0 KECCAK256 SWAP4 PUSH0 SWAP2 JUMPDEST DUP2 DUP4 LT PUSH2 0x4689 JUMPI POP POP PUSH2 0x465F SWAP4 POP DUP3 ADD ADD PUSH0 DUP1 PUSH2 0x4651 JUMP JUMPDEST DUP6 SLOAD DUP9 DUP5 ADD DUP6 ADD MSTORE SWAP5 DUP6 ADD SWAP5 DUP8 SWAP5 POP SWAP2 DUP4 ADD SWAP2 PUSH2 0x4671 JUMP JUMPDEST SWAP2 POP POP PUSH2 0x465F SWAP5 POP PUSH1 0x20 SWAP3 POP PUSH1 0xFF NOT AND DUP3 DUP5 ADD MSTORE ISZERO ISZERO PUSH1 0x5 SHL DUP3 ADD ADD PUSH0 DUP1 PUSH2 0x4651 JUMP JUMPDEST SWAP5 SWAP2 SWAP4 PUSH2 0x4709 PUSH2 0x4725 SWAP5 PUSH2 0x46FB PUSH1 0xE0 SWAP10 SWAP13 SWAP12 SWAP11 SWAP8 PUSH2 0x46ED PUSH2 0x4717 SWAP7 PUSH2 0x100 DUP1 DUP14 MSTORE DUP13 ADD SWAP1 PUSH2 0x45C6 JUMP JUMPDEST SWAP1 DUP11 DUP3 SUB PUSH1 0x20 DUP13 ADD MSTORE PUSH2 0x45C6 JUMP JUMPDEST SWAP1 DUP9 DUP3 SUB PUSH1 0x40 DUP11 ADD MSTORE PUSH2 0x45C6 JUMP JUMPDEST SWAP1 DUP7 DUP3 SUB PUSH1 0x60 DUP9 ADD MSTORE PUSH2 0x45C6 JUMP JUMPDEST SWAP1 DUP5 DUP3 SUB PUSH1 0x80 DUP7 ADD MSTORE PUSH2 0x45C6 JUMP JUMPDEST PUSH1 0x1 PUSH1 0x1 PUSH1 0xA0 SHL SUB SWAP1 SWAP7 AND PUSH1 0xA0 DUP4 ADD MSTORE ISZERO ISZERO PUSH1 0xC0 DUP3 ADD MSTORE ADD MSTORE JUMP JUMPDEST PUSH1 0x40 PUSH1 0x3 NOT DUP3 ADD SLT PUSH2 0x672 JUMPI PUSH1 0x4 CALLDATALOAD SWAP1 PUSH1 0x1 PUSH1 0x1 PUSH1 0x40 SHL SUB DUP3 GT PUSH2 0x672 JUMPI PUSH2 0x476A SWAP2 PUSH1 0x4 ADD PUSH2 0x44CC JUMP JUMPDEST SWAP1 PUSH1 0x24 CALLDATALOAD SWAP1 JUMP JUMPDEST PUSH1 0x20 PUSH2 0x478A SWAP2 DUP2 PUSH1 0x40 MLOAD SWAP4 DUP3 DUP6 DUP1 SWAP5 MLOAD SWAP4 DUP5 SWAP3 ADD PUSH2 0x45A5 JUMP JUMPDEST DUP2 ADD PUSH1 0xA DUP2 MSTORE SUB ADD SWAP1 KECCAK256 SWAP1 JUMP JUMPDEST PUSH1 0x20 PUSH2 0x47B0 SWAP2 DUP2 PUSH1 0x40 MLOAD SWAP4 DUP3 DUP6 DUP1 SWAP5 MLOAD SWAP4 DUP5 SWAP3 ADD PUSH2 0x45A5 JUMP JUMPDEST DUP2 ADD PUSH1 0xB DUP2 MSTORE SUB ADD SWAP1 KECCAK256 SWAP1 JUMP JUMPDEST SWAP1 PUSH1 0x4 DUP3 LT ISZERO PUSH2 0x652 JUMPI MSTORE JUMP JUMPDEST SWAP1 PUSH1 0xE0 DUP1 PUSH2 0x4835 PUSH2 0x4823 PUSH2 0x4811 PUSH2 0x47FF PUSH2 0x47ED DUP9 MLOAD PUSH2 0x100 DUP1 DUP11 MSTORE DUP10 ADD SWAP1 PUSH2 0x45C6 JUMP JUMPDEST PUSH1 0x20 DUP10 ADD MLOAD DUP9 DUP3 SUB PUSH1 0x20 DUP11 ADD MSTORE PUSH2 0x45C6 JUMP JUMPDEST PUSH1 0x40 DUP9 ADD MLOAD DUP8 DUP3 SUB PUSH1 0x40 DUP10 ADD MSTORE PUSH2 0x45C6 JUMP JUMPDEST PUSH1 0x60 DUP8 ADD MLOAD DUP7 DUP3 SUB PUSH1 0x60 DUP9 ADD MSTORE PUSH2 0x45C6 JUMP JUMPDEST PUSH1 0x80 DUP7 ADD MLOAD DUP6 DUP3 SUB PUSH1 0x80 DUP8 ADD MSTORE PUSH2 0x45C6 JUMP JUMPDEST PUSH1 0xA0 DUP1 DUP7 ADD MLOAD PUSH1 0x1 PUSH1 0x1 PUSH1 0xA0 SHL SUB AND SWAP1 DUP6 ADD MSTORE PUSH1 0xC0 DUP1 DUP7 ADD MLOAD ISZERO ISZERO SWAP1 DUP6 ADD MSTORE SWAP4 ADD MLOAD SWAP2 ADD MSTORE SWAP1 JUMP JUMPDEST SWAP1 PUSH1 0xC0 PUSH1 0x3 NOT DUP4 ADD SLT PUSH2 0x672 JUMPI PUSH1 0x4 DUP1 CALLDATALOAD PUSH1 0x1 PUSH1 0x1 PUSH1 0xA0 SHL SUB DUP2 AND DUP2 SUB PUSH2 0x672 JUMPI SWAP3 PUSH1 0x1 PUSH1 0x1 PUSH1 0x40 SHL SUB PUSH1 0x24 CALLDATALOAD DUP2 DUP2 GT PUSH2 0x672 JUMPI DUP3 PUSH2 0x489D SWAP2 DUP6 ADD PUSH2 0x44CC JUMP JUMPDEST SWAP4 PUSH1 0x44 CALLDATALOAD DUP3 DUP2 GT PUSH2 0x672 JUMPI DUP4 PUSH2 0x48B4 SWAP2 DUP7 ADD PUSH2 0x44CC JUMP JUMPDEST SWAP4 PUSH1 0x64 CALLDATALOAD DUP4 DUP2 GT PUSH2 0x672 JUMPI DUP5 PUSH2 0x48CB SWAP2 DUP4 ADD PUSH2 0x44CC JUMP JUMPDEST SWAP4 PUSH1 0x84 CALLDATALOAD DUP5 DUP2 GT PUSH2 0x672 JUMPI DUP2 PUSH2 0x48E2 SWAP2 DUP5 ADD PUSH2 0x44CC JUMP JUMPDEST SWAP4 PUSH1 0xA4 CALLDATALOAD SWAP1 DUP2 GT PUSH2 0x672 JUMPI PUSH2 0x48F7 SWAP3 ADD PUSH2 0x44CC JUMP JUMPDEST SWAP1 JUMP JUMPDEST CALLVALUE PUSH2 0x672 JUMPI PUSH0 CALLDATASIZE PUSH1 0x3 NOT ADD SLT PUSH2 0x672 JUMPI PUSH1 0x20 PUSH1 0x40 MLOAD PUSH0 DUP2 MSTORE RETURN JUMPDEST PUSH1 0x20 DUP2 MSTORE DUP2 MLOAD PUSH1 0x20 DUP3 ADD MSTORE PUSH1 0x1 DUP1 PUSH1 0xA0 SHL SUB DUP1 PUSH1 0x20 DUP5 ADD MLOAD AND PUSH1 0x40 DUP4 ADD MSTORE PUSH1 0x40 DUP4 ADD MLOAD PUSH1 0x60 DUP4 ADD MSTORE PUSH1 0x60 DUP4 ADD MLOAD PUSH1 0x80 DUP4 ADD MSTORE PUSH1 0x80 DUP4 ADD MLOAD PUSH1 0xA0 DUP4 ADD MSTORE PUSH1 0xA0 DUP4 ADD MLOAD PUSH1 0xC0 DUP4 ADD MSTORE PUSH1 0xC0 DUP4 ADD MLOAD PUSH1 0xE0 DUP4 ADD MSTORE PUSH1 0xE0 DUP4 ADD MLOAD PUSH2 0x100 SWAP1 DUP2 DUP5 ADD MSTORE DUP4 ADD MLOAD ISZERO ISZERO PUSH2 0x120 SWAP1 DUP2 DUP5 ADD MSTORE DUP4 ADD MLOAD ISZERO ISZERO PUSH2 0x140 SWAP1 DUP2 DUP5 ADD MSTORE DUP4 ADD MLOAD ISZERO ISZERO PUSH2 0x160 SWAP1 DUP2 DUP5 ADD MSTORE DUP4 ADD MLOAD ISZERO ISZERO PUSH2 0x180 SWAP1 DUP2 DUP5 ADD MSTORE DUP4 ADD MLOAD SWAP3 PUSH2 0x220 SWAP2 PUSH2 0x49C4 PUSH2 0x1A0 SWAP6 DUP5 DUP8 DUP8 ADD MSTORE PUSH2 0x240 DUP7 ADD SWAP1 PUSH2 0x45C6 JUMP JUMPDEST SWAP5 DUP3 ADD MLOAD PUSH2 0x1C0 SWAP1 DUP2 DUP7 ADD MSTORE DUP3 ADD MLOAD ISZERO ISZERO PUSH2 0x1E0 SWAP1 DUP2 DUP7 ADD MSTORE DUP3 ADD MLOAD AND SWAP1 PUSH2 0x200 SWAP2 DUP3 DUP6 ADD MSTORE ADD MLOAD SWAP2 ADD MSTORE SWAP1 JUMP JUMPDEST PUSH1 0x20 SWAP1 DUP2 PUSH1 0x40 DUP2 DUP4 ADD SWAP3 DUP3 DUP2 MSTORE DUP6 MLOAD DUP1 SWAP5 MSTORE ADD SWAP4 ADD SWAP2 PUSH0 JUMPDEST DUP3 DUP2 LT PUSH2 0x4A18 JUMPI POP POP POP POP SWAP1 JUMP JUMPDEST DUP4 MLOAD DUP6 MSTORE SWAP4 DUP2 ADD SWAP4 SWAP3 DUP2 ADD SWAP3 PUSH1 0x1 ADD PUSH2 0x4A0A JUMP JUMPDEST CALLER PUSH0 SWAP1 DUP2 MSTORE PUSH32 0x5B8CCBB9D4D8FB16EA74CE3C29A41F1B461FBDAFF4714A0D9A8EB05499746BC PUSH1 0x20 MSTORE PUSH1 0x40 DUP2 KECCAK256 SLOAD PUSH1 0xFF AND ISZERO PUSH2 0x4A65 JUMPI POP JUMP JUMPDEST PUSH1 0x44 SWAP1 PUSH1 0x40 MLOAD SWAP1 PUSH4 0xE2517D3F PUSH1 0xE0 SHL DUP3 MSTORE CALLER PUSH1 0x4 DUP4 ADD MSTORE PUSH1 0x24 DUP3 ADD MSTORE REVERT JUMPDEST DUP1 PUSH0 MSTORE PUSH1 0x5 PUSH1 0x20 MSTORE PUSH1 0x40 PUSH0 KECCAK256 CALLER PUSH0 MSTORE PUSH1 0x20 MSTORE PUSH1 0xFF PUSH1 0x40 PUSH0 KECCAK256 SLOAD AND ISZERO PUSH2 0x4A65 JUMPI POP JUMP JUMPDEST PUSH1 0x1 PUSH1 0x1 PUSH1 0xA0 SHL SUB AND PUSH0 DUP2 DUP2 MSTORE PUSH0 DUP1 MLOAD PUSH1 0x20 PUSH2 0x5A5B DUP4 CODECOPY DUP2 MLOAD SWAP2 MSTORE PUSH1 0x20 MSTORE PUSH1 0x40 DUP2 KECCAK256 SLOAD SWAP1 SWAP2 SWAP1 PUSH0 DUP1 MLOAD PUSH1 0x20 PUSH2 0x5A3B DUP4 CODECOPY DUP2 MLOAD SWAP2 MSTORE SWAP1 PUSH1 0xFF AND PUSH2 0x4B2C JUMPI DUP1 DUP4 MSTORE PUSH1 0x5 PUSH1 0x20 MSTORE PUSH1 0x40 DUP4 KECCAK256 DUP3 DUP5 MSTORE PUSH1 0x20 MSTORE PUSH1 0x40 DUP4 KECCAK256 PUSH1 0x1 PUSH1 0xFF NOT DUP3 SLOAD AND OR SWAP1 SSTORE PUSH32 0x2F8788117E7EFF1D82E926EC794901D17C78024A50270940304540A733656F0D CALLER SWAP4 DUP1 LOG4 PUSH1 0x1 SWAP1 JUMP JUMPDEST POP POP SWAP1 JUMP JUMPDEST SWAP1 PUSH0 SWAP2 DUP1 DUP4 MSTORE PUSH1 0x5 PUSH1 0x20 MSTORE PUSH1 0x40 DUP4 KECCAK256 SWAP2 PUSH1 0x1 DUP1 PUSH1 0xA0 SHL SUB AND SWAP2 DUP3 DUP5 MSTORE PUSH1 0x20 MSTORE PUSH1 0xFF PUSH1 0x40 DUP5 KECCAK256 SLOAD AND ISZERO PUSH0 EQ PUSH2 0x4B2C JUMPI DUP1 DUP4 MSTORE PUSH1 0x5 PUSH1 0x20 MSTORE PUSH1 0x40 DUP4 KECCAK256 DUP3 DUP5 MSTORE PUSH1 0x20 MSTORE PUSH1 0x40 DUP4 KECCAK256 PUSH1 0x1 PUSH1 0xFF NOT DUP3 SLOAD AND OR SWAP1 SSTORE PUSH32 0x2F8788117E7EFF1D82E926EC794901D17C78024A50270940304540A733656F0D CALLER SWAP4 DUP1 LOG4 PUSH1 0x1 SWAP1 JUMP JUMPDEST PUSH1 0x1 PUSH1 0x1 PUSH1 0xA0 SHL SUB AND PUSH0 DUP2 DUP2 MSTORE PUSH0 DUP1 MLOAD PUSH1 0x20 PUSH2 0x5A5B DUP4 CODECOPY DUP2 MLOAD SWAP2 MSTORE PUSH1 0x20 MSTORE PUSH1 0x40 DUP2 KECCAK256 SLOAD SWAP1 SWAP2 SWAP1 PUSH0 DUP1 MLOAD PUSH1 0x20 PUSH2 0x5A3B DUP4 CODECOPY DUP2 MLOAD SWAP2 MSTORE SWAP1 PUSH1 0xFF AND ISZERO PUSH2 0x4B2C JUMPI DUP1 DUP4 MSTORE PUSH1 0x5 PUSH1 0x20 MSTORE PUSH1 0x40 DUP4 KECCAK256 DUP3 DUP5 MSTORE PUSH1 0x20 MSTORE PUSH1 0x40 DUP4 KECCAK256 PUSH1 0xFF NOT DUP2 SLOAD AND SWAP1 SSTORE PUSH32 0xF6391F5C32D9C69D2A47EA670B442974B53935D1EDC7FD64EB21E047A839171B CALLER SWAP4 DUP1 LOG4 PUSH1 0x1 SWAP1 JUMP JUMPDEST SWAP1 PUSH0 SWAP2 DUP1 DUP4 MSTORE PUSH1 0x5 PUSH1 0x20 MSTORE PUSH1 0x40 DUP4 KECCAK256 SWAP2 PUSH1 0x1 DUP1 PUSH1 0xA0 SHL SUB AND SWAP2 DUP3 DUP5 MSTORE PUSH1 0x20 MSTORE PUSH1 0xFF PUSH1 0x40 DUP5 KECCAK256 SLOAD AND PUSH0 EQ PUSH2 0x4B2C JUMPI DUP1 DUP4 MSTORE PUSH1 0x5 PUSH1 0x20 MSTORE PUSH1 0x40 DUP4 KECCAK256 DUP3 DUP5 MSTORE PUSH1 0x20 MSTORE PUSH1 0x40 DUP4 KECCAK256 PUSH1 0xFF NOT DUP2 SLOAD AND SWAP1 SSTORE PUSH32 0xF6391F5C32D9C69D2A47EA670B442974B53935D1EDC7FD64EB21E047A839171B CALLER SWAP4 DUP1 LOG4 PUSH1 0x1 SWAP1 JUMP JUMPDEST PUSH1 0x1 PUSH1 0x1 PUSH1 0xA0 SHL SUB DUP1 DUP3 AND SWAP4 SWAP3 DUP5 ISZERO PUSH2 0x4FCF JUMPI AND SWAP3 DUP4 ISZERO PUSH2 0x4FB7 JUMPI PUSH1 0xFF PUSH2 0x4CCF DUP2 PUSH1 0x7 SLOAD AND ISZERO PUSH2 0x5934 JUMP JUMPDEST PUSH0 DUP3 DUP2 MSTORE PUSH32 0x5B8CCBB9D4D8FB16EA74CE3C29A41F1B461FBDAFF4714A0D9A8EB05499746BC PUSH1 0x20 SWAP1 DUP2 MSTORE PUSH1 0x40 DUP1 DUP4 KECCAK256 SLOAD PUSH0 DUP1 MLOAD PUSH1 0x20 PUSH2 0x5A5B DUP4 CODECOPY DUP2 MLOAD SWAP2 MSTORE DUP4 MSTORE DUP2 DUP5 KECCAK256 SLOAD SWAP2 SWAP7 SWAP4 SWAP6 SWAP3 SWAP5 SWAP3 SWAP4 PUSH0 DUP1 MLOAD PUSH1 0x20 PUSH2 0x5A3B DUP4 CODECOPY DUP2 MLOAD SWAP2 MSTORE SWAP4 SWAP3 PUSH1 0x5 SWAP3 SWAP1 DUP5 AND SWAP1 DUP5 AND DUP1 ISZERO PUSH2 0x4FB0 JUMPI JUMPDEST ISZERO PUSH2 0x4F7A JUMPI PUSH2 0x4EEE JUMPI JUMPDEST DUP5 DUP8 MSTORE DUP7 DUP7 MSTORE DUP8 DUP8 KECCAK256 SLOAD SWAP1 DUP10 DUP3 LT PUSH2 0x4EBD JUMPI POP DUP9 SWAP1 DUP6 DUP9 MSTORE DUP8 DUP8 MSTORE SUB DUP8 DUP8 KECCAK256 SSTORE DUP9 DUP7 MSTORE DUP7 DUP7 KECCAK256 DUP9 DUP2 SLOAD ADD SWAP1 SSTORE DUP9 DUP5 PUSH32 0xDDF252AD1BE2C89B69C2B068FC378DAA952BA7F163C4A11628F55A4DF523B3EF DUP8 DUP11 MLOAD DUP13 DUP2 MSTORE LOG3 DUP6 DUP1 MSTORE DUP1 DUP6 MSTORE DUP7 DUP7 KECCAK256 DUP5 DUP8 MSTORE DUP6 MSTORE DUP2 DUP8 DUP8 KECCAK256 SLOAD AND DUP1 PUSH2 0x4EA3 JUMPI JUMPDEST ISZERO PUSH2 0x4DD6 JUMPI POP POP POP POP PUSH1 0x19 SWAP1 PUSH2 0x4DD2 SWAP5 SWAP6 DUP4 MSTORE MSTORE KECCAK256 SWAP2 DUP3 SLOAD PUSH2 0x5A2D JUMP JUMPDEST SWAP1 SSTORE JUMP JUMPDEST DUP3 DUP7 SWAP8 SWAP5 SWAP9 SWAP6 SWAP7 MSTORE DUP1 DUP7 MSTORE DUP4 DUP8 KECCAK256 DUP9 DUP9 MSTORE DUP7 MSTORE DUP2 DUP5 DUP9 KECCAK256 SLOAD AND SWAP3 DUP4 PUSH2 0x4E87 JUMPI JUMPDEST DUP4 PUSH2 0x4E6B JUMPI JUMPDEST POP POP POP PUSH2 0x4E0C JUMPI JUMPDEST POP POP POP POP POP POP JUMP JUMPDEST DUP1 DUP5 DUP7 PUSH32 0x7FD452DDCDBD40375D72AE119897B67A769104E22B9ABAC90F671E9A3B1E1207 SWAP7 MSTORE PUSH1 0x1A DUP6 MSTORE DUP2 DUP2 KECCAK256 PUSH2 0x4E44 DUP6 DUP3 SLOAD PUSH2 0x5A2D JUMP JUMPDEST SWAP1 SSTORE DUP8 DUP2 MSTORE PUSH1 0x1B DUP6 MSTORE KECCAK256 PUSH2 0x4E59 DUP4 DUP3 SLOAD PUSH2 0x5A2D JUMP JUMPDEST SWAP1 SSTORE MLOAD SWAP1 DUP2 MSTORE LOG3 PUSH0 DUP1 DUP1 DUP1 DUP1 DUP1 PUSH2 0x4E04 JUMP JUMPDEST DUP8 MSTORE DUP6 MSTORE DUP3 DUP7 KECCAK256 DUP9 DUP8 MSTORE DUP6 MSTORE DUP3 DUP7 KECCAK256 SLOAD AND ISZERO SWAP1 POP PUSH0 DUP1 DUP1 PUSH2 0x4DFC JUMP JUMPDEST DUP8 DUP1 MSTORE DUP2 DUP8 MSTORE DUP5 DUP9 KECCAK256 DUP11 DUP10 MSTORE DUP8 MSTORE DUP5 DUP9 KECCAK256 SLOAD DUP4 AND ISZERO SWAP4 POP PUSH2 0x4DF6 JUMP JUMPDEST POP DUP3 DUP7 MSTORE DUP1 DUP6 MSTORE DUP7 DUP7 KECCAK256 DUP10 DUP8 MSTORE DUP6 MSTORE DUP2 DUP8 DUP8 KECCAK256 SLOAD AND PUSH2 0x4DB5 JUMP JUMPDEST DUP9 MLOAD PUSH4 0x391434E3 PUSH1 0xE2 SHL DUP2 MSTORE PUSH1 0x1 PUSH1 0x1 PUSH1 0xA0 SHL SUB SWAP2 SWAP1 SWAP2 AND PUSH1 0x4 DUP3 ADD MSTORE PUSH1 0x24 DUP2 ADD SWAP2 SWAP1 SWAP2 MSTORE PUSH1 0x44 DUP2 ADD DUP10 SWAP1 MSTORE PUSH1 0x64 SWAP1 REVERT JUMPDEST DUP7 DUP1 MSTORE DUP2 DUP7 MSTORE DUP8 DUP8 KECCAK256 DUP11 DUP9 MSTORE DUP7 MSTORE DUP3 DUP9 DUP9 KECCAK256 SLOAD AND ISZERO DUP1 PUSH2 0x4F5F JUMPI JUMPDEST PUSH2 0x4D45 JUMPI DUP8 MLOAD PUSH3 0x461BCD PUSH1 0xE5 SHL DUP2 MSTORE PUSH1 0x4 DUP2 ADD DUP8 SWAP1 MSTORE PUSH1 0x25 PUSH1 0x24 DUP3 ADD MSTORE PUSH32 0x4F4646494345525F544F5F41444D494E5F4F525F4F4646494345525F464F5242 PUSH1 0x44 DUP3 ADD MSTORE PUSH5 0x24A22222A7 PUSH1 0xD9 SHL PUSH1 0x64 DUP3 ADD MSTORE PUSH1 0x84 SWAP1 REVERT JUMPDEST POP DUP4 DUP8 MSTORE DUP2 DUP7 MSTORE DUP8 DUP8 KECCAK256 DUP11 DUP9 MSTORE DUP7 MSTORE DUP3 DUP9 DUP9 KECCAK256 SLOAD AND ISZERO PUSH2 0x4F09 JUMP JUMPDEST DUP9 MLOAD PUSH3 0x461BCD PUSH1 0xE5 SHL DUP2 MSTORE PUSH1 0x4 DUP2 ADD DUP9 SWAP1 MSTORE PUSH1 0xF PUSH1 0x24 DUP3 ADD MSTORE PUSH15 0x1514905394D1915497D11153925151 PUSH1 0x8A SHL PUSH1 0x44 DUP3 ADD MSTORE PUSH1 0x64 SWAP1 REVERT JUMPDEST POP DUP1 PUSH2 0x4D3B JUMP JUMPDEST PUSH1 0x40 MLOAD PUSH4 0xEC442F05 PUSH1 0xE0 SHL DUP2 MSTORE PUSH0 PUSH1 0x4 DUP3 ADD MSTORE PUSH1 0x24 SWAP1 REVERT JUMPDEST PUSH1 0x40 MLOAD PUSH4 0x4B637E8F PUSH1 0xE1 SHL DUP2 MSTORE PUSH0 PUSH1 0x4 DUP3 ADD MSTORE PUSH1 0x24 SWAP1 REVERT JUMPDEST ISZERO PUSH2 0x4FEE JUMPI JUMP JUMPDEST PUSH1 0x40 MLOAD PUSH3 0x461BCD PUSH1 0xE5 SHL DUP2 MSTORE PUSH1 0x20 PUSH1 0x4 DUP3 ADD MSTORE PUSH1 0xD PUSH1 0x24 DUP3 ADD MSTORE PUSH13 0x1390535157D491545552549151 PUSH1 0x9A SHL PUSH1 0x44 DUP3 ADD MSTORE PUSH1 0x64 SWAP1 REVERT JUMPDEST ISZERO PUSH2 0x502A JUMPI JUMP JUMPDEST PUSH1 0x40 MLOAD PUSH3 0x461BCD PUSH1 0xE5 SHL DUP2 MSTORE PUSH1 0x20 PUSH1 0x4 DUP3 ADD MSTORE PUSH1 0xD PUSH1 0x24 DUP3 ADD MSTORE PUSH13 0x1054915057D491545552549151 PUSH1 0x9A SHL PUSH1 0x44 DUP3 ADD MSTORE PUSH1 0x64 SWAP1 REVERT JUMPDEST ISZERO PUSH2 0x5066 JUMPI JUMP JUMPDEST PUSH1 0x40 MLOAD PUSH3 0x461BCD PUSH1 0xE5 SHL DUP2 MSTORE PUSH1 0x20 PUSH1 0x4 DUP3 ADD MSTORE PUSH1 0x15 PUSH1 0x24 DUP3 ADD MSTORE PUSH21 0x1295549254D11250D51253D397D491545552549151 PUSH1 0x5A SHL PUSH1 0x44 DUP3 ADD MSTORE PUSH1 0x64 SWAP1 REVERT JUMPDEST SWAP1 PUSH1 0x1F DUP2 GT PUSH2 0x50B1 JUMPI POP POP POP JUMP JUMPDEST PUSH0 SWAP2 DUP3 MSTORE PUSH1 0x20 DUP3 KECCAK256 SWAP1 PUSH1 0x20 PUSH1 0x1F DUP6 ADD PUSH1 0x5 SHR DUP4 ADD SWAP5 LT PUSH2 0x50EC JUMPI JUMPDEST PUSH1 0x1F ADD PUSH1 0x5 SHR ADD SWAP2 JUMPDEST DUP3 DUP2 LT PUSH2 0x50E1 JUMPI POP POP POP JUMP JUMPDEST DUP2 DUP2 SSTORE PUSH1 0x1 ADD PUSH2 0x50D5 JUMP JUMPDEST SWAP1 SWAP3 POP DUP3 SWAP1 PUSH2 0x50CC JUMP JUMPDEST SWAP1 DUP1 MLOAD DUP1 MLOAD PUSH1 0x1 PUSH1 0x1 PUSH1 0x40 SHL SUB SWAP2 DUP3 DUP3 GT PUSH2 0xD78 JUMPI DUP2 SWAP1 PUSH2 0x511B DUP3 PUSH2 0x1C1E DUP9 SLOAD PUSH2 0x45EB JUMP JUMPDEST PUSH1 0x20 SWAP1 PUSH1 0x1F DUP4 GT PUSH1 0x1 EQ PUSH2 0x547A JUMPI PUSH0 SWAP3 PUSH2 0x546F JUMPI JUMPDEST POP POP DUP2 PUSH1 0x1 SHL SWAP2 PUSH0 NOT SWAP1 PUSH1 0x3 SHL SHR NOT AND OR DUP4 SSTORE JUMPDEST PUSH1 0x1 SWAP1 DUP2 DUP5 ADD PUSH1 0x20 DUP5 ADD MLOAD DUP1 MLOAD SWAP1 DUP4 DUP3 GT PUSH2 0xD78 JUMPI DUP2 SWAP1 PUSH2 0x5169 DUP3 PUSH2 0xBB5 DUP7 SLOAD PUSH2 0x45EB JUMP JUMPDEST PUSH1 0x20 SWAP1 PUSH1 0x1F DUP4 GT PUSH1 0x1 EQ PUSH2 0x5410 JUMPI PUSH0 SWAP3 PUSH2 0x5405 JUMPI JUMPDEST POP POP PUSH0 NOT PUSH1 0x3 DUP4 SWAP1 SHL SHR NOT AND SWAP1 DUP5 SHL OR SWAP1 SSTORE JUMPDEST PUSH1 0x2 DUP5 ADD PUSH1 0x40 DUP5 ADD MLOAD DUP1 MLOAD SWAP1 DUP4 DUP3 GT PUSH2 0xD78 JUMPI DUP2 SWAP1 PUSH2 0x51B4 DUP3 PUSH2 0xBB5 DUP7 SLOAD PUSH2 0x45EB JUMP JUMPDEST PUSH1 0x20 SWAP1 PUSH1 0x1F DUP4 GT PUSH1 0x1 EQ PUSH2 0x53A6 JUMPI PUSH0 SWAP3 PUSH2 0x539B JUMPI JUMPDEST POP POP PUSH0 NOT PUSH1 0x3 DUP4 SWAP1 SHL SHR NOT AND SWAP1 DUP5 SHL OR SWAP1 SSTORE JUMPDEST PUSH1 0x3 DUP5 ADD PUSH1 0x60 DUP5 ADD MLOAD DUP1 MLOAD SWAP1 DUP4 DUP3 GT PUSH2 0xD78 JUMPI DUP2 SWAP1 PUSH2 0x51FF DUP3 PUSH2 0xBB5 DUP7 SLOAD PUSH2 0x45EB JUMP JUMPDEST PUSH1 0x20 SWAP1 PUSH1 0x1F DUP4 GT PUSH1 0x1 EQ PUSH2 0x533C JUMPI PUSH0 SWAP3 PUSH2 0x5331 JUMPI JUMPDEST POP POP PUSH0 NOT PUSH1 0x3 DUP4 SWAP1 SHL SHR NOT AND SWAP1 DUP5 SHL OR SWAP1 SSTORE JUMPDEST PUSH1 0x4 DUP5 ADD SWAP2 PUSH1 0x80 DUP5 ADD MLOAD DUP1 MLOAD SWAP3 DUP4 GT PUSH2 0xD78 JUMPI PUSH2 0x5248 DUP4 PUSH2 0xBB5 DUP7 SLOAD PUSH2 0x45EB JUMP JUMPDEST PUSH1 0x20 SWAP1 PUSH1 0x1F DUP5 GT PUSH1 0x1 EQ PUSH2 0x52C8 JUMPI SWAP3 DUP1 PUSH1 0xE0 SWAP6 SWAP4 DUP2 SWAP4 PUSH1 0x6 SWAP9 SWAP7 PUSH0 SWAP5 PUSH2 0x52BD JUMPI JUMPDEST POP POP SHL SWAP2 PUSH0 NOT SWAP1 PUSH1 0x3 SHL SHR NOT AND OR SWAP1 SSTORE JUMPDEST PUSH1 0xA0 DUP2 DUP2 ADD MLOAD PUSH1 0x5 DUP7 ADD DUP1 SLOAD PUSH1 0xC0 DUP6 ADD MLOAD PUSH1 0x1 PUSH1 0x1 PUSH1 0xA8 SHL SUB NOT SWAP1 SWAP2 AND PUSH1 0x1 PUSH1 0x1 PUSH1 0xA0 SHL SUB SWAP4 SWAP1 SWAP4 AND SWAP3 SWAP1 SWAP3 OR SWAP2 ISZERO ISZERO SWAP1 SWAP3 SHL PUSH1 0xFF PUSH1 0xA0 SHL AND OR SWAP1 SSTORE ADD MLOAD SWAP2 ADD SSTORE JUMP JUMPDEST ADD MLOAD SWAP3 POP PUSH0 DUP1 PUSH2 0x5269 JUMP JUMPDEST SWAP1 PUSH1 0x1F SWAP4 SWAP3 SWAP4 NOT DUP4 AND SWAP2 DUP6 PUSH0 MSTORE DUP2 PUSH0 KECCAK256 SWAP3 PUSH0 JUMPDEST DUP2 DUP2 LT PUSH2 0x531B JUMPI POP SWAP2 PUSH1 0x6 SWAP8 SWAP6 SWAP4 SWAP2 DUP6 PUSH1 0xE0 SWAP9 SWAP7 SWAP5 LT PUSH2 0x5303 JUMPI JUMPDEST POP POP POP DUP2 SHL ADD SWAP1 SSTORE PUSH2 0x527A JUMP JUMPDEST ADD MLOAD PUSH0 NOT PUSH1 0xF8 DUP5 PUSH1 0x3 SHL AND SHR NOT AND SWAP1 SSTORE PUSH0 DUP1 DUP1 PUSH2 0x52F6 JUMP JUMPDEST DUP3 DUP5 ADD MLOAD DUP6 SSTORE SWAP4 DUP7 ADD SWAP4 PUSH1 0x20 SWAP4 DUP5 ADD SWAP4 ADD PUSH2 0x52DB JUMP JUMPDEST ADD MLOAD SWAP1 POP PUSH0 DUP1 PUSH2 0x5214 JUMP JUMPDEST SWAP1 DUP7 SWAP4 POP PUSH1 0x1F NOT DUP4 AND SWAP2 DUP6 PUSH0 MSTORE DUP2 PUSH0 KECCAK256 SWAP3 PUSH0 JUMPDEST DUP2 DUP2 LT PUSH2 0x5383 JUMPI POP DUP5 GT PUSH2 0x536B JUMPI JUMPDEST POP POP POP DUP2 SHL ADD SWAP1 SSTORE PUSH2 0x5227 JUMP JUMPDEST ADD MLOAD PUSH0 NOT PUSH1 0xF8 DUP5 PUSH1 0x3 SHL AND SHR NOT AND SWAP1 SSTORE PUSH0 DUP1 DUP1 PUSH2 0x535E JUMP JUMPDEST DUP3 DUP5 ADD MLOAD DUP6 SSTORE DUP10 SWAP7 SWAP1 SWAP5 ADD SWAP4 PUSH1 0x20 SWAP4 DUP5 ADD SWAP4 ADD PUSH2 0x534F JUMP JUMPDEST ADD MLOAD SWAP1 POP PUSH0 DUP1 PUSH2 0x51C9 JUMP JUMPDEST SWAP1 DUP7 SWAP4 POP PUSH1 0x1F NOT DUP4 AND SWAP2 DUP6 PUSH0 MSTORE DUP2 PUSH0 KECCAK256 SWAP3 PUSH0 JUMPDEST DUP2 DUP2 LT PUSH2 0x53ED JUMPI POP DUP5 GT PUSH2 0x53D5 JUMPI JUMPDEST POP POP POP DUP2 SHL ADD SWAP1 SSTORE PUSH2 0x51DC JUMP JUMPDEST ADD MLOAD PUSH0 NOT PUSH1 0xF8 DUP5 PUSH1 0x3 SHL AND SHR NOT AND SWAP1 SSTORE PUSH0 DUP1 DUP1 PUSH2 0x53C8 JUMP JUMPDEST DUP3 DUP5 ADD MLOAD DUP6 SSTORE DUP10 SWAP7 SWAP1 SWAP5 ADD SWAP4 PUSH1 0x20 SWAP4 DUP5 ADD SWAP4 ADD PUSH2 0x53B9 JUMP JUMPDEST ADD MLOAD SWAP1 POP PUSH0 DUP1 PUSH2 0x517E JUMP JUMPDEST SWAP1 DUP7 SWAP4 POP PUSH1 0x1F NOT DUP4 AND SWAP2 DUP6 PUSH0 MSTORE DUP2 PUSH0 KECCAK256 SWAP3 PUSH0 JUMPDEST DUP2 DUP2 LT PUSH2 0x5457 JUMPI POP DUP5 GT PUSH2 0x543F JUMPI JUMPDEST POP POP POP DUP2 SHL ADD SWAP1 SSTORE PUSH2 0x5191 JUMP JUMPDEST ADD MLOAD PUSH0 NOT PUSH1 0xF8 DUP5 PUSH1 0x3 SHL AND SHR NOT AND SWAP1 SSTORE PUSH0 DUP1 DUP1 PUSH2 0x5432 JUMP JUMPDEST DUP3 DUP5 ADD MLOAD DUP6 SSTORE DUP10 SWAP7 SWAP1 SWAP5 ADD SWAP4 PUSH1 0x20 SWAP4 DUP5 ADD SWAP4 ADD PUSH2 0x5423 JUMP JUMPDEST ADD MLOAD SWAP1 POP PUSH0 DUP1 PUSH2 0x5130 JUMP JUMPDEST PUSH0 DUP8 DUP2 MSTORE DUP3 DUP2 KECCAK256 SWAP4 POP PUSH1 0x1F NOT DUP6 AND SWAP1 JUMPDEST DUP2 DUP2 LT PUSH2 0x54C5 JUMPI POP SWAP1 DUP5 PUSH1 0x1 SWAP6 SWAP5 SWAP4 SWAP3 LT PUSH2 0x54AD JUMPI JUMPDEST POP POP POP DUP2 SHL ADD DUP4 SSTORE PUSH2 0x5144 JUMP JUMPDEST ADD MLOAD PUSH0 NOT PUSH1 0xF8 DUP5 PUSH1 0x3 SHL AND SHR NOT AND SWAP1 SSTORE PUSH0 DUP1 DUP1 PUSH2 0x54A0 JUMP JUMPDEST SWAP3 SWAP4 PUSH1 0x20 PUSH1 0x1 DUP2 SWAP3 DUP8 DUP7 ADD MLOAD DUP2 SSTORE ADD SWAP6 ADD SWAP4 ADD PUSH2 0x548A JUMP JUMPDEST SWAP1 DUP2 SLOAD SWAP2 PUSH1 0x1 PUSH1 0x40 SHL DUP4 LT ISZERO PUSH2 0xD78 JUMPI DUP3 PUSH2 0x5500 SWAP2 PUSH1 0x1 PUSH2 0x465F SWAP6 ADD DUP2 SSTORE PUSH2 0x4564 JUMP JUMPDEST SWAP1 SWAP2 SWAP1 DUP3 SLOAD SWAP1 PUSH1 0x3 SHL SWAP2 PUSH1 0x1 DUP1 PUSH1 0xA0 SHL SUB DUP1 SWAP2 AND DUP4 SHL SWAP3 SHL NOT AND OR SWAP1 SSTORE JUMP JUMPDEST SWAP3 PUSH2 0x554B PUSH2 0x48F7 SWAP6 SWAP4 PUSH2 0x553D PUSH2 0x5559 SWAP5 PUSH1 0x80 DUP9 MSTORE PUSH1 0x80 DUP9 ADD SWAP1 PUSH2 0x45C6 JUMP JUMPDEST SWAP1 DUP7 DUP3 SUB PUSH1 0x20 DUP9 ADD MSTORE PUSH2 0x45C6 JUMP JUMPDEST SWAP1 DUP5 DUP3 SUB PUSH1 0x40 DUP7 ADD MSTORE PUSH2 0x45C6 JUMP JUMPDEST SWAP2 PUSH1 0x60 DUP2 DUP5 SUB SWAP2 ADD MSTORE PUSH2 0x45C6 JUMP JUMPDEST ISZERO PUSH2 0x556E JUMPI JUMP JUMPDEST PUSH1 0x40 MLOAD PUSH3 0x461BCD PUSH1 0xE5 SHL DUP2 MSTORE PUSH1 0x20 PUSH1 0x4 DUP3 ADD MSTORE PUSH1 0x11 PUSH1 0x24 DUP3 ADD MSTORE PUSH17 0x13D1919250D15497D393D517D193D55391 PUSH1 0x7A SHL PUSH1 0x44 DUP3 ADD MSTORE PUSH1 0x64 SWAP1 REVERT JUMPDEST PUSH1 0x40 MLOAD SWAP1 PUSH2 0x55B4 DUP3 PUSH2 0x4473 JUMP JUMPDEST PUSH0 PUSH1 0xE0 DUP4 PUSH1 0x60 DUP1 DUP3 MSTORE DUP1 PUSH1 0x20 DUP4 ADD MSTORE DUP1 PUSH1 0x40 DUP4 ADD MSTORE DUP1 DUP1 DUP4 ADD MSTORE PUSH1 0x80 DUP3 ADD MSTORE DUP3 PUSH1 0xA0 DUP3 ADD MSTORE DUP3 PUSH1 0xC0 DUP3 ADD MSTORE ADD MSTORE JUMP JUMPDEST SWAP1 PUSH1 0x40 MLOAD PUSH2 0x55F0 DUP2 PUSH2 0x4473 JUMP JUMPDEST PUSH1 0xE0 PUSH1 0x6 DUP3 SWAP5 PUSH2 0x55FF DUP2 PUSH2 0x4623 JUMP JUMPDEST DUP5 MSTORE PUSH2 0x560D PUSH1 0x1 DUP3 ADD PUSH2 0x4623 JUMP JUMPDEST PUSH1 0x20 DUP6 ADD MSTORE PUSH2 0x561E PUSH1 0x2 DUP3 ADD PUSH2 0x4623 JUMP JUMPDEST PUSH1 0x40 DUP6 ADD MSTORE PUSH2 0x562F PUSH1 0x3 DUP3 ADD PUSH2 0x4623 JUMP JUMPDEST PUSH1 0x60 DUP6 ADD MSTORE PUSH2 0x5640 PUSH1 0x4 DUP3 ADD PUSH2 0x4623 JUMP JUMPDEST PUSH1 0x80 DUP6 ADD MSTORE PUSH1 0x5 DUP2 ADD SLOAD PUSH1 0x1 PUSH1 0x1 PUSH1 0xA0 SHL SUB DUP2 AND PUSH1 0xA0 DUP1 DUP8 ADD SWAP2 SWAP1 SWAP2 MSTORE SHR PUSH1 0xFF AND ISZERO ISZERO PUSH1 0xC0 DUP6 ADD MSTORE ADD SLOAD SWAP2 ADD MSTORE JUMP JUMPDEST PUSH0 NOT DUP2 EQ PUSH2 0x567D JUMPI PUSH1 0x1 ADD SWAP1 JUMP JUMPDEST PUSH4 0x4E487B71 PUSH1 0xE0 SHL PUSH0 MSTORE PUSH1 0x11 PUSH1 0x4 MSTORE PUSH1 0x24 PUSH0 REVERT JUMPDEST PUSH0 SWAP2 JUMPDEST DUP2 SLOAD SWAP3 DUP4 DUP2 LT ISZERO PUSH2 0x5741 JUMPI PUSH2 0x56A9 DUP2 DUP5 PUSH2 0x4564 JUMP JUMPDEST SWAP1 SLOAD PUSH1 0x3 SWAP6 PUSH1 0x1 PUSH1 0x1 PUSH1 0xA0 SHL SUB SWAP3 SWAP1 SWAP2 SWAP1 DUP8 SHL SHR DUP3 AND DUP5 DUP4 AND EQ PUSH2 0x56DC JUMPI POP POP PUSH2 0x56D5 SWAP2 SWAP3 SWAP4 POP PUSH2 0x566F JUMP JUMPDEST SWAP2 SWAP1 PUSH2 0x5694 JUMP JUMPDEST SWAP1 SWAP3 POP PUSH0 NOT SWAP2 DUP3 DUP3 ADD SWAP2 DUP3 GT PUSH2 0x567D JUMPI PUSH2 0x5500 DUP5 PUSH2 0x56FD PUSH2 0x570B SWAP5 DUP9 PUSH2 0x4564 JUMP JUMPDEST SWAP1 SLOAD SWAP1 DUP10 SHL SHR AND SWAP2 DUP7 PUSH2 0x4564 JUMP JUMPDEST DUP3 SLOAD DUP1 ISZERO PUSH2 0x572D JUMPI ADD SWAP3 PUSH2 0x571F DUP5 DUP5 PUSH2 0x4564 JUMP JUMPDEST DUP2 SWAP4 SWAP2 SLOAD SWAP3 SHL SHL NOT AND SWAP1 SSTORE SSTORE JUMP JUMPDEST PUSH4 0x4E487B71 PUSH1 0xE0 SHL PUSH0 MSTORE PUSH1 0x31 PUSH1 0x4 MSTORE PUSH1 0x24 PUSH0 REVERT JUMPDEST POP POP POP POP JUMP JUMPDEST DUP1 SLOAD PUSH1 0x1 PUSH1 0x40 SHL DUP2 LT ISZERO PUSH2 0xD78 JUMPI PUSH2 0x5764 SWAP2 PUSH1 0x1 DUP3 ADD DUP2 SSTORE PUSH2 0x4564 JUMP JUMPDEST DUP2 SWAP3 SWAP2 SLOAD SWAP1 PUSH1 0x3 SHL SWAP2 DUP3 SHL SWAP2 PUSH0 NOT SWAP1 SHL NOT AND OR SWAP1 SSTORE JUMP JUMPDEST ISZERO PUSH2 0x5782 JUMPI JUMP JUMPDEST PUSH1 0x40 MLOAD PUSH3 0x461BCD PUSH1 0xE5 SHL DUP2 MSTORE PUSH1 0x20 PUSH1 0x4 DUP3 ADD MSTORE PUSH1 0x12 PUSH1 0x24 DUP3 ADD MSTORE PUSH18 0x50524F4A4543545F4E4F545F414354495645 PUSH1 0x70 SHL PUSH1 0x44 DUP3 ADD MSTORE PUSH1 0x64 SWAP1 REVERT JUMPDEST ISZERO PUSH2 0x57C3 JUMPI JUMP JUMPDEST PUSH1 0x40 MLOAD PUSH3 0x461BCD PUSH1 0xE5 SHL DUP2 MSTORE PUSH1 0x20 PUSH1 0x4 DUP3 ADD MSTORE PUSH1 0xB PUSH1 0x24 DUP3 ADD MSTORE PUSH11 0x2727AA2FA7A32324A1A2A9 PUSH1 0xA9 SHL PUSH1 0x44 DUP3 ADD MSTORE PUSH1 0x64 SWAP1 REVERT JUMPDEST ISZERO PUSH2 0x57FD JUMPI JUMP JUMPDEST PUSH1 0x40 MLOAD PUSH3 0x461BCD PUSH1 0xE5 SHL DUP2 MSTORE PUSH1 0x20 PUSH1 0x4 DUP3 ADD MSTORE PUSH1 0x11 PUSH1 0x24 DUP3 ADD MSTORE PUSH17 0x141493D29150D517D393D517D193D55391 PUSH1 0x7A SHL PUSH1 0x44 DUP3 ADD MSTORE PUSH1 0x64 SWAP1 REVERT JUMPDEST ISZERO PUSH2 0x583D JUMPI JUMP JUMPDEST PUSH1 0x40 MLOAD PUSH3 0x461BCD PUSH1 0xE5 SHL DUP2 MSTORE PUSH1 0x20 PUSH1 0x4 DUP3 ADD MSTORE PUSH1 0x14 PUSH1 0x24 DUP3 ADD MSTORE PUSH20 0x2727AA2FA0A9A9A4A3A722A22FA7A32324A1A2A9 PUSH1 0x61 SHL PUSH1 0x44 DUP3 ADD MSTORE PUSH1 0x64 SWAP1 REVERT JUMPDEST ISZERO PUSH2 0x5880 JUMPI JUMP JUMPDEST PUSH1 0x40 MLOAD PUSH3 0x461BCD PUSH1 0xE5 SHL DUP2 MSTORE PUSH1 0x20 PUSH1 0x4 DUP3 ADD MSTORE PUSH1 0xF PUSH1 0x24 DUP3 ADD MSTORE PUSH15 0x1393D7D4915413D49517D193D55391 PUSH1 0x8A SHL PUSH1 0x44 DUP3 ADD MSTORE PUSH1 0x64 SWAP1 REVERT JUMPDEST PUSH1 0x40 MLOAD SWAP1 PUSH2 0x58C4 DUP3 PUSH2 0x4457 JUMP JUMPDEST DUP2 PUSH2 0x200 PUSH0 SWAP2 DUP3 DUP2 MSTORE DUP3 PUSH1 0x20 DUP3 ADD MSTORE DUP3 PUSH1 0x40 DUP3 ADD MSTORE DUP3 PUSH1 0x60 DUP3 ADD MSTORE DUP3 PUSH1 0x80 DUP3 ADD MSTORE DUP3 PUSH1 0xA0 DUP3 ADD MSTORE DUP3 PUSH1 0xC0 DUP3 ADD MSTORE DUP3 PUSH1 0xE0 DUP3 ADD MSTORE DUP3 PUSH2 0x100 DUP3 ADD MSTORE DUP3 PUSH2 0x120 DUP3 ADD MSTORE DUP3 PUSH2 0x140 DUP3 ADD MSTORE DUP3 PUSH2 0x160 DUP3 ADD MSTORE PUSH1 0x60 PUSH2 0x180 DUP3 ADD MSTORE DUP3 PUSH2 0x1A0 DUP3 ADD MSTORE DUP3 PUSH2 0x1C0 DUP3 ADD MSTORE DUP3 PUSH2 0x1E0 DUP3 ADD MSTORE ADD MSTORE JUMP JUMPDEST ISZERO PUSH2 0x593B JUMPI JUMP JUMPDEST PUSH1 0x40 MLOAD PUSH3 0x461BCD PUSH1 0xE5 SHL DUP2 MSTORE PUSH1 0x20 PUSH1 0x4 DUP3 ADD MSTORE PUSH1 0xF PUSH1 0x24 DUP3 ADD MSTORE PUSH15 0x10D3D395149050D517D4105554D151 PUSH1 0x8A SHL PUSH1 0x44 DUP3 ADD MSTORE PUSH1 0x64 SWAP1 REVERT JUMPDEST SWAP2 SWAP1 PUSH1 0x1 PUSH1 0x1 PUSH1 0xA0 SHL SUB DUP4 AND DUP1 ISZERO PUSH2 0x4FCF JUMPI PUSH2 0x5993 PUSH1 0xFF PUSH1 0x7 SLOAD AND ISZERO PUSH2 0x5934 JUMP JUMPDEST PUSH0 SWAP1 DUP1 DUP3 MSTORE DUP2 PUSH1 0x20 MSTORE PUSH1 0x40 DUP3 KECCAK256 SLOAD SWAP5 DUP4 DUP7 LT PUSH2 0x59FC JUMPI POP DUP3 PUSH2 0x59F7 SWAP5 SWAP6 DUP3 DUP5 MSTORE DUP4 PUSH1 0x20 MSTORE SUB PUSH1 0x40 DUP4 KECCAK256 SSTORE DUP3 PUSH1 0x2 SLOAD SUB PUSH1 0x2 SSTORE PUSH32 0xDDF252AD1BE2C89B69C2B068FC378DAA952BA7F163C4A11628F55A4DF523B3EF PUSH1 0x20 PUSH1 0x40 MLOAD DUP6 DUP2 MSTORE LOG3 PUSH1 0x18 SLOAD PUSH2 0x5A2D JUMP JUMPDEST PUSH1 0x18 SSTORE JUMP JUMPDEST PUSH1 0x40 MLOAD PUSH4 0x391434E3 PUSH1 0xE2 SHL DUP2 MSTORE PUSH1 0x1 PUSH1 0x1 PUSH1 0xA0 SHL SUB SWAP2 SWAP1 SWAP2 AND PUSH1 0x4 DUP3 ADD MSTORE PUSH1 0x24 DUP2 ADD DUP7 SWAP1 MSTORE PUSH1 0x44 DUP2 ADD DUP5 SWAP1 MSTORE PUSH1 0x64 SWAP1 REVERT JUMPDEST SWAP2 SWAP1 DUP3 ADD DUP1 SWAP3 GT PUSH2 0x567D JUMPI JUMP INVALID 0xBB 0xEC 0xB2 JUMP DUP7 ADD 0xCB 0x27 0xE6 0xCE 0xD5 0x25 0x23 PUSH29 0x463DA94C4FB7A9B98AC79FD30FD56D8E1B532FA8F587092D7D44A38A32 0x2A 0xF7 POP PUSH32 0xCB499F2566C7778F70891C809523042B880AC8D813695D1BDB3648E7D9944AC9 0x4B 0xB3 PUSH1 0xCF 0x2E SWAP3 MOD 0xC 0xCB NUMBER 0xDD NOT 0xAD 0xF 0xF CALLVALUE 0xCA LOG2 PUSH5 0x6970667358 0x22 SLT KECCAK256 0xD9 INVALID 0x2E 0x5C GASPRICE 0xC6 STATICCALL PUSH20 0x9DBB1D0CD127F7AD05F8B446CBC50D5C796492A4 0xED SLOAD 0xD LT PUSH5 0x736F6C6343 STOP ADDMOD EQ STOP CALLER "},"methodIdentifiers":{"ADMIN_ROLE()":"75b238fc","DEFAULT_ADMIN_ROLE()":"a217fddf","OFFICER_ROLE()":"7264953b","addOfficer(address,string,string,string,string,string)":"3f0b6bcb","addProject(string,string,string,uint256,uint256,string,string,string,uint256,uint256,string)":"a3197519","adminBurn(uint256)":"badb97ff","adminBurnFrom(address,uint256)":"3957e7a5","adminTransferToOfficer(address,uint256)":"17b03e6c","allowance(address,address)":"dd62ed3e","approvals(bytes32)":"bf7c2131","approve(address,uint256)":"095ea7b3","approveAndMint(string,address,uint256,address)":"cdd09d36","approveVerificationReport(uint256)":"51fef12a","assignOfficerToProject(uint256,address)":"89e9fe80","balanceOf(address)":"70a08231","burnedCumulative()":"125b0ed3","deactivateOfficer(address)":"4719c01d","decimals()":"313ce567","getAllOfficers()":"b3638870","getAllUsers()":"e2842d79","getOfficer(address)":"1e572c0f","getOfficerAssignedProjects(address)":"be3f1656","getOfficersByArea(string)":"626eba57","getOfficersByJurisdiction(string)":"5e58384d","getProject(uint256)":"f0f3f2c8","getProjectCount()":"3bcff3b0","getRoleAdmin(bytes32)":"248a9ca3","getUser(address)":"6f77926b","getUserProjects(address)":"e32e723c","getUsersByDistrict(string)":"010496fa","getVerificationReport(uint256)":"d29c4671","getVerificationReportById(uint256)":"ab59a7ac","getVerificationReportCount()":"32eaf9d2","grantRole(bytes32,address)":"2f2ff15d","hasRole(bytes32,address)":"91d14854","isUserRegistered(address)":"163f7522","mintedCumulative()":"95645192","name()":"06fdde03","officerAddresses(uint256)":"04e82d29","officerAssignedProjects(address,uint256)":"0f2a973c","officerDistributed(address)":"93fcdbda","officerReceived(address)":"0a8b669f","officers(address)":"084866dd","officersByArea(string,uint256)":"26f06113","officersByJurisdiction(string,uint256)":"d59b7f62","pause()":"8456cb59","paused()":"5c975abb","projectCount()":"36fbad26","projectToReportId(uint256)":"2fc6480a","projects(uint256)":"107046bd","registerUser(string,string,string,string,string)":"ac9f0a40","rejectVerificationReport(uint256)":"88d7c865","removeProject(uint256)":"5873f998","renounceRole(bytes32,address)":"36568abe","revokeRole(bytes32,address)":"d547741f","setOfficer(address,bool)":"0502b8f6","startVerification(uint256)":"2f19673d","submitVerificationReport(uint256,uint256,uint256,uint256,uint256,uint256,uint256,bool,bool,bool,bool,string)":"3ca8b3da","supportsInterface(bytes4)":"01ffc9a7","symbol()":"95d89b41","totalSupply()":"18160ddd","transfer(address,uint256)":"a9059cbb","transferFrom(address,address,uint256)":"23b872dd","unpause()":"3f4ba83a","updateOfficer(address,string,string,string,string,string)":"d0587897","userAddresses(uint256)":"502c9bd5","userProjects(address,uint256)":"2fa9c007","userReceived(address)":"130b8120","users(address)":"a87430ba","usersByDistrict(string,uint256)":"0e8fb6d4","verificationReportCount()":"2b4bc862","verificationReports(uint256)":"8c80daec"}}}}}