{
  "_format": "hh3-artifact-1",
  "contractName": "BlueCarbonAdminTokenRestricted",
  "sourceName": "contract/credit.sol",
  "abi": [
    {
      "inputs": [
        {
          "internalType": "string",
          "name": "name_",
          "type": "string"
        },
        {
          "internalType": "string",
          "name": "symbol_",
          "type": "string"
        },
        {
          "internalType": "uint8",
          "name": "decimals_",
          "type": "uint8"
        },
        {
          "internalType": "address",
          "name": "admin_",
          "type": "address"
        }
      ],
      "stateMutability": "nonpayable",
      "type": "constructor"
    },
    {
      "inputs": [],
      "name": "AccessControlBadConfirmation",
      "type": "error"
    },
    {
      "inputs": [
        {
          "internalType": "address",
          "name": "account",
          "type": "address"
        },
        {
          "internalType": "bytes32",
          "name": "neededRole",
          "type": "bytes32"
        }
      ],
      "name": "AccessControlUnauthorizedAccount",
      "type": "error"
    },
    {
      "inputs": [
        {
          "internalType": "address",
          "name": "spender",
          "type": "address"
        },
        {
          "internalType": "uint256",
          "name": "allowance",
          "type": "uint256"
        },
        {
          "internalType": "uint256",
          "name": "needed",
          "type": "uint256"
        }
      ],
      "name": "ERC20InsufficientAllowance",
      "type": "error"
    },
    {
      "inputs": [
        {
          "internalType": "address",
          "name": "sender",
          "type": "address"
        },
        {
          "internalType": "uint256",
          "name": "balance",
          "type": "uint256"
        },
        {
          "internalType": "uint256",
          "name": "needed",
          "type": "uint256"
        }
      ],
      "name": "ERC20InsufficientBalance",
      "type": "error"
    },
    {
      "inputs": [
        {
          "internalType": "address",
          "name": "approver",
          "type": "address"
        }
      ],
      "name": "ERC20InvalidApprover",
      "type": "error"
    },
    {
      "inputs": [
        {
          "internalType": "address",
          "name": "receiver",
          "type": "address"
        }
      ],
      "name": "ERC20InvalidReceiver",
      "type": "error"
    },
    {
      "inputs": [
        {
          "internalType": "address",
          "name": "sender",
          "type": "address"
        }
      ],
      "name": "ERC20InvalidSender",
      "type": "error"
    },
    {
      "inputs": [
        {
          "internalType": "address",
          "name": "spender",
          "type": "address"
        }
      ],
      "name": "ERC20InvalidSpender",
      "type": "error"
    },
    {
      "inputs": [],
      "name": "ReentrancyGuardReentrantCall",
      "type": "error"
    },
    {
      "anonymous": false,
      "inputs": [
        {
          "indexed": true,
          "internalType": "address",
          "name": "owner",
          "type": "address"
        },
        {
          "indexed": true,
          "internalType": "address",
          "name": "spender",
          "type": "address"
        },
        {
          "indexed": false,
          "internalType": "uint256",
          "name": "value",
          "type": "uint256"
        }
      ],
      "name": "Approval",
      "type": "event"
    },
    {
      "anonymous": false,
      "inputs": [
        {
          "indexed": true,
          "internalType": "uint256",
          "name": "projectId",
          "type": "uint256"
        },
        {
          "indexed": true,
          "internalType": "address",
          "name": "officer",
          "type": "address"
        }
      ],
      "name": "OfficerAssignedToProject",
      "type": "event"
    },
    {
      "anonymous": false,
      "inputs": [
        {
          "indexed": true,
          "internalType": "address",
          "name": "officer",
          "type": "address"
        },
        {
          "indexed": true,
          "internalType": "address",
          "name": "toUser",
          "type": "address"
        },
        {
          "indexed": false,
          "internalType": "uint256",
          "name": "amount",
          "type": "uint256"
        }
      ],
      "name": "OfficerDistributed",
      "type": "event"
    },
    {
      "anonymous": false,
      "inputs": [
        {
          "indexed": true,
          "internalType": "address",
          "name": "officer",
          "type": "address"
        },
        {
          "indexed": false,
          "internalType": "string",
          "name": "name",
          "type": "string"
        },
        {
          "indexed": false,
          "internalType": "string",
          "name": "designation",
          "type": "string"
        },
        {
          "indexed": false,
          "internalType": "string",
          "name": "area",
          "type": "string"
        },
        {
          "indexed": false,
          "internalType": "string",
          "name": "jurisdiction",
          "type": "string"
        }
      ],
      "name": "OfficerRegistered",
      "type": "event"
    },
    {
      "anonymous": false,
      "inputs": [
        {
          "indexed": true,
          "internalType": "address",
          "name": "officer",
          "type": "address"
        },
        {
          "indexed": false,
          "internalType": "bool",
          "name": "enabled",
          "type": "bool"
        }
      ],
      "name": "OfficerSet",
      "type": "event"
    },
    {
      "anonymous": false,
      "inputs": [
        {
          "indexed": true,
          "internalType": "address",
          "name": "officer",
          "type": "address"
        },
        {
          "indexed": false,
          "internalType": "string",
          "name": "name",
          "type": "string"
        },
        {
          "indexed": false,
          "internalType": "string",
          "name": "designation",
          "type": "string"
        },
        {
          "indexed": false,
          "internalType": "string",
          "name": "area",
          "type": "string"
        },
        {
          "indexed": false,
          "internalType": "string",
          "name": "jurisdiction",
          "type": "string"
        }
      ],
      "name": "OfficerUpdated",
      "type": "event"
    },
    {
      "anonymous": false,
      "inputs": [
        {
          "indexed": true,
          "internalType": "uint256",
          "name": "projectId",
          "type": "uint256"
        },
        {
          "indexed": true,
          "internalType": "address",
          "name": "owner",
          "type": "address"
        },
        {
          "indexed": false,
          "internalType": "string",
          "name": "name",
          "type": "string"
        },
        {
          "indexed": false,
          "internalType": "string",
          "name": "projectAddress",
          "type": "string"
        }
      ],
      "name": "ProjectAdded",
      "type": "event"
    },
    {
      "anonymous": false,
      "inputs": [
        {
          "indexed": true,
          "internalType": "uint256",
          "name": "projectId",
          "type": "uint256"
        },
        {
          "indexed": true,
          "internalType": "address",
          "name": "remover",
          "type": "address"
        }
      ],
      "name": "ProjectRemoved",
      "type": "event"
    },
    {
      "anonymous": false,
      "inputs": [
        {
          "indexed": true,
          "internalType": "bytes32",
          "name": "reportKey",
          "type": "bytes32"
        },
        {
          "indexed": true,
          "internalType": "address",
          "name": "recipient",
          "type": "address"
        },
        {
          "indexed": false,
          "internalType": "uint256",
          "name": "amount",
          "type": "uint256"
        },
        {
          "indexed": false,
          "internalType": "string",
          "name": "cid",
          "type": "string"
        }
      ],
      "name": "ReportApprovedAndMinted",
      "type": "event"
    },
    {
      "anonymous": false,
      "inputs": [
        {
          "indexed": true,
          "internalType": "bytes32",
          "name": "role",
          "type": "bytes32"
        },
        {
          "indexed": true,
          "internalType": "bytes32",
          "name": "previousAdminRole",
          "type": "bytes32"
        },
        {
          "indexed": true,
          "internalType": "bytes32",
          "name": "newAdminRole",
          "type": "bytes32"
        }
      ],
      "name": "RoleAdminChanged",
      "type": "event"
    },
    {
      "anonymous": false,
      "inputs": [
        {
          "indexed": true,
          "internalType": "bytes32",
          "name": "role",
          "type": "bytes32"
        },
        {
          "indexed": true,
          "internalType": "address",
          "name": "account",
          "type": "address"
        },
        {
          "indexed": true,
          "internalType": "address",
          "name": "sender",
          "type": "address"
        }
      ],
      "name": "RoleGranted",
      "type": "event"
    },
    {
      "anonymous": false,
      "inputs": [
        {
          "indexed": true,
          "internalType": "bytes32",
          "name": "role",
          "type": "bytes32"
        },
        {
          "indexed": true,
          "internalType": "address",
          "name": "account",
          "type": "address"
        },
        {
          "indexed": true,
          "internalType": "address",
          "name": "sender",
          "type": "address"
        }
      ],
      "name": "RoleRevoked",
      "type": "event"
    },
    {
      "anonymous": false,
      "inputs": [
        {
          "indexed": true,
          "internalType": "address",
          "name": "from",
          "type": "address"
        },
        {
          "indexed": true,
          "internalType": "address",
          "name": "to",
          "type": "address"
        },
        {
          "indexed": false,
          "internalType": "uint256",
          "name": "value",
          "type": "uint256"
        }
      ],
      "name": "Transfer",
      "type": "event"
    },
    {
      "anonymous": false,
      "inputs": [
        {
          "indexed": true,
          "internalType": "address",
          "name": "walletAddress",
          "type": "address"
        },
        {
          "indexed": false,
          "internalType": "string",
          "name": "firstName",
          "type": "string"
        },
        {
          "indexed": false,
          "internalType": "string",
          "name": "lastName",
          "type": "string"
        },
        {
          "indexed": false,
          "internalType": "string",
          "name": "district",
          "type": "string"
        }
      ],
      "name": "UserRegistered",
      "type": "event"
    },
    {
      "anonymous": false,
      "inputs": [
        {
          "indexed": true,
          "internalType": "uint256",
          "name": "projectId",
          "type": "uint256"
        },
        {
          "indexed": true,
          "internalType": "uint256",
          "name": "reportId",
          "type": "uint256"
        },
        {
          "indexed": true,
          "internalType": "address",
          "name": "approvedBy",
          "type": "address"
        }
      ],
      "name": "VerificationReportApproved",
      "type": "event"
    },
    {
      "anonymous": false,
      "inputs": [
        {
          "indexed": true,
          "internalType": "uint256",
          "name": "projectId",
          "type": "uint256"
        },
        {
          "indexed": true,
          "internalType": "uint256",
          "name": "reportId",
          "type": "uint256"
        },
        {
          "indexed": true,
          "internalType": "address",
          "name": "officer",
          "type": "address"
        },
        {
          "indexed": false,
          "internalType": "uint256",
          "name": "creditsRecommended",
          "type": "uint256"
        }
      ],
      "name": "VerificationReportSubmitted",
      "type": "event"
    },
    {
      "anonymous": false,
      "inputs": [
        {
          "indexed": true,
          "internalType": "uint256",
          "name": "projectId",
          "type": "uint256"
        },
        {
          "indexed": false,
          "internalType": "enum BlueCarbonAdminTokenRestricted.VerificationStatus",
          "name": "status",
          "type": "uint8"
        },
        {
          "indexed": true,
          "internalType": "address",
          "name": "officer",
          "type": "address"
        }
      ],
      "name": "VerificationStatusUpdated",
      "type": "event"
    },
    {
      "inputs": [],
      "name": "ADMIN_ROLE",
      "outputs": [
        {
          "internalType": "bytes32",
          "name": "",
          "type": "bytes32"
        }
      ],
      "stateMutability": "view",
      "type": "function"
    },
    {
      "inputs": [],
      "name": "DEFAULT_ADMIN_ROLE",
      "outputs": [
        {
          "internalType": "bytes32",
          "name": "",
          "type": "bytes32"
        }
      ],
      "stateMutability": "view",
      "type": "function"
    },
    {
      "inputs": [],
      "name": "OFFICER_ROLE",
      "outputs": [
        {
          "internalType": "bytes32",
          "name": "",
          "type": "bytes32"
        }
      ],
      "stateMutability": "view",
      "type": "function"
    },
    {
      "inputs": [
        {
          "internalType": "address",
          "name": "walletAddress",
          "type": "address"
        },
        {
          "internalType": "string",
          "name": "name",
          "type": "string"
        },
        {
          "internalType": "string",
          "name": "designation",
          "type": "string"
        },
        {
          "internalType": "string",
          "name": "area",
          "type": "string"
        },
        {
          "internalType": "string",
          "name": "contracts",
          "type": "string"
        },
        {
          "internalType": "string",
          "name": "jurisdiction",
          "type": "string"
        }
      ],
      "name": "addOfficer",
      "outputs": [],
      "stateMutability": "nonpayable",
      "type": "function"
    },
    {
      "inputs": [
        {
          "internalType": "string",
          "name": "name",
          "type": "string"
        },
        {
          "internalType": "string",
          "name": "description",
          "type": "string"
        },
        {
          "internalType": "string",
          "name": "projectType",
          "type": "string"
        },
        {
          "internalType": "uint256",
          "name": "startDate",
          "type": "uint256"
        },
        {
          "internalType": "uint256",
          "name": "endDate",
          "type": "uint256"
        },
        {
          "internalType": "string",
          "name": "projectAddress",
          "type": "string"
        },
        {
          "internalType": "string",
          "name": "city",
          "type": "string"
        },
        {
          "internalType": "string",
          "name": "state",
          "type": "string"
        },
        {
          "internalType": "uint256",
          "name": "landArea",
          "type": "uint256"
        },
        {
          "internalType": "uint256",
          "name": "estimatedCredits",
          "type": "uint256"
        },
        {
          "internalType": "string",
          "name": "ipfsUrl",
          "type": "string"
        }
      ],
      "name": "addProject",
      "outputs": [],
      "stateMutability": "nonpayable",
      "type": "function"
    },
    {
      "inputs": [
        {
          "internalType": "uint256",
          "name": "amount",
          "type": "uint256"
        }
      ],
      "name": "adminBurn",
      "outputs": [],
      "stateMutability": "nonpayable",
      "type": "function"
    },
    {
      "inputs": [
        {
          "internalType": "address",
          "name": "from",
          "type": "address"
        },
        {
          "internalType": "uint256",
          "name": "amount",
          "type": "uint256"
        }
      ],
      "name": "adminBurnFrom",
      "outputs": [],
      "stateMutability": "nonpayable",
      "type": "function"
    },
    {
      "inputs": [
        {
          "internalType": "address",
          "name": "officer",
          "type": "address"
        },
        {
          "internalType": "uint256",
          "name": "amount",
          "type": "uint256"
        }
      ],
      "name": "adminTransferToOfficer",
      "outputs": [],
      "stateMutability": "nonpayable",
      "type": "function"
    },
    {
      "inputs": [
        {
          "internalType": "address",
          "name": "owner",
          "type": "address"
        },
        {
          "internalType": "address",
          "name": "spender",
          "type": "address"
        }
      ],
      "name": "allowance",
      "outputs": [
        {
          "internalType": "uint256",
          "name": "",
          "type": "uint256"
        }
      ],
      "stateMutability": "view",
      "type": "function"
    },
    {
      "inputs": [
        {
          "internalType": "bytes32",
          "name": "",
          "type": "bytes32"
        }
      ],
      "name": "approvals",
      "outputs": [
        {
          "internalType": "address",
          "name": "submitter",
          "type": "address"
        },
        {
          "internalType": "string",
          "name": "cid",
          "type": "string"
        },
        {
          "internalType": "uint256",
          "name": "approvedAmount",
          "type": "uint256"
        },
        {
          "internalType": "address",
          "name": "recipient",
          "type": "address"
        },
        {
          "internalType": "uint64",
          "name": "approvedAt",
          "type": "uint64"
        },
        {
          "internalType": "bool",
          "name": "minted",
          "type": "bool"
        }
      ],
      "stateMutability": "view",
      "type": "function"
    },
    {
      "inputs": [
        {
          "internalType": "address",
          "name": "spender",
          "type": "address"
        },
        {
          "internalType": "uint256",
          "name": "value",
          "type": "uint256"
        }
      ],
      "name": "approve",
      "outputs": [
        {
          "internalType": "bool",
          "name": "",
          "type": "bool"
        }
      ],
      "stateMutability": "nonpayable",
      "type": "function"
    },
    {
      "inputs": [
        {
          "internalType": "string",
          "name": "cid",
          "type": "string"
        },
        {
          "internalType": "address",
          "name": "recipient",
          "type": "address"
        },
        {
          "internalType": "uint256",
          "name": "amount",
          "type": "uint256"
        },
        {
          "internalType": "address",
          "name": "submitter",
          "type": "address"
        }
      ],
      "name": "approveAndMint",
      "outputs": [
        {
          "internalType": "bytes32",
          "name": "reportKey",
          "type": "bytes32"
        }
      ],
      "stateMutability": "nonpayable",
      "type": "function"
    },
    {
      "inputs": [
        {
          "internalType": "uint256",
          "name": "projectId",
          "type": "uint256"
        }
      ],
      "name": "approveVerificationReport",
      "outputs": [],
      "stateMutability": "nonpayable",
      "type": "function"
    },
    {
      "inputs": [
        {
          "internalType": "uint256",
          "name": "projectId",
          "type": "uint256"
        },
        {
          "internalType": "address",
          "name": "officer",
          "type": "address"
        }
      ],
      "name": "assignOfficerToProject",
      "outputs": [],
      "stateMutability": "nonpayable",
      "type": "function"
    },
    {
      "inputs": [
        {
          "internalType": "address",
          "name": "account",
          "type": "address"
        }
      ],
      "name": "balanceOf",
      "outputs": [
        {
          "internalType": "uint256",
          "name": "",
          "type": "uint256"
        }
      ],
      "stateMutability": "view",
      "type": "function"
    },
    {
      "inputs": [],
      "name": "burnedCumulative",
      "outputs": [
        {
          "internalType": "uint256",
          "name": "",
          "type": "uint256"
        }
      ],
      "stateMutability": "view",
      "type": "function"
    },
    {
      "inputs": [
        {
          "internalType": "address",
          "name": "walletAddress",
          "type": "address"
        }
      ],
      "name": "deactivateOfficer",
      "outputs": [],
      "stateMutability": "nonpayable",
      "type": "function"
    },
    {
      "inputs": [],
      "name": "decimals",
      "outputs": [
        {
          "internalType": "uint8",
          "name": "",
          "type": "uint8"
        }
      ],
      "stateMutability": "view",
      "type": "function"
    },
    {
      "inputs": [],
      "name": "getAllOfficers",
      "outputs": [
        {
          "internalType": "address[]",
          "name": "",
          "type": "address[]"
        }
      ],
      "stateMutability": "view",
      "type": "function"
    },
    {
      "inputs": [],
      "name": "getAllUsers",
      "outputs": [
        {
          "internalType": "address[]",
          "name": "",
          "type": "address[]"
        }
      ],
      "stateMutability": "view",
      "type": "function"
    },
    {
      "inputs": [
        {
          "internalType": "address",
          "name": "walletAddress",
          "type": "address"
        }
      ],
      "name": "getOfficer",
      "outputs": [
        {
          "components": [
            {
              "internalType": "string",
              "name": "name",
              "type": "string"
            },
            {
              "internalType": "string",
              "name": "designation",
              "type": "string"
            },
            {
              "internalType": "string",
              "name": "area",
              "type": "string"
            },
            {
              "internalType": "string",
              "name": "contracts",
              "type": "string"
            },
            {
              "internalType": "string",
              "name": "jurisdiction",
              "type": "string"
            },
            {
              "internalType": "address",
              "name": "walletAddress",
              "type": "address"
            },
            {
              "internalType": "bool",
              "name": "isActive",
              "type": "bool"
            },
            {
              "internalType": "uint256",
              "name": "assignedAt",
              "type": "uint256"
            }
          ],
          "internalType": "struct BlueCarbonAdminTokenRestricted.Officer",
          "name": "",
          "type": "tuple"
        }
      ],
      "stateMutability": "view",
      "type": "function"
    },
    {
      "inputs": [
        {
          "internalType": "address",
          "name": "officerAddress",
          "type": "address"
        }
      ],
      "name": "getOfficerAssignedProjects",
      "outputs": [
        {
          "internalType": "uint256[]",
          "name": "",
          "type": "uint256[]"
        }
      ],
      "stateMutability": "view",
      "type": "function"
    },
    {
      "inputs": [
        {
          "internalType": "string",
          "name": "area",
          "type": "string"
        }
      ],
      "name": "getOfficersByArea",
      "outputs": [
        {
          "internalType": "address[]",
          "name": "",
          "type": "address[]"
        }
      ],
      "stateMutability": "view",
      "type": "function"
    },
    {
      "inputs": [
        {
          "internalType": "string",
          "name": "jurisdiction",
          "type": "string"
        }
      ],
      "name": "getOfficersByJurisdiction",
      "outputs": [
        {
          "internalType": "address[]",
          "name": "",
          "type": "address[]"
        }
      ],
      "stateMutability": "view",
      "type": "function"
    },
    {
      "inputs": [
        {
          "internalType": "uint256",
          "name": "projectId",
          "type": "uint256"
        }
      ],
      "name": "getProject",
      "outputs": [
        {
          "components": [
            {
              "internalType": "string",
              "name": "name",
              "type": "string"
            },
            {
              "internalType": "string",
              "name": "description",
              "type": "string"
            },
            {
              "internalType": "string",
              "name": "projectType",
              "type": "string"
            },
            {
              "internalType": "uint256",
              "name": "startDate",
              "type": "uint256"
            },
            {
              "internalType": "uint256",
              "name": "endDate",
              "type": "uint256"
            },
            {
              "internalType": "string",
              "name": "projectAddress",
              "type": "string"
            },
            {
              "internalType": "string",
              "name": "city",
              "type": "string"
            },
            {
              "internalType": "string",
              "name": "state",
              "type": "string"
            },
            {
              "internalType": "uint256",
              "name": "landArea",
              "type": "uint256"
            },
            {
              "internalType": "uint256",
              "name": "estimatedCredits",
              "type": "uint256"
            },
            {
              "internalType": "string",
              "name": "ipfsUrl",
              "type": "string"
            },
            {
              "internalType": "address",
              "name": "owner",
              "type": "address"
            },
            {
              "internalType": "address",
              "name": "assignedOfficer",
              "type": "address"
            },
            {
              "internalType": "bool",
              "name": "isActive",
              "type": "bool"
            },
            {
              "internalType": "uint256",
              "name": "createdAt",
              "type": "uint256"
            },
            {
              "internalType": "enum BlueCarbonAdminTokenRestricted.VerificationStatus",
              "name": "verificationStatus",
              "type": "uint8"
            },
            {
              "internalType": "uint256",
              "name": "verificationStartedAt",
              "type": "uint256"
            },
            {
              "internalType": "uint256",
              "name": "verificationCompletedAt",
              "type": "uint256"
            }
          ],
          "internalType": "struct BlueCarbonAdminTokenRestricted.Project",
          "name": "",
          "type": "tuple"
        }
      ],
      "stateMutability": "view",
      "type": "function"
    },
    {
      "inputs": [],
      "name": "getProjectCount",
      "outputs": [
        {
          "internalType": "uint256",
          "name": "",
          "type": "uint256"
        }
      ],
      "stateMutability": "view",
      "type": "function"
    },
    {
      "inputs": [
        {
          "internalType": "bytes32",
          "name": "role",
          "type": "bytes32"
        }
      ],
      "name": "getRoleAdmin",
      "outputs": [
        {
          "internalType": "bytes32",
          "name": "",
          "type": "bytes32"
        }
      ],
      "stateMutability": "view",
      "type": "function"
    },
    {
      "inputs": [
        {
          "internalType": "address",
          "name": "walletAddress",
          "type": "address"
        }
      ],
      "name": "getUser",
      "outputs": [
        {
          "components": [
            {
              "internalType": "string",
              "name": "firstName",
              "type": "string"
            },
            {
              "internalType": "string",
              "name": "lastName",
              "type": "string"
            },
            {
              "internalType": "string",
              "name": "phone",
              "type": "string"
            },
            {
              "internalType": "string",
              "name": "email",
              "type": "string"
            },
            {
              "internalType": "string",
              "name": "district",
              "type": "string"
            },
            {
              "internalType": "address",
              "name": "walletAddress",
              "type": "address"
            },
            {
              "internalType": "bool",
              "name": "isRegistered",
              "type": "bool"
            },
            {
              "internalType": "uint256",
              "name": "registeredAt",
              "type": "uint256"
            }
          ],
          "internalType": "struct BlueCarbonAdminTokenRestricted.User",
          "name": "",
          "type": "tuple"
        }
      ],
      "stateMutability": "view",
      "type": "function"
    },
    {
      "inputs": [
        {
          "internalType": "address",
          "name": "userAddress",
          "type": "address"
        }
      ],
      "name": "getUserProjects",
      "outputs": [
        {
          "internalType": "uint256[]",
          "name": "",
          "type": "uint256[]"
        }
      ],
      "stateMutability": "view",
      "type": "function"
    },
    {
      "inputs": [
        {
          "internalType": "string",
          "name": "district",
          "type": "string"
        }
      ],
      "name": "getUsersByDistrict",
      "outputs": [
        {
          "internalType": "address[]",
          "name": "",
          "type": "address[]"
        }
      ],
      "stateMutability": "view",
      "type": "function"
    },
    {
      "inputs": [
        {
          "internalType": "uint256",
          "name": "projectId",
          "type": "uint256"
        }
      ],
      "name": "getVerificationReport",
      "outputs": [
        {
          "components": [
            {
              "internalType": "uint256",
              "name": "projectId",
              "type": "uint256"
            },
            {
              "internalType": "address",
              "name": "officerAddress",
              "type": "address"
            },
            {
              "internalType": "uint256",
              "name": "area",
              "type": "uint256"
            },
            {
              "internalType": "uint256",
              "name": "plots",
              "type": "uint256"
            },
            {
              "internalType": "uint256",
              "name": "uavFlights",
              "type": "uint256"
            },
            {
              "internalType": "uint256",
              "name": "biomass",
              "type": "uint256"
            },
            {
              "internalType": "uint256",
              "name": "uncertainty",
              "type": "uint256"
            },
            {
              "internalType": "uint256",
              "name": "creditsRecommended",
              "type": "uint256"
            },
            {
              "internalType": "bool",
              "name": "siteInspection",
              "type": "bool"
            },
            {
              "internalType": "bool",
              "name": "documentationVerified",
              "type": "bool"
            },
            {
              "internalType": "bool",
              "name": "measurementsValidated",
              "type": "bool"
            },
            {
              "internalType": "bool",
              "name": "qualityAssurance",
              "type": "bool"
            },
            {
              "internalType": "string",
              "name": "additionalNotes",
              "type": "string"
            },
            {
              "internalType": "uint256",
              "name": "submittedAt",
              "type": "uint256"
            },
            {
              "internalType": "bool",
              "name": "isApproved",
              "type": "bool"
            },
            {
              "internalType": "address",
              "name": "approvedBy",
              "type": "address"
            },
            {
              "internalType": "uint256",
              "name": "approvedAt",
              "type": "uint256"
            }
          ],
          "internalType": "struct BlueCarbonAdminTokenRestricted.VerificationReport",
          "name": "",
          "type": "tuple"
        }
      ],
      "stateMutability": "view",
      "type": "function"
    },
    {
      "inputs": [
        {
          "internalType": "uint256",
          "name": "reportId",
          "type": "uint256"
        }
      ],
      "name": "getVerificationReportById",
      "outputs": [
        {
          "components": [
            {
              "internalType": "uint256",
              "name": "projectId",
              "type": "uint256"
            },
            {
              "internalType": "address",
              "name": "officerAddress",
              "type": "address"
            },
            {
              "internalType": "uint256",
              "name": "area",
              "type": "uint256"
            },
            {
              "internalType": "uint256",
              "name": "plots",
              "type": "uint256"
            },
            {
              "internalType": "uint256",
              "name": "uavFlights",
              "type": "uint256"
            },
            {
              "internalType": "uint256",
              "name": "biomass",
              "type": "uint256"
            },
            {
              "internalType": "uint256",
              "name": "uncertainty",
              "type": "uint256"
            },
            {
              "internalType": "uint256",
              "name": "creditsRecommended",
              "type": "uint256"
            },
            {
              "internalType": "bool",
              "name": "siteInspection",
              "type": "bool"
            },
            {
              "internalType": "bool",
              "name": "documentationVerified",
              "type": "bool"
            },
            {
              "internalType": "bool",
              "name": "measurementsValidated",
              "type": "bool"
            },
            {
              "internalType": "bool",
              "name": "qualityAssurance",
              "type": "bool"
            },
            {
              "internalType": "string",
              "name": "additionalNotes",
              "type": "string"
            },
            {
              "internalType": "uint256",
              "name": "submittedAt",
              "type": "uint256"
            },
            {
              "internalType": "bool",
              "name": "isApproved",
              "type": "bool"
            },
            {
              "internalType": "address",
              "name": "approvedBy",
              "type": "address"
            },
            {
              "internalType": "uint256",
              "name": "approvedAt",
              "type": "uint256"
            }
          ],
          "internalType": "struct BlueCarbonAdminTokenRestricted.VerificationReport",
          "name": "",
          "type": "tuple"
        }
      ],
      "stateMutability": "view",
      "type": "function"
    },
    {
      "inputs": [],
      "name": "getVerificationReportCount",
      "outputs": [
        {
          "internalType": "uint256",
          "name": "",
          "type": "uint256"
        }
      ],
      "stateMutability": "view",
      "type": "function"
    },
    {
      "inputs": [
        {
          "internalType": "bytes32",
          "name": "role",
          "type": "bytes32"
        },
        {
          "internalType": "address",
          "name": "account",
          "type": "address"
        }
      ],
      "name": "grantRole",
      "outputs": [],
      "stateMutability": "nonpayable",
      "type": "function"
    },
    {
      "inputs": [
        {
          "internalType": "bytes32",
          "name": "role",
          "type": "bytes32"
        },
        {
          "internalType": "address",
          "name": "account",
          "type": "address"
        }
      ],
      "name": "hasRole",
      "outputs": [
        {
          "internalType": "bool",
          "name": "",
          "type": "bool"
        }
      ],
      "stateMutability": "view",
      "type": "function"
    },
    {
      "inputs": [
        {
          "internalType": "address",
          "name": "walletAddress",
          "type": "address"
        }
      ],
      "name": "isUserRegistered",
      "outputs": [
        {
          "internalType": "bool",
          "name": "",
          "type": "bool"
        }
      ],
      "stateMutability": "view",
      "type": "function"
    },
    {
      "inputs": [],
      "name": "mintedCumulative",
      "outputs": [
        {
          "internalType": "uint256",
          "name": "",
          "type": "uint256"
        }
      ],
      "stateMutability": "view",
      "type": "function"
    },
    {
      "inputs": [],
      "name": "name",
      "outputs": [
        {
          "internalType": "string",
          "name": "",
          "type": "string"
        }
      ],
      "stateMutability": "view",
      "type": "function"
    },
    {
      "inputs": [
        {
          "internalType": "uint256",
          "name": "",
          "type": "uint256"
        }
      ],
      "name": "officerAddresses",
      "outputs": [
        {
          "internalType": "address",
          "name": "",
          "type": "address"
        }
      ],
      "stateMutability": "view",
      "type": "function"
    },
    {
      "inputs": [
        {
          "internalType": "address",
          "name": "",
          "type": "address"
        },
        {
          "internalType": "uint256",
          "name": "",
          "type": "uint256"
        }
      ],
      "name": "officerAssignedProjects",
      "outputs": [
        {
          "internalType": "uint256",
          "name": "",
          "type": "uint256"
        }
      ],
      "stateMutability": "view",
      "type": "function"
    },
    {
      "inputs": [
        {
          "internalType": "address",
          "name": "",
          "type": "address"
        }
      ],
      "name": "officerDistributed",
      "outputs": [
        {
          "internalType": "uint256",
          "name": "",
          "type": "uint256"
        }
      ],
      "stateMutability": "view",
      "type": "function"
    },
    {
      "inputs": [
        {
          "internalType": "address",
          "name": "",
          "type": "address"
        }
      ],
      "name": "officerReceived",
      "outputs": [
        {
          "internalType": "uint256",
          "name": "",
          "type": "uint256"
        }
      ],
      "stateMutability": "view",
      "type": "function"
    },
    {
      "inputs": [
        {
          "internalType": "address",
          "name": "",
          "type": "address"
        }
      ],
      "name": "officers",
      "outputs": [
        {
          "internalType": "string",
          "name": "name",
          "type": "string"
        },
        {
          "internalType": "string",
          "name": "designation",
          "type": "string"
        },
        {
          "internalType": "string",
          "name": "area",
          "type": "string"
        },
        {
          "internalType": "string",
          "name": "contracts",
          "type": "string"
        },
        {
          "internalType": "string",
          "name": "jurisdiction",
          "type": "string"
        },
        {
          "internalType": "address",
          "name": "walletAddress",
          "type": "address"
        },
        {
          "internalType": "bool",
          "name": "isActive",
          "type": "bool"
        },
        {
          "internalType": "uint256",
          "name": "assignedAt",
          "type": "uint256"
        }
      ],
      "stateMutability": "view",
      "type": "function"
    },
    {
      "inputs": [
        {
          "internalType": "string",
          "name": "",
          "type": "string"
        },
        {
          "internalType": "uint256",
          "name": "",
          "type": "uint256"
        }
      ],
      "name": "officersByArea",
      "outputs": [
        {
          "internalType": "address",
          "name": "",
          "type": "address"
        }
      ],
      "stateMutability": "view",
      "type": "function"
    },
    {
      "inputs": [
        {
          "internalType": "string",
          "name": "",
          "type": "string"
        },
        {
          "internalType": "uint256",
          "name": "",
          "type": "uint256"
        }
      ],
      "name": "officersByJurisdiction",
      "outputs": [
        {
          "internalType": "address",
          "name": "",
          "type": "address"
        }
      ],
      "stateMutability": "view",
      "type": "function"
    },
    {
      "inputs": [],
      "name": "pause",
      "outputs": [],
      "stateMutability": "nonpayable",
      "type": "function"
    },
    {
      "inputs": [],
      "name": "paused",
      "outputs": [
        {
          "internalType": "bool",
          "name": "",
          "type": "bool"
        }
      ],
      "stateMutability": "view",
      "type": "function"
    },
    {
      "inputs": [],
      "name": "projectCount",
      "outputs": [
        {
          "internalType": "uint256",
          "name": "",
          "type": "uint256"
        }
      ],
      "stateMutability": "view",
      "type": "function"
    },
    {
      "inputs": [
        {
          "internalType": "uint256",
          "name": "",
          "type": "uint256"
        }
      ],
      "name": "projectToReportId",
      "outputs": [
        {
          "internalType": "uint256",
          "name": "",
          "type": "uint256"
        }
      ],
      "stateMutability": "view",
      "type": "function"
    },
    {
      "inputs": [
        {
          "internalType": "uint256",
          "name": "",
          "type": "uint256"
        }
      ],
      "name": "projects",
      "outputs": [
        {
          "internalType": "string",
          "name": "name",
          "type": "string"
        },
        {
          "internalType": "string",
          "name": "description",
          "type": "string"
        },
        {
          "internalType": "string",
          "name": "projectType",
          "type": "string"
        },
        {
          "internalType": "uint256",
          "name": "startDate",
          "type": "uint256"
        },
        {
          "internalType": "uint256",
          "name": "endDate",
          "type": "uint256"
        },
        {
          "internalType": "string",
          "name": "projectAddress",
          "type": "string"
        },
        {
          "internalType": "string",
          "name": "city",
          "type": "string"
        },
        {
          "internalType": "string",
          "name": "state",
          "type": "string"
        },
        {
          "internalType": "uint256",
          "name": "landArea",
          "type": "uint256"
        },
        {
          "internalType": "uint256",
          "name": "estimatedCredits",
          "type": "uint256"
        },
        {
          "internalType": "string",
          "name": "ipfsUrl",
          "type": "string"
        },
        {
          "internalType": "address",
          "name": "owner",
          "type": "address"
        },
        {
          "internalType": "address",
          "name": "assignedOfficer",
          "type": "address"
        },
        {
          "internalType": "bool",
          "name": "isActive",
          "type": "bool"
        },
        {
          "internalType": "uint256",
          "name": "createdAt",
          "type": "uint256"
        },
        {
          "internalType": "enum BlueCarbonAdminTokenRestricted.VerificationStatus",
          "name": "verificationStatus",
          "type": "uint8"
        },
        {
          "internalType": "uint256",
          "name": "verificationStartedAt",
          "type": "uint256"
        },
        {
          "internalType": "uint256",
          "name": "verificationCompletedAt",
          "type": "uint256"
        }
      ],
      "stateMutability": "view",
      "type": "function"
    },
    {
      "inputs": [
        {
          "internalType": "string",
          "name": "firstName",
          "type": "string"
        },
        {
          "internalType": "string",
          "name": "lastName",
          "type": "string"
        },
        {
          "internalType": "string",
          "name": "phone",
          "type": "string"
        },
        {
          "internalType": "string",
          "name": "email",
          "type": "string"
        },
        {
          "internalType": "string",
          "name": "district",
          "type": "string"
        }
      ],
      "name": "registerUser",
      "outputs": [],
      "stateMutability": "nonpayable",
      "type": "function"
    },
    {
      "inputs": [
        {
          "internalType": "uint256",
          "name": "projectId",
          "type": "uint256"
        }
      ],
      "name": "rejectVerificationReport",
      "outputs": [],
      "stateMutability": "nonpayable",
      "type": "function"
    },
    {
      "inputs": [
        {
          "internalType": "uint256",
          "name": "projectId",
          "type": "uint256"
        }
      ],
      "name": "removeProject",
      "outputs": [],
      "stateMutability": "nonpayable",
      "type": "function"
    },
    {
      "inputs": [
        {
          "internalType": "bytes32",
          "name": "role",
          "type": "bytes32"
        },
        {
          "internalType": "address",
          "name": "callerConfirmation",
          "type": "address"
        }
      ],
      "name": "renounceRole",
      "outputs": [],
      "stateMutability": "nonpayable",
      "type": "function"
    },
    {
      "inputs": [
        {
          "internalType": "bytes32",
          "name": "role",
          "type": "bytes32"
        },
        {
          "internalType": "address",
          "name": "account",
          "type": "address"
        }
      ],
      "name": "revokeRole",
      "outputs": [],
      "stateMutability": "nonpayable",
      "type": "function"
    },
    {
      "inputs": [
        {
          "internalType": "address",
          "name": "officer",
          "type": "address"
        },
        {
          "internalType": "bool",
          "name": "enabled",
          "type": "bool"
        }
      ],
      "name": "setOfficer",
      "outputs": [],
      "stateMutability": "nonpayable",
      "type": "function"
    },
    {
      "inputs": [
        {
          "internalType": "uint256",
          "name": "projectId",
          "type": "uint256"
        }
      ],
      "name": "startVerification",
      "outputs": [],
      "stateMutability": "nonpayable",
      "type": "function"
    },
    {
      "inputs": [
        {
          "internalType": "uint256",
          "name": "projectId",
          "type": "uint256"
        },
        {
          "internalType": "uint256",
          "name": "area",
          "type": "uint256"
        },
        {
          "internalType": "uint256",
          "name": "plots",
          "type": "uint256"
        },
        {
          "internalType": "uint256",
          "name": "uavFlights",
          "type": "uint256"
        },
        {
          "internalType": "uint256",
          "name": "biomass",
          "type": "uint256"
        },
        {
          "internalType": "uint256",
          "name": "uncertainty",
          "type": "uint256"
        },
        {
          "internalType": "uint256",
          "name": "creditsRecommended",
          "type": "uint256"
        },
        {
          "internalType": "bool",
          "name": "siteInspection",
          "type": "bool"
        },
        {
          "internalType": "bool",
          "name": "documentationVerified",
          "type": "bool"
        },
        {
          "internalType": "bool",
          "name": "measurementsValidated",
          "type": "bool"
        },
        {
          "internalType": "bool",
          "name": "qualityAssurance",
          "type": "bool"
        },
        {
          "internalType": "string",
          "name": "additionalNotes",
          "type": "string"
        }
      ],
      "name": "submitVerificationReport",
      "outputs": [],
      "stateMutability": "nonpayable",
      "type": "function"
    },
    {
      "inputs": [
        {
          "internalType": "bytes4",
          "name": "interfaceId",
          "type": "bytes4"
        }
      ],
      "name": "supportsInterface",
      "outputs": [
        {
          "internalType": "bool",
          "name": "",
          "type": "bool"
        }
      ],
      "stateMutability": "view",
      "type": "function"
    },
    {
      "inputs": [],
      "name": "symbol",
      "outputs": [
        {
          "internalType": "string",
          "name": "",
          "type": "string"
        }
      ],
      "stateMutability": "view",
      "type": "function"
    },
    {
      "inputs": [],
      "name": "totalSupply",
      "outputs": [
        {
          "internalType": "uint256",
          "name": "",
          "type": "uint256"
        }
      ],
      "stateMutability": "view",
      "type": "function"
    },
    {
      "inputs": [
        {
          "internalType": "address",
          "name": "to",
          "type": "address"
        },
        {
          "internalType": "uint256",
          "name": "value",
          "type": "uint256"
        }
      ],
      "name": "transfer",
      "outputs": [
        {
          "internalType": "bool",
          "name": "",
          "type": "bool"
        }
      ],
      "stateMutability": "nonpayable",
      "type": "function"
    },
    {
      "inputs": [
        {
          "internalType": "address",
          "name": "from",
          "type": "address"
        },
        {
          "internalType": "address",
          "name": "to",
          "type": "address"
        },
        {
          "internalType": "uint256",
          "name": "value",
          "type": "uint256"
        }
      ],
      "name": "transferFrom",
      "outputs": [
        {
          "internalType": "bool",
          "name": "",
          "type": "bool"
        }
      ],
      "stateMutability": "nonpayable",
      "type": "function"
    },
    {
      "inputs": [],
      "name": "unpause",
      "outputs": [],
      "stateMutability": "nonpayable",
      "type": "function"
    },
    {
      "inputs": [
        {
          "internalType": "address",
          "name": "walletAddress",
          "type": "address"
        },
        {
          "internalType": "string",
          "name": "name",
          "type": "string"
        },
        {
          "internalType": "string",
          "name": "designation",
          "type": "string"
        },
        {
          "internalType": "string",
          "name": "area",
          "type": "string"
        },
        {
          "internalType": "string",
          "name": "contracts",
          "type": "string"
        },
        {
          "internalType": "string",
          "name": "jurisdiction",
          "type": "string"
        }
      ],
      "name": "updateOfficer",
      "outputs": [],
      "stateMutability": "nonpayable",
      "type": "function"
    },
    {
      "inputs": [
        {
          "internalType": "uint256",
          "name": "",
          "type": "uint256"
        }
      ],
      "name": "userAddresses",
      "outputs": [
        {
          "internalType": "address",
          "name": "",
          "type": "address"
        }
      ],
      "stateMutability": "view",
      "type": "function"
    },
    {
      "inputs": [
        {
          "internalType": "address",
          "name": "",
          "type": "address"
        },
        {
          "internalType": "uint256",
          "name": "",
          "type": "uint256"
        }
      ],
      "name": "userProjects",
      "outputs": [
        {
          "internalType": "uint256",
          "name": "",
          "type": "uint256"
        }
      ],
      "stateMutability": "view",
      "type": "function"
    },
    {
      "inputs": [
        {
          "internalType": "address",
          "name": "",
          "type": "address"
        }
      ],
      "name": "userReceived",
      "outputs": [
        {
          "internalType": "uint256",
          "name": "",
          "type": "uint256"
        }
      ],
      "stateMutability": "view",
      "type": "function"
    },
    {
      "inputs": [
        {
          "internalType": "address",
          "name": "",
          "type": "address"
        }
      ],
      "name": "users",
      "outputs": [
        {
          "internalType": "string",
          "name": "firstName",
          "type": "string"
        },
        {
          "internalType": "string",
          "name": "lastName",
          "type": "string"
        },
        {
          "internalType": "string",
          "name": "phone",
          "type": "string"
        },
        {
          "internalType": "string",
          "name": "email",
          "type": "string"
        },
        {
          "internalType": "string",
          "name": "district",
          "type": "string"
        },
        {
          "internalType": "address",
          "name": "walletAddress",
          "type": "address"
        },
        {
          "internalType": "bool",
          "name": "isRegistered",
          "type": "bool"
        },
        {
          "internalType": "uint256",
          "name": "registeredAt",
          "type": "uint256"
        }
      ],
      "stateMutability": "view",
      "type": "function"
    },
    {
      "inputs": [
        {
          "internalType": "string",
          "name": "",
          "type": "string"
        },
        {
          "internalType": "uint256",
          "name": "",
          "type": "uint256"
        }
      ],
      "name": "usersByDistrict",
      "outputs": [
        {
          "internalType": "address",
          "name": "",
          "type": "address"
        }
      ],
      "stateMutability": "view",
      "type": "function"
    },
    {
      "inputs": [],
      "name": "verificationReportCount",
      "outputs": [
        {
          "internalType": "uint256",
          "name": "",
          "type": "uint256"
        }
      ],
      "stateMutability": "view",
      "type": "function"
    },
    {
      "inputs": [
        {
          "internalType": "uint256",
          "name": "",
          "type": "uint256"
        }
      ],
      "name": "verificationReports",
      "outputs": [
        {
          "internalType": "uint256",
          "name": "projectId",
          "type": "uint256"
        },
        {
          "internalType": "address",
          "name": "officerAddress",
          "type": "address"
        },
        {
          "internalType": "uint256",
          "name": "area",
          "type": "uint256"
        },
        {
          "internalType": "uint256",
          "name": "plots",
          "type": "uint256"
        },
        {
          "internalType": "uint256",
          "name": "uavFlights",
          "type": "uint256"
        },
        {
          "internalType": "uint256",
          "name": "biomass",
          "type": "uint256"
        },
        {
          "internalType": "uint256",
          "name": "uncertainty",
          "type": "uint256"
        },
        {
          "internalType": "uint256",
          "name": "creditsRecommended",
          "type": "uint256"
        },
        {
          "internalType": "bool",
          "name": "siteInspection",
          "type": "bool"
        },
        {
          "internalType": "bool",
          "name": "documentationVerified",
          "type": "bool"
        },
        {
          "internalType": "bool",
          "name": "measurementsValidated",
          "type": "bool"
        },
        {
          "internalType": "bool",
          "name": "qualityAssurance",
          "type": "bool"
        },
        {
          "internalType": "string",
          "name": "additionalNotes",
          "type": "string"
        },
        {
          "internalType": "uint256",
          "name": "submittedAt",
          "type": "uint256"
        },
        {
          "internalType": "bool",
          "name": "isApproved",
          "type": "bool"
        },
        {
          "internalType": "address",
          "name": "approvedBy",
          "type": "address"
        },
        {
          "internalType": "uint256",
          "name": "approvedAt",
          "type": "uint256"
        }
      ],
      "stateMutability": "view",
      "type": "function"
    }
  ],
  "bytecode": "0x60a0604052346200034e5762005f4a803803806200001d8162000352565b9283398101906080818303126200034e5780516001600160401b0391908281116200034e57836200005091830162000378565b60209384830151908482116200034e576200006d91840162000378565b9360408301519260ff841684036200034e5760600151936001600160a01b03851685036200034e57825181811162000259576003908154906001958683811c9316801562000343575b868410146200032f578190601f93848111620002dc575b50869084831160011462000279575f926200026d575b50505f1982851b1c191690861b1782555b8751928311620002595760049384548681811c911680156200024e575b828210146200023b57828111620001f3575b50809184116001146200018457509082916200015e985f9362000178575b505082851b925f19911b1c19161790555b600655608052620003e8565b50604051615ad090816200047a8239608051816139f10152f35b015191505f8062000141565b9297601f198916855f52845f20945f905b828210620001db575050918993916200015e9a88969410620001c1575b50505050811b01905562000152565b01519060f8845f19921b161c191690555f808080620001b2565b80898698829497870151815501970194019062000195565b855f52815f208380870160051c82019284881062000231575b0160051c019087905b8281106200022557505062000123565b5f815501879062000215565b925081926200020c565b602286634e487b7160e01b5f525260245ffd5b90607f169062000111565b634e487b7160e01b5f52604160045260245ffd5b015190505f80620000e3565b90889350601f19831691865f52885f20925f5b8a828210620002c55750508411620002ad575b505050811b018255620000f4565b01515f1983871b60f8161c191690555f80806200029f565b8385015186558c979095019493840193016200028c565b909150845f52865f208480850160051c82019289861062000325575b918a91869594930160051c01915b82811062000316575050620000cd565b5f81558594508a910162000306565b92508192620002f8565b634e487b7160e01b5f52602260045260245ffd5b92607f1692620000b6565b5f80fd5b6040519190601f01601f191682016001600160401b038111838210176200025957604052565b919080601f840112156200034e5782516001600160401b0381116200025957602090620003ae601f8201601f1916830162000352565b928184528282870101116200034e575f5b818110620003d45750825f9394955001015290565b8581018301518482018401528201620003bf565b6001600160a01b03165f8181527f05b8ccbb9d4d8fb16ea74ce3c29a41f1b461fbdaff4714a0d9a8eb05499746bc602052604081205490919060ff16620004755781805260056020526040822081835260205260408220600160ff1982541617905533917f2f8788117e7eff1d82e926ec794901d17c78024a50270940304540a733656f0d8180a4600190565b509056fe6101006040526004361015610012575f80fd5b5f3560e01c8063010496fa146143c957806301ffc9a71461437357806304e82d29146143195780630502b8f61461429257806306fdde03146141ef578063084866dd146141b4578063095ea7b3146141325780630a8b669f146140fa5780630e8fb6d4146140c85780630f2a973c1461407f578063107046bd14613eaa578063125b0ed314613e8d578063130b812014613e55578063163f752214613e1257806317b03e6c14613daf57806318160ddd14613d925780631e572c0f14613d3e57806323b872dd14613c54578063248a9ca314613c2757806326f0611314613bf55780632b4bc862146139bb5780632f19673d14613ad35780632f2ff15d14613a965780632fa9c00714613a3f5780632fc6480a14613a15578063313ce567146139d857806332eaf9d2146139bb57806336568abe1461397457806336fbad261461391b5780633957e7a5146139385780633bcff3b01461391b5780633ca8b3da146132eb5780633f0b6bcb146130b15780633f4ba83a1461308d5780634719c01d14612fc4578063502c9bd514612f6a57806351fef12a14612e215780635873f99814612ce55780635c975abb14612cc35780635e58384d14612c35578063626eba5714612b945780636f77926b14612aeb57806370a0823114612ab45780637264953b14612a8d57806375b238fc146126035780638456cb5914612a6657806388d7c865146129d757806389e9fe80146128a45780638c80daec1461278557806391d148541461273c57806393fcdbda1461270457806395645192146126e757806395d89b4114612608578063a217fddf14612603578063a3197519146119f6578063a87430ba14611967578063a9059cbb14611936578063ab59a7ac146118aa578063ac9f0a401461153c578063b3638870146114bb578063badb97ff14611487578063be3f165614611414578063bf7c213114611380578063cdd09d3614610f46578063d05878971461099c578063d29c467114610872578063d547741f14610833578063d59b7f62146107d3578063dd62ed3e14610786578063e2842d79146106f9578063e32e723c146106765763f0f3f2c814610332575f80fd5b34610672576020366003190112610672575f6102206040516103538161448f565b606081526060602082015260606040820152826060820152826080820152606060a0820152606060c0820152606060e0820152826101008201528261012082015260606101408201528261016082015282610180820152826101a0820152826101c0820152826101e082015282610200820152015260043580151580610666575b6103dd906157f6565b5f52600f60205260405f20604051906103f58261448f565b6103fe81614623565b825261040c60018201614623565b602083015261041d60028201614623565b6040830152600381015460608301526004810154608083015261044260058201614623565b60a083015261045360068201614623565b60c083015261046460078201614623565b60e08301526008810154610100830152600981015461012083015261048b600a8201614623565b610140830152600b8101546001600160a01b03908116610160840152600c82015490811661018084015260a01c60ff90811615156101a0840152600d8201546101c0840152600e82015416906004821015610652576010916101e0840152600f81015461020084015201546102208201526040518091602082526102206105e56105b561059e61058861055e610548610532885161024060208c01526102608b01906145c6565b60208901518a8203601f190160408c01526145c6565b6040880151898203601f190160608b01526145c6565b60608701516080890152608087015160a089015260a0870151601f198983030160c08a01526145c6565b60c0860151878203601f190160e08901526145c6565b60e0850151868203601f19016101008801526145c6565b610100840151610120860152610120840151610140860152610140840151601f19868303016101608701526145c6565b9160018060a01b036101608201511661018085015260018060a01b03610180820151166101a08501526101a081015115156101c08501526101c08101516101e085015261063c6101e08201516102008601906147bd565b6102008101518285015201516102408301520390f35b634e487b7160e01b5f52602160045260245ffd5b506010548111156103d4565b5f80fd5b3461067257602080600319360112610672576001600160a01b03610698614579565b165f526011815260405f209060405190818184549182815201935f52815f20915f905b8282106106e2576106de856106d2818903826144ab565b604051918291826149f2565b0390f35b8354865294850194600193840193909101906106bb565b34610672575f3660031901126106725760405180600d5491828152602080910192600d5f527fd7b6990105719101dabeb77144f2a3385c8033acd3af97e9423a695e81ad1eb5915f905b828210610766576106de8561075a818903826144ab565b60405191829182614521565b83546001600160a01b031686529485019460019384019390910190610743565b346106725760403660031901126106725761079f614579565b6107a761458f565b9060018060a01b038091165f52600160205260405f2091165f52602052602060405f2054604051908152f35b346106725760206107fb6107e636614740565b929081604051938285809451938492016145a5565b8101600b81520301902080548210156106725760209161081a91614564565b905460405160039290921b1c6001600160a01b03168152f35b346106725760403660031901126106725761087060043561085261458f565b90805f52600560205261086b600160405f200154614a83565b614c2f565b005b346106725760203660031901126106725761088b6158b7565b506004355f52601560205260405f20546108a6811515615879565b5f5260136020526106de60405f20600c604051916108c383614457565b8054835260018060a01b03806001830154166020850152600282015460408501526003820154606085015260048201546080850152600582015460a0850152600682015460c0850152600782015460e085015260ff60088301548181161515610100870152818160081c161515610120870152818160101c16151561014087015260181c16151561016085015261095c60098301614623565b610180850152600a8201546101a0850152600b82015460ff811615156101c086015260081c166101e0840152015461020082015260405191829182614914565b34610672576109aa3661485d565b906109b6959295614a2c565b6001600160a01b0383165f908152600860205260409020600501546109e09060a01c60ff16615567565b6109ec85511515614fe7565b6109f886511515615023565b610a048251151561505f565b60018060a01b0383165f526008602052610a3483610a2f610a2a600260405f2001614623565b614771565b615691565b60018060a01b0383165f526008602052610a5f83610a2f610a5a600460405f2001614623565b614797565b6001600160a01b0383165f90815260086020526040902085516001600160401b038111610d7857610a9a81610a9484546145eb565b846150a3565b806020601f8211600114610ee3575f91610ed8575b508160011b915f199060031b1c19161790555b60018060a01b0383165f526008602052600160405f200184516001600160401b038111610d7857610af781610a9484546145eb565b806020601f8211600114610e75575f91610e6a575b508160011b915f199060031b1c19161790555b60018060a01b0383165f526008602052600260405f200186516001600160401b038111610d7857610b5481610a9484546145eb565b806020601f8211600114610e06575f91610dfb575b508160011b915f199060031b1c19161790555b60018060a01b0383165f526008602052600360405f2001908051906001600160401b038211610d78578190610bbb82610bb586546145eb565b866150a3565b602090601f8311600114610d97575f92610d8c575b50508160011b915f199060031b1c19161790555b6001600160a01b0382165f908152600860205260409020815195906004016001600160401b038711610d7857610c2487610c1e83546145eb565b836150a3565b602096601f8111600114610cf0579081610ce09493927fe11950fead99593edf185a281381b98c1a0b4c1d38592c0ddcc6de2876687fbd98995f91610ce5575b508160011b915f199060031b1c19161790555b610c9f846040516020818551610c908183858a016145a5565b8101600a8152030190206154dd565b610cc7846040516020818651610cb88183858b016145a5565b8101600b8152030190206154dd565b6040516001600160a01b0390941696939485948561551f565b0390a2005b90508401518a610c64565b601f198116825f5260205f20905f5b818110610d605750916001917fe11950fead99593edf185a281381b98c1a0b4c1d38592c0ddcc6de2876687fbd999a82610ce09897969510610d48575b5050811b019055610c77565b8601515f1960f88460031b161c191690558a80610d3c565b868b0151835560209a8b019a60019093019201610cff565b634e487b7160e01b5f52604160045260245ffd5b015190508880610bd0565b5f858152602081209350601f198516905b818110610de35750908460019594939210610dcb575b505050811b019055610be4565b01515f1960f88460031b161c19169055888080610dbe565b92936020600181928786015181550195019301610da8565b905088015189610b69565b9150825f5260205f205f925b8a601f1984168510610e5357506001935082601f19811610610e3b575b5050811b019055610b7c565b8a01515f1960f88460031b161c191690558980610e2f565b810151825560209384019360019092019101610e12565b905086015189610b0c565b9150825f5260205f205f925b601f1983168410610ec0576001935082601f19811610610ea8575b5050811b019055610b1f565b8801515f1960f88460031b161c191690558980610e9c565b88810151825560209384019360019092019101610e81565b905087015189610aaf565b9150825f5260205f205f925b601f1983168410610f2e576001935082601f19811610610f16575b5050811b019055610ac2565b8901515f1960f88460031b161c191690558980610f0a565b89810151825560209384019360019092019101610eef565b34610672576080366003190112610672576001600160401b03806004351161067257366023600435011215610672576004356004013511610672573660246004356004013560043501011161067257610f9d61458f565b6001600160a01b0390606435828116919082900361067257610fbd614a2c565b610fcc60ff6007541615615934565b8281161561134b57604435156113185760405160208101906004356004013560246004350183376110126020826004356004013581015f838201520380845201826144ab565b51902091825f52601660205260405f209060ff600383015460e01c166112db5760209484916001600160601b0360a01b84541617835560019261106960043560040135611061868401546145eb565b8684016150a3565b5f93601f6004356004013511600114611233577f0977838aa5ddf8ccf5aad9149ab57578b737639a2d4ea12879d57b718a48102293945f9060043560040135611223575b5060043560040135821b905f196004356004013560031b1c191617908201555b6003810180546044356002909301929092556001600160e81b0319909116858316174260a01b67ffffffffffffffff60a01b1617600160e01b1790556007546111199060ff1615615934565b611127604435600254615a2d565b6002558084165f525f865260405f20604435815401905560405160443581525f7fddf252ad1be2c89b69c2b068fc378daa952ba7f163c4a11628f55a4df523b3ef8884881693a361117c604435601754615a2d565b6017555f80516020615a3b8339815191525f526005865260405f208185165f52865260ff60405f205416611207575b6040519360443585526040878601526004356004013560408601526004356004013560246004350160608701375f606060043560040135870101521692606081601f19601f6004356004013501168101030190a3604051908152f35b6019865260405f2061121c6044358254615a2d565b90556111ab565b60249150600435010135896110ad565b8082015f52875f205f5b600480350135601f191681106112be575093947f0977838aa5ddf8ccf5aad9149ab57578b737639a2d4ea12879d57b718a4810229490600480350135601f1981161061129a575b50508060043560040135811b01908201556110cd565b60245f1960f86004356004013560031b161c19916004350101351690558880611284565b60043587016024013582559589019588955090820190890161123d565b60405162461bcd60e51b815260206004820152601560248201527414915413d49517d053149150511657d35253951151605a1b6044820152606490fd5b60405162461bcd60e51b815260206004820152600b60248201526a16915493d7d05353d5539560aa1b6044820152606490fd5b60405162461bcd60e51b815260206004820152600d60248201526c10905117d49150d25412515395609a1b6044820152606490fd5b34610672576020366003190112610672576004355f90815260166020526040902080546001600160a01b03919082169060ff6113be60018301614623565b9360036002840154930154906113e6604051968796875260c0602088015260c08701906145c6565b936040860152811660608501526001600160401b038160a01c16608085015260e01c16151560a08301520390f35b3461067257602080600319360112610672576001600160a01b03611436614579565b165f526012815260405f209060405190818184549182815201935f52815f20915f905b828210611470576106de856106d2818903826144ab565b835486529485019460019384019390910190611459565b34610672576020366003190112610672576114a0614a2c565b6114af60ff6007541615615934565b61087060043533615972565b34610672575f36600319011261067257604051806009549182815260208091019260095f527f6e1540171b6c0c960b71a7020d9f60077f6af931a8bbf590da0223dacf75c7af915f905b82821061151c576106de8561075a818903826144ab565b83546001600160a01b031686529485019460019384019390910190611505565b346106725760a0366003190112610672576001600160401b036004358181116106725761156d9036906004016144cc565b60248035838111610672576115869036906004016144cc565b6044918235858111610672576115a09036906004016144cc565b6064958635818111610672576115ba9036906004016144cc565b90608435908111610672576115d39036906004016144cc565b96335f52602095600c875260ff600560405f20015460a01c1661186a57875115611834578551156117ff578351156117ce5782511561179d5788511561176957505090611662916040519161162783614473565b8783528587840152604083015260608201528660808201523360a0820152600160c08201524260e0820152335f52600c855260405f206150f6565b600d5490600160401b821015611756576001820180600d558210156117435750611734611727937f509c70f523067009f7db7f46db6956d7af8b679323680dc3821a8bad001ac1e19593610ce093600d5f527fd7b6990105719101dabeb77144f2a3385c8033acd3af97e9423a695e81ad1eb501336001600160601b0360a01b825416179055611713604051836116ff8b838151938492016145a5565b810190600e825284813393030190206154dd565b6040519586956060875260608701906145c6565b91858303908601526145c6565b828103604084015233956145c6565b634e487b7160e01b5f9081526032600452fd5b634e487b7160e01b5f9081526041600452fd5b70111254d5149250d517d491545552549151607a1b87916011876040519462461bcd60e51b86526004860152840152820152fd5b6d115350525317d49154555254915160921b8791600e876040519462461bcd60e51b86526004860152840152820152fd5b6d141213d39157d49154555254915160921b8791600e876040519462461bcd60e51b86526004860152840152820152fd5b71131054d517d390535157d49154555254915160721b87916012876040519462461bcd60e51b86526004860152840152820152fd5b7211925494d517d390535157d491545552549151606a1b87916013876040519462461bcd60e51b86526004860152840152820152fd5b7f555345525f414c52454144595f5245474953544552454400000000000000000087916017876040519462461bcd60e51b86526004860152840152820152fd5b34610672576020366003190112610672576004356118c66158b7565b508015158061192a575b156118f2575f5260136020526106de60405f20600c604051916108c383614457565b60405162461bcd60e51b815260206004820152601060248201526f14915413d49517d393d517d193d5539160821b6044820152606490fd5b506014548111156118d0565b346106725760403660031901126106725761195c611952614579565b6024359033614ca4565b602060405160018152f35b34610672576020366003190112610672576001600160a01b0380611989614579565b165f52600c60205260405f20906106de6119a283614623565b6119ae60018501614623565b936119bb60028201614623565b916119c860038301614623565b6119d460048401614623565b90600660058501549401549460405198899860ff8760a01c16961694896146c4565b3461067257610160366003190112610672576004356001600160401b03811161067257611a279036906004016144cc565b6024356001600160401b03811161067257611a469036906004016144cc565b906044356001600160401b03811161067257611a669036906004016144cc565b9060a4356001600160401b03811161067257611a869036906004016144cc565b9260c4356001600160401b03811161067257611aa69036906004016144cc565b60e4356001600160401b03811161067257611ac59036906004016144cc565b610144356001600160401b03811161067257611ae59036906004016144cc565b91335f52600c60205260ff600560405f20015460a01c16156125be578451156125815783511561253c578551156124ff57606435156124c457606435608435111561247557865115612430578051156123fb578151156123c5576101043515612380576101243515612330578251156122f757611b6360105461566f565b958660105560405194611b758661448f565b86865260208601526040850152606435606085015260843560808501528660a085015260c084015260e08301526101043561010083015261012435610120830152610140820152336101608201525f61018082015260016101a0820152426101c08201525f6101e08201525f6102008201525f610220820152825f52600f60205260405f209181518051906001600160401b038211610d78578190611c2482611c1e88546145eb565b886150a3565b602090601f831160011461228f575f92612284575b50508160011b915f199060031b1c19161783555b60208201518051906001600160401b038211610d78578190611c7f82611c7660018901546145eb565b600189016150a3565b602090601f8311600114612216575f9261220b575b50508160011b915f199060031b1c19161760018401555b60408201518051906001600160401b038211610d78578190611cdd82611cd460028901546145eb565b600289016150a3565b602090601f831160011461219d575f92612192575b50508160011b915f199060031b1c19161760028401555b606082015160038401556080820151600484015560a08201518051906001600160401b038211610d78578190611d4f82611d4660058901546145eb565b600589016150a3565b602090601f8311600114612124575f92612119575b50508160011b915f199060031b1c19161760058401555b60c08201518051906001600160401b038211610d78578190611dad82611da460068901546145eb565b600689016150a3565b602090601f83116001146120ab575f926120a0575b50508160011b915f199060031b1c19161760068401555b60e08201518051906001600160401b038211610d78578190611e0b82611e0260078901546145eb565b600789016150a3565b602090601f8311600114612032575f92612027575b50508160011b915f199060031b1c19161760078401555b610100820151600884015561012082015160098401556101408201518051906001600160401b038211610d78578190611e8082611e77600a8901546145eb565b600a89016150a3565b602090601f8311600114611fb9575f92611fae575b50508160011b915f199060031b1c191617600a8401555b610160820151600b840180546001600160a01b039283166001600160a01b0319909116179055610180830151600c850180546101a086015160ff60a01b90151560a01b16929093166001600160a81b0319909316929092171790556101c0820151600d8401556101e082015192600e8101600485101561065257610220611f9a946010927f827808350d86a9e03c1d72b15e7b1d89ce816461667232ef2b55b41c5051dc209760ff80198354169116179055610200810151600f8501550151910155335f526011602052611f838460405f20615747565b611fa96040519283926040845260408401906145c6565b828103602084015233966145c6565b0390a3005b015190508780611e95565b9250600a86015f5260205f20905f935b601f198416851061200c576001945083601f19811610611ff4575b505050811b01600a840155611eac565b01515f1960f88460031b161c19169055878080611fe4565b81810151835560209485019460019093019290910190611fc9565b015190508780611e20565b9250600786015f5260205f20905f935b601f1984168510612085576001945083601f1981161061206d575b505050811b016007840155611e37565b01515f1960f88460031b161c1916905587808061205d565b81810151835560209485019460019093019290910190612042565b015190508780611dc2565b9250600686015f5260205f20905f935b601f19841685106120fe576001945083601f198116106120e6575b505050811b016006840155611dd9565b01515f1960f88460031b161c191690558780806120d6565b818101518355602094850194600190930192909101906120bb565b015190508780611d64565b9250600586015f5260205f20905f935b601f1984168510612177576001945083601f1981161061215f575b505050811b016005840155611d7b565b01515f1960f88460031b161c1916905587808061214f565b81810151835560209485019460019093019290910190612134565b015190508780611cf2565b9250600286015f5260205f20905f935b601f19841685106121f0576001945083601f198116106121d8575b505050811b016002840155611d09565b01515f1960f88460031b161c191690558780806121c8565b818101518355602094850194600190930192909101906121ad565b015190508780611c94565b9250600186015f5260205f20905f935b601f1984168510612269576001945083601f19811610612251575b505050811b016001840155611cab565b01515f1960f88460031b161c19169055878080612241565b81810151835560209485019460019093019290910190612226565b015190508780611c39565b9250855f5260205f20905f935b601f19841685106122dc576001945083601f198116106122c4575b505050811b018355611c4d565b01515f1960f88460031b161c191690558780806122b7565b8181015183556020948501946001909301929091019061229c565b60405162461bcd60e51b815260206004820152601160248201527012541194d7d5549317d491545552549151607a1b6044820152606490fd5b60405162461bcd60e51b815260206004820152602260248201527f455354494d415445445f435245444954535f4d5553545f42455f504f53495449604482015261564560f01b6064820152608490fd5b60405162461bcd60e51b815260206004820152601a60248201527f4c414e445f415245415f4d5553545f42455f504f5349544956450000000000006044820152606490fd5b60405162461bcd60e51b815260206004820152600e60248201526d14d510551157d49154555254915160921b6044820152606490fd5b60405162461bcd60e51b815260206004820152600d60248201526c10d2551657d491545552549151609a1b6044820152606490fd5b60405162461bcd60e51b815260206004820152601860248201527f50524f4a4543545f414444524553535f524551554952454400000000000000006044820152606490fd5b60405162461bcd60e51b815260206004820152602160248201527f454e445f444154455f4d5553545f42455f41465445525f53544152545f4441546044820152604560f81b6064820152608490fd5b60405162461bcd60e51b815260206004820152601360248201527214d510549517d110551157d491545552549151606a1b6044820152606490fd5b60405162461bcd60e51b8152602060048201526015602482015274141493d29150d517d516541157d491545552549151605a1b6044820152606490fd5b60405162461bcd60e51b815260206004820152601c60248201527f50524f4a4543545f4445534352495054494f4e5f5245515549524544000000006044820152606490fd5b60405162461bcd60e51b8152602060048201526015602482015274141493d29150d517d390535157d491545552549151605a1b6044820152606490fd5b60405162461bcd60e51b815260206004820152601760248201527f555345525f4d5553545f42455f524547495354455245440000000000000000006044820152606490fd5b6148fa565b34610672575f366003190112610672576040515f600454612628816145eb565b808452906001908181169081156126c05750600114612666575b6106de84612652818603826144ab565b6040519182916020835260208301906145c6565b60045f90815292507f8a35acfbc15ff81a39ae7d344fd709f28e8600b4aa8c65c6b64bfe7fe36bd19b5b8284106126a857505050810160200161265282612642565b80546020858701810191909152909301928101612690565b60ff191660208087019190915292151560051b850190920192506126529150839050612642565b34610672575f366003190112610672576020601754604051908152f35b34610672576020366003190112610672576001600160a01b03612725614579565b165f52601a602052602060405f2054604051908152f35b346106725760403660031901126106725761275561458f565b6004355f52600560205260405f209060018060a01b03165f52602052602060ff60405f2054166040519015158152f35b34610672576020366003190112610672576004355f52601360205260405f208054600160a01b60019003600183015416916002810154600382015491600481015460058201546006830154600784015490600885015492600986016127e990614623565b94600a87015498600b88015497600c0154986040519c8d9c8d5260208d015260408c015260608b015260808a015260a089015260c088015260e087015260ff811615156101008701528060081c60ff1615156101208701528060101c60ff16151561014087015260181c60ff161515610160860152610220806101808701528501612873916145c6565b6101a085019390935260ff811615156101c085015260081c6001600160a01b03166101e08401526102008301520390f35b34610672576040366003190112610672576004356128c061458f565b906128c9614a2c565b805f526020600f81526128e860ff600c60405f20015460a01c1661577b565b5f828152600f825260409020600c01546001600160a01b0390811661299257906012915f80516020615a3b8339815191525f526005825260405f20941693845f52815261293b60ff60405f2054166157bc565b825f52600f8152600c60405f2001846001600160601b0360a01b825416179055835f525261296c8160405f20615747565b7f75744be24424d6a47bbbe004b1eacc10689651bc26b2bbea30873c2c24109e645f80a3005b60405162461bcd60e51b815260048101839052601860248201527f4f4646494345525f414c52454144595f41535349474e454400000000000000006044820152606490fd5b34610672576020366003190112610672576004356129f3614a2c565b805f52600f602052612a1160ff600c60405f20015460a01c1661577b565b805f526015602052612a2860405f20541515615879565b805f52600f60205260405f20600e8101600360ff1982541617905560104291015560405190600382525f80516020615a7b83398151915260203393a3005b34610672575f36600319011261067257612a7e614a2c565b6007805460ff19166001179055005b34610672575f3660031901126106725760206040515f80516020615a3b8339815191528152f35b34610672576020366003190112610672576001600160a01b03612ad5614579565b165f525f602052602060405f2054604051908152f35b346106725760208060031936011261067257612b05614579565b612b0d6155a7565b506001600160a01b03165f818152600c8352604090206005015460a01c60ff1615612b59575f52600c8152612b4460405f206155e3565b906106de6040519282849384528301906147ca565b60405162461bcd60e51b81526004810183905260136024820152721554d15497d393d517d49151d254d511549151606a1b6044820152606490fd5b3461067257602080600319360112610672576004356001600160401b0381116106725781612bc9612bdc9236906004016144cc565b81604051938285809451938492016145a5565b8101600a8152030190209060405190818184549182815201935f52815f20915f905b828210612c15576106de8561075a818903826144ab565b83546001600160a01b031686529485019460019384019390910190612bfe565b3461067257602080600319360112610672576004356001600160401b0381116106725781612bc9612c6a9236906004016144cc565b8101600b8152030190209060405190818184549182815201935f52815f20915f905b828210612ca3576106de8561075a818903826144ab565b83546001600160a01b031686529485019460019384019390910190612c8c565b34610672575f36600319011261067257602060ff600754166040519015158152f35b34610672576020806003193601126106725760043590612d03614a2c565b81151580612e15575b612d15906157f6565b815f52600f815260ff600c60405f20015460a01c1615612dd157815f52600f815260018060a01b03600b60405f200154163314612d8d57600f90825f5252600c60405f200160ff60a01b19815416905533907fba1c16e049c7a348b951726f087bd968f9f40e6c64c8cf9ae55ed756ae6294405f80a3005b6064906040519062461bcd60e51b82526004820152601a60248201527f43414e4e4f545f52454d4f56455f4f574e5f50524f4a454354530000000000006044820152fd5b6064906040519062461bcd60e51b82526004820152601860248201527f50524f4a4543545f414c52454144595f494e41435449564500000000000000006044820152fd5b50601054821115612d0c565b346106725760208060031936011261067257600435612e3e614a2c565b805f52600f8252612e5b60ff600c60405f20015460a01c1661577b565b805f526015825260405f205491612e73831515615879565b825f526013815260ff600b60405f20015416612f26575f8381526013825260409020600b810180546001600160a81b0319163360081b610100600160a81b03161760011790555f80516020615a7b833981519152919060ff1990600c42910155835f52600f825260405f20906002600e830191825416179055601042910155604051933390847fafbd14bd2443e78a747c498b9bb972b104c1b045e856bacd1bddcd654efd99195f80a4600284523393a3005b6064906040519062461bcd60e51b82526004820152601760248201527f5245504f52545f414c52454144595f415050524f5645440000000000000000006044820152fd5b3461067257602036600319011261067257600435600d5481101561067257600d5f527fd7b6990105719101dabeb77144f2a3385c8033acd3af97e9423a695e81ad1eb501546040516001600160a01b039091168152602090f35b3461067257602036600319011261067257612fdd614579565b612fe5614a2c565b61306060018060a01b03821691825f52600860205261301060ff600560405f20015460a01c16615567565b825f52600860205261303d81610a2f610a2a600260405f206005810160ff60a01b19815416905501614623565b825f52600860205261305b81610a2f610a5a600460405f2001614623565b614baa565b507f30bd595e45ae31d69b2a46ec0c3825e96f059a6bca5d1bb010d7bb5b5a0851b960206040515f8152a2005b34610672575f366003190112610672576130a5614a2c565b6007805460ff19169055005b34610672576130bf3661485d565b939490926130cb614a2c565b6001600160a01b0382169586156132ad576130e881511515614fe7565b6130f484511515615023565b6131008651151561505f565b865f526020946008865260ff600560405f20015460a01c1661326f576040516131689161312c82614473565b838252848883015286604083015260608201528760808201528860a0820152600160c08201524260e0820152885f526008875260405f206150f6565b60095492600160401b841015610d7857600184018060095584101561325b577f30bd595e45ae31d69b2a46ec0c3825e96f059a6bca5d1bb010d7bb5b5a0851b996889561324161324e937fc5d4b575e5bdb27802d44e5cdbe4804d1c9b0c111cdf21a596835e7424e6c7c49760095f527f6e1540171b6c0c960b71a7020d9f60077f6af931a8bbf590da0223dacf75c7af01896001600160601b0360a01b825416179055613224816040518c818751610c908183858c016145a5565b61323c816040518c818851610cb88183858d016145a5565b614aa5565b506040519485948561551f565b0390a260405160018152a2005b634e487b7160e01b5f52603260045260245ffd5b60405162461bcd60e51b81526004810187905260166024820152754f4646494345525f414c52454144595f45584953545360501b6044820152606490fd5b60405162461bcd60e51b8152602060048201526016602482015275494e56414c49445f57414c4c45545f4144445245535360501b6044820152606490fd5b34610672576101803660031901126106725760e43580151581036106725761010435908115158203610672576101243580151581036106725761014435801515810361067257610164356001600160401b038111610672576133519036906004016144cc565b335f9081525f80516020615a5b833981519152602052604090205490929061337b9060ff166157bc565b6004355f52600f60205261339b60ff600c60405f20015460a01c1661577b565b6004355f908152600f60205260409020600c01546133c3906001600160a01b03163314615836565b6004355f52600f60205260ff600e60405f200154166004811015610652576001036138d65760243515613899576044351561385b576064351561381657608435156137d157606460a4351161378c5760c435156137475761342560145461566f565b94856014556040519461343786614457565b600435865233602087015260243560408701526044356060870152606435608087015260843560a087015260a43560c087015260c43560e08701521515610100860152151561012085015215156101408401521515610160830152610180820152426101a08201525f6101c08201525f6101e08201525f610200820152815f52601360205260405f2090805182556001820160018060a01b036020830151166001600160601b0360a01b82541617905560408101516002830155606081015160038301556080810151600483015560a0810151600583015560c0810151600683015560e08101516007830155600882016135446101008301511515829060ff801983541691151516179055565b6101208201511515815462ff000061014085015115159161ff0063ff000000610160880151151560181b169460081b169063ffffff001916179160101b16171790556101808101518051906001600160401b038211610d78576135b7826135ae60098701546145eb565b600987016150a3565b602090601f83116001146136d5579180600c9492610200945f926136ca575b50508160011b915f199060031b1c19161760098501555b6101a0810151600a850155613644600b850161361c6101c08401511515829060ff801983541691151516179055565b6101e08301518154610100600160a81b03191660089190911b610100600160a81b0316179055565b01519101556004355f5260156020528060405f2055600f60205260405f20600e8101600260ff198254161790556010429101556040519060c435825233917f7c67e1daa2aa74a8ce1cafa45a60e20be3f80e2375fc7063518ce1834e656ae3602060043592a46040516002815233905f80516020615a7b833981519152602060043592a3005b0151905087806135d6565b90600985015f5260205f20915f5b601f198516811061372f575092600c94926001926102009583601f19811610613717575b505050811b0160098501556135ed565b01515f1960f88460031b161c19169055878080613707565b919260206001819286850151815501940192016136e3565b60405162461bcd60e51b815260206004820152601860248201527f435245444954535f4d5553545f42455f504f53495449564500000000000000006044820152606490fd5b60405162461bcd60e51b815260206004820152601c60248201527f554e4345525441494e54595f4d5553545f42455f305f544f5f313030000000006044820152606490fd5b60405162461bcd60e51b815260206004820152601860248201527f42494f4d4153535f4d5553545f42455f504f53495449564500000000000000006044820152606490fd5b60405162461bcd60e51b815260206004820152601c60248201527f5541565f464c49474854535f4d5553545f42455f504f534954495645000000006044820152606490fd5b60405162461bcd60e51b8152602060048201526016602482015275504c4f54535f4d5553545f42455f504f53495449564560501b6044820152606490fd5b60405162461bcd60e51b8152602060048201526015602482015274415245415f4d5553545f42455f504f53495449564560581b6044820152606490fd5b60405162461bcd60e51b815260206004820152601c60248201527f564552494649434154494f4e5f4e4f545f494e5f50524f4752455353000000006044820152606490fd5b34610672575f366003190112610672576020601054604051908152f35b3461067257604036600319011261067257610870613954614579565b61395c614a2c565b61396b60ff6007541615615934565b60243590615972565b346106725760403660031901126106725761398d61458f565b336001600160a01b038216036139a95761087090600435614c2f565b60405163334bd91960e11b8152600490fd5b34610672575f366003190112610672576020601454604051908152f35b34610672575f36600319011261067257602060405160ff7f0000000000000000000000000000000000000000000000000000000000000000168152f35b34610672576020366003190112610672576004355f526015602052602060405f2054604051908152f35b3461067257604036600319011261067257613a58614579565b6001600160a01b03165f9081526011602052604090208054602435919082101561067257602091613a8891614564565b90546040519160031b1c8152f35b3461067257604036600319011261067257610870600435613ab561458f565b90805f526005602052613ace600160405f200154614a83565b614b31565b3461067257602080600319360112610672576004355f80516020615a3b8339815191525f526005825260405f20335f528252613b1560ff60405f2054166157bc565b805f52600f8252613b3260ff600c60405f20015460a01c1661577b565b5f818152600f835260409020600c0154613b56906001600160a01b03163314615836565b805f52600f825260ff600e60405f20015416600481101561065257613bb057805f52600f825260405f20600e8101600160ff19825416179055600f429101555f80516020615a7b83398151915260405192600184523393a3005b60405162461bcd60e51b815260048101839052601c60248201527f564552494649434154494f4e5f414c52454144595f53544152544544000000006044820152606490fd5b34610672576020613c086107e636614740565b8101600a81520301902080548210156106725760209161081a91614564565b34610672576020366003190112610672576004355f5260056020526020600160405f200154604051908152f35b3461067257606036600319011261067257613c6d614579565b613c7561458f565b6001600160a01b0382165f8181526001602090815260408083203384529091529020549260443592915f198510613cb2575b5061195c9350614ca4565b838510613d18578015613d00573315613ce85761195c9484915f52600160205260405f20335f526020520360405f205584613ca7565b604051634a1406b160e11b81525f6004820152602490fd5b60405163e602df0560e01b81525f6004820152602490fd5b604051637dc7a0d960e11b81523360048201526024810186905260448101859052606490fd5b3461067257602036600319011261067257613d57614579565b613d5f6155a7565b5060018060a01b03165f5260086020526106de613d7e60405f206155e3565b6040519182916020835260208301906147ca565b34610672575f366003190112610672576020600254604051908152f35b3461067257604036600319011261067257610870613dcb614579565b613dd3614a2c565b613de260ff6007541615615934565b6001600160a01b0381165f9081525f80516020615a5b83398151915260205260409020546119529060ff166157bc565b34610672576020366003190112610672576001600160a01b03613e33614579565b165f52600c602052602060ff600560405f20015460a01c166040519015158152f35b34610672576020366003190112610672576001600160a01b03613e76614579565b165f52601b602052602060405f2054604051908152f35b34610672575f366003190112610672576020601854604051908152f35b34610672576020366003190112610672576004355f52600f60205260405f20613ed281614623565b613ede60018301614623565b60e052613eed60028301614623565b60a052600382015491600481015460058201613f0890614623565b93613f1560068401614623565b94613f2260078501614623565b60088501546009860154613f38600a8801614623565b92600160a01b60019003998a600b8a015416608052600c89015495600d8a015497600e8b015460ff1699600f8c01549b601001549c6040518060c05261024080915260c05101613f87916145c6565b60c051808203906020015260e05190613f9f916145c6565b60c051808203906040015260a05190613fb7916145c6565b9160c0516060015260c0516080015260c0518082039060a00152613fda916145c6565b60c0518082039060c00152613fee916145c6565b60c0518082039060e00152614002916145c6565b9160c051610100015260c051610120015260c051808203906101400152614028916145c6565b9560805160c0516101600152811660c051610180015260a01c60ff16151560c0516101a0015260c0516101c0015260c0516101e001614066916147bd565b60c051610200015260c051610220015260c05180910390f35b3461067257604036600319011261067257614098614579565b6001600160a01b03165f9081526012602052604090208054602435919082101561067257602091613a8891614564565b346106725760206140db6107e636614740565b8101600e81520301902080548210156106725760209161081a91614564565b34610672576020366003190112610672576001600160a01b0361411b614579565b165f526019602052602060405f2054604051908152f35b346106725760403660031901126106725761414b614579565b602435903315613d00576001600160a01b0316908115613ce857335f52600160205260405f20825f526020528060405f20556040519081527f8c5be1e5ebec7d5bd14f71427d1e84f3dd0314c0f7b2291e5b200ac8c7c3b92560203392a3602060405160018152f35b34610672576020366003190112610672576001600160a01b03806141d6614579565b165f52600860205260405f20906106de6119a283614623565b34610672575f366003190112610672576040515f60035461420f816145eb565b808452906001908181169081156126c05750600114614238576106de84612652818603826144ab565b60035f90815292507fc2575a0e9e593c00f959f8c92f12db2869c3395a3b0502d05e2516446f71f85b5b82841061427a57505050810160200161265282612642565b80546020858701810191909152909301928101614262565b34610672576040366003190112610672576142ab614579565b6024359081151591828103610672577f30bd595e45ae31d69b2a46ec0c3825e96f059a6bca5d1bb010d7bb5b5a0851b9916020916142e7614a2c565b1561430a576142f581614aa5565b505b6040519384526001600160a01b031692a2005b61431381614baa565b506142f7565b34610672576020366003190112610672576004356009548110156106725760095f527f6e1540171b6c0c960b71a7020d9f60077f6af931a8bbf590da0223dacf75c7af01546040516001600160a01b039091168152602090f35b346106725760203660031901126106725760043563ffffffff60e01b811680910361067257602090637965db0b60e01b81149081156143b8575b506040519015158152f35b6301ffc9a760e01b149050826143ad565b3461067257602080600319360112610672576004356001600160401b0381116106725781612bc96143fe9236906004016144cc565b8101600e8152030190209060405190818184549182815201935f52815f20915f905b828210614437576106de8561075a818903826144ab565b83546001600160a01b031686529485019460019384019390910190614420565b61022081019081106001600160401b03821117610d7857604052565b61010081019081106001600160401b03821117610d7857604052565b61024081019081106001600160401b03821117610d7857604052565b90601f801991011681019081106001600160401b03821117610d7857604052565b81601f82011215610672578035906001600160401b038211610d785760405192614500601f8401601f1916602001856144ab565b8284526020838301011161067257815f926020809301838601378301015290565b602090816040818301928281528551809452019301915f5b828110614547575050505090565b83516001600160a01b031685529381019392810192600101614539565b805482101561325b575f5260205f2001905f90565b600435906001600160a01b038216820361067257565b602435906001600160a01b038216820361067257565b5f5b8381106145b65750505f910152565b81810151838201526020016145a7565b906020916145df815180928185528580860191016145a5565b601f01601f1916010190565b90600182811c92168015614619575b602083101461460557565b634e487b7160e01b5f52602260045260245ffd5b91607f16916145fa565b9060405191825f825492614636846145eb565b9081845260019485811690815f146146a15750600114614661575b505061465f925003836144ab565b565b909391505f52602090815f20935f915b81831061468957505061465f93508201015f80614651565b85548884018501529485019487945091830191614671565b91505061465f94506020925060ff191682840152151560051b8201015f80614651565b949193614709614725946146fb60e0999c9b9a976146ed61471796610100808d528c01906145c6565b908a820360208c01526145c6565b9088820360408a01526145c6565b9086820360608801526145c6565b9084820360808601526145c6565b6001600160a01b0390961660a0830152151560c08201520152565b604060031982011261067257600435906001600160401b0382116106725761476a916004016144cc565b9060243590565b602061478a9181604051938285809451938492016145a5565b8101600a81520301902090565b60206147b09181604051938285809451938492016145a5565b8101600b81520301902090565b9060048210156106525752565b9060e0806148356148236148116147ff6147ed8851610100808a528901906145c6565b602089015188820360208a01526145c6565b604088015187820360408901526145c6565b606087015186820360608801526145c6565b608086015185820360808701526145c6565b60a0808601516001600160a01b03169085015260c08086015115159085015293015191015290565b9060c060031983011261067257600480356001600160a01b038116810361067257926001600160401b03602435818111610672578261489d9185016144cc565b9360443582811161067257836148b49186016144cc565b9360643583811161067257846148cb9183016144cc565b9360843584811161067257816148e29184016144cc565b9360a435908111610672576148f792016144cc565b90565b34610672575f3660031901126106725760206040515f8152f35b602081528151602082015260018060a01b038060208401511660408301526040830151606083015260608301516080830152608083015160a083015260a083015160c083015260c083015160e083015260e083015161010090818401528301511515610120908184015283015115156101409081840152830151151561016090818401528301511515610180908184015283015192610220916149c46101a09584878701526102408601906145c6565b948201516101c0908186015282015115156101e0908186015282015116906102009182850152015191015290565b602090816040818301928281528551809452019301915f5b828110614a18575050505090565b835185529381019392810192600101614a0a565b335f9081527f05b8ccbb9d4d8fb16ea74ce3c29a41f1b461fbdaff4714a0d9a8eb05499746bc602052604081205460ff1615614a655750565b6044906040519063e2517d3f60e01b82523360048301526024820152fd5b805f52600560205260405f20335f5260205260ff60405f20541615614a655750565b6001600160a01b03165f8181525f80516020615a5b83398151915260205260408120549091905f80516020615a3b8339815191529060ff16614b2c5780835260056020526040832082845260205260408320600160ff198254161790557f2f8788117e7eff1d82e926ec794901d17c78024a50270940304540a733656f0d339380a4600190565b505090565b905f918083526005602052604083209160018060a01b03169182845260205260ff604084205416155f14614b2c5780835260056020526040832082845260205260408320600160ff198254161790557f2f8788117e7eff1d82e926ec794901d17c78024a50270940304540a733656f0d339380a4600190565b6001600160a01b03165f8181525f80516020615a5b83398151915260205260408120549091905f80516020615a3b8339815191529060ff1615614b2c578083526005602052604083208284526020526040832060ff1981541690557ff6391f5c32d9c69d2a47ea670b442974b53935d1edc7fd64eb21e047a839171b339380a4600190565b905f918083526005602052604083209160018060a01b03169182845260205260ff6040842054165f14614b2c578083526005602052604083208284526020526040832060ff1981541690557ff6391f5c32d9c69d2a47ea670b442974b53935d1edc7fd64eb21e047a839171b339380a4600190565b6001600160a01b0380821693928415614fcf5716928315614fb75760ff614ccf816007541615615934565b5f8281527f05b8ccbb9d4d8fb16ea74ce3c29a41f1b461fbdaff4714a0d9a8eb05499746bc60209081526040808320545f80516020615a5b83398151915283528184205491969395929492935f80516020615a3b83398151915293926005929084169084168015614fb0575b15614f7a57614eee575b8487528686528787205490898210614ebd57508890858852878752038787205588865286862088815401905588847fddf252ad1be2c89b69c2b068fc378daa952ba7f163c4a11628f55a4df523b3ef878a518c8152a3858052808552868620848752855281878720541680614ea3575b15614dd65750505050601990614dd2949583525220918254615a2d565b9055565b828697949895965280865283872088885286528184882054169283614e87575b83614e6b575b505050614e0c575b505050505050565b8084867f7fd452ddcdbd40375d72ae119897b67a769104e22b9abac90f671e9a3b1e12079652601a8552818120614e44858254615a2d565b9055878152601b855220614e59838254615a2d565b905551908152a35f8080808080614e04565b87528552828620888752855282862054161590505f8080614dfc565b8780528187528488208a89528752848820548316159350614df6565b508286528085528686208987528552818787205416614db5565b885163391434e360e21b81526001600160a01b03919091166004820152602481019190915260448101899052606490fd5b8680528186528787208a885286528288882054161580614f5f575b614d4557875162461bcd60e51b815260048101879052602560248201527f4f4646494345525f544f5f41444d494e5f4f525f4f4646494345525f464f524260448201526424a22222a760d91b6064820152608490fd5b508387528186528787208a8852865282888820541615614f09565b885162461bcd60e51b815260048101889052600f60248201526e1514905394d1915497d11153925151608a1b6044820152606490fd5b5080614d3b565b60405163ec442f0560e01b81525f6004820152602490fd5b604051634b637e8f60e11b81525f6004820152602490fd5b15614fee57565b60405162461bcd60e51b815260206004820152600d60248201526c1390535157d491545552549151609a1b6044820152606490fd5b1561502a57565b60405162461bcd60e51b815260206004820152600d60248201526c1054915057d491545552549151609a1b6044820152606490fd5b1561506657565b60405162461bcd60e51b81526020600482015260156024820152741295549254d11250d51253d397d491545552549151605a1b6044820152606490fd5b90601f81116150b157505050565b5f91825260208220906020601f850160051c830194106150ec575b601f0160051c01915b8281106150e157505050565b8181556001016150d5565b90925082906150cc565b90805180516001600160401b0391828211610d7857819061511b82611c1e88546145eb565b602090601f831160011461547a575f9261546f575b50508160011b915f199060031b1c19161783555b6001908184016020840151805190838211610d7857819061516982610bb586546145eb565b602090601f8311600114615410575f92615405575b50505f19600383901b1c191690841b1790555b600284016040840151805190838211610d785781906151b482610bb586546145eb565b602090601f83116001146153a6575f9261539b575b50505f19600383901b1c191690841b1790555b600384016060840151805190838211610d785781906151ff82610bb586546145eb565b602090601f831160011461533c575f92615331575b50505f19600383901b1c191690841b1790555b600484019160808401518051928311610d785761524883610bb586546145eb565b602090601f84116001146152c857928060e095938193600698965f946152bd575b50501b915f199060031b1c19161790555b60a08181015160058601805460c08501516001600160a81b03199091166001600160a01b03939093169290921791151590921b60ff60a01b161790550151910155565b015192505f80615269565b90601f93929319831691855f52815f20925f5b81811061531b5750916006979593918560e098969410615303575b505050811b01905561527a565b01515f1960f88460031b161c191690555f80806152f6565b82840151855593860193602093840193016152db565b015190505f80615214565b90869350601f19831691855f52815f20925f5b8181106153835750841161536b575b505050811b019055615227565b01515f1960f88460031b161c191690555f808061535e565b8284015185558996909401936020938401930161534f565b015190505f806151c9565b90869350601f19831691855f52815f20925f5b8181106153ed575084116153d5575b505050811b0190556151dc565b01515f1960f88460031b161c191690555f80806153c8565b828401518555899690940193602093840193016153b9565b015190505f8061517e565b90869350601f19831691855f52815f20925f5b8181106154575750841161543f575b505050811b019055615191565b01515f1960f88460031b161c191690555f8080615432565b82840151855589969094019360209384019301615423565b015190505f80615130565b5f8781528281209350601f198516905b8181106154c557509084600195949392106154ad575b505050811b018355615144565b01515f1960f88460031b161c191690555f80806154a0565b9293602060018192878601518155019501930161548a565b90815491600160401b831015610d78578261550091600161465f95018155614564565b90919082549060031b9160018060a01b03809116831b921b1916179055565b9261554b6148f7959361553d615559946080885260808801906145c6565b9086820360208801526145c6565b9084820360408601526145c6565b9160608184039101526145c6565b1561556e57565b60405162461bcd60e51b815260206004820152601160248201527013d1919250d15497d393d517d193d55391607a1b6044820152606490fd5b604051906155b482614473565b5f60e0836060808252806020830152806040830152808083015260808201528260a08201528260c08201520152565b906040516155f081614473565b60e0600682946155ff81614623565b845261560d60018201614623565b602085015261561e60028201614623565b604085015261562f60038201614623565b606085015261564060048201614623565b608085015260058101546001600160a01b03811660a0808701919091521c60ff16151560c08501520154910152565b5f19811461567d5760010190565b634e487b7160e01b5f52601160045260245ffd5b5f915b81549283811015615741576156a98184614564565b90546003956001600160a01b0392909190871b1c8216848316146156dc5750506156d59192935061566f565b9190615694565b9092505f199182820191821161567d57615500846156fd61570b9488614564565b905490891b1c169186614564565b8254801561572d57019261571f8484614564565b81939154921b1b1916905555565b634e487b7160e01b5f52603160045260245ffd5b50505050565b8054600160401b811015610d785761576491600182018155614564565b819291549060031b91821b915f19901b1916179055565b1561578257565b60405162461bcd60e51b815260206004820152601260248201527150524f4a4543545f4e4f545f41435449564560701b6044820152606490fd5b156157c357565b60405162461bcd60e51b815260206004820152600b60248201526a2727aa2fa7a32324a1a2a960a91b6044820152606490fd5b156157fd57565b60405162461bcd60e51b8152602060048201526011602482015270141493d29150d517d393d517d193d55391607a1b6044820152606490fd5b1561583d57565b60405162461bcd60e51b81526020600482015260146024820152732727aa2fa0a9a9a4a3a722a22fa7a32324a1a2a960611b6044820152606490fd5b1561588057565b60405162461bcd60e51b815260206004820152600f60248201526e1393d7d4915413d49517d193d55391608a1b6044820152606490fd5b604051906158c482614457565b816102005f918281528260208201528260408201528260608201528260808201528260a08201528260c08201528260e0820152826101008201528261012082015282610140820152826101608201526060610180820152826101a0820152826101c0820152826101e08201520152565b1561593b57565b60405162461bcd60e51b815260206004820152600f60248201526e10d3d395149050d517d4105554d151608a1b6044820152606490fd5b91906001600160a01b0383168015614fcf5761599360ff6007541615615934565b5f90808252816020526040822054948386106159fc5750826159f794958284528360205203604083205582600254036002557fddf252ad1be2c89b69c2b068fc378daa952ba7f163c4a11628f55a4df523b3ef6020604051858152a3601854615a2d565b601855565b60405163391434e360e21b81526001600160a01b039190911660048201526024810186905260448101849052606490fd5b9190820180921161567d5756febbecb2568601cb27e6ced525237c463da94c4fb7a9b98ac79fd30fd56d8e1b532fa8f587092d7d44a38a322af7507fcb499f2566c7778f70891c809523042b880ac8d813695d1bdb3648e7d9944ac94bb360cf2e92060ccb43dd19ad0f0f34caa2646970667358221220d9fe2e5c3ac6fa739dbb1d0cd127f7ad05f8b446cbc50d5c796492a4ed540d1064736f6c63430008140033",
  "linkReferences": {},
  "deployedLinkReferences": {},
  "immutableReferences": {
    "1291": [
      {
        "length": 32,
        "start": 14833
      }
    ]
  },
  "inputSourceName": "project/contract/credit.sol",
  "buildInfoId": "solc-0_8_20-547ce1e595581e98cd72ac5b168a53d7bd7fc36b"
}